{
    "contractName": "AgreementContract",
    "abi": [
        {
            "inputs": [
                {
                    "internalType": "address",
                    "name": "_dataUsageContractAddress",
                    "type": "address"
                }
            ],
            "stateMutability": "nonpayable",
            "type": "constructor"
        },
        {
            "anonymous": false,
            "inputs": [
                {
                    "indexed": true,
                    "internalType": "address",
                    "name": "userAddress",
                    "type": "address"
                },
                {
                    "indexed": true,
                    "internalType": "address",
                    "name": "actorAddress",
                    "type": "address"
                },
                {
                    "indexed": true,
                    "internalType": "uint256",
                    "name": "usageID",
                    "type": "uint256"
                },
                {
                    "components": [
                        {
                            "internalType": "address",
                            "name": "actorAddress",
                            "type": "address"
                        },
                        {
                            "internalType": "address",
                            "name": "userAddress",
                            "type": "address"
                        },
                        {
                            "internalType": "string",
                            "name": "serviceName",
                            "type": "string"
                        },
                        {
                            "internalType": "string",
                            "name": "servicePurpose",
                            "type": "string"
                        },
                        {
                            "internalType": "string",
                            "name": "operation",
                            "type": "string"
                        },
                        {
                            "internalType": "string[]",
                            "name": "personalData",
                            "type": "string[]"
                        }
                    ],
                    "indexed": false,
                    "internalType": "struct DataUsage",
                    "name": "dataUsage",
                    "type": "tuple"
                },
                {
                    "indexed": false,
                    "internalType": "bool",
                    "name": "consent",
                    "type": "bool"
                }
            ],
            "name": "UserVote",
            "type": "event"
        },
        {
            "inputs": [],
            "name": "getContractAddress",
            "outputs": [
                {
                    "internalType": "address",
                    "name": "",
                    "type": "address"
                }
            ],
            "stateMutability": "view",
            "type": "function"
        },
        {
            "inputs": [
                {
                    "internalType": "uint256",
                    "name": "usageID",
                    "type": "uint256"
                }
            ],
            "name": "retrieveVote",
            "outputs": [
                {
                    "components": [
                        {
                            "internalType": "address",
                            "name": "userAddress",
                            "type": "address"
                        },
                        {
                            "internalType": "uint256",
                            "name": "usageID",
                            "type": "uint256"
                        },
                        {
                            "internalType": "bool",
                            "name": "consent",
                            "type": "bool"
                        }
                    ],
                    "internalType": "struct Vote",
                    "name": "",
                    "type": "tuple"
                }
            ],
            "stateMutability": "view",
            "type": "function"
        },
        {
            "inputs": [
                {
                    "internalType": "uint256",
                    "name": "usageID",
                    "type": "uint256"
                },
                {
                    "internalType": "bool",
                    "name": "consent",
                    "type": "bool"
                }
            ],
            "name": "vote",
            "outputs": [],
            "stateMutability": "nonpayable",
            "type": "function"
        }
    ],
    "bytecode": "608060405234801561001057600080fd5b506040516108aa3803806108aa83398101604081905261002f9161006c565b600080546001600160a01b03199081163317909155600180546001600160a01b03939093169282168317905560028054909116909117905561009c565b60006020828403121561007e57600080fd5b81516001600160a01b038116811461009557600080fd5b9392505050565b6107ff806100ab6000396000f3fe608060405234801561001057600080fd5b50600436106100415760003560e01c80632063455f1461004657806332a2c5d0146100df578063c9d27afe146100ed575b600080fd5b6100ad61005436600461039b565b60408051606080820183526000808352602080840182905292840181905293845260038252928290208251938401835280546001600160a01b031684526001810154918401919091526002015460ff1615159082015290565b6040805182516001600160a01b0316815260208084015190820152918101511515908201526060015b60405180910390f35b6040513081526020016100d6565b6101006100fb3660046103b4565b610102565b005b60025460405163a812ee2960e01b8152600481018490526000916001600160a01b03169063a812ee2990602401600060405180830381865afa15801561014c573d6000803e3d6000fd5b505050506040513d6000823e601f3d908101601f1916820160405261017491908101906105b0565b60208101519091506001600160a01b03166101f15760405162461bcd60e51b815260206004820152603260248201527f43616e27742066696e6420746869732064617461207573616765207265636f7260448201527119081dda5d1a081d1a19481d5cd859d9525160721b60648201526084015b60405180910390fd5b80602001516001600160a01b0316336001600160a01b0316146102705760405162461bcd60e51b815260206004820152603160248201527f546865207573657220646f65736e27742062656c6f6e6720746f20746869732060448201527019185d18481d5cd859d9481c9958dbdc99607a1b60648201526084016101e8565b6000838152600360205260409020546001600160a01b03166102e85760405162461bcd60e51b815260206004820152602b60248201527f55736572206861766520616c726561647920766f746520666f7220746869732060448201526a646174612075736167652160a81b60648201526084016101e8565b604080516060810182526020838101516001600160a01b0390811683528183018781528615158486019081526000898152600390945292859020935184546001600160a01b03191690831617845551600184015590516002909201805460ff1916921515929092179091558251915185929091169033907fbc3c2d6a20967f5d858af632d65b844e1c8fbfe09a636397eb582bb95e5ffced9061038e90869088906106d7565b60405180910390a4505050565b6000602082840312156103ad57600080fd5b5035919050565b600080604083850312156103c757600080fd5b82359150602083013580151581146103de57600080fd5b809150509250929050565b634e487b7160e01b600052604160045260246000fd5b60405160c0810167ffffffffffffffff81118282101715610422576104226103e9565b60405290565b604051601f8201601f1916810167ffffffffffffffff81118282101715610451576104516103e9565b604052919050565b80516001600160a01b038116811461047057600080fd5b919050565b60005b83811015610490578181015183820152602001610478565b8381111561049f576000848401525b50505050565b600082601f8301126104b657600080fd5b815167ffffffffffffffff8111156104d0576104d06103e9565b6104e3601f8201601f1916602001610428565b8181528460208386010111156104f857600080fd5b610509826020830160208701610475565b949350505050565b600082601f83011261052257600080fd5b8151602067ffffffffffffffff8083111561053f5761053f6103e9565b8260051b61054e838201610428565b938452858101830193838101908886111561056857600080fd5b84880192505b858310156105a4578251848111156105865760008081fd5b6105948a87838c01016104a5565b835250918401919084019061056e565b98975050505050505050565b6000602082840312156105c257600080fd5b815167ffffffffffffffff808211156105da57600080fd5b9083019060c082860312156105ee57600080fd5b6105f66103ff565b6105ff83610459565b815261060d60208401610459565b602082015260408301518281111561062457600080fd5b610630878286016104a5565b60408301525060608301518281111561064857600080fd5b610654878286016104a5565b60608301525060808301518281111561066c57600080fd5b610678878286016104a5565b60808301525060a08301518281111561069057600080fd5b61069c87828601610511565b60a08301525095945050505050565b600081518084526106c3816020860160208601610475565b601f01601f19169290920160200192915050565b604080825283516001600160a01b039081168383015260208086015190911660608401529084015160c060808401526000916107176101008501836106ab565b91506060860151603f19808685030160a087015261073584836106ab565b935060808801519150808685030160c087015261075284836106ab565b60a089015187820390920160e08801528151808252909450908301915082840190600581901b8501840160005b828110156107ad57601f1987830301845261079b8286516106ab565b9486019493860193915060010161077f565b508815158589015295506107c092505050565b5050939250505056fea26469706673582212207d6abfe602755b6c9ace201c5bbfc9128bb5d572d3ce4a1c8a09265ce876ab6664736f6c634300080d0033",
    "sourcePath": "e:/Workspace/gdpr-smart-contract/contracts/SC_Agreement.sol",
    "compiler": {
        "name": "solc",
        "version": "0.8.13+commit.abaa5c0e"
    },
    "functionHashes": {
        "getContractAddress()": "32a2c5d0",
        "retrieveVote(uint256)": "2063455f",
        "vote(uint256,bool)": "c9d27afe"
    },
    "gasEstimates": {
        "creation": {
            "codeDepositCost": "409400",
            "executionCost": "infinite",
            "totalCost": "infinite"
        },
        "external": {
            "getContractAddress()": "176",
            "retrieveVote(uint256)": "6896",
            "vote(uint256,bool)": "infinite"
        }
    }
}