{
    "contractName": "DataUsageContract",
    "abi": [
        {
            "inputs": [],
            "stateMutability": "nonpayable",
            "type": "constructor"
        },
        {
            "anonymous": false,
            "inputs": [
                {
                    "indexed": true,
                    "internalType": "address",
                    "name": "actorAddress",
                    "type": "address"
                },
                {
                    "indexed": true,
                    "internalType": "address",
                    "name": "userAddress",
                    "type": "address"
                },
                {
                    "indexed": true,
                    "internalType": "uint256",
                    "name": "usageID",
                    "type": "uint256"
                },
                {
                    "components": [
                        {
                            "internalType": "address",
                            "name": "actorAddress",
                            "type": "address"
                        },
                        {
                            "internalType": "address",
                            "name": "userAddress",
                            "type": "address"
                        },
                        {
                            "internalType": "string",
                            "name": "serviceName",
                            "type": "string"
                        },
                        {
                            "internalType": "string",
                            "name": "servicePurpose",
                            "type": "string"
                        },
                        {
                            "internalType": "string",
                            "name": "operation",
                            "type": "string"
                        },
                        {
                            "internalType": "string[]",
                            "name": "personalData",
                            "type": "string[]"
                        }
                    ],
                    "indexed": false,
                    "internalType": "struct DataUsage",
                    "name": "dataUsage",
                    "type": "tuple"
                }
            ],
            "name": "UseData",
            "type": "event"
        },
        {
            "inputs": [],
            "name": "getContractAddress",
            "outputs": [
                {
                    "internalType": "address",
                    "name": "",
                    "type": "address"
                }
            ],
            "stateMutability": "view",
            "type": "function"
        },
        {
            "inputs": [
                {
                    "internalType": "uint256",
                    "name": "_usageID",
                    "type": "uint256"
                }
            ],
            "name": "retrieveDataUsage",
            "outputs": [
                {
                    "components": [
                        {
                            "internalType": "address",
                            "name": "actorAddress",
                            "type": "address"
                        },
                        {
                            "internalType": "address",
                            "name": "userAddress",
                            "type": "address"
                        },
                        {
                            "internalType": "string",
                            "name": "serviceName",
                            "type": "string"
                        },
                        {
                            "internalType": "string",
                            "name": "servicePurpose",
                            "type": "string"
                        },
                        {
                            "internalType": "string",
                            "name": "operation",
                            "type": "string"
                        },
                        {
                            "internalType": "string[]",
                            "name": "personalData",
                            "type": "string[]"
                        }
                    ],
                    "internalType": "struct DataUsage",
                    "name": "",
                    "type": "tuple"
                }
            ],
            "stateMutability": "view",
            "type": "function"
        },
        {
            "inputs": [
                {
                    "internalType": "address",
                    "name": "userAddress",
                    "type": "address"
                },
                {
                    "internalType": "string",
                    "name": "serviceName",
                    "type": "string"
                },
                {
                    "internalType": "string",
                    "name": "servicePurpose",
                    "type": "string"
                },
                {
                    "internalType": "string",
                    "name": "operation",
                    "type": "string"
                },
                {
                    "internalType": "string[]",
                    "name": "personalData",
                    "type": "string[]"
                }
            ],
            "name": "useData",
            "outputs": [
                {
                    "internalType": "uint256",
                    "name": "",
                    "type": "uint256"
                }
            ],
            "stateMutability": "nonpayable",
            "type": "function"
        }
    ],
    "bytecode": "6080604052600060015534801561001557600080fd5b50600080546001600160a01b03191633179055610a5f806100376000396000f3fe608060405234801561001057600080fd5b50600436106100415760003560e01c806332a2c5d0146100465780636ad4cb8614610059578063a812ee291461007a575b600080fd5b6040513081526020015b60405180910390f35b61006c6100673660046107bb565b61009a565b604051908152602001610050565b61008d610088366004610887565b610200565b60405161005091906108ed565b6040805160c081018252338082526001600160a01b0388166020830152918101869052606081018590526080810184905260a08101839052600180546000939291846100e5836109c8565b909155505060018054600090815260026020818152604092839020855181546001600160a01b039182166001600160a01b03199182161783558388015196830180549790921696169590951790945591840151805185949361014b938501920190610519565b5060608201518051610167916003840191602090910190610519565b5060808201518051610183916004840191602090910190610519565b5060a0820151805161019f91600584019160209091019061059d565b50905050600154886001600160a01b0316836001600160a01b03167fd4dae4497457f68865b28ba7e111886379f539aae52d03b9c2773d32b531e894846040516101e991906108ed565b60405180910390a450506001549695505050505050565b61024b6040518060c0016040528060006001600160a01b0316815260200160006001600160a01b03168152602001606081526020016060815260200160608152602001606081525090565b600082815260026020818152604092839020835160c08101855281546001600160a01b0390811682526001830154169281019290925291820180549193840191610294906109ef565b80601f01602080910402602001604051908101604052809291908181526020018280546102c0906109ef565b801561030d5780601f106102e25761010080835404028352916020019161030d565b820191906000526020600020905b8154815290600101906020018083116102f057829003601f168201915b50505050508152602001600382018054610326906109ef565b80601f0160208091040260200160405190810160405280929190818152602001828054610352906109ef565b801561039f5780601f106103745761010080835404028352916020019161039f565b820191906000526020600020905b81548152906001019060200180831161038257829003601f168201915b505050505081526020016004820180546103b8906109ef565b80601f01602080910402602001604051908101604052809291908181526020018280546103e4906109ef565b80156104315780601f1061040657610100808354040283529160200191610431565b820191906000526020600020905b81548152906001019060200180831161041457829003601f168201915b5050505050815260200160058201805480602002602001604051908101604052809291908181526020016000905b8282101561050b57838290600052602060002001805461047e906109ef565b80601f01602080910402602001604051908101604052809291908181526020018280546104aa906109ef565b80156104f75780601f106104cc576101008083540402835291602001916104f7565b820191906000526020600020905b8154815290600101906020018083116104da57829003601f168201915b50505050508152602001906001019061045f565b505050915250909392505050565b828054610525906109ef565b90600052602060002090601f016020900481019282610547576000855561058d565b82601f1061056057805160ff191683800117855561058d565b8280016001018555821561058d579182015b8281111561058d578251825591602001919060010190610572565b506105999291506105f6565b5090565b8280548282559060005260206000209081019282156105ea579160200282015b828111156105ea57825180516105da918491602090910190610519565b50916020019190600101906105bd565b5061059992915061060b565b5b8082111561059957600081556001016105f7565b8082111561059957600061061f8282610628565b5060010161060b565b508054610634906109ef565b6000825580601f10610644575050565b601f01602090049060005260206000209081019061066291906105f6565b50565b634e487b7160e01b600052604160045260246000fd5b604051601f8201601f1916810167ffffffffffffffff811182821017156106a4576106a4610665565b604052919050565b600082601f8301126106bd57600080fd5b813567ffffffffffffffff8111156106d7576106d7610665565b6106ea601f8201601f191660200161067b565b8181528460208386010111156106ff57600080fd5b816020850160208301376000918101602001919091529392505050565b600082601f83011261072d57600080fd5b8135602067ffffffffffffffff8083111561074a5761074a610665565b8260051b61075983820161067b565b938452858101830193838101908886111561077357600080fd5b84880192505b858310156107af578235848111156107915760008081fd5b61079f8a87838c01016106ac565b8352509184019190840190610779565b98975050505050505050565b600080600080600060a086880312156107d357600080fd5b85356001600160a01b03811681146107ea57600080fd5b9450602086013567ffffffffffffffff8082111561080757600080fd5b61081389838a016106ac565b9550604088013591508082111561082957600080fd5b61083589838a016106ac565b9450606088013591508082111561084b57600080fd5b61085789838a016106ac565b9350608088013591508082111561086d57600080fd5b5061087a8882890161071c565b9150509295509295909350565b60006020828403121561089957600080fd5b5035919050565b6000815180845260005b818110156108c6576020818501810151868301820152016108aa565b818111156108d8576000602083870101525b50601f01601f19169290920160200192915050565b6000602080835260018060a01b038085511682850152808286015116604085015250604084015160c0606085015261092860e08501826108a0565b90506060850151601f198086840301608087015261094683836108a0565b925060808701519150808684030160a087015261096383836108a0565b60a0880151878203830160c089015280518083529194508501925084840190600581901b8501860160005b828110156109ba57848783030184526109a88287516108a0565b9588019593880193915060010161098e565b509998505050505050505050565b6000600182016109e857634e487b7160e01b600052601160045260246000fd5b5060010190565b600181811c90821680610a0357607f821691505b602082108103610a2357634e487b7160e01b600052602260045260246000fd5b5091905056fea2646970667358221220fcd3bb23b4f3d52da377d6460ad17d3e72c487da057806f54e596fd157d97d7f64736f6c634300080d0033",
    "sourcePath": "e:/Workspace/gdpr-smart-contract/contracts/SC_DataUsage.sol",
    "compiler": {
        "name": "solc",
        "version": "0.8.13+commit.abaa5c0e"
    },
    "functionHashes": {
        "getContractAddress()": "32a2c5d0",
        "retrieveDataUsage(uint256)": "a812ee29",
        "useData(address,string,string,string,string[])": "6ad4cb86"
    },
    "gasEstimates": {
        "creation": {
            "codeDepositCost": "531000",
            "executionCost": "29803",
            "totalCost": "560803"
        },
        "external": {
            "getContractAddress()": "143",
            "retrieveDataUsage(uint256)": "infinite",
            "useData(address,string,string,string,string[])": "infinite"
        }
    }
}