{
    "contractName": "LogContract",
    "abi": [
        {
            "inputs": [
                {
                    "internalType": "address",
                    "name": "_dataUsageContractAddress",
                    "type": "address"
                }
            ],
            "stateMutability": "nonpayable",
            "type": "constructor"
        },
        {
            "anonymous": false,
            "inputs": [
                {
                    "indexed": false,
                    "internalType": "address",
                    "name": "actorAddress",
                    "type": "address"
                },
                {
                    "indexed": false,
                    "internalType": "address",
                    "name": "userAddress",
                    "type": "address"
                },
                {
                    "indexed": false,
                    "internalType": "uint256",
                    "name": "usageID",
                    "type": "uint256"
                },
                {
                    "components": [
                        {
                            "internalType": "address",
                            "name": "actorAddress",
                            "type": "address"
                        },
                        {
                            "internalType": "address",
                            "name": "userAddress",
                            "type": "address"
                        },
                        {
                            "internalType": "string",
                            "name": "serviceName",
                            "type": "string"
                        },
                        {
                            "internalType": "string",
                            "name": "servicePurpose",
                            "type": "string"
                        },
                        {
                            "internalType": "string",
                            "name": "operation",
                            "type": "string"
                        },
                        {
                            "internalType": "string[]",
                            "name": "personalData",
                            "type": "string[]"
                        }
                    ],
                    "indexed": false,
                    "internalType": "struct DataUsage",
                    "name": "dataUsage",
                    "type": "tuple"
                },
                {
                    "indexed": false,
                    "internalType": "string[]",
                    "name": "processedData",
                    "type": "string[]"
                }
            ],
            "name": "LogDataProcess",
            "type": "event"
        },
        {
            "inputs": [],
            "name": "getContractAddress",
            "outputs": [
                {
                    "internalType": "address",
                    "name": "",
                    "type": "address"
                }
            ],
            "stateMutability": "view",
            "type": "function"
        },
        {
            "inputs": [
                {
                    "internalType": "address",
                    "name": "actorAddress",
                    "type": "address"
                },
                {
                    "internalType": "address",
                    "name": "userAddress",
                    "type": "address"
                },
                {
                    "internalType": "uint256",
                    "name": "usageID",
                    "type": "uint256"
                },
                {
                    "internalType": "string[]",
                    "name": "processedData",
                    "type": "string[]"
                }
            ],
            "name": "log",
            "outputs": [],
            "stateMutability": "nonpayable",
            "type": "function"
        }
    ],
    "bytecode": "608060405234801561001057600080fd5b50604051610ae9380380610ae983398101604081905261002f9161006c565b600080546001600160a01b03199081163317909155600180546001600160a01b03939093169282168317905560028054909116909117905561009c565b60006020828403121561007e57600080fd5b81516001600160a01b038116811461009557600080fd5b9392505050565b610a3e806100ab6000396000f3fe608060405234801561001057600080fd5b50600436106100365760003560e01c806332a2c5d01461003b578063b8862cbf1461004e575b600080fd5b6040805130815290519081900360200190f35b61006161005c36600461054a565b610063565b005b60025460405163a812ee2960e01b8152600481018490526000916001600160a01b03169063a812ee2990602401600060405180830381865afa1580156100ad573d6000803e3d6000fd5b505050506040513d6000823e601f3d908101601f191682016040526100d59190810190610785565b60208101519091506001600160a01b03166101525760405162461bcd60e51b815260206004820152603260248201527f43616e27742066696e6420746869732064617461207573616765207265636f7260448201527119081dda5d1a081d1a19481d5cd859d9525160721b60648201526084015b60405180910390fd5b80516001600160a01b038681169116146101c95760405162461bcd60e51b815260206004820152603260248201527f546865206163746f7220646f65736e27742062656c6f6e6720746f20746869736044820152710819185d18481d5cd859d9481c9958dbdc9960721b6064820152608401610149565b80602001516001600160a01b0316846001600160a01b0316146102485760405162461bcd60e51b815260206004820152603160248201527f546865207573657220646f65736e27742062656c6f6e6720746f20746869732060448201527019185d18481d5cd859d9481c9958dbdc99607a1b6064820152608401610149565b604080516080810182526001600160a01b03808816825286811660208084019182528385018881526060850188815260008a81526003808552979020865181549087166001600160a01b031991821617825594516001820180549190971695169490941790945551600283015591518051939491936102cf9392850192919091019061032d565b509050506102e085858584866102e7565b5050505050565b7f517067b1bff51c392a98cc0064d4650ee95d73d9a22424ef6f177df19395b1e1858585858560405161031e9594939291906108fe565b60405180910390a15050505050565b82805482825590600052602060002090810192821561037a579160200282015b8281111561037a578251805161036a91849160209091019061038a565b509160200191906001019061034d565b5061038692915061040a565b5090565b828054610396906109ce565b90600052602060002090601f0160209004810192826103b857600085556103fe565b82601f106103d157805160ff19168380011785556103fe565b828001600101855582156103fe579182015b828111156103fe5782518255916020019190600101906103e3565b50610386929150610427565b8082111561038657600061041e828261043c565b5060010161040a565b5b808211156103865760008155600101610428565b508054610448906109ce565b6000825580601f10610458575050565b601f0160209004906000526020600020908101906104769190610427565b50565b6001600160a01b038116811461047657600080fd5b634e487b7160e01b600052604160045260246000fd5b60405160c0810167ffffffffffffffff811182821017156104c7576104c761048e565b60405290565b604051601f8201601f1916810167ffffffffffffffff811182821017156104f6576104f661048e565b604052919050565b600067ffffffffffffffff8211156105185761051861048e565b5060051b60200190565b600067ffffffffffffffff82111561053c5761053c61048e565b50601f01601f191660200190565b6000806000806080858703121561056057600080fd5b843561056b81610479565b935060208581013561057c81610479565b935060408601359250606086013567ffffffffffffffff808211156105a057600080fd5b818801915088601f8301126105b457600080fd5b81356105c76105c2826104fe565b6104cd565b81815260059190911b8301840190848101908b8311156105e657600080fd5b8585015b8381101561065c578035858111156106025760008081fd5b8601603f81018e136106145760008081fd5b878101356106246105c282610522565b8181528f604083850101111561063a5760008081fd5b81604084018b83013760009181018a01919091528452509186019186016105ea565b50989b979a50959850505050505050565b805161067881610479565b919050565b60005b83811015610698578181015183820152602001610680565b838111156106a7576000848401525b50505050565b600082601f8301126106be57600080fd5b81516106cc6105c282610522565b8181528460208386010111156106e157600080fd5b6106f282602083016020870161067d565b949350505050565b600082601f83011261070b57600080fd5b8151602061071b6105c2836104fe565b82815260059290921b8401810191818101908684111561073a57600080fd5b8286015b8481101561077a57805167ffffffffffffffff81111561075e5760008081fd5b61076c8986838b01016106ad565b84525091830191830161073e565b509695505050505050565b60006020828403121561079757600080fd5b815167ffffffffffffffff808211156107af57600080fd5b9083019060c082860312156107c357600080fd5b6107cb6104a4565b6107d48361066d565b81526107e26020840161066d565b60208201526040830151828111156107f957600080fd5b610805878286016106ad565b60408301525060608301518281111561081d57600080fd5b610829878286016106ad565b60608301525060808301518281111561084157600080fd5b61084d878286016106ad565b60808301525060a08301518281111561086557600080fd5b610871878286016106fa565b60a08301525095945050505050565b6000815180845261089881602086016020860161067d565b601f01601f19169290920160200192915050565b6000815180845260208085019450848260051b860182860160005b858110156108f15783830389526108df838351610880565b988501989250908401906001016108c7565b5090979650505050505050565b600060018060a01b038088168352808716602084015285604084015260a060608401528085511660a08401528060208601511660c084015250604084015160c060e0840152610951610160840182610880565b90506060850151609f1980858403016101008601526109708383610880565b925060808701519150808584030161012086015261098e8383610880565b925060a087015191508085840301610140860152506109ad82826108ac565b91505082810360808401526109c281856108ac565b98975050505050505050565b600181811c908216806109e257607f821691505b602082108103610a0257634e487b7160e01b600052602260045260246000fd5b5091905056fea2646970667358221220c1da25ea0842ffb98a2dccd99a66ec5ff8c3af5868bfe988e960a5eaa940807f64736f6c634300080d0033",
    "sourcePath": "e:/Workspace/gdpr-smart-contract/contracts/SC_Log.sol",
    "compiler": {
        "name": "solc",
        "version": "0.8.13+commit.abaa5c0e"
    },
    "functionHashes": {
        "getContractAddress()": "32a2c5d0",
        "log(address,address,uint256,string[])": "b8862cbf"
    },
    "gasEstimates": {
        "creation": {
            "codeDepositCost": "524400",
            "executionCost": "infinite",
            "totalCost": "infinite"
        },
        "external": {
            "getContractAddress()": "148",
            "log(address,address,uint256,string[])": "infinite"
        },
        "internal": {
            "attestation(address,address,uint256,struct DataUsage memory,string memory[] memory)": "infinite"
        }
    }
}