{
    "contractName": "LogContract",
    "abi": [
        {
            "inputs": [
                {
                    "internalType": "address",
                    "name": "_dataUsageContractAddress",
                    "type": "address"
                }
            ],
            "stateMutability": "nonpayable",
            "type": "constructor"
        },
        {
            "anonymous": false,
            "inputs": [
                {
                    "indexed": false,
                    "internalType": "address",
                    "name": "actorAddress",
                    "type": "address"
                },
                {
                    "indexed": false,
                    "internalType": "address",
                    "name": "userAddress",
                    "type": "address"
                },
                {
                    "indexed": false,
                    "internalType": "uint256",
                    "name": "usageID",
                    "type": "uint256"
                },
                {
                    "components": [
                        {
                            "internalType": "address",
                            "name": "actorAddress",
                            "type": "address"
                        },
                        {
                            "internalType": "address",
                            "name": "userAddress",
                            "type": "address"
                        },
                        {
                            "internalType": "string",
                            "name": "serviceName",
                            "type": "string"
                        },
                        {
                            "internalType": "string",
                            "name": "servicePurpose",
                            "type": "string"
                        },
                        {
                            "internalType": "string",
                            "name": "operation",
                            "type": "string"
                        },
                        {
                            "internalType": "string[]",
                            "name": "personalData",
                            "type": "string[]"
                        }
                    ],
                    "indexed": false,
                    "internalType": "struct DataUsage",
                    "name": "dataUsage",
                    "type": "tuple"
                }
            ],
            "name": "LogDataProcess",
            "type": "event"
        },
        {
            "inputs": [],
            "name": "getContractAddress",
            "outputs": [
                {
                    "internalType": "address",
                    "name": "",
                    "type": "address"
                }
            ],
            "stateMutability": "view",
            "type": "function"
        },
        {
            "inputs": [
                {
                    "internalType": "address",
                    "name": "actorAddress",
                    "type": "address"
                },
                {
                    "internalType": "address",
                    "name": "userAddress",
                    "type": "address"
                },
                {
                    "internalType": "uint256",
                    "name": "usageID",
                    "type": "uint256"
                }
            ],
            "name": "log",
            "outputs": [],
            "stateMutability": "nonpayable",
            "type": "function"
        }
    ],
    "bytecode": "608060405234801561001057600080fd5b50604051610b0a380380610b0a83398101604081905261002f9161006c565b600080546001600160a01b03199081163317909155600180546001600160a01b03939093169282168317905560028054909116909117905561009c565b60006020828403121561007e57600080fd5b81516001600160a01b038116811461009557600080fd5b9392505050565b610a5f806100ab6000396000f3fe608060405234801561001057600080fd5b50600436106100365760003560e01c806317fe61851461003b57806332a2c5d014610050575b600080fd5b61004e6100493660046105d5565b610063565b005b6040805130815290519081900360200190f35b60025460405163a812ee2960e01b8152600481018390526000916001600160a01b03169063a812ee2990602401600060405180830381865afa1580156100ad573d6000803e3d6000fd5b505050506040513d6000823e601f3d908101601f191682016040526100d591908101906107cd565b60208101519091506001600160a01b03166101525760405162461bcd60e51b815260206004820152603260248201527f43616e27742066696e6420746869732064617461207573616765207265636f7260448201527119081dda5d1a081d1a19481d5cd859d9525160721b60648201526084015b60405180910390fd5b80516001600160a01b038581169116146101c95760405162461bcd60e51b815260206004820152603260248201527f546865206163746f7220646f65736e27742062656c6f6e6720746f20746869736044820152710819185d18481d5cd859d9481c9958dbdc9960721b6064820152608401610149565b80602001516001600160a01b0316836001600160a01b0316146102485760405162461bcd60e51b815260206004820152603160248201527f546865207573657220646f65736e27742062656c6f6e6720746f20746869732060448201527019185d18481d5cd859d9481c9958dbdc99607a1b6064820152608401610149565b604080516080810182526001600160a01b03808716825285811660208084019182528385018781526060850187815260038054600181018255600091909152865160099091027fc2575a0e9e593c00f959f8c92f12db2869c3395a3b0502d05e2516446f71f85b810180549288166001600160a01b031993841617815595517fc2575a0e9e593c00f959f8c92f12db2869c3395a3b0502d05e2516446f71f85c8201805491891691841691909117905592517fc2575a0e9e593c00f959f8c92f12db2869c3395a3b0502d05e2516446f71f85d840155905180517fc2575a0e9e593c00f959f8c92f12db2869c3395a3b0502d05e2516446f71f85e84018054918816918416919091178155818501517fc2575a0e9e593c00f959f8c92f12db2869c3395a3b0502d05e2516446f71f85f8501805491909816931692909217909555958401518051959693956103c6937fc2575a0e9e593c00f959f8c92f12db2869c3395a3b0502d05e2516446f71f860909301929190910190610474565b50606082015180516103e2916003840191602090910190610474565b50608082015180516103fe916004840191602090910190610474565b5060a0820151805161041a9160058401916020909101906104f8565b505050505061042b84848484610431565b50505050565b7fe074030a31c4718cfc47f6567aabfffc7aaf509498065a02f0ae0a20be7aee6d8484848460405161046694939291906108f4565b60405180910390a150505050565b828054610480906109ef565b90600052602060002090601f0160209004810192826104a257600085556104e8565b82601f106104bb57805160ff19168380011785556104e8565b828001600101855582156104e8579182015b828111156104e85782518255916020019190600101906104cd565b506104f4929150610551565b5090565b828054828255906000526020600020908101928215610545579160200282015b828111156105455782518051610535918491602090910190610474565b5091602001919060010190610518565b506104f4929150610566565b5b808211156104f45760008155600101610552565b808211156104f457600061057a8282610583565b50600101610566565b50805461058f906109ef565b6000825580601f1061059f575050565b601f0160209004906000526020600020908101906105bd9190610551565b50565b6001600160a01b03811681146105bd57600080fd5b6000806000606084860312156105ea57600080fd5b83356105f5816105c0565b92506020840135610605816105c0565b929592945050506040919091013590565b634e487b7160e01b600052604160045260246000fd5b60405160c0810167ffffffffffffffff8111828210171561064f5761064f610616565b60405290565b604051601f8201601f1916810167ffffffffffffffff8111828210171561067e5761067e610616565b604052919050565b8051610691816105c0565b919050565b60005b838110156106b1578181015183820152602001610699565b8381111561042b5750506000910152565b600082601f8301126106d357600080fd5b815167ffffffffffffffff8111156106ed576106ed610616565b610700601f8201601f1916602001610655565b81815284602083860101111561071557600080fd5b610726826020830160208701610696565b949350505050565b600082601f83011261073f57600080fd5b8151602067ffffffffffffffff8083111561075c5761075c610616565b8260051b61076b838201610655565b938452858101830193838101908886111561078557600080fd5b84880192505b858310156107c1578251848111156107a35760008081fd5b6107b18a87838c01016106c2565b835250918401919084019061078b565b98975050505050505050565b6000602082840312156107df57600080fd5b815167ffffffffffffffff808211156107f757600080fd5b9083019060c0828603121561080b57600080fd5b61081361062c565b61081c83610686565b815261082a60208401610686565b602082015260408301518281111561084157600080fd5b61084d878286016106c2565b60408301525060608301518281111561086557600080fd5b610871878286016106c2565b60608301525060808301518281111561088957600080fd5b610895878286016106c2565b60808301525060a0830151828111156108ad57600080fd5b6108b98782860161072e565b60a08301525095945050505050565b600081518084526108e0816020860160208601610696565b601f01601f19169290920160200192915050565b600060018060a01b0380871683526020818716818501528560408501526080606085015281855116608085015281818601511660a08501526040850151915060c0808501526109476101408501836108c8565b91506060850151607f19808685030160e087015261096584836108c8565b935060808701519150808685030161010087015261098384836108c8565b60a08801518782039092016101208801528151808252909450908301915082840190600581901b8501840160005b828110156109df57601f198783030184526109cd8286516108c8565b948601949386019391506001016109b1565b509b9a5050505050505050505050565b600181811c90821680610a0357607f821691505b602082108103610a2357634e487b7160e01b600052602260045260246000fd5b5091905056fea264697066735822122020e54798e22af17403ee9071a904cb06a63b7768ee814005df6a6667bd63222364736f6c634300080d0033",
    "sourcePath": "e:/Workspace/gdpr-smart-contract/contracts/SC_Log.sol",
    "compiler": {
        "name": "solc",
        "version": "0.8.13+commit.abaa5c0e"
    },
    "functionHashes": {
        "getContractAddress()": "32a2c5d0",
        "log(address,address,uint256)": "17fe6185"
    },
    "gasEstimates": {
        "creation": {
            "codeDepositCost": "531000",
            "executionCost": "infinite",
            "totalCost": "infinite"
        },
        "external": {
            "getContractAddress()": "170",
            "log(address,address,uint256)": "infinite"
        },
        "internal": {
            "attestation(address,address,uint256,struct DataUsage memory)": "infinite"
        }
    }
}