{
	"contracts/SC_Agreement.sol": {
		"AgreementContract": {
			"abi": [
				{
					"inputs": [
						{
							"internalType": "address",
							"name": "_dataUsageContractAddress",
							"type": "address"
						}
					],
					"stateMutability": "nonpayable",
					"type": "constructor"
				},
				{
					"anonymous": false,
					"inputs": [
						{
							"indexed": true,
							"internalType": "address",
							"name": "userAddress",
							"type": "address"
						},
						{
							"indexed": true,
							"internalType": "uint256",
							"name": "usageID",
							"type": "uint256"
						},
						{
							"components": [
								{
									"internalType": "address",
									"name": "actorAddress",
									"type": "address"
								},
								{
									"internalType": "address",
									"name": "userAddress",
									"type": "address"
								},
								{
									"internalType": "string",
									"name": "serviceName",
									"type": "string"
								},
								{
									"internalType": "string",
									"name": "servicePurpose",
									"type": "string"
								},
								{
									"internalType": "string",
									"name": "operation",
									"type": "string"
								},
								{
									"internalType": "string[]",
									"name": "personalData",
									"type": "string[]"
								}
							],
							"indexed": false,
							"internalType": "struct DataUsage",
							"name": "dataUsage",
							"type": "tuple"
						},
						{
							"indexed": false,
							"internalType": "bool",
							"name": "consent",
							"type": "bool"
						}
					],
					"name": "UserVote",
					"type": "event"
				},
				{
					"inputs": [],
					"name": "getContractAddress",
					"outputs": [
						{
							"internalType": "address",
							"name": "",
							"type": "address"
						}
					],
					"stateMutability": "view",
					"type": "function"
				},
				{
					"inputs": [
						{
							"internalType": "uint256",
							"name": "usageID",
							"type": "uint256"
						}
					],
					"name": "retrieveVote",
					"outputs": [
						{
							"components": [
								{
									"internalType": "address",
									"name": "actorAddress",
									"type": "address"
								},
								{
									"internalType": "address",
									"name": "userAddress",
									"type": "address"
								},
								{
									"internalType": "uint256",
									"name": "usageID",
									"type": "uint256"
								},
								{
									"internalType": "bool",
									"name": "consent",
									"type": "bool"
								}
							],
							"internalType": "struct Vote",
							"name": "",
							"type": "tuple"
						}
					],
					"stateMutability": "view",
					"type": "function"
				},
				{
					"inputs": [
						{
							"internalType": "uint256",
							"name": "usageID",
							"type": "uint256"
						},
						{
							"internalType": "bool",
							"name": "consent",
							"type": "bool"
						}
					],
					"name": "vote",
					"outputs": [],
					"stateMutability": "nonpayable",
					"type": "function"
				}
			],
			"devdoc": {
				"kind": "dev",
				"methods": {
					"constructor": {
						"details": "generate a new contract"
					},
					"getContractAddress()": {
						"details": "get the current contract address"
					},
					"retrieveVote(uint256)": {
						"details": "The Retrieve function uses the address of a GDPR compliance contract to provide a data subject information recorded by an actor in the Blockchain"
					},
					"vote(uint256,bool)": {
						"details": "submits a data subject’s votes (positive/negative consent) to the Blockchain"
					}
				},
				"version": 1
			},
			"evm": {
				"assembly": "    /* \"contracts/SC_Agreement.sol\":206:2260  contract AgreementContract {\r... */\n  mstore(0x40, 0x80)\n    /* \"contracts/SC_Agreement.sol\":617:919  constructor(address _dataUsageContractAddress) {\r... */\n  callvalue\n  dup1\n  iszero\n  tag_1\n  jumpi\n  0x00\n  dup1\n  revert\ntag_1:\n  pop\n  mload(0x40)\n  sub(codesize, bytecodeSize)\n  dup1\n  bytecodeSize\n  dup4\n  codecopy\n  dup2\n  dup2\n  add\n  0x40\n  mstore\n  dup2\n  add\n  swap1\n  tag_2\n  swap2\n  swap1\n  tag_3\n  jump\t// in\ntag_2:\n    /* \"contracts/SC_Agreement.sol\":685:695  msg.sender */\n  caller\n    /* \"contracts/SC_Agreement.sol\":675:682  creator */\n  0x00\n  dup1\n    /* \"contracts/SC_Agreement.sol\":675:695  creator = msg.sender */\n  0x0100\n  exp\n  dup2\n  sload\n  dup2\n  0xffffffffffffffffffffffffffffffffffffffff\n  mul\n  not\n  and\n  swap1\n  dup4\n  0xffffffffffffffffffffffffffffffffffffffff\n  and\n  mul\n  or\n  swap1\n  sstore\n  pop\n    /* \"contracts/SC_Agreement.sol\":733:758  _dataUsageContractAddress */\n  dup1\n    /* \"contracts/SC_Agreement.sol\":706:730  dataUsageContractAddress */\n  0x01\n  0x00\n    /* \"contracts/SC_Agreement.sol\":706:758  dataUsageContractAddress = _dataUsageContractAddress */\n  0x0100\n  exp\n  dup2\n  sload\n  dup2\n  0xffffffffffffffffffffffffffffffffffffffff\n  mul\n  not\n  and\n  swap1\n  dup4\n  0xffffffffffffffffffffffffffffffffffffffff\n  and\n  mul\n  or\n  swap1\n  sstore\n  pop\n    /* \"contracts/SC_Agreement.sol\":886:910  dataUsageContractAddress */\n  0x01\n  0x00\n  swap1\n  sload\n  swap1\n  0x0100\n  exp\n  swap1\n  div\n  0xffffffffffffffffffffffffffffffffffffffff\n  and\n    /* \"contracts/SC_Agreement.sol\":848:865  dataUsageContract */\n  0x02\n  0x00\n    /* \"contracts/SC_Agreement.sol\":848:911  dataUsageContract = DataUsageContract(dataUsageContractAddress) */\n  0x0100\n  exp\n  dup2\n  sload\n  dup2\n  0xffffffffffffffffffffffffffffffffffffffff\n  mul\n  not\n  and\n  swap1\n  dup4\n  0xffffffffffffffffffffffffffffffffffffffff\n  and\n  mul\n  or\n  swap1\n  sstore\n  pop\n    /* \"contracts/SC_Agreement.sol\":617:919  constructor(address _dataUsageContractAddress) {\r... */\n  pop\n    /* \"contracts/SC_Agreement.sol\":206:2260  contract AgreementContract {\r... */\n  jump(tag_6)\n    /* \"#utility.yul\":7:150   */\ntag_8:\n    /* \"#utility.yul\":64:69   */\n  0x00\n    /* \"#utility.yul\":95:101   */\n  dup2\n    /* \"#utility.yul\":89:102   */\n  mload\n    /* \"#utility.yul\":80:102   */\n  swap1\n  pop\n    /* \"#utility.yul\":111:144   */\n  tag_10\n    /* \"#utility.yul\":138:143   */\n  dup2\n    /* \"#utility.yul\":111:144   */\n  tag_11\n  jump\t// in\ntag_10:\n    /* \"#utility.yul\":7:150   */\n  swap3\n  swap2\n  pop\n  pop\n  jump\t// out\n    /* \"#utility.yul\":156:507   */\ntag_3:\n    /* \"#utility.yul\":226:232   */\n  0x00\n    /* \"#utility.yul\":275:277   */\n  0x20\n    /* \"#utility.yul\":263:272   */\n  dup3\n    /* \"#utility.yul\":254:261   */\n  dup5\n    /* \"#utility.yul\":250:273   */\n  sub\n    /* \"#utility.yul\":246:278   */\n  slt\n    /* \"#utility.yul\":243:362   */\n  iszero\n  tag_13\n  jumpi\n    /* \"#utility.yul\":281:360   */\n  tag_14\n  tag_15\n  jump\t// in\ntag_14:\n    /* \"#utility.yul\":243:362   */\ntag_13:\n    /* \"#utility.yul\":401:402   */\n  0x00\n    /* \"#utility.yul\":426:490   */\n  tag_16\n    /* \"#utility.yul\":482:489   */\n  dup5\n    /* \"#utility.yul\":473:479   */\n  dup3\n    /* \"#utility.yul\":462:471   */\n  dup6\n    /* \"#utility.yul\":458:480   */\n  add\n    /* \"#utility.yul\":426:490   */\n  tag_8\n  jump\t// in\ntag_16:\n    /* \"#utility.yul\":416:490   */\n  swap2\n  pop\n    /* \"#utility.yul\":372:500   */\n  pop\n    /* \"#utility.yul\":156:507   */\n  swap3\n  swap2\n  pop\n  pop\n  jump\t// out\n    /* \"#utility.yul\":594:690   */\ntag_19:\n    /* \"#utility.yul\":631:638   */\n  0x00\n    /* \"#utility.yul\":660:684   */\n  tag_21\n    /* \"#utility.yul\":678:683   */\n  dup3\n    /* \"#utility.yul\":660:684   */\n  tag_22\n  jump\t// in\ntag_21:\n    /* \"#utility.yul\":649:684   */\n  swap1\n  pop\n    /* \"#utility.yul\":594:690   */\n  swap2\n  swap1\n  pop\n  jump\t// out\n    /* \"#utility.yul\":696:822   */\ntag_22:\n    /* \"#utility.yul\":733:740   */\n  0x00\n    /* \"#utility.yul\":773:815   */\n  0xffffffffffffffffffffffffffffffffffffffff\n    /* \"#utility.yul\":766:771   */\n  dup3\n    /* \"#utility.yul\":762:816   */\n  and\n    /* \"#utility.yul\":751:816   */\n  swap1\n  pop\n    /* \"#utility.yul\":696:822   */\n  swap2\n  swap1\n  pop\n  jump\t// out\n    /* \"#utility.yul\":951:1068   */\ntag_15:\n    /* \"#utility.yul\":1060:1061   */\n  0x00\n    /* \"#utility.yul\":1057:1058   */\n  dup1\n    /* \"#utility.yul\":1050:1062   */\n  revert\n    /* \"#utility.yul\":1074:1196   */\ntag_11:\n    /* \"#utility.yul\":1147:1171   */\n  tag_28\n    /* \"#utility.yul\":1165:1170   */\n  dup2\n    /* \"#utility.yul\":1147:1171   */\n  tag_19\n  jump\t// in\ntag_28:\n    /* \"#utility.yul\":1140:1145   */\n  dup2\n    /* \"#utility.yul\":1137:1172   */\n  eq\n    /* \"#utility.yul\":1127:1190   */\n  tag_29\n  jumpi\n    /* \"#utility.yul\":1186:1187   */\n  0x00\n    /* \"#utility.yul\":1183:1184   */\n  dup1\n    /* \"#utility.yul\":1176:1188   */\n  revert\n    /* \"#utility.yul\":1127:1190   */\ntag_29:\n    /* \"#utility.yul\":1074:1196   */\n  pop\n  jump\t// out\n    /* \"contracts/SC_Agreement.sol\":206:2260  contract AgreementContract {\r... */\ntag_6:\n  dataSize(sub_0)\n  dup1\n  dataOffset(sub_0)\n  0x00\n  codecopy\n  0x00\n  return\nstop\n\nsub_0: assembly {\n        /* \"contracts/SC_Agreement.sol\":206:2260  contract AgreementContract {\r... */\n      mstore(0x40, 0x80)\n      callvalue\n      dup1\n      iszero\n      tag_1\n      jumpi\n      0x00\n      dup1\n      revert\n    tag_1:\n      pop\n      jumpi(tag_2, lt(calldatasize, 0x04))\n      shr(0xe0, calldataload(0x00))\n      dup1\n      0x2063455f\n      eq\n      tag_3\n      jumpi\n      dup1\n      0x32a2c5d0\n      eq\n      tag_4\n      jumpi\n      dup1\n      0xc9d27afe\n      eq\n      tag_5\n      jumpi\n    tag_2:\n      0x00\n      dup1\n      revert\n        /* \"contracts/SC_Agreement.sol\":1275:1385  function retrieveVote(uint usageID) public view returns (Vote memory) {\r... */\n    tag_3:\n      tag_6\n      0x04\n      dup1\n      calldatasize\n      sub\n      dup2\n      add\n      swap1\n      tag_7\n      swap2\n      swap1\n      tag_8\n      jump\t// in\n    tag_7:\n      tag_9\n      jump\t// in\n    tag_6:\n      mload(0x40)\n      tag_10\n      swap2\n      swap1\n      tag_11\n      jump\t// in\n    tag_10:\n      mload(0x40)\n      dup1\n      swap2\n      sub\n      swap1\n      return\n        /* \"contracts/SC_Agreement.sol\":991:1090  function getContractAddress() public view returns (address) {\r... */\n    tag_4:\n      tag_12\n      tag_13\n      jump\t// in\n    tag_12:\n      mload(0x40)\n      tag_14\n      swap2\n      swap1\n      tag_15\n      jump\t// in\n    tag_14:\n      mload(0x40)\n      dup1\n      swap2\n      sub\n      swap1\n      return\n        /* \"contracts/SC_Agreement.sol\":1503:2257  function vote(uint usageID, bool consent) public {\r... */\n    tag_5:\n      tag_16\n      0x04\n      dup1\n      calldatasize\n      sub\n      dup2\n      add\n      swap1\n      tag_17\n      swap2\n      swap1\n      tag_18\n      jump\t// in\n    tag_17:\n      tag_19\n      jump\t// in\n    tag_16:\n      stop\n        /* \"contracts/SC_Agreement.sol\":1275:1385  function retrieveVote(uint usageID) public view returns (Vote memory) {\r... */\n    tag_9:\n        /* \"contracts/SC_Agreement.sol\":1332:1343  Vote memory */\n      tag_20\n      tag_21\n      jump\t// in\n    tag_20:\n        /* \"contracts/SC_Agreement.sol\":1363:1368  votes */\n      0x03\n        /* \"contracts/SC_Agreement.sol\":1363:1377  votes[usageID] */\n      0x00\n        /* \"contracts/SC_Agreement.sol\":1369:1376  usageID */\n      dup4\n        /* \"contracts/SC_Agreement.sol\":1363:1377  votes[usageID] */\n      dup2\n      mstore\n      0x20\n      add\n      swap1\n      dup2\n      mstore\n      0x20\n      add\n      0x00\n      keccak256\n        /* \"contracts/SC_Agreement.sol\":1356:1377  return votes[usageID] */\n      mload(0x40)\n      dup1\n      0x80\n      add\n      0x40\n      mstore\n      swap1\n      dup2\n      0x00\n      dup3\n      add\n      0x00\n      swap1\n      sload\n      swap1\n      0x0100\n      exp\n      swap1\n      div\n      0xffffffffffffffffffffffffffffffffffffffff\n      and\n      0xffffffffffffffffffffffffffffffffffffffff\n      and\n      0xffffffffffffffffffffffffffffffffffffffff\n      and\n      dup2\n      mstore\n      0x20\n      add\n      0x01\n      dup3\n      add\n      0x00\n      swap1\n      sload\n      swap1\n      0x0100\n      exp\n      swap1\n      div\n      0xffffffffffffffffffffffffffffffffffffffff\n      and\n      0xffffffffffffffffffffffffffffffffffffffff\n      and\n      0xffffffffffffffffffffffffffffffffffffffff\n      and\n      dup2\n      mstore\n      0x20\n      add\n      0x02\n      dup3\n      add\n      sload\n      dup2\n      mstore\n      0x20\n      add\n      0x03\n      dup3\n      add\n      0x00\n      swap1\n      sload\n      swap1\n      0x0100\n      exp\n      swap1\n      div\n      0xff\n      and\n      iszero\n      iszero\n      iszero\n      iszero\n      dup2\n      mstore\n      pop\n      pop\n      swap1\n      pop\n        /* \"contracts/SC_Agreement.sol\":1275:1385  function retrieveVote(uint usageID) public view returns (Vote memory) {\r... */\n      swap2\n      swap1\n      pop\n      jump\t// out\n        /* \"contracts/SC_Agreement.sol\":991:1090  function getContractAddress() public view returns (address) {\r... */\n    tag_13:\n        /* \"contracts/SC_Agreement.sol\":1042:1049  address */\n      0x00\n        /* \"contracts/SC_Agreement.sol\":1077:1081  this */\n      address\n        /* \"contracts/SC_Agreement.sol\":1062:1082  return address(this) */\n      swap1\n      pop\n        /* \"contracts/SC_Agreement.sol\":991:1090  function getContractAddress() public view returns (address) {\r... */\n      swap1\n      jump\t// out\n        /* \"contracts/SC_Agreement.sol\":1503:2257  function vote(uint usageID, bool consent) public {\r... */\n    tag_19:\n        /* \"contracts/SC_Agreement.sol\":1631:1657  DataUsage memory dataUsage */\n      0x00\n        /* \"contracts/SC_Agreement.sol\":1660:1677  dataUsageContract */\n      0x02\n      0x00\n      swap1\n      sload\n      swap1\n      0x0100\n      exp\n      swap1\n      div\n      0xffffffffffffffffffffffffffffffffffffffff\n      and\n        /* \"contracts/SC_Agreement.sol\":1660:1695  dataUsageContract.retrieveDataUsage */\n      0xffffffffffffffffffffffffffffffffffffffff\n      and\n      0xa812ee29\n        /* \"contracts/SC_Agreement.sol\":1696:1703  usageID */\n      dup5\n        /* \"contracts/SC_Agreement.sol\":1660:1704  dataUsageContract.retrieveDataUsage(usageID) */\n      mload(0x40)\n      dup3\n      0xffffffff\n      and\n      0xe0\n      shl\n      dup2\n      mstore\n      0x04\n      add\n      tag_25\n      swap2\n      swap1\n      tag_26\n      jump\t// in\n    tag_25:\n      0x00\n      mload(0x40)\n      dup1\n      dup4\n      sub\n      dup2\n      dup7\n      dup1\n      extcodesize\n      iszero\n      dup1\n      iszero\n      tag_27\n      jumpi\n      0x00\n      dup1\n      revert\n    tag_27:\n      pop\n      gas\n      staticcall\n      iszero\n      dup1\n      iszero\n      tag_29\n      jumpi\n      returndatasize\n      0x00\n      dup1\n      returndatacopy\n      revert(0x00, returndatasize)\n    tag_29:\n      pop\n      pop\n      pop\n      pop\n      mload(0x40)\n      returndatasize\n      0x00\n      dup3\n      returndatacopy\n      returndatasize\n      not(0x1f)\n      0x1f\n      dup3\n      add\n      and\n      dup3\n      add\n      dup1\n      0x40\n      mstore\n      pop\n      dup2\n      add\n      swap1\n      tag_30\n      swap2\n      swap1\n      tag_31\n      jump\t// in\n    tag_30:\n        /* \"contracts/SC_Agreement.sol\":1631:1704  DataUsage memory dataUsage = dataUsageContract.retrieveDataUsage(usageID) */\n      swap1\n      pop\n        /* \"contracts/SC_Agreement.sol\":1759:1762  0x0 */\n      0x00\n        /* \"contracts/SC_Agreement.sol\":1726:1763  dataUsage.userAddress != address(0x0) */\n      0xffffffffffffffffffffffffffffffffffffffff\n      and\n        /* \"contracts/SC_Agreement.sol\":1726:1735  dataUsage */\n      dup2\n        /* \"contracts/SC_Agreement.sol\":1726:1747  dataUsage.userAddress */\n      0x20\n      add\n      mload\n        /* \"contracts/SC_Agreement.sol\":1726:1763  dataUsage.userAddress != address(0x0) */\n      0xffffffffffffffffffffffffffffffffffffffff\n      and\n      eq\n      iszero\n        /* \"contracts/SC_Agreement.sol\":1717:1818  require (dataUsage.userAddress != address(0x0), \"Can't find this data usage record with the usageID\") */\n      tag_32\n      jumpi\n      mload(0x40)\n      0x08c379a000000000000000000000000000000000000000000000000000000000\n      dup2\n      mstore\n      0x04\n      add\n      tag_33\n      swap1\n      tag_34\n      jump\t// in\n    tag_33:\n      mload(0x40)\n      dup1\n      swap2\n      sub\n      swap1\n      revert\n    tag_32:\n        /* \"contracts/SC_Agreement.sol\":1852:1861  dataUsage */\n      dup1\n        /* \"contracts/SC_Agreement.sol\":1852:1873  dataUsage.userAddress */\n      0x20\n      add\n      mload\n        /* \"contracts/SC_Agreement.sol\":1838:1873  msg.sender == dataUsage.userAddress */\n      0xffffffffffffffffffffffffffffffffffffffff\n      and\n        /* \"contracts/SC_Agreement.sol\":1838:1848  msg.sender */\n      caller\n        /* \"contracts/SC_Agreement.sol\":1838:1873  msg.sender == dataUsage.userAddress */\n      0xffffffffffffffffffffffffffffffffffffffff\n      and\n      eq\n        /* \"contracts/SC_Agreement.sol\":1829:1927  require (msg.sender == dataUsage.userAddress, \"The user doesn't belong to this data usage record\") */\n      tag_35\n      jumpi\n      mload(0x40)\n      0x08c379a000000000000000000000000000000000000000000000000000000000\n      dup2\n      mstore\n      0x04\n      add\n      tag_36\n      swap1\n      tag_37\n      jump\t// in\n    tag_36:\n      mload(0x40)\n      dup1\n      swap2\n      sub\n      swap1\n      revert\n    tag_35:\n        /* \"contracts/SC_Agreement.sol\":2070:2128  Vote(dataUsage.actorAddress, msg.sender, usageID, consent) */\n      mload(0x40)\n      dup1\n      0x80\n      add\n      0x40\n      mstore\n      dup1\n        /* \"contracts/SC_Agreement.sol\":2075:2084  dataUsage */\n      dup3\n        /* \"contracts/SC_Agreement.sol\":2075:2097  dataUsage.actorAddress */\n      0x00\n      add\n      mload\n        /* \"contracts/SC_Agreement.sol\":2070:2128  Vote(dataUsage.actorAddress, msg.sender, usageID, consent) */\n      0xffffffffffffffffffffffffffffffffffffffff\n      and\n      dup2\n      mstore\n      0x20\n      add\n        /* \"contracts/SC_Agreement.sol\":2099:2109  msg.sender */\n      caller\n        /* \"contracts/SC_Agreement.sol\":2070:2128  Vote(dataUsage.actorAddress, msg.sender, usageID, consent) */\n      0xffffffffffffffffffffffffffffffffffffffff\n      and\n      dup2\n      mstore\n      0x20\n      add\n        /* \"contracts/SC_Agreement.sol\":2111:2118  usageID */\n      dup5\n        /* \"contracts/SC_Agreement.sol\":2070:2128  Vote(dataUsage.actorAddress, msg.sender, usageID, consent) */\n      dup2\n      mstore\n      0x20\n      add\n        /* \"contracts/SC_Agreement.sol\":2120:2127  consent */\n      dup4\n        /* \"contracts/SC_Agreement.sol\":2070:2128  Vote(dataUsage.actorAddress, msg.sender, usageID, consent) */\n      iszero\n      iszero\n      dup2\n      mstore\n      pop\n        /* \"contracts/SC_Agreement.sol\":2053:2058  votes */\n      0x03\n        /* \"contracts/SC_Agreement.sol\":2053:2067  votes[usageID] */\n      0x00\n        /* \"contracts/SC_Agreement.sol\":2059:2066  usageID */\n      dup6\n        /* \"contracts/SC_Agreement.sol\":2053:2067  votes[usageID] */\n      dup2\n      mstore\n      0x20\n      add\n      swap1\n      dup2\n      mstore\n      0x20\n      add\n      0x00\n      keccak256\n        /* \"contracts/SC_Agreement.sol\":2053:2128  votes[usageID] = Vote(dataUsage.actorAddress, msg.sender, usageID, consent) */\n      0x00\n      dup3\n      add\n      mload\n      dup2\n      0x00\n      add\n      exp(0x0100, 0x00)\n      dup2\n      sload\n      dup2\n      0xffffffffffffffffffffffffffffffffffffffff\n      mul\n      not\n      and\n      swap1\n      dup4\n      0xffffffffffffffffffffffffffffffffffffffff\n      and\n      mul\n      or\n      swap1\n      sstore\n      pop\n      0x20\n      dup3\n      add\n      mload\n      dup2\n      0x01\n      add\n      exp(0x0100, 0x00)\n      dup2\n      sload\n      dup2\n      0xffffffffffffffffffffffffffffffffffffffff\n      mul\n      not\n      and\n      swap1\n      dup4\n      0xffffffffffffffffffffffffffffffffffffffff\n      and\n      mul\n      or\n      swap1\n      sstore\n      pop\n      0x40\n      dup3\n      add\n      mload\n      dup2\n      0x02\n      add\n      sstore\n      0x60\n      dup3\n      add\n      mload\n      dup2\n      0x03\n      add\n      exp(0x0100, 0x00)\n      dup2\n      sload\n      dup2\n      0xff\n      mul\n      not\n      and\n      swap1\n      dup4\n      iszero\n      iszero\n      mul\n      or\n      swap1\n      sstore\n      pop\n      swap1\n      pop\n      pop\n        /* \"contracts/SC_Agreement.sol\":2221:2228  usageID */\n      dup3\n        /* \"contracts/SC_Agreement.sol\":2209:2219  msg.sender */\n      caller\n        /* \"contracts/SC_Agreement.sol\":2200:2249  UserVote(msg.sender, usageID, dataUsage, consent) */\n      0xffffffffffffffffffffffffffffffffffffffff\n      and\n      0x71559d481c3e666d4b3424c6727d9c78b6f406deabc7733884489a3136d7d94a\n        /* \"contracts/SC_Agreement.sol\":2230:2239  dataUsage */\n      dup4\n        /* \"contracts/SC_Agreement.sol\":2241:2248  consent */\n      dup6\n        /* \"contracts/SC_Agreement.sol\":2200:2249  UserVote(msg.sender, usageID, dataUsage, consent) */\n      mload(0x40)\n      tag_38\n      swap3\n      swap2\n      swap1\n      tag_39\n      jump\t// in\n    tag_38:\n      mload(0x40)\n      dup1\n      swap2\n      sub\n      swap1\n      log3\n        /* \"contracts/SC_Agreement.sol\":1552:2257  {\r... */\n      pop\n        /* \"contracts/SC_Agreement.sol\":1503:2257  function vote(uint usageID, bool consent) public {\r... */\n      pop\n      pop\n      jump\t// out\n    tag_21:\n      mload(0x40)\n      dup1\n      0x80\n      add\n      0x40\n      mstore\n      dup1\n      and(0xffffffffffffffffffffffffffffffffffffffff, 0x00)\n      dup2\n      mstore\n      0x20\n      add\n      and(0xffffffffffffffffffffffffffffffffffffffff, 0x00)\n      dup2\n      mstore\n      0x20\n      add\n      0x00\n      dup2\n      mstore\n      0x20\n      add\n      iszero(iszero(0x00))\n      dup2\n      mstore\n      pop\n      swap1\n      jump\t// out\n        /* \"#utility.yul\":23:995   */\n    tag_41:\n        /* \"#utility.yul\":140:145   */\n      0x00\n        /* \"#utility.yul\":165:256   */\n      tag_43\n        /* \"#utility.yul\":181:255   */\n      tag_44\n        /* \"#utility.yul\":248:254   */\n      dup5\n        /* \"#utility.yul\":181:255   */\n      tag_45\n      jump\t// in\n    tag_44:\n        /* \"#utility.yul\":165:256   */\n      tag_46\n      jump\t// in\n    tag_43:\n        /* \"#utility.yul\":156:256   */\n      swap1\n      pop\n        /* \"#utility.yul\":276:281   */\n      dup1\n        /* \"#utility.yul\":305:311   */\n      dup4\n        /* \"#utility.yul\":298:303   */\n      dup3\n        /* \"#utility.yul\":291:312   */\n      mstore\n        /* \"#utility.yul\":339:343   */\n      0x20\n        /* \"#utility.yul\":332:337   */\n      dup3\n        /* \"#utility.yul\":328:344   */\n      add\n        /* \"#utility.yul\":321:344   */\n      swap1\n      pop\n        /* \"#utility.yul\":365:371   */\n      dup3\n        /* \"#utility.yul\":415:418   */\n      dup6\n        /* \"#utility.yul\":407:411   */\n      0x20\n        /* \"#utility.yul\":399:405   */\n      dup7\n        /* \"#utility.yul\":395:412   */\n      mul\n        /* \"#utility.yul\":390:393   */\n      dup3\n        /* \"#utility.yul\":386:413   */\n      add\n        /* \"#utility.yul\":383:419   */\n      gt\n        /* \"#utility.yul\":380:523   */\n      iszero\n      tag_47\n      jumpi\n        /* \"#utility.yul\":434:513   */\n      tag_48\n      tag_49\n      jump\t// in\n    tag_48:\n        /* \"#utility.yul\":380:523   */\n    tag_47:\n        /* \"#utility.yul\":547:548   */\n      0x00\n        /* \"#utility.yul\":532:989   */\n    tag_50:\n        /* \"#utility.yul\":557:563   */\n      dup6\n        /* \"#utility.yul\":554:555   */\n      dup2\n        /* \"#utility.yul\":551:564   */\n      lt\n        /* \"#utility.yul\":532:989   */\n      iszero\n      tag_52\n      jumpi\n        /* \"#utility.yul\":632:635   */\n      dup2\n        /* \"#utility.yul\":626:636   */\n      mload\n        /* \"#utility.yul\":668:686   */\n      0xffffffffffffffff\n        /* \"#utility.yul\":655:666   */\n      dup2\n        /* \"#utility.yul\":652:687   */\n      gt\n        /* \"#utility.yul\":649:771   */\n      iszero\n      tag_53\n      jumpi\n        /* \"#utility.yul\":690:769   */\n      tag_54\n      tag_55\n      jump\t// in\n    tag_54:\n        /* \"#utility.yul\":649:771   */\n    tag_53:\n        /* \"#utility.yul\":814:825   */\n      dup1\n        /* \"#utility.yul\":806:812   */\n      dup7\n        /* \"#utility.yul\":802:826   */\n      add\n        /* \"#utility.yul\":852:910   */\n      tag_56\n        /* \"#utility.yul\":906:909   */\n      dup10\n        /* \"#utility.yul\":894:904   */\n      dup3\n        /* \"#utility.yul\":852:910   */\n      tag_57\n      jump\t// in\n    tag_56:\n        /* \"#utility.yul\":847:850   */\n      dup6\n        /* \"#utility.yul\":840:911   */\n      mstore\n        /* \"#utility.yul\":940:944   */\n      0x20\n        /* \"#utility.yul\":935:938   */\n      dup6\n        /* \"#utility.yul\":931:945   */\n      add\n        /* \"#utility.yul\":924:945   */\n      swap5\n      pop\n        /* \"#utility.yul\":974:978   */\n      0x20\n        /* \"#utility.yul\":969:972   */\n      dup5\n        /* \"#utility.yul\":965:979   */\n      add\n        /* \"#utility.yul\":958:979   */\n      swap4\n      pop\n        /* \"#utility.yul\":592:989   */\n      pop\n      pop\n        /* \"#utility.yul\":579:580   */\n      0x01\n        /* \"#utility.yul\":576:577   */\n      dup2\n        /* \"#utility.yul\":572:581   */\n      add\n        /* \"#utility.yul\":567:581   */\n      swap1\n      pop\n        /* \"#utility.yul\":532:989   */\n      jump(tag_50)\n    tag_52:\n        /* \"#utility.yul\":536:550   */\n      pop\n        /* \"#utility.yul\":146:995   */\n      pop\n      pop\n        /* \"#utility.yul\":23:995   */\n      swap4\n      swap3\n      pop\n      pop\n      pop\n      jump\t// out\n        /* \"#utility.yul\":1001:1422   */\n    tag_58:\n        /* \"#utility.yul\":1090:1095   */\n      0x00\n        /* \"#utility.yul\":1115:1181   */\n      tag_60\n        /* \"#utility.yul\":1131:1180   */\n      tag_61\n        /* \"#utility.yul\":1173:1179   */\n      dup5\n        /* \"#utility.yul\":1131:1180   */\n      tag_62\n      jump\t// in\n    tag_61:\n        /* \"#utility.yul\":1115:1181   */\n      tag_46\n      jump\t// in\n    tag_60:\n        /* \"#utility.yul\":1106:1181   */\n      swap1\n      pop\n        /* \"#utility.yul\":1204:1210   */\n      dup3\n        /* \"#utility.yul\":1197:1202   */\n      dup2\n        /* \"#utility.yul\":1190:1211   */\n      mstore\n        /* \"#utility.yul\":1242:1246   */\n      0x20\n        /* \"#utility.yul\":1235:1240   */\n      dup2\n        /* \"#utility.yul\":1231:1247   */\n      add\n        /* \"#utility.yul\":1280:1283   */\n      dup5\n        /* \"#utility.yul\":1271:1277   */\n      dup5\n        /* \"#utility.yul\":1266:1269   */\n      dup5\n        /* \"#utility.yul\":1262:1278   */\n      add\n        /* \"#utility.yul\":1259:1284   */\n      gt\n        /* \"#utility.yul\":1256:1368   */\n      iszero\n      tag_63\n      jumpi\n        /* \"#utility.yul\":1287:1366   */\n      tag_64\n      tag_65\n      jump\t// in\n    tag_64:\n        /* \"#utility.yul\":1256:1368   */\n    tag_63:\n        /* \"#utility.yul\":1377:1416   */\n      tag_66\n        /* \"#utility.yul\":1409:1415   */\n      dup5\n        /* \"#utility.yul\":1404:1407   */\n      dup3\n        /* \"#utility.yul\":1399:1402   */\n      dup6\n        /* \"#utility.yul\":1377:1416   */\n      tag_67\n      jump\t// in\n    tag_66:\n        /* \"#utility.yul\":1096:1422   */\n      pop\n        /* \"#utility.yul\":1001:1422   */\n      swap4\n      swap3\n      pop\n      pop\n      pop\n      jump\t// out\n        /* \"#utility.yul\":1428:1571   */\n    tag_68:\n        /* \"#utility.yul\":1485:1490   */\n      0x00\n        /* \"#utility.yul\":1516:1522   */\n      dup2\n        /* \"#utility.yul\":1510:1523   */\n      mload\n        /* \"#utility.yul\":1501:1523   */\n      swap1\n      pop\n        /* \"#utility.yul\":1532:1565   */\n      tag_70\n        /* \"#utility.yul\":1559:1564   */\n      dup2\n        /* \"#utility.yul\":1532:1565   */\n      tag_71\n      jump\t// in\n    tag_70:\n        /* \"#utility.yul\":1428:1571   */\n      swap3\n      swap2\n      pop\n      pop\n      jump\t// out\n        /* \"#utility.yul\":1593:1998   */\n    tag_72:\n        /* \"#utility.yul\":1685:1690   */\n      0x00\n        /* \"#utility.yul\":1734:1737   */\n      dup3\n        /* \"#utility.yul\":1727:1731   */\n      0x1f\n        /* \"#utility.yul\":1719:1725   */\n      dup4\n        /* \"#utility.yul\":1715:1732   */\n      add\n        /* \"#utility.yul\":1711:1738   */\n      slt\n        /* \"#utility.yul\":1701:1823   */\n      tag_74\n      jumpi\n        /* \"#utility.yul\":1742:1821   */\n      tag_75\n      tag_55\n      jump\t// in\n    tag_75:\n        /* \"#utility.yul\":1701:1823   */\n    tag_74:\n        /* \"#utility.yul\":1852:1858   */\n      dup2\n        /* \"#utility.yul\":1846:1859   */\n      mload\n        /* \"#utility.yul\":1877:1992   */\n      tag_76\n        /* \"#utility.yul\":1988:1991   */\n      dup5\n        /* \"#utility.yul\":1980:1986   */\n      dup3\n        /* \"#utility.yul\":1973:1977   */\n      0x20\n        /* \"#utility.yul\":1965:1971   */\n      dup7\n        /* \"#utility.yul\":1961:1978   */\n      add\n        /* \"#utility.yul\":1877:1992   */\n      tag_41\n      jump\t// in\n    tag_76:\n        /* \"#utility.yul\":1868:1992   */\n      swap2\n      pop\n        /* \"#utility.yul\":1691:1998   */\n      pop\n        /* \"#utility.yul\":1593:1998   */\n      swap3\n      swap2\n      pop\n      pop\n      jump\t// out\n        /* \"#utility.yul\":2004:2137   */\n    tag_77:\n        /* \"#utility.yul\":2047:2052   */\n      0x00\n        /* \"#utility.yul\":2085:2091   */\n      dup2\n        /* \"#utility.yul\":2072:2092   */\n      calldataload\n        /* \"#utility.yul\":2063:2092   */\n      swap1\n      pop\n        /* \"#utility.yul\":2101:2131   */\n      tag_79\n        /* \"#utility.yul\":2125:2130   */\n      dup2\n        /* \"#utility.yul\":2101:2131   */\n      tag_80\n      jump\t// in\n    tag_79:\n        /* \"#utility.yul\":2004:2137   */\n      swap3\n      swap2\n      pop\n      pop\n      jump\t// out\n        /* \"#utility.yul\":2157:2512   */\n    tag_57:\n        /* \"#utility.yul\":2224:2229   */\n      0x00\n        /* \"#utility.yul\":2273:2276   */\n      dup3\n        /* \"#utility.yul\":2266:2270   */\n      0x1f\n        /* \"#utility.yul\":2258:2264   */\n      dup4\n        /* \"#utility.yul\":2254:2271   */\n      add\n        /* \"#utility.yul\":2250:2277   */\n      slt\n        /* \"#utility.yul\":2240:2362   */\n      tag_82\n      jumpi\n        /* \"#utility.yul\":2281:2360   */\n      tag_83\n      tag_55\n      jump\t// in\n    tag_83:\n        /* \"#utility.yul\":2240:2362   */\n    tag_82:\n        /* \"#utility.yul\":2391:2397   */\n      dup2\n        /* \"#utility.yul\":2385:2398   */\n      mload\n        /* \"#utility.yul\":2416:2506   */\n      tag_84\n        /* \"#utility.yul\":2502:2505   */\n      dup5\n        /* \"#utility.yul\":2494:2500   */\n      dup3\n        /* \"#utility.yul\":2487:2491   */\n      0x20\n        /* \"#utility.yul\":2479:2485   */\n      dup7\n        /* \"#utility.yul\":2475:2492   */\n      add\n        /* \"#utility.yul\":2416:2506   */\n      tag_58\n      jump\t// in\n    tag_84:\n        /* \"#utility.yul\":2407:2506   */\n      swap2\n      pop\n        /* \"#utility.yul\":2230:2512   */\n      pop\n        /* \"#utility.yul\":2157:2512   */\n      swap3\n      swap2\n      pop\n      pop\n      jump\t// out\n        /* \"#utility.yul\":2542:4561   */\n    tag_85:\n        /* \"#utility.yul\":2627:2632   */\n      0x00\n        /* \"#utility.yul\":2671:2675   */\n      0xc0\n        /* \"#utility.yul\":2659:2668   */\n      dup3\n        /* \"#utility.yul\":2654:2657   */\n      dup5\n        /* \"#utility.yul\":2650:2669   */\n      sub\n        /* \"#utility.yul\":2646:2676   */\n      slt\n        /* \"#utility.yul\":2643:2760   */\n      iszero\n      tag_87\n      jumpi\n        /* \"#utility.yul\":2679:2758   */\n      tag_88\n      tag_89\n      jump\t// in\n    tag_88:\n        /* \"#utility.yul\":2643:2760   */\n    tag_87:\n        /* \"#utility.yul\":2778:2799   */\n      tag_90\n        /* \"#utility.yul\":2794:2798   */\n      0xc0\n        /* \"#utility.yul\":2778:2799   */\n      tag_46\n      jump\t// in\n    tag_90:\n        /* \"#utility.yul\":2769:2799   */\n      swap1\n      pop\n        /* \"#utility.yul\":2866:2867   */\n      0x00\n        /* \"#utility.yul\":2906:2966   */\n      tag_91\n        /* \"#utility.yul\":2962:2965   */\n      dup5\n        /* \"#utility.yul\":2953:2959   */\n      dup3\n        /* \"#utility.yul\":2942:2951   */\n      dup6\n        /* \"#utility.yul\":2938:2960   */\n      add\n        /* \"#utility.yul\":2906:2966   */\n      tag_68\n      jump\t// in\n    tag_91:\n        /* \"#utility.yul\":2899:2903   */\n      0x00\n        /* \"#utility.yul\":2892:2897   */\n      dup4\n        /* \"#utility.yul\":2888:2904   */\n      add\n        /* \"#utility.yul\":2881:2967   */\n      mstore\n        /* \"#utility.yul\":2809:2978   */\n      pop\n        /* \"#utility.yul\":3044:3046   */\n      0x20\n        /* \"#utility.yul\":3085:3145   */\n      tag_92\n        /* \"#utility.yul\":3141:3144   */\n      dup5\n        /* \"#utility.yul\":3132:3138   */\n      dup3\n        /* \"#utility.yul\":3121:3130   */\n      dup6\n        /* \"#utility.yul\":3117:3139   */\n      add\n        /* \"#utility.yul\":3085:3145   */\n      tag_68\n      jump\t// in\n    tag_92:\n        /* \"#utility.yul\":3078:3082   */\n      0x20\n        /* \"#utility.yul\":3071:3076   */\n      dup4\n        /* \"#utility.yul\":3067:3083   */\n      add\n        /* \"#utility.yul\":3060:3146   */\n      mstore\n        /* \"#utility.yul\":2988:3157   */\n      pop\n        /* \"#utility.yul\":3244:3246   */\n      0x40\n        /* \"#utility.yul\":3233:3242   */\n      dup3\n        /* \"#utility.yul\":3229:3247   */\n      add\n        /* \"#utility.yul\":3223:3248   */\n      mload\n        /* \"#utility.yul\":3275:3293   */\n      0xffffffffffffffff\n        /* \"#utility.yul\":3267:3273   */\n      dup2\n        /* \"#utility.yul\":3264:3294   */\n      gt\n        /* \"#utility.yul\":3261:3378   */\n      iszero\n      tag_93\n      jumpi\n        /* \"#utility.yul\":3297:3376   */\n      tag_94\n      tag_95\n      jump\t// in\n    tag_94:\n        /* \"#utility.yul\":3261:3378   */\n    tag_93:\n        /* \"#utility.yul\":3417:3487   */\n      tag_96\n        /* \"#utility.yul\":3483:3486   */\n      dup5\n        /* \"#utility.yul\":3474:3480   */\n      dup3\n        /* \"#utility.yul\":3463:3472   */\n      dup6\n        /* \"#utility.yul\":3459:3481   */\n      add\n        /* \"#utility.yul\":3417:3487   */\n      tag_57\n      jump\t// in\n    tag_96:\n        /* \"#utility.yul\":3410:3414   */\n      0x40\n        /* \"#utility.yul\":3403:3408   */\n      dup4\n        /* \"#utility.yul\":3399:3415   */\n      add\n        /* \"#utility.yul\":3392:3488   */\n      mstore\n        /* \"#utility.yul\":3167:3499   */\n      pop\n        /* \"#utility.yul\":3589:3591   */\n      0x60\n        /* \"#utility.yul\":3578:3587   */\n      dup3\n        /* \"#utility.yul\":3574:3592   */\n      add\n        /* \"#utility.yul\":3568:3593   */\n      mload\n        /* \"#utility.yul\":3620:3638   */\n      0xffffffffffffffff\n        /* \"#utility.yul\":3612:3618   */\n      dup2\n        /* \"#utility.yul\":3609:3639   */\n      gt\n        /* \"#utility.yul\":3606:3723   */\n      iszero\n      tag_97\n      jumpi\n        /* \"#utility.yul\":3642:3721   */\n      tag_98\n      tag_95\n      jump\t// in\n    tag_98:\n        /* \"#utility.yul\":3606:3723   */\n    tag_97:\n        /* \"#utility.yul\":3762:3832   */\n      tag_99\n        /* \"#utility.yul\":3828:3831   */\n      dup5\n        /* \"#utility.yul\":3819:3825   */\n      dup3\n        /* \"#utility.yul\":3808:3817   */\n      dup6\n        /* \"#utility.yul\":3804:3826   */\n      add\n        /* \"#utility.yul\":3762:3832   */\n      tag_57\n      jump\t// in\n    tag_99:\n        /* \"#utility.yul\":3755:3759   */\n      0x60\n        /* \"#utility.yul\":3748:3753   */\n      dup4\n        /* \"#utility.yul\":3744:3760   */\n      add\n        /* \"#utility.yul\":3737:3833   */\n      mstore\n        /* \"#utility.yul\":3509:3844   */\n      pop\n        /* \"#utility.yul\":3929:3932   */\n      0x80\n        /* \"#utility.yul\":3918:3927   */\n      dup3\n        /* \"#utility.yul\":3914:3933   */\n      add\n        /* \"#utility.yul\":3908:3934   */\n      mload\n        /* \"#utility.yul\":3961:3979   */\n      0xffffffffffffffff\n        /* \"#utility.yul\":3953:3959   */\n      dup2\n        /* \"#utility.yul\":3950:3980   */\n      gt\n        /* \"#utility.yul\":3947:4064   */\n      iszero\n      tag_100\n      jumpi\n        /* \"#utility.yul\":3983:4062   */\n      tag_101\n      tag_95\n      jump\t// in\n    tag_101:\n        /* \"#utility.yul\":3947:4064   */\n    tag_100:\n        /* \"#utility.yul\":4103:4173   */\n      tag_102\n        /* \"#utility.yul\":4169:4172   */\n      dup5\n        /* \"#utility.yul\":4160:4166   */\n      dup3\n        /* \"#utility.yul\":4149:4158   */\n      dup6\n        /* \"#utility.yul\":4145:4167   */\n      add\n        /* \"#utility.yul\":4103:4173   */\n      tag_57\n      jump\t// in\n    tag_102:\n        /* \"#utility.yul\":4096:4100   */\n      0x80\n        /* \"#utility.yul\":4089:4094   */\n      dup4\n        /* \"#utility.yul\":4085:4101   */\n      add\n        /* \"#utility.yul\":4078:4174   */\n      mstore\n        /* \"#utility.yul\":3854:4185   */\n      pop\n        /* \"#utility.yul\":4273:4276   */\n      0xa0\n        /* \"#utility.yul\":4262:4271   */\n      dup3\n        /* \"#utility.yul\":4258:4277   */\n      add\n        /* \"#utility.yul\":4252:4278   */\n      mload\n        /* \"#utility.yul\":4305:4323   */\n      0xffffffffffffffff\n        /* \"#utility.yul\":4297:4303   */\n      dup2\n        /* \"#utility.yul\":4294:4324   */\n      gt\n        /* \"#utility.yul\":4291:4408   */\n      iszero\n      tag_103\n      jumpi\n        /* \"#utility.yul\":4327:4406   */\n      tag_104\n      tag_95\n      jump\t// in\n    tag_104:\n        /* \"#utility.yul\":4291:4408   */\n    tag_103:\n        /* \"#utility.yul\":4447:4542   */\n      tag_105\n        /* \"#utility.yul\":4538:4541   */\n      dup5\n        /* \"#utility.yul\":4529:4535   */\n      dup3\n        /* \"#utility.yul\":4518:4527   */\n      dup6\n        /* \"#utility.yul\":4514:4536   */\n      add\n        /* \"#utility.yul\":4447:4542   */\n      tag_72\n      jump\t// in\n    tag_105:\n        /* \"#utility.yul\":4440:4444   */\n      0xa0\n        /* \"#utility.yul\":4433:4438   */\n      dup4\n        /* \"#utility.yul\":4429:4445   */\n      add\n        /* \"#utility.yul\":4422:4543   */\n      mstore\n        /* \"#utility.yul\":4195:4554   */\n      pop\n        /* \"#utility.yul\":2542:4561   */\n      swap3\n      swap2\n      pop\n      pop\n      jump\t// out\n        /* \"#utility.yul\":4567:4706   */\n    tag_106:\n        /* \"#utility.yul\":4613:4618   */\n      0x00\n        /* \"#utility.yul\":4651:4657   */\n      dup2\n        /* \"#utility.yul\":4638:4658   */\n      calldataload\n        /* \"#utility.yul\":4629:4658   */\n      swap1\n      pop\n        /* \"#utility.yul\":4667:4700   */\n      tag_108\n        /* \"#utility.yul\":4694:4699   */\n      dup2\n        /* \"#utility.yul\":4667:4700   */\n      tag_109\n      jump\t// in\n    tag_108:\n        /* \"#utility.yul\":4567:4706   */\n      swap3\n      swap2\n      pop\n      pop\n      jump\t// out\n        /* \"#utility.yul\":4712:5266   */\n    tag_31:\n        /* \"#utility.yul\":4807:4813   */\n      0x00\n        /* \"#utility.yul\":4856:4858   */\n      0x20\n        /* \"#utility.yul\":4844:4853   */\n      dup3\n        /* \"#utility.yul\":4835:4842   */\n      dup5\n        /* \"#utility.yul\":4831:4854   */\n      sub\n        /* \"#utility.yul\":4827:4859   */\n      slt\n        /* \"#utility.yul\":4824:4943   */\n      iszero\n      tag_111\n      jumpi\n        /* \"#utility.yul\":4862:4941   */\n      tag_112\n      tag_113\n      jump\t// in\n    tag_112:\n        /* \"#utility.yul\":4824:4943   */\n    tag_111:\n        /* \"#utility.yul\":5003:5004   */\n      0x00\n        /* \"#utility.yul\":4992:5001   */\n      dup3\n        /* \"#utility.yul\":4988:5005   */\n      add\n        /* \"#utility.yul\":4982:5006   */\n      mload\n        /* \"#utility.yul\":5033:5051   */\n      0xffffffffffffffff\n        /* \"#utility.yul\":5025:5031   */\n      dup2\n        /* \"#utility.yul\":5022:5052   */\n      gt\n        /* \"#utility.yul\":5019:5136   */\n      iszero\n      tag_114\n      jumpi\n        /* \"#utility.yul\":5055:5134   */\n      tag_115\n      tag_116\n      jump\t// in\n    tag_115:\n        /* \"#utility.yul\":5019:5136   */\n    tag_114:\n        /* \"#utility.yul\":5160:5249   */\n      tag_117\n        /* \"#utility.yul\":5241:5248   */\n      dup5\n        /* \"#utility.yul\":5232:5238   */\n      dup3\n        /* \"#utility.yul\":5221:5230   */\n      dup6\n        /* \"#utility.yul\":5217:5239   */\n      add\n        /* \"#utility.yul\":5160:5249   */\n      tag_85\n      jump\t// in\n    tag_117:\n        /* \"#utility.yul\":5150:5249   */\n      swap2\n      pop\n        /* \"#utility.yul\":4953:5259   */\n      pop\n        /* \"#utility.yul\":4712:5266   */\n      swap3\n      swap2\n      pop\n      pop\n      jump\t// out\n        /* \"#utility.yul\":5272:5601   */\n    tag_8:\n        /* \"#utility.yul\":5331:5337   */\n      0x00\n        /* \"#utility.yul\":5380:5382   */\n      0x20\n        /* \"#utility.yul\":5368:5377   */\n      dup3\n        /* \"#utility.yul\":5359:5366   */\n      dup5\n        /* \"#utility.yul\":5355:5378   */\n      sub\n        /* \"#utility.yul\":5351:5383   */\n      slt\n        /* \"#utility.yul\":5348:5467   */\n      iszero\n      tag_119\n      jumpi\n        /* \"#utility.yul\":5386:5465   */\n      tag_120\n      tag_113\n      jump\t// in\n    tag_120:\n        /* \"#utility.yul\":5348:5467   */\n    tag_119:\n        /* \"#utility.yul\":5506:5507   */\n      0x00\n        /* \"#utility.yul\":5531:5584   */\n      tag_121\n        /* \"#utility.yul\":5576:5583   */\n      dup5\n        /* \"#utility.yul\":5567:5573   */\n      dup3\n        /* \"#utility.yul\":5556:5565   */\n      dup6\n        /* \"#utility.yul\":5552:5574   */\n      add\n        /* \"#utility.yul\":5531:5584   */\n      tag_106\n      jump\t// in\n    tag_121:\n        /* \"#utility.yul\":5521:5584   */\n      swap2\n      pop\n        /* \"#utility.yul\":5477:5594   */\n      pop\n        /* \"#utility.yul\":5272:5601   */\n      swap3\n      swap2\n      pop\n      pop\n      jump\t// out\n        /* \"#utility.yul\":5607:6075   */\n    tag_18:\n        /* \"#utility.yul\":5672:5678   */\n      0x00\n        /* \"#utility.yul\":5680:5686   */\n      dup1\n        /* \"#utility.yul\":5729:5731   */\n      0x40\n        /* \"#utility.yul\":5717:5726   */\n      dup4\n        /* \"#utility.yul\":5708:5715   */\n      dup6\n        /* \"#utility.yul\":5704:5727   */\n      sub\n        /* \"#utility.yul\":5700:5732   */\n      slt\n        /* \"#utility.yul\":5697:5816   */\n      iszero\n      tag_123\n      jumpi\n        /* \"#utility.yul\":5735:5814   */\n      tag_124\n      tag_113\n      jump\t// in\n    tag_124:\n        /* \"#utility.yul\":5697:5816   */\n    tag_123:\n        /* \"#utility.yul\":5855:5856   */\n      0x00\n        /* \"#utility.yul\":5880:5933   */\n      tag_125\n        /* \"#utility.yul\":5925:5932   */\n      dup6\n        /* \"#utility.yul\":5916:5922   */\n      dup3\n        /* \"#utility.yul\":5905:5914   */\n      dup7\n        /* \"#utility.yul\":5901:5923   */\n      add\n        /* \"#utility.yul\":5880:5933   */\n      tag_106\n      jump\t// in\n    tag_125:\n        /* \"#utility.yul\":5870:5933   */\n      swap3\n      pop\n        /* \"#utility.yul\":5826:5943   */\n      pop\n        /* \"#utility.yul\":5982:5984   */\n      0x20\n        /* \"#utility.yul\":6008:6058   */\n      tag_126\n        /* \"#utility.yul\":6050:6057   */\n      dup6\n        /* \"#utility.yul\":6041:6047   */\n      dup3\n        /* \"#utility.yul\":6030:6039   */\n      dup7\n        /* \"#utility.yul\":6026:6048   */\n      add\n        /* \"#utility.yul\":6008:6058   */\n      tag_77\n      jump\t// in\n    tag_126:\n        /* \"#utility.yul\":5998:6058   */\n      swap2\n      pop\n        /* \"#utility.yul\":5953:6068   */\n      pop\n        /* \"#utility.yul\":5607:6075   */\n      swap3\n      pop\n      swap3\n      swap1\n      pop\n      jump\t// out\n        /* \"#utility.yul\":6081:6277   */\n    tag_127:\n        /* \"#utility.yul\":6170:6180   */\n      0x00\n        /* \"#utility.yul\":6205:6271   */\n      tag_129\n        /* \"#utility.yul\":6267:6270   */\n      dup4\n        /* \"#utility.yul\":6259:6265   */\n      dup4\n        /* \"#utility.yul\":6205:6271   */\n      tag_130\n      jump\t// in\n    tag_129:\n        /* \"#utility.yul\":6191:6271   */\n      swap1\n      pop\n        /* \"#utility.yul\":6081:6277   */\n      swap3\n      swap2\n      pop\n      pop\n      jump\t// out\n        /* \"#utility.yul\":6283:6391   */\n    tag_131:\n        /* \"#utility.yul\":6360:6384   */\n      tag_133\n        /* \"#utility.yul\":6378:6383   */\n      dup2\n        /* \"#utility.yul\":6360:6384   */\n      tag_134\n      jump\t// in\n    tag_133:\n        /* \"#utility.yul\":6355:6358   */\n      dup3\n        /* \"#utility.yul\":6348:6385   */\n      mstore\n        /* \"#utility.yul\":6283:6391   */\n      pop\n      pop\n      jump\t// out\n        /* \"#utility.yul\":6397:6515   */\n    tag_135:\n        /* \"#utility.yul\":6484:6508   */\n      tag_137\n        /* \"#utility.yul\":6502:6507   */\n      dup2\n        /* \"#utility.yul\":6484:6508   */\n      tag_134\n      jump\t// in\n    tag_137:\n        /* \"#utility.yul\":6479:6482   */\n      dup3\n        /* \"#utility.yul\":6472:6509   */\n      mstore\n        /* \"#utility.yul\":6397:6515   */\n      pop\n      pop\n      jump\t// out\n        /* \"#utility.yul\":6549:7520   */\n    tag_138:\n        /* \"#utility.yul\":6678:6681   */\n      0x00\n        /* \"#utility.yul\":6707:6771   */\n      tag_140\n        /* \"#utility.yul\":6765:6770   */\n      dup3\n        /* \"#utility.yul\":6707:6771   */\n      tag_141\n      jump\t// in\n    tag_140:\n        /* \"#utility.yul\":6787:6873   */\n      tag_142\n        /* \"#utility.yul\":6866:6872   */\n      dup2\n        /* \"#utility.yul\":6861:6864   */\n      dup6\n        /* \"#utility.yul\":6787:6873   */\n      tag_143\n      jump\t// in\n    tag_142:\n        /* \"#utility.yul\":6780:6873   */\n      swap4\n      pop\n        /* \"#utility.yul\":6899:6902   */\n      dup4\n        /* \"#utility.yul\":6944:6948   */\n      0x20\n        /* \"#utility.yul\":6936:6942   */\n      dup3\n        /* \"#utility.yul\":6932:6949   */\n      mul\n        /* \"#utility.yul\":6927:6930   */\n      dup6\n        /* \"#utility.yul\":6923:6950   */\n      add\n        /* \"#utility.yul\":6974:7040   */\n      tag_144\n        /* \"#utility.yul\":7034:7039   */\n      dup6\n        /* \"#utility.yul\":6974:7040   */\n      tag_145\n      jump\t// in\n    tag_144:\n        /* \"#utility.yul\":7063:7070   */\n      dup1\n        /* \"#utility.yul\":7094:7095   */\n      0x00\n        /* \"#utility.yul\":7079:7475   */\n    tag_146:\n        /* \"#utility.yul\":7104:7110   */\n      dup6\n        /* \"#utility.yul\":7101:7102   */\n      dup2\n        /* \"#utility.yul\":7098:7111   */\n      lt\n        /* \"#utility.yul\":7079:7475   */\n      iszero\n      tag_148\n      jumpi\n        /* \"#utility.yul\":7175:7184   */\n      dup5\n        /* \"#utility.yul\":7169:7173   */\n      dup5\n        /* \"#utility.yul\":7165:7185   */\n      sub\n        /* \"#utility.yul\":7160:7163   */\n      dup10\n        /* \"#utility.yul\":7153:7186   */\n      mstore\n        /* \"#utility.yul\":7226:7232   */\n      dup2\n        /* \"#utility.yul\":7220:7233   */\n      mload\n        /* \"#utility.yul\":7254:7338   */\n      tag_149\n        /* \"#utility.yul\":7333:7337   */\n      dup6\n        /* \"#utility.yul\":7318:7331   */\n      dup3\n        /* \"#utility.yul\":7254:7338   */\n      tag_127\n      jump\t// in\n    tag_149:\n        /* \"#utility.yul\":7246:7338   */\n      swap5\n      pop\n        /* \"#utility.yul\":7361:7431   */\n      tag_150\n        /* \"#utility.yul\":7424:7430   */\n      dup4\n        /* \"#utility.yul\":7361:7431   */\n      tag_151\n      jump\t// in\n    tag_150:\n        /* \"#utility.yul\":7351:7431   */\n      swap3\n      pop\n        /* \"#utility.yul\":7460:7464   */\n      0x20\n        /* \"#utility.yul\":7455:7458   */\n      dup11\n        /* \"#utility.yul\":7451:7465   */\n      add\n        /* \"#utility.yul\":7444:7465   */\n      swap10\n      pop\n        /* \"#utility.yul\":7139:7475   */\n      pop\n        /* \"#utility.yul\":7126:7127   */\n      0x01\n        /* \"#utility.yul\":7123:7124   */\n      dup2\n        /* \"#utility.yul\":7119:7128   */\n      add\n        /* \"#utility.yul\":7114:7128   */\n      swap1\n      pop\n        /* \"#utility.yul\":7079:7475   */\n      jump(tag_146)\n    tag_148:\n        /* \"#utility.yul\":7083:7097   */\n      pop\n        /* \"#utility.yul\":7491:7495   */\n      dup3\n        /* \"#utility.yul\":7484:7495   */\n      swap8\n      pop\n        /* \"#utility.yul\":7511:7514   */\n      dup8\n        /* \"#utility.yul\":7504:7514   */\n      swap6\n      pop\n        /* \"#utility.yul\":6683:7520   */\n      pop\n      pop\n      pop\n      pop\n      pop\n        /* \"#utility.yul\":6549:7520   */\n      swap3\n      swap2\n      pop\n      pop\n      jump\t// out\n        /* \"#utility.yul\":7526:7625   */\n    tag_152:\n        /* \"#utility.yul\":7597:7618   */\n      tag_154\n        /* \"#utility.yul\":7612:7617   */\n      dup2\n        /* \"#utility.yul\":7597:7618   */\n      tag_155\n      jump\t// in\n    tag_154:\n        /* \"#utility.yul\":7592:7595   */\n      dup3\n        /* \"#utility.yul\":7585:7619   */\n      mstore\n        /* \"#utility.yul\":7526:7625   */\n      pop\n      pop\n      jump\t// out\n        /* \"#utility.yul\":7631:7740   */\n    tag_156:\n        /* \"#utility.yul\":7712:7733   */\n      tag_158\n        /* \"#utility.yul\":7727:7732   */\n      dup2\n        /* \"#utility.yul\":7712:7733   */\n      tag_155\n      jump\t// in\n    tag_158:\n        /* \"#utility.yul\":7707:7710   */\n      dup3\n        /* \"#utility.yul\":7700:7734   */\n      mstore\n        /* \"#utility.yul\":7631:7740   */\n      pop\n      pop\n      jump\t// out\n        /* \"#utility.yul\":7746:8090   */\n    tag_130:\n        /* \"#utility.yul\":7824:7827   */\n      0x00\n        /* \"#utility.yul\":7852:7891   */\n      tag_160\n        /* \"#utility.yul\":7885:7890   */\n      dup3\n        /* \"#utility.yul\":7852:7891   */\n      tag_161\n      jump\t// in\n    tag_160:\n        /* \"#utility.yul\":7907:7968   */\n      tag_162\n        /* \"#utility.yul\":7961:7967   */\n      dup2\n        /* \"#utility.yul\":7956:7959   */\n      dup6\n        /* \"#utility.yul\":7907:7968   */\n      tag_163\n      jump\t// in\n    tag_162:\n        /* \"#utility.yul\":7900:7968   */\n      swap4\n      pop\n        /* \"#utility.yul\":7977:8029   */\n      tag_164\n        /* \"#utility.yul\":8022:8028   */\n      dup2\n        /* \"#utility.yul\":8017:8020   */\n      dup6\n        /* \"#utility.yul\":8010:8014   */\n      0x20\n        /* \"#utility.yul\":8003:8008   */\n      dup7\n        /* \"#utility.yul\":7999:8015   */\n      add\n        /* \"#utility.yul\":7977:8029   */\n      tag_67\n      jump\t// in\n    tag_164:\n        /* \"#utility.yul\":8054:8083   */\n      tag_165\n        /* \"#utility.yul\":8076:8082   */\n      dup2\n        /* \"#utility.yul\":8054:8083   */\n      tag_166\n      jump\t// in\n    tag_165:\n        /* \"#utility.yul\":8049:8052   */\n      dup5\n        /* \"#utility.yul\":8045:8084   */\n      add\n        /* \"#utility.yul\":8038:8084   */\n      swap2\n      pop\n        /* \"#utility.yul\":7828:8090   */\n      pop\n        /* \"#utility.yul\":7746:8090   */\n      swap3\n      swap2\n      pop\n      pop\n      jump\t// out\n        /* \"#utility.yul\":8096:8462   */\n    tag_167:\n        /* \"#utility.yul\":8238:8241   */\n      0x00\n        /* \"#utility.yul\":8259:8326   */\n      tag_169\n        /* \"#utility.yul\":8323:8325   */\n      0x32\n        /* \"#utility.yul\":8318:8321   */\n      dup4\n        /* \"#utility.yul\":8259:8326   */\n      tag_170\n      jump\t// in\n    tag_169:\n        /* \"#utility.yul\":8252:8326   */\n      swap2\n      pop\n        /* \"#utility.yul\":8335:8428   */\n      tag_171\n        /* \"#utility.yul\":8424:8427   */\n      dup3\n        /* \"#utility.yul\":8335:8428   */\n      tag_172\n      jump\t// in\n    tag_171:\n        /* \"#utility.yul\":8453:8455   */\n      0x40\n        /* \"#utility.yul\":8448:8451   */\n      dup3\n        /* \"#utility.yul\":8444:8456   */\n      add\n        /* \"#utility.yul\":8437:8456   */\n      swap1\n      pop\n        /* \"#utility.yul\":8096:8462   */\n      swap2\n      swap1\n      pop\n      jump\t// out\n        /* \"#utility.yul\":8468:8834   */\n    tag_173:\n        /* \"#utility.yul\":8610:8613   */\n      0x00\n        /* \"#utility.yul\":8631:8698   */\n      tag_175\n        /* \"#utility.yul\":8695:8697   */\n      0x31\n        /* \"#utility.yul\":8690:8693   */\n      dup4\n        /* \"#utility.yul\":8631:8698   */\n      tag_170\n      jump\t// in\n    tag_175:\n        /* \"#utility.yul\":8624:8698   */\n      swap2\n      pop\n        /* \"#utility.yul\":8707:8800   */\n      tag_176\n        /* \"#utility.yul\":8796:8799   */\n      dup3\n        /* \"#utility.yul\":8707:8800   */\n      tag_177\n      jump\t// in\n    tag_176:\n        /* \"#utility.yul\":8825:8827   */\n      0x40\n        /* \"#utility.yul\":8820:8823   */\n      dup3\n        /* \"#utility.yul\":8816:8828   */\n      add\n        /* \"#utility.yul\":8809:8828   */\n      swap1\n      pop\n        /* \"#utility.yul\":8468:8834   */\n      swap2\n      swap1\n      pop\n      jump\t// out\n        /* \"#utility.yul\":8884:10494   */\n    tag_178:\n        /* \"#utility.yul\":9003:9006   */\n      0x00\n        /* \"#utility.yul\":9039:9043   */\n      0xc0\n        /* \"#utility.yul\":9034:9037   */\n      dup4\n        /* \"#utility.yul\":9030:9044   */\n      add\n        /* \"#utility.yul\":9134:9138   */\n      0x00\n        /* \"#utility.yul\":9127:9132   */\n      dup4\n        /* \"#utility.yul\":9123:9139   */\n      add\n        /* \"#utility.yul\":9117:9140   */\n      mload\n        /* \"#utility.yul\":9153:9216   */\n      tag_180\n        /* \"#utility.yul\":9210:9214   */\n      0x00\n        /* \"#utility.yul\":9205:9208   */\n      dup7\n        /* \"#utility.yul\":9201:9215   */\n      add\n        /* \"#utility.yul\":9187:9199   */\n      dup3\n        /* \"#utility.yul\":9153:9216   */\n      tag_131\n      jump\t// in\n    tag_180:\n        /* \"#utility.yul\":9054:9226   */\n      pop\n        /* \"#utility.yul\":9315:9319   */\n      0x20\n        /* \"#utility.yul\":9308:9313   */\n      dup4\n        /* \"#utility.yul\":9304:9320   */\n      add\n        /* \"#utility.yul\":9298:9321   */\n      mload\n        /* \"#utility.yul\":9334:9397   */\n      tag_181\n        /* \"#utility.yul\":9391:9395   */\n      0x20\n        /* \"#utility.yul\":9386:9389   */\n      dup7\n        /* \"#utility.yul\":9382:9396   */\n      add\n        /* \"#utility.yul\":9368:9380   */\n      dup3\n        /* \"#utility.yul\":9334:9397   */\n      tag_131\n      jump\t// in\n    tag_181:\n        /* \"#utility.yul\":9236:9407   */\n      pop\n        /* \"#utility.yul\":9496:9500   */\n      0x40\n        /* \"#utility.yul\":9489:9494   */\n      dup4\n        /* \"#utility.yul\":9485:9501   */\n      add\n        /* \"#utility.yul\":9479:9502   */\n      mload\n        /* \"#utility.yul\":9549:9552   */\n      dup5\n        /* \"#utility.yul\":9543:9547   */\n      dup3\n        /* \"#utility.yul\":9539:9553   */\n      sub\n        /* \"#utility.yul\":9532:9536   */\n      0x40\n        /* \"#utility.yul\":9527:9530   */\n      dup7\n        /* \"#utility.yul\":9523:9537   */\n      add\n        /* \"#utility.yul\":9516:9554   */\n      mstore\n        /* \"#utility.yul\":9575:9648   */\n      tag_182\n        /* \"#utility.yul\":9643:9647   */\n      dup3\n        /* \"#utility.yul\":9629:9641   */\n      dup3\n        /* \"#utility.yul\":9575:9648   */\n      tag_130\n      jump\t// in\n    tag_182:\n        /* \"#utility.yul\":9567:9648   */\n      swap2\n      pop\n        /* \"#utility.yul\":9417:9659   */\n      pop\n        /* \"#utility.yul\":9751:9755   */\n      0x60\n        /* \"#utility.yul\":9744:9749   */\n      dup4\n        /* \"#utility.yul\":9740:9756   */\n      add\n        /* \"#utility.yul\":9734:9757   */\n      mload\n        /* \"#utility.yul\":9804:9807   */\n      dup5\n        /* \"#utility.yul\":9798:9802   */\n      dup3\n        /* \"#utility.yul\":9794:9808   */\n      sub\n        /* \"#utility.yul\":9787:9791   */\n      0x60\n        /* \"#utility.yul\":9782:9785   */\n      dup7\n        /* \"#utility.yul\":9778:9792   */\n      add\n        /* \"#utility.yul\":9771:9809   */\n      mstore\n        /* \"#utility.yul\":9830:9903   */\n      tag_183\n        /* \"#utility.yul\":9898:9902   */\n      dup3\n        /* \"#utility.yul\":9884:9896   */\n      dup3\n        /* \"#utility.yul\":9830:9903   */\n      tag_130\n      jump\t// in\n    tag_183:\n        /* \"#utility.yul\":9822:9903   */\n      swap2\n      pop\n        /* \"#utility.yul\":9669:9914   */\n      pop\n        /* \"#utility.yul\":10001:10005   */\n      0x80\n        /* \"#utility.yul\":9994:9999   */\n      dup4\n        /* \"#utility.yul\":9990:10006   */\n      add\n        /* \"#utility.yul\":9984:10007   */\n      mload\n        /* \"#utility.yul\":10054:10057   */\n      dup5\n        /* \"#utility.yul\":10048:10052   */\n      dup3\n        /* \"#utility.yul\":10044:10058   */\n      sub\n        /* \"#utility.yul\":10037:10041   */\n      0x80\n        /* \"#utility.yul\":10032:10035   */\n      dup7\n        /* \"#utility.yul\":10028:10042   */\n      add\n        /* \"#utility.yul\":10021:10059   */\n      mstore\n        /* \"#utility.yul\":10080:10153   */\n      tag_184\n        /* \"#utility.yul\":10148:10152   */\n      dup3\n        /* \"#utility.yul\":10134:10146   */\n      dup3\n        /* \"#utility.yul\":10080:10153   */\n      tag_130\n      jump\t// in\n    tag_184:\n        /* \"#utility.yul\":10072:10153   */\n      swap2\n      pop\n        /* \"#utility.yul\":9924:10164   */\n      pop\n        /* \"#utility.yul\":10254:10258   */\n      0xa0\n        /* \"#utility.yul\":10247:10252   */\n      dup4\n        /* \"#utility.yul\":10243:10259   */\n      add\n        /* \"#utility.yul\":10237:10260   */\n      mload\n        /* \"#utility.yul\":10307:10310   */\n      dup5\n        /* \"#utility.yul\":10301:10305   */\n      dup3\n        /* \"#utility.yul\":10297:10311   */\n      sub\n        /* \"#utility.yul\":10290:10294   */\n      0xa0\n        /* \"#utility.yul\":10285:10288   */\n      dup7\n        /* \"#utility.yul\":10281:10295   */\n      add\n        /* \"#utility.yul\":10274:10312   */\n      mstore\n        /* \"#utility.yul\":10333:10456   */\n      tag_185\n        /* \"#utility.yul\":10451:10455   */\n      dup3\n        /* \"#utility.yul\":10437:10449   */\n      dup3\n        /* \"#utility.yul\":10333:10456   */\n      tag_138\n      jump\t// in\n    tag_185:\n        /* \"#utility.yul\":10325:10456   */\n      swap2\n      pop\n        /* \"#utility.yul\":10174:10467   */\n      pop\n        /* \"#utility.yul\":10484:10488   */\n      dup1\n        /* \"#utility.yul\":10477:10488   */\n      swap2\n      pop\n        /* \"#utility.yul\":9008:10494   */\n      pop\n        /* \"#utility.yul\":8884:10494   */\n      swap3\n      swap2\n      pop\n      pop\n      jump\t// out\n        /* \"#utility.yul\":10534:11394   */\n    tag_186:\n        /* \"#utility.yul\":10671:10675   */\n      0x80\n        /* \"#utility.yul\":10666:10669   */\n      dup3\n        /* \"#utility.yul\":10662:10676   */\n      add\n        /* \"#utility.yul\":10766:10770   */\n      0x00\n        /* \"#utility.yul\":10759:10764   */\n      dup3\n        /* \"#utility.yul\":10755:10771   */\n      add\n        /* \"#utility.yul\":10749:10772   */\n      mload\n        /* \"#utility.yul\":10785:10848   */\n      tag_188\n        /* \"#utility.yul\":10842:10846   */\n      0x00\n        /* \"#utility.yul\":10837:10840   */\n      dup6\n        /* \"#utility.yul\":10833:10847   */\n      add\n        /* \"#utility.yul\":10819:10831   */\n      dup3\n        /* \"#utility.yul\":10785:10848   */\n      tag_131\n      jump\t// in\n    tag_188:\n        /* \"#utility.yul\":10686:10858   */\n      pop\n        /* \"#utility.yul\":10947:10951   */\n      0x20\n        /* \"#utility.yul\":10940:10945   */\n      dup3\n        /* \"#utility.yul\":10936:10952   */\n      add\n        /* \"#utility.yul\":10930:10953   */\n      mload\n        /* \"#utility.yul\":10966:11029   */\n      tag_189\n        /* \"#utility.yul\":11023:11027   */\n      0x20\n        /* \"#utility.yul\":11018:11021   */\n      dup6\n        /* \"#utility.yul\":11014:11028   */\n      add\n        /* \"#utility.yul\":11000:11012   */\n      dup3\n        /* \"#utility.yul\":10966:11029   */\n      tag_131\n      jump\t// in\n    tag_189:\n        /* \"#utility.yul\":10868:11039   */\n      pop\n        /* \"#utility.yul\":11124:11128   */\n      0x40\n        /* \"#utility.yul\":11117:11122   */\n      dup3\n        /* \"#utility.yul\":11113:11129   */\n      add\n        /* \"#utility.yul\":11107:11130   */\n      mload\n        /* \"#utility.yul\":11143:11206   */\n      tag_190\n        /* \"#utility.yul\":11200:11204   */\n      0x40\n        /* \"#utility.yul\":11195:11198   */\n      dup6\n        /* \"#utility.yul\":11191:11205   */\n      add\n        /* \"#utility.yul\":11177:11189   */\n      dup3\n        /* \"#utility.yul\":11143:11206   */\n      tag_191\n      jump\t// in\n    tag_190:\n        /* \"#utility.yul\":11049:11216   */\n      pop\n        /* \"#utility.yul\":11301:11305   */\n      0x60\n        /* \"#utility.yul\":11294:11299   */\n      dup3\n        /* \"#utility.yul\":11290:11306   */\n      add\n        /* \"#utility.yul\":11284:11307   */\n      mload\n        /* \"#utility.yul\":11320:11377   */\n      tag_192\n        /* \"#utility.yul\":11371:11375   */\n      0x60\n        /* \"#utility.yul\":11366:11369   */\n      dup6\n        /* \"#utility.yul\":11362:11376   */\n      add\n        /* \"#utility.yul\":11348:11360   */\n      dup3\n        /* \"#utility.yul\":11320:11377   */\n      tag_152\n      jump\t// in\n    tag_192:\n        /* \"#utility.yul\":11226:11387   */\n      pop\n        /* \"#utility.yul\":10640:11394   */\n      pop\n        /* \"#utility.yul\":10534:11394   */\n      pop\n      pop\n      jump\t// out\n        /* \"#utility.yul\":11400:11508   */\n    tag_191:\n        /* \"#utility.yul\":11477:11501   */\n      tag_194\n        /* \"#utility.yul\":11495:11500   */\n      dup2\n        /* \"#utility.yul\":11477:11501   */\n      tag_195\n      jump\t// in\n    tag_194:\n        /* \"#utility.yul\":11472:11475   */\n      dup3\n        /* \"#utility.yul\":11465:11502   */\n      mstore\n        /* \"#utility.yul\":11400:11508   */\n      pop\n      pop\n      jump\t// out\n        /* \"#utility.yul\":11514:11632   */\n    tag_196:\n        /* \"#utility.yul\":11601:11625   */\n      tag_198\n        /* \"#utility.yul\":11619:11624   */\n      dup2\n        /* \"#utility.yul\":11601:11625   */\n      tag_195\n      jump\t// in\n    tag_198:\n        /* \"#utility.yul\":11596:11599   */\n      dup3\n        /* \"#utility.yul\":11589:11626   */\n      mstore\n        /* \"#utility.yul\":11514:11632   */\n      pop\n      pop\n      jump\t// out\n        /* \"#utility.yul\":11638:11860   */\n    tag_15:\n        /* \"#utility.yul\":11731:11735   */\n      0x00\n        /* \"#utility.yul\":11769:11771   */\n      0x20\n        /* \"#utility.yul\":11758:11767   */\n      dup3\n        /* \"#utility.yul\":11754:11772   */\n      add\n        /* \"#utility.yul\":11746:11772   */\n      swap1\n      pop\n        /* \"#utility.yul\":11782:11853   */\n      tag_200\n        /* \"#utility.yul\":11850:11851   */\n      0x00\n        /* \"#utility.yul\":11839:11848   */\n      dup4\n        /* \"#utility.yul\":11835:11852   */\n      add\n        /* \"#utility.yul\":11826:11832   */\n      dup5\n        /* \"#utility.yul\":11782:11853   */\n      tag_135\n      jump\t// in\n    tag_200:\n        /* \"#utility.yul\":11638:11860   */\n      swap3\n      swap2\n      pop\n      pop\n      jump\t// out\n        /* \"#utility.yul\":11866:12285   */\n    tag_34:\n        /* \"#utility.yul\":12032:12036   */\n      0x00\n        /* \"#utility.yul\":12070:12072   */\n      0x20\n        /* \"#utility.yul\":12059:12068   */\n      dup3\n        /* \"#utility.yul\":12055:12073   */\n      add\n        /* \"#utility.yul\":12047:12073   */\n      swap1\n      pop\n        /* \"#utility.yul\":12119:12128   */\n      dup2\n        /* \"#utility.yul\":12113:12117   */\n      dup2\n        /* \"#utility.yul\":12109:12129   */\n      sub\n        /* \"#utility.yul\":12105:12106   */\n      0x00\n        /* \"#utility.yul\":12094:12103   */\n      dup4\n        /* \"#utility.yul\":12090:12107   */\n      add\n        /* \"#utility.yul\":12083:12130   */\n      mstore\n        /* \"#utility.yul\":12147:12278   */\n      tag_202\n        /* \"#utility.yul\":12273:12277   */\n      dup2\n        /* \"#utility.yul\":12147:12278   */\n      tag_167\n      jump\t// in\n    tag_202:\n        /* \"#utility.yul\":12139:12278   */\n      swap1\n      pop\n        /* \"#utility.yul\":11866:12285   */\n      swap2\n      swap1\n      pop\n      jump\t// out\n        /* \"#utility.yul\":12291:12710   */\n    tag_37:\n        /* \"#utility.yul\":12457:12461   */\n      0x00\n        /* \"#utility.yul\":12495:12497   */\n      0x20\n        /* \"#utility.yul\":12484:12493   */\n      dup3\n        /* \"#utility.yul\":12480:12498   */\n      add\n        /* \"#utility.yul\":12472:12498   */\n      swap1\n      pop\n        /* \"#utility.yul\":12544:12553   */\n      dup2\n        /* \"#utility.yul\":12538:12542   */\n      dup2\n        /* \"#utility.yul\":12534:12554   */\n      sub\n        /* \"#utility.yul\":12530:12531   */\n      0x00\n        /* \"#utility.yul\":12519:12528   */\n      dup4\n        /* \"#utility.yul\":12515:12532   */\n      add\n        /* \"#utility.yul\":12508:12555   */\n      mstore\n        /* \"#utility.yul\":12572:12703   */\n      tag_204\n        /* \"#utility.yul\":12698:12702   */\n      dup2\n        /* \"#utility.yul\":12572:12703   */\n      tag_173\n      jump\t// in\n    tag_204:\n        /* \"#utility.yul\":12564:12703   */\n      swap1\n      pop\n        /* \"#utility.yul\":12291:12710   */\n      swap2\n      swap1\n      pop\n      jump\t// out\n        /* \"#utility.yul\":12716:13187   */\n    tag_39:\n        /* \"#utility.yul\":12881:12885   */\n      0x00\n        /* \"#utility.yul\":12919:12921   */\n      0x40\n        /* \"#utility.yul\":12908:12917   */\n      dup3\n        /* \"#utility.yul\":12904:12922   */\n      add\n        /* \"#utility.yul\":12896:12922   */\n      swap1\n      pop\n        /* \"#utility.yul\":12968:12977   */\n      dup2\n        /* \"#utility.yul\":12962:12966   */\n      dup2\n        /* \"#utility.yul\":12958:12978   */\n      sub\n        /* \"#utility.yul\":12954:12955   */\n      0x00\n        /* \"#utility.yul\":12943:12952   */\n      dup4\n        /* \"#utility.yul\":12939:12956   */\n      add\n        /* \"#utility.yul\":12932:12979   */\n      mstore\n        /* \"#utility.yul\":12996:13104   */\n      tag_206\n        /* \"#utility.yul\":13099:13103   */\n      dup2\n        /* \"#utility.yul\":13090:13096   */\n      dup6\n        /* \"#utility.yul\":12996:13104   */\n      tag_178\n      jump\t// in\n    tag_206:\n        /* \"#utility.yul\":12988:13104   */\n      swap1\n      pop\n        /* \"#utility.yul\":13114:13180   */\n      tag_207\n        /* \"#utility.yul\":13176:13178   */\n      0x20\n        /* \"#utility.yul\":13165:13174   */\n      dup4\n        /* \"#utility.yul\":13161:13179   */\n      add\n        /* \"#utility.yul\":13152:13158   */\n      dup5\n        /* \"#utility.yul\":13114:13180   */\n      tag_156\n      jump\t// in\n    tag_207:\n        /* \"#utility.yul\":12716:13187   */\n      swap4\n      swap3\n      pop\n      pop\n      pop\n      jump\t// out\n        /* \"#utility.yul\":13193:13496   */\n    tag_11:\n        /* \"#utility.yul\":13326:13330   */\n      0x00\n        /* \"#utility.yul\":13364:13367   */\n      0x80\n        /* \"#utility.yul\":13353:13362   */\n      dup3\n        /* \"#utility.yul\":13349:13368   */\n      add\n        /* \"#utility.yul\":13341:13368   */\n      swap1\n      pop\n        /* \"#utility.yul\":13378:13489   */\n      tag_209\n        /* \"#utility.yul\":13486:13487   */\n      0x00\n        /* \"#utility.yul\":13475:13484   */\n      dup4\n        /* \"#utility.yul\":13471:13488   */\n      add\n        /* \"#utility.yul\":13462:13468   */\n      dup5\n        /* \"#utility.yul\":13378:13489   */\n      tag_186\n      jump\t// in\n    tag_209:\n        /* \"#utility.yul\":13193:13496   */\n      swap3\n      swap2\n      pop\n      pop\n      jump\t// out\n        /* \"#utility.yul\":13502:13724   */\n    tag_26:\n        /* \"#utility.yul\":13595:13599   */\n      0x00\n        /* \"#utility.yul\":13633:13635   */\n      0x20\n        /* \"#utility.yul\":13622:13631   */\n      dup3\n        /* \"#utility.yul\":13618:13636   */\n      add\n        /* \"#utility.yul\":13610:13636   */\n      swap1\n      pop\n        /* \"#utility.yul\":13646:13717   */\n      tag_211\n        /* \"#utility.yul\":13714:13715   */\n      0x00\n        /* \"#utility.yul\":13703:13712   */\n      dup4\n        /* \"#utility.yul\":13699:13716   */\n      add\n        /* \"#utility.yul\":13690:13696   */\n      dup5\n        /* \"#utility.yul\":13646:13717   */\n      tag_196\n      jump\t// in\n    tag_211:\n        /* \"#utility.yul\":13502:13724   */\n      swap3\n      swap2\n      pop\n      pop\n      jump\t// out\n        /* \"#utility.yul\":13730:13859   */\n    tag_46:\n        /* \"#utility.yul\":13764:13770   */\n      0x00\n        /* \"#utility.yul\":13791:13811   */\n      tag_213\n      tag_214\n      jump\t// in\n    tag_213:\n        /* \"#utility.yul\":13781:13811   */\n      swap1\n      pop\n        /* \"#utility.yul\":13820:13853   */\n      tag_215\n        /* \"#utility.yul\":13848:13852   */\n      dup3\n        /* \"#utility.yul\":13840:13846   */\n      dup3\n        /* \"#utility.yul\":13820:13853   */\n      tag_216\n      jump\t// in\n    tag_215:\n        /* \"#utility.yul\":13730:13859   */\n      swap2\n      swap1\n      pop\n      jump\t// out\n        /* \"#utility.yul\":13865:13940   */\n    tag_214:\n        /* \"#utility.yul\":13898:13904   */\n      0x00\n        /* \"#utility.yul\":13931:13933   */\n      0x40\n        /* \"#utility.yul\":13925:13934   */\n      mload\n        /* \"#utility.yul\":13915:13934   */\n      swap1\n      pop\n        /* \"#utility.yul\":13865:13940   */\n      swap1\n      jump\t// out\n        /* \"#utility.yul\":13946:14267   */\n    tag_45:\n        /* \"#utility.yul\":14033:14037   */\n      0x00\n        /* \"#utility.yul\":14123:14141   */\n      0xffffffffffffffff\n        /* \"#utility.yul\":14115:14121   */\n      dup3\n        /* \"#utility.yul\":14112:14142   */\n      gt\n        /* \"#utility.yul\":14109:14165   */\n      iszero\n      tag_219\n      jumpi\n        /* \"#utility.yul\":14145:14163   */\n      tag_220\n      tag_221\n      jump\t// in\n    tag_220:\n        /* \"#utility.yul\":14109:14165   */\n    tag_219:\n        /* \"#utility.yul\":14195:14199   */\n      0x20\n        /* \"#utility.yul\":14187:14193   */\n      dup3\n        /* \"#utility.yul\":14183:14200   */\n      mul\n        /* \"#utility.yul\":14175:14200   */\n      swap1\n      pop\n        /* \"#utility.yul\":14255:14259   */\n      0x20\n        /* \"#utility.yul\":14249:14253   */\n      dup2\n        /* \"#utility.yul\":14245:14260   */\n      add\n        /* \"#utility.yul\":14237:14260   */\n      swap1\n      pop\n        /* \"#utility.yul\":13946:14267   */\n      swap2\n      swap1\n      pop\n      jump\t// out\n        /* \"#utility.yul\":14273:14581   */\n    tag_62:\n        /* \"#utility.yul\":14335:14339   */\n      0x00\n        /* \"#utility.yul\":14425:14443   */\n      0xffffffffffffffff\n        /* \"#utility.yul\":14417:14423   */\n      dup3\n        /* \"#utility.yul\":14414:14444   */\n      gt\n        /* \"#utility.yul\":14411:14467   */\n      iszero\n      tag_223\n      jumpi\n        /* \"#utility.yul\":14447:14465   */\n      tag_224\n      tag_221\n      jump\t// in\n    tag_224:\n        /* \"#utility.yul\":14411:14467   */\n    tag_223:\n        /* \"#utility.yul\":14485:14514   */\n      tag_225\n        /* \"#utility.yul\":14507:14513   */\n      dup3\n        /* \"#utility.yul\":14485:14514   */\n      tag_166\n      jump\t// in\n    tag_225:\n        /* \"#utility.yul\":14477:14514   */\n      swap1\n      pop\n        /* \"#utility.yul\":14569:14573   */\n      0x20\n        /* \"#utility.yul\":14563:14567   */\n      dup2\n        /* \"#utility.yul\":14559:14574   */\n      add\n        /* \"#utility.yul\":14551:14574   */\n      swap1\n      pop\n        /* \"#utility.yul\":14273:14581   */\n      swap2\n      swap1\n      pop\n      jump\t// out\n        /* \"#utility.yul\":14587:14729   */\n    tag_145:\n        /* \"#utility.yul\":14664:14668   */\n      0x00\n        /* \"#utility.yul\":14687:14690   */\n      dup2\n        /* \"#utility.yul\":14679:14690   */\n      swap1\n      pop\n        /* \"#utility.yul\":14717:14721   */\n      0x20\n        /* \"#utility.yul\":14712:14715   */\n      dup3\n        /* \"#utility.yul\":14708:14722   */\n      add\n        /* \"#utility.yul\":14700:14722   */\n      swap1\n      pop\n        /* \"#utility.yul\":14587:14729   */\n      swap2\n      swap1\n      pop\n      jump\t// out\n        /* \"#utility.yul\":14735:14859   */\n    tag_141:\n        /* \"#utility.yul\":14812:14818   */\n      0x00\n        /* \"#utility.yul\":14846:14851   */\n      dup2\n        /* \"#utility.yul\":14840:14852   */\n      mload\n        /* \"#utility.yul\":14830:14852   */\n      swap1\n      pop\n        /* \"#utility.yul\":14735:14859   */\n      swap2\n      swap1\n      pop\n      jump\t// out\n        /* \"#utility.yul\":14865:14964   */\n    tag_161:\n        /* \"#utility.yul\":14917:14923   */\n      0x00\n        /* \"#utility.yul\":14951:14956   */\n      dup2\n        /* \"#utility.yul\":14945:14957   */\n      mload\n        /* \"#utility.yul\":14935:14957   */\n      swap1\n      pop\n        /* \"#utility.yul\":14865:14964   */\n      swap2\n      swap1\n      pop\n      jump\t// out\n        /* \"#utility.yul\":14970:15093   */\n    tag_151:\n        /* \"#utility.yul\":15050:15054   */\n      0x00\n        /* \"#utility.yul\":15082:15086   */\n      0x20\n        /* \"#utility.yul\":15077:15080   */\n      dup3\n        /* \"#utility.yul\":15073:15087   */\n      add\n        /* \"#utility.yul\":15065:15087   */\n      swap1\n      pop\n        /* \"#utility.yul\":14970:15093   */\n      swap2\n      swap1\n      pop\n      jump\t// out\n        /* \"#utility.yul\":15099:15283   */\n    tag_143:\n        /* \"#utility.yul\":15198:15209   */\n      0x00\n        /* \"#utility.yul\":15232:15238   */\n      dup3\n        /* \"#utility.yul\":15227:15230   */\n      dup3\n        /* \"#utility.yul\":15220:15239   */\n      mstore\n        /* \"#utility.yul\":15272:15276   */\n      0x20\n        /* \"#utility.yul\":15267:15270   */\n      dup3\n        /* \"#utility.yul\":15263:15277   */\n      add\n        /* \"#utility.yul\":15248:15277   */\n      swap1\n      pop\n        /* \"#utility.yul\":15099:15283   */\n      swap3\n      swap2\n      pop\n      pop\n      jump\t// out\n        /* \"#utility.yul\":15289:15448   */\n    tag_163:\n        /* \"#utility.yul\":15363:15374   */\n      0x00\n        /* \"#utility.yul\":15397:15403   */\n      dup3\n        /* \"#utility.yul\":15392:15395   */\n      dup3\n        /* \"#utility.yul\":15385:15404   */\n      mstore\n        /* \"#utility.yul\":15437:15441   */\n      0x20\n        /* \"#utility.yul\":15432:15435   */\n      dup3\n        /* \"#utility.yul\":15428:15442   */\n      add\n        /* \"#utility.yul\":15413:15442   */\n      swap1\n      pop\n        /* \"#utility.yul\":15289:15448   */\n      swap3\n      swap2\n      pop\n      pop\n      jump\t// out\n        /* \"#utility.yul\":15454:15623   */\n    tag_170:\n        /* \"#utility.yul\":15538:15549   */\n      0x00\n        /* \"#utility.yul\":15572:15578   */\n      dup3\n        /* \"#utility.yul\":15567:15570   */\n      dup3\n        /* \"#utility.yul\":15560:15579   */\n      mstore\n        /* \"#utility.yul\":15612:15616   */\n      0x20\n        /* \"#utility.yul\":15607:15610   */\n      dup3\n        /* \"#utility.yul\":15603:15617   */\n      add\n        /* \"#utility.yul\":15588:15617   */\n      swap1\n      pop\n        /* \"#utility.yul\":15454:15623   */\n      swap3\n      swap2\n      pop\n      pop\n      jump\t// out\n        /* \"#utility.yul\":15629:15725   */\n    tag_134:\n        /* \"#utility.yul\":15666:15673   */\n      0x00\n        /* \"#utility.yul\":15695:15719   */\n      tag_234\n        /* \"#utility.yul\":15713:15718   */\n      dup3\n        /* \"#utility.yul\":15695:15719   */\n      tag_235\n      jump\t// in\n    tag_234:\n        /* \"#utility.yul\":15684:15719   */\n      swap1\n      pop\n        /* \"#utility.yul\":15629:15725   */\n      swap2\n      swap1\n      pop\n      jump\t// out\n        /* \"#utility.yul\":15731:15821   */\n    tag_155:\n        /* \"#utility.yul\":15765:15772   */\n      0x00\n        /* \"#utility.yul\":15808:15813   */\n      dup2\n        /* \"#utility.yul\":15801:15814   */\n      iszero\n        /* \"#utility.yul\":15794:15815   */\n      iszero\n        /* \"#utility.yul\":15783:15815   */\n      swap1\n      pop\n        /* \"#utility.yul\":15731:15821   */\n      swap2\n      swap1\n      pop\n      jump\t// out\n        /* \"#utility.yul\":15827:15953   */\n    tag_235:\n        /* \"#utility.yul\":15864:15871   */\n      0x00\n        /* \"#utility.yul\":15904:15946   */\n      0xffffffffffffffffffffffffffffffffffffffff\n        /* \"#utility.yul\":15897:15902   */\n      dup3\n        /* \"#utility.yul\":15893:15947   */\n      and\n        /* \"#utility.yul\":15882:15947   */\n      swap1\n      pop\n        /* \"#utility.yul\":15827:15953   */\n      swap2\n      swap1\n      pop\n      jump\t// out\n        /* \"#utility.yul\":15959:16036   */\n    tag_195:\n        /* \"#utility.yul\":15996:16003   */\n      0x00\n        /* \"#utility.yul\":16025:16030   */\n      dup2\n        /* \"#utility.yul\":16014:16030   */\n      swap1\n      pop\n        /* \"#utility.yul\":15959:16036   */\n      swap2\n      swap1\n      pop\n      jump\t// out\n        /* \"#utility.yul\":16042:16349   */\n    tag_67:\n        /* \"#utility.yul\":16110:16111   */\n      0x00\n        /* \"#utility.yul\":16120:16233   */\n    tag_240:\n        /* \"#utility.yul\":16134:16140   */\n      dup4\n        /* \"#utility.yul\":16131:16132   */\n      dup2\n        /* \"#utility.yul\":16128:16141   */\n      lt\n        /* \"#utility.yul\":16120:16233   */\n      iszero\n      tag_242\n      jumpi\n        /* \"#utility.yul\":16219:16220   */\n      dup1\n        /* \"#utility.yul\":16214:16217   */\n      dup3\n        /* \"#utility.yul\":16210:16221   */\n      add\n        /* \"#utility.yul\":16204:16222   */\n      mload\n        /* \"#utility.yul\":16200:16201   */\n      dup2\n        /* \"#utility.yul\":16195:16198   */\n      dup5\n        /* \"#utility.yul\":16191:16202   */\n      add\n        /* \"#utility.yul\":16184:16223   */\n      mstore\n        /* \"#utility.yul\":16156:16158   */\n      0x20\n        /* \"#utility.yul\":16153:16154   */\n      dup2\n        /* \"#utility.yul\":16149:16159   */\n      add\n        /* \"#utility.yul\":16144:16159   */\n      swap1\n      pop\n        /* \"#utility.yul\":16120:16233   */\n      jump(tag_240)\n    tag_242:\n        /* \"#utility.yul\":16251:16257   */\n      dup4\n        /* \"#utility.yul\":16248:16249   */\n      dup2\n        /* \"#utility.yul\":16245:16258   */\n      gt\n        /* \"#utility.yul\":16242:16343   */\n      iszero\n      tag_243\n      jumpi\n        /* \"#utility.yul\":16331:16332   */\n      0x00\n        /* \"#utility.yul\":16322:16328   */\n      dup5\n        /* \"#utility.yul\":16317:16320   */\n      dup5\n        /* \"#utility.yul\":16313:16329   */\n      add\n        /* \"#utility.yul\":16306:16333   */\n      mstore\n        /* \"#utility.yul\":16242:16343   */\n    tag_243:\n        /* \"#utility.yul\":16091:16349   */\n      pop\n        /* \"#utility.yul\":16042:16349   */\n      pop\n      pop\n      pop\n      jump\t// out\n        /* \"#utility.yul\":16355:16636   */\n    tag_216:\n        /* \"#utility.yul\":16438:16465   */\n      tag_245\n        /* \"#utility.yul\":16460:16464   */\n      dup3\n        /* \"#utility.yul\":16438:16465   */\n      tag_166\n      jump\t// in\n    tag_245:\n        /* \"#utility.yul\":16430:16436   */\n      dup2\n        /* \"#utility.yul\":16426:16466   */\n      add\n        /* \"#utility.yul\":16568:16574   */\n      dup2\n        /* \"#utility.yul\":16556:16566   */\n      dup2\n        /* \"#utility.yul\":16553:16575   */\n      lt\n        /* \"#utility.yul\":16532:16550   */\n      0xffffffffffffffff\n        /* \"#utility.yul\":16520:16530   */\n      dup3\n        /* \"#utility.yul\":16517:16551   */\n      gt\n        /* \"#utility.yul\":16514:16576   */\n      or\n        /* \"#utility.yul\":16511:16599   */\n      iszero\n      tag_246\n      jumpi\n        /* \"#utility.yul\":16579:16597   */\n      tag_247\n      tag_221\n      jump\t// in\n    tag_247:\n        /* \"#utility.yul\":16511:16599   */\n    tag_246:\n        /* \"#utility.yul\":16619:16629   */\n      dup1\n        /* \"#utility.yul\":16615:16617   */\n      0x40\n        /* \"#utility.yul\":16608:16630   */\n      mstore\n        /* \"#utility.yul\":16398:16636   */\n      pop\n        /* \"#utility.yul\":16355:16636   */\n      pop\n      pop\n      jump\t// out\n        /* \"#utility.yul\":16642:16822   */\n    tag_221:\n        /* \"#utility.yul\":16690:16767   */\n      0x4e487b7100000000000000000000000000000000000000000000000000000000\n        /* \"#utility.yul\":16687:16688   */\n      0x00\n        /* \"#utility.yul\":16680:16768   */\n      mstore\n        /* \"#utility.yul\":16787:16791   */\n      0x41\n        /* \"#utility.yul\":16784:16785   */\n      0x04\n        /* \"#utility.yul\":16777:16792   */\n      mstore\n        /* \"#utility.yul\":16811:16815   */\n      0x24\n        /* \"#utility.yul\":16808:16809   */\n      0x00\n        /* \"#utility.yul\":16801:16816   */\n      revert\n        /* \"#utility.yul\":16828:16945   */\n    tag_55:\n        /* \"#utility.yul\":16937:16938   */\n      0x00\n        /* \"#utility.yul\":16934:16935   */\n      dup1\n        /* \"#utility.yul\":16927:16939   */\n      revert\n        /* \"#utility.yul\":16951:17068   */\n    tag_89:\n        /* \"#utility.yul\":17060:17061   */\n      0x00\n        /* \"#utility.yul\":17057:17058   */\n      dup1\n        /* \"#utility.yul\":17050:17062   */\n      revert\n        /* \"#utility.yul\":17074:17191   */\n    tag_95:\n        /* \"#utility.yul\":17183:17184   */\n      0x00\n        /* \"#utility.yul\":17180:17181   */\n      dup1\n        /* \"#utility.yul\":17173:17185   */\n      revert\n        /* \"#utility.yul\":17197:17314   */\n    tag_49:\n        /* \"#utility.yul\":17306:17307   */\n      0x00\n        /* \"#utility.yul\":17303:17304   */\n      dup1\n        /* \"#utility.yul\":17296:17308   */\n      revert\n        /* \"#utility.yul\":17320:17437   */\n    tag_65:\n        /* \"#utility.yul\":17429:17430   */\n      0x00\n        /* \"#utility.yul\":17426:17427   */\n      dup1\n        /* \"#utility.yul\":17419:17431   */\n      revert\n        /* \"#utility.yul\":17443:17560   */\n    tag_116:\n        /* \"#utility.yul\":17552:17553   */\n      0x00\n        /* \"#utility.yul\":17549:17550   */\n      dup1\n        /* \"#utility.yul\":17542:17554   */\n      revert\n        /* \"#utility.yul\":17566:17683   */\n    tag_113:\n        /* \"#utility.yul\":17675:17676   */\n      0x00\n        /* \"#utility.yul\":17672:17673   */\n      dup1\n        /* \"#utility.yul\":17665:17677   */\n      revert\n        /* \"#utility.yul\":17689:17791   */\n    tag_166:\n        /* \"#utility.yul\":17730:17736   */\n      0x00\n        /* \"#utility.yul\":17781:17783   */\n      0x1f\n        /* \"#utility.yul\":17777:17784   */\n      not\n        /* \"#utility.yul\":17772:17774   */\n      0x1f\n        /* \"#utility.yul\":17765:17770   */\n      dup4\n        /* \"#utility.yul\":17761:17775   */\n      add\n        /* \"#utility.yul\":17757:17785   */\n      and\n        /* \"#utility.yul\":17747:17785   */\n      swap1\n      pop\n        /* \"#utility.yul\":17689:17791   */\n      swap2\n      swap1\n      pop\n      jump\t// out\n        /* \"#utility.yul\":17797:18034   */\n    tag_172:\n        /* \"#utility.yul\":17937:17971   */\n      0x43616e27742066696e6420746869732064617461207573616765207265636f72\n        /* \"#utility.yul\":17933:17934   */\n      0x00\n        /* \"#utility.yul\":17925:17931   */\n      dup3\n        /* \"#utility.yul\":17921:17935   */\n      add\n        /* \"#utility.yul\":17914:17972   */\n      mstore\n        /* \"#utility.yul\":18006:18026   */\n      0x6420776974682074686520757361676549440000000000000000000000000000\n        /* \"#utility.yul\":18001:18003   */\n      0x20\n        /* \"#utility.yul\":17993:17999   */\n      dup3\n        /* \"#utility.yul\":17989:18004   */\n      add\n        /* \"#utility.yul\":17982:18027   */\n      mstore\n        /* \"#utility.yul\":17797:18034   */\n      pop\n      jump\t// out\n        /* \"#utility.yul\":18040:18276   */\n    tag_177:\n        /* \"#utility.yul\":18180:18214   */\n      0x546865207573657220646f65736e27742062656c6f6e6720746f207468697320\n        /* \"#utility.yul\":18176:18177   */\n      0x00\n        /* \"#utility.yul\":18168:18174   */\n      dup3\n        /* \"#utility.yul\":18164:18178   */\n      add\n        /* \"#utility.yul\":18157:18215   */\n      mstore\n        /* \"#utility.yul\":18249:18268   */\n      0x64617461207573616765207265636f7264000000000000000000000000000000\n        /* \"#utility.yul\":18244:18246   */\n      0x20\n        /* \"#utility.yul\":18236:18242   */\n      dup3\n        /* \"#utility.yul\":18232:18247   */\n      add\n        /* \"#utility.yul\":18225:18269   */\n      mstore\n        /* \"#utility.yul\":18040:18276   */\n      pop\n      jump\t// out\n        /* \"#utility.yul\":18282:18404   */\n    tag_71:\n        /* \"#utility.yul\":18355:18379   */\n      tag_260\n        /* \"#utility.yul\":18373:18378   */\n      dup2\n        /* \"#utility.yul\":18355:18379   */\n      tag_134\n      jump\t// in\n    tag_260:\n        /* \"#utility.yul\":18348:18353   */\n      dup2\n        /* \"#utility.yul\":18345:18380   */\n      eq\n        /* \"#utility.yul\":18335:18398   */\n      tag_261\n      jumpi\n        /* \"#utility.yul\":18394:18395   */\n      0x00\n        /* \"#utility.yul\":18391:18392   */\n      dup1\n        /* \"#utility.yul\":18384:18396   */\n      revert\n        /* \"#utility.yul\":18335:18398   */\n    tag_261:\n        /* \"#utility.yul\":18282:18404   */\n      pop\n      jump\t// out\n        /* \"#utility.yul\":18410:18526   */\n    tag_80:\n        /* \"#utility.yul\":18480:18501   */\n      tag_263\n        /* \"#utility.yul\":18495:18500   */\n      dup2\n        /* \"#utility.yul\":18480:18501   */\n      tag_155\n      jump\t// in\n    tag_263:\n        /* \"#utility.yul\":18473:18478   */\n      dup2\n        /* \"#utility.yul\":18470:18502   */\n      eq\n        /* \"#utility.yul\":18460:18520   */\n      tag_264\n      jumpi\n        /* \"#utility.yul\":18516:18517   */\n      0x00\n        /* \"#utility.yul\":18513:18514   */\n      dup1\n        /* \"#utility.yul\":18506:18518   */\n      revert\n        /* \"#utility.yul\":18460:18520   */\n    tag_264:\n        /* \"#utility.yul\":18410:18526   */\n      pop\n      jump\t// out\n        /* \"#utility.yul\":18532:18654   */\n    tag_109:\n        /* \"#utility.yul\":18605:18629   */\n      tag_266\n        /* \"#utility.yul\":18623:18628   */\n      dup2\n        /* \"#utility.yul\":18605:18629   */\n      tag_195\n      jump\t// in\n    tag_266:\n        /* \"#utility.yul\":18598:18603   */\n      dup2\n        /* \"#utility.yul\":18595:18630   */\n      eq\n        /* \"#utility.yul\":18585:18648   */\n      tag_267\n      jumpi\n        /* \"#utility.yul\":18644:18645   */\n      0x00\n        /* \"#utility.yul\":18641:18642   */\n      dup1\n        /* \"#utility.yul\":18634:18646   */\n      revert\n        /* \"#utility.yul\":18585:18648   */\n    tag_267:\n        /* \"#utility.yul\":18532:18654   */\n      pop\n      jump\t// out\n\n    auxdata: 0xa2646970667358221220a05b26ce2230c4651dd924bdeb61398aa3616984a0a328e78070b8c705fcd16164736f6c63430008070033\n}\n",
				"bytecode": {
					"linkReferences": {},
					"object": "608060405234801561001057600080fd5b50604051620010323803806200103283398181016040528101906100349190610133565b336000806101000a81548173ffffffffffffffffffffffffffffffffffffffff021916908373ffffffffffffffffffffffffffffffffffffffff16021790555080600160006101000a81548173ffffffffffffffffffffffffffffffffffffffff021916908373ffffffffffffffffffffffffffffffffffffffff160217905550600160009054906101000a900473ffffffffffffffffffffffffffffffffffffffff16600260006101000a81548173ffffffffffffffffffffffffffffffffffffffff021916908373ffffffffffffffffffffffffffffffffffffffff160217905550506101ae565b60008151905061012d81610197565b92915050565b60006020828403121561014957610148610192565b5b60006101578482850161011e565b91505092915050565b600061016b82610172565b9050919050565b600073ffffffffffffffffffffffffffffffffffffffff82169050919050565b600080fd5b6101a081610160565b81146101ab57600080fd5b50565b610e7480620001be6000396000f3fe608060405234801561001057600080fd5b50600436106100415760003560e01c80632063455f1461004657806332a2c5d014610076578063c9d27afe14610094575b600080fd5b610060600480360381019061005b91906107e1565b6100b0565b60405161006d9190610b2e565b60405180910390f35b61007e6101ae565b60405161008b9190610aa3565b60405180910390f35b6100ae60048036038101906100a9919061080e565b6101b6565b005b6100b86104c7565b600360008381526020019081526020016000206040518060800160405290816000820160009054906101000a900473ffffffffffffffffffffffffffffffffffffffff1673ffffffffffffffffffffffffffffffffffffffff1673ffffffffffffffffffffffffffffffffffffffff1681526020016001820160009054906101000a900473ffffffffffffffffffffffffffffffffffffffff1673ffffffffffffffffffffffffffffffffffffffff1673ffffffffffffffffffffffffffffffffffffffff168152602001600282015481526020016003820160009054906101000a900460ff1615151515815250509050919050565b600030905090565b6000600260009054906101000a900473ffffffffffffffffffffffffffffffffffffffff1673ffffffffffffffffffffffffffffffffffffffff1663a812ee29846040518263ffffffff1660e01b81526004016102139190610b49565b60006040518083038186803b15801561022b57600080fd5b505afa15801561023f573d6000803e3d6000fd5b505050506040513d6000823e3d601f19601f820116820180604052508101906102689190610798565b9050600073ffffffffffffffffffffffffffffffffffffffff16816020015173ffffffffffffffffffffffffffffffffffffffff1614156102de576040517f08c379a00000000000000000000000000000000000000000000000000000000081526004016102d590610abe565b60405180910390fd5b806020015173ffffffffffffffffffffffffffffffffffffffff163373ffffffffffffffffffffffffffffffffffffffff1614610350576040517f08c379a000000000000000000000000000000000000000000000000000000000815260040161034790610ade565b60405180910390fd5b6040518060800160405280826000015173ffffffffffffffffffffffffffffffffffffffff1681526020013373ffffffffffffffffffffffffffffffffffffffff1681526020018481526020018315158152506003600085815260200190815260200160002060008201518160000160006101000a81548173ffffffffffffffffffffffffffffffffffffffff021916908373ffffffffffffffffffffffffffffffffffffffff16021790555060208201518160010160006101000a81548173ffffffffffffffffffffffffffffffffffffffff021916908373ffffffffffffffffffffffffffffffffffffffff1602179055506040820151816002015560608201518160030160006101000a81548160ff021916908315150217905550905050823373ffffffffffffffffffffffffffffffffffffffff167f71559d481c3e666d4b3424c6727d9c78b6f406deabc7733884489a3136d7d94a83856040516104ba929190610afe565b60405180910390a3505050565b6040518060800160405280600073ffffffffffffffffffffffffffffffffffffffff168152602001600073ffffffffffffffffffffffffffffffffffffffff168152602001600081526020016000151581525090565b600061053061052b84610b89565b610b64565b9050808382526020820190508285602086028201111561055357610552610d36565b5b60005b858110156105a157815167ffffffffffffffff81111561057957610578610d27565b5b8086016105868982610645565b85526020850194506020840193505050600181019050610556565b5050509392505050565b60006105be6105b984610bb5565b610b64565b9050828152602081018484840111156105da576105d9610d3b565b5b6105e5848285610c94565b509392505050565b6000815190506105fc81610df9565b92915050565b600082601f83011261061757610616610d27565b5b815161062784826020860161051d565b91505092915050565b60008135905061063f81610e10565b92915050565b600082601f83011261065a57610659610d27565b5b815161066a8482602086016105ab565b91505092915050565b600060c0828403121561068957610688610d2c565b5b61069360c0610b64565b905060006106a3848285016105ed565b60008301525060206106b7848285016105ed565b602083015250604082015167ffffffffffffffff8111156106db576106da610d31565b5b6106e784828501610645565b604083015250606082015167ffffffffffffffff81111561070b5761070a610d31565b5b61071784828501610645565b606083015250608082015167ffffffffffffffff81111561073b5761073a610d31565b5b61074784828501610645565b60808301525060a082015167ffffffffffffffff81111561076b5761076a610d31565b5b61077784828501610602565b60a08301525092915050565b60008135905061079281610e27565b92915050565b6000602082840312156107ae576107ad610d45565b5b600082015167ffffffffffffffff8111156107cc576107cb610d40565b5b6107d884828501610673565b91505092915050565b6000602082840312156107f7576107f6610d45565b5b600061080584828501610783565b91505092915050565b6000806040838503121561082557610824610d45565b5b600061083385828601610783565b925050602061084485828601610630565b9150509250929050565b600061085a8383610913565b905092915050565b61086b81610c4c565b82525050565b61087a81610c4c565b82525050565b600061088b82610bf6565b6108958185610c19565b9350836020820285016108a785610be6565b8060005b858110156108e357848403895281516108c4858261084e565b94506108cf83610c0c565b925060208a019950506001810190506108ab565b50829750879550505050505092915050565b6108fe81610c5e565b82525050565b61090d81610c5e565b82525050565b600061091e82610c01565b6109288185610c2a565b9350610938818560208601610c94565b61094181610d4a565b840191505092915050565b6000610959603283610c3b565b915061096482610d5b565b604082019050919050565b600061097c603183610c3b565b915061098782610daa565b604082019050919050565b600060c0830160008301516109aa6000860182610862565b5060208301516109bd6020860182610862565b50604083015184820360408601526109d58282610913565b915050606083015184820360608601526109ef8282610913565b91505060808301518482036080860152610a098282610913565b91505060a083015184820360a0860152610a238282610880565b9150508091505092915050565b608082016000820151610a466000850182610862565b506020820151610a596020850182610862565b506040820151610a6c6040850182610a85565b506060820151610a7f60608501826108f5565b50505050565b610a8e81610c8a565b82525050565b610a9d81610c8a565b82525050565b6000602082019050610ab86000830184610871565b92915050565b60006020820190508181036000830152610ad78161094c565b9050919050565b60006020820190508181036000830152610af78161096f565b9050919050565b60006040820190508181036000830152610b188185610992565b9050610b276020830184610904565b9392505050565b6000608082019050610b436000830184610a30565b92915050565b6000602082019050610b5e6000830184610a94565b92915050565b6000610b6e610b7f565b9050610b7a8282610cc7565b919050565b6000604051905090565b600067ffffffffffffffff821115610ba457610ba3610cf8565b5b602082029050602081019050919050565b600067ffffffffffffffff821115610bd057610bcf610cf8565b5b610bd982610d4a565b9050602081019050919050565b6000819050602082019050919050565b600081519050919050565b600081519050919050565b6000602082019050919050565b600082825260208201905092915050565b600082825260208201905092915050565b600082825260208201905092915050565b6000610c5782610c6a565b9050919050565b60008115159050919050565b600073ffffffffffffffffffffffffffffffffffffffff82169050919050565b6000819050919050565b60005b83811015610cb2578082015181840152602081019050610c97565b83811115610cc1576000848401525b50505050565b610cd082610d4a565b810181811067ffffffffffffffff82111715610cef57610cee610cf8565b5b80604052505050565b7f4e487b7100000000000000000000000000000000000000000000000000000000600052604160045260246000fd5b600080fd5b600080fd5b600080fd5b600080fd5b600080fd5b600080fd5b600080fd5b6000601f19601f8301169050919050565b7f43616e27742066696e6420746869732064617461207573616765207265636f7260008201527f6420776974682074686520757361676549440000000000000000000000000000602082015250565b7f546865207573657220646f65736e27742062656c6f6e6720746f20746869732060008201527f64617461207573616765207265636f7264000000000000000000000000000000602082015250565b610e0281610c4c565b8114610e0d57600080fd5b50565b610e1981610c5e565b8114610e2457600080fd5b50565b610e3081610c8a565b8114610e3b57600080fd5b5056fea2646970667358221220a05b26ce2230c4651dd924bdeb61398aa3616984a0a328e78070b8c705fcd16164736f6c63430008070033",
					"opcodes": "PUSH1 0x80 PUSH1 0x40 MSTORE CALLVALUE DUP1 ISZERO PUSH2 0x10 JUMPI PUSH1 0x0 DUP1 REVERT JUMPDEST POP PUSH1 0x40 MLOAD PUSH3 0x1032 CODESIZE SUB DUP1 PUSH3 0x1032 DUP4 CODECOPY DUP2 DUP2 ADD PUSH1 0x40 MSTORE DUP2 ADD SWAP1 PUSH2 0x34 SWAP2 SWAP1 PUSH2 0x133 JUMP JUMPDEST CALLER PUSH1 0x0 DUP1 PUSH2 0x100 EXP DUP2 SLOAD DUP2 PUSH20 0xFFFFFFFFFFFFFFFFFFFFFFFFFFFFFFFFFFFFFFFF MUL NOT AND SWAP1 DUP4 PUSH20 0xFFFFFFFFFFFFFFFFFFFFFFFFFFFFFFFFFFFFFFFF AND MUL OR SWAP1 SSTORE POP DUP1 PUSH1 0x1 PUSH1 0x0 PUSH2 0x100 EXP DUP2 SLOAD DUP2 PUSH20 0xFFFFFFFFFFFFFFFFFFFFFFFFFFFFFFFFFFFFFFFF MUL NOT AND SWAP1 DUP4 PUSH20 0xFFFFFFFFFFFFFFFFFFFFFFFFFFFFFFFFFFFFFFFF AND MUL OR SWAP1 SSTORE POP PUSH1 0x1 PUSH1 0x0 SWAP1 SLOAD SWAP1 PUSH2 0x100 EXP SWAP1 DIV PUSH20 0xFFFFFFFFFFFFFFFFFFFFFFFFFFFFFFFFFFFFFFFF AND PUSH1 0x2 PUSH1 0x0 PUSH2 0x100 EXP DUP2 SLOAD DUP2 PUSH20 0xFFFFFFFFFFFFFFFFFFFFFFFFFFFFFFFFFFFFFFFF MUL NOT AND SWAP1 DUP4 PUSH20 0xFFFFFFFFFFFFFFFFFFFFFFFFFFFFFFFFFFFFFFFF AND MUL OR SWAP1 SSTORE POP POP PUSH2 0x1AE JUMP JUMPDEST PUSH1 0x0 DUP2 MLOAD SWAP1 POP PUSH2 0x12D DUP2 PUSH2 0x197 JUMP JUMPDEST SWAP3 SWAP2 POP POP JUMP JUMPDEST PUSH1 0x0 PUSH1 0x20 DUP3 DUP5 SUB SLT ISZERO PUSH2 0x149 JUMPI PUSH2 0x148 PUSH2 0x192 JUMP JUMPDEST JUMPDEST PUSH1 0x0 PUSH2 0x157 DUP5 DUP3 DUP6 ADD PUSH2 0x11E JUMP JUMPDEST SWAP2 POP POP SWAP3 SWAP2 POP POP JUMP JUMPDEST PUSH1 0x0 PUSH2 0x16B DUP3 PUSH2 0x172 JUMP JUMPDEST SWAP1 POP SWAP2 SWAP1 POP JUMP JUMPDEST PUSH1 0x0 PUSH20 0xFFFFFFFFFFFFFFFFFFFFFFFFFFFFFFFFFFFFFFFF DUP3 AND SWAP1 POP SWAP2 SWAP1 POP JUMP JUMPDEST PUSH1 0x0 DUP1 REVERT JUMPDEST PUSH2 0x1A0 DUP2 PUSH2 0x160 JUMP JUMPDEST DUP2 EQ PUSH2 0x1AB JUMPI PUSH1 0x0 DUP1 REVERT JUMPDEST POP JUMP JUMPDEST PUSH2 0xE74 DUP1 PUSH3 0x1BE PUSH1 0x0 CODECOPY PUSH1 0x0 RETURN INVALID PUSH1 0x80 PUSH1 0x40 MSTORE CALLVALUE DUP1 ISZERO PUSH2 0x10 JUMPI PUSH1 0x0 DUP1 REVERT JUMPDEST POP PUSH1 0x4 CALLDATASIZE LT PUSH2 0x41 JUMPI PUSH1 0x0 CALLDATALOAD PUSH1 0xE0 SHR DUP1 PUSH4 0x2063455F EQ PUSH2 0x46 JUMPI DUP1 PUSH4 0x32A2C5D0 EQ PUSH2 0x76 JUMPI DUP1 PUSH4 0xC9D27AFE EQ PUSH2 0x94 JUMPI JUMPDEST PUSH1 0x0 DUP1 REVERT JUMPDEST PUSH2 0x60 PUSH1 0x4 DUP1 CALLDATASIZE SUB DUP2 ADD SWAP1 PUSH2 0x5B SWAP2 SWAP1 PUSH2 0x7E1 JUMP JUMPDEST PUSH2 0xB0 JUMP JUMPDEST PUSH1 0x40 MLOAD PUSH2 0x6D SWAP2 SWAP1 PUSH2 0xB2E JUMP JUMPDEST PUSH1 0x40 MLOAD DUP1 SWAP2 SUB SWAP1 RETURN JUMPDEST PUSH2 0x7E PUSH2 0x1AE JUMP JUMPDEST PUSH1 0x40 MLOAD PUSH2 0x8B SWAP2 SWAP1 PUSH2 0xAA3 JUMP JUMPDEST PUSH1 0x40 MLOAD DUP1 SWAP2 SUB SWAP1 RETURN JUMPDEST PUSH2 0xAE PUSH1 0x4 DUP1 CALLDATASIZE SUB DUP2 ADD SWAP1 PUSH2 0xA9 SWAP2 SWAP1 PUSH2 0x80E JUMP JUMPDEST PUSH2 0x1B6 JUMP JUMPDEST STOP JUMPDEST PUSH2 0xB8 PUSH2 0x4C7 JUMP JUMPDEST PUSH1 0x3 PUSH1 0x0 DUP4 DUP2 MSTORE PUSH1 0x20 ADD SWAP1 DUP2 MSTORE PUSH1 0x20 ADD PUSH1 0x0 KECCAK256 PUSH1 0x40 MLOAD DUP1 PUSH1 0x80 ADD PUSH1 0x40 MSTORE SWAP1 DUP2 PUSH1 0x0 DUP3 ADD PUSH1 0x0 SWAP1 SLOAD SWAP1 PUSH2 0x100 EXP SWAP1 DIV PUSH20 0xFFFFFFFFFFFFFFFFFFFFFFFFFFFFFFFFFFFFFFFF AND PUSH20 0xFFFFFFFFFFFFFFFFFFFFFFFFFFFFFFFFFFFFFFFF AND PUSH20 0xFFFFFFFFFFFFFFFFFFFFFFFFFFFFFFFFFFFFFFFF AND DUP2 MSTORE PUSH1 0x20 ADD PUSH1 0x1 DUP3 ADD PUSH1 0x0 SWAP1 SLOAD SWAP1 PUSH2 0x100 EXP SWAP1 DIV PUSH20 0xFFFFFFFFFFFFFFFFFFFFFFFFFFFFFFFFFFFFFFFF AND PUSH20 0xFFFFFFFFFFFFFFFFFFFFFFFFFFFFFFFFFFFFFFFF AND PUSH20 0xFFFFFFFFFFFFFFFFFFFFFFFFFFFFFFFFFFFFFFFF AND DUP2 MSTORE PUSH1 0x20 ADD PUSH1 0x2 DUP3 ADD SLOAD DUP2 MSTORE PUSH1 0x20 ADD PUSH1 0x3 DUP3 ADD PUSH1 0x0 SWAP1 SLOAD SWAP1 PUSH2 0x100 EXP SWAP1 DIV PUSH1 0xFF AND ISZERO ISZERO ISZERO ISZERO DUP2 MSTORE POP POP SWAP1 POP SWAP2 SWAP1 POP JUMP JUMPDEST PUSH1 0x0 ADDRESS SWAP1 POP SWAP1 JUMP JUMPDEST PUSH1 0x0 PUSH1 0x2 PUSH1 0x0 SWAP1 SLOAD SWAP1 PUSH2 0x100 EXP SWAP1 DIV PUSH20 0xFFFFFFFFFFFFFFFFFFFFFFFFFFFFFFFFFFFFFFFF AND PUSH20 0xFFFFFFFFFFFFFFFFFFFFFFFFFFFFFFFFFFFFFFFF AND PUSH4 0xA812EE29 DUP5 PUSH1 0x40 MLOAD DUP3 PUSH4 0xFFFFFFFF AND PUSH1 0xE0 SHL DUP2 MSTORE PUSH1 0x4 ADD PUSH2 0x213 SWAP2 SWAP1 PUSH2 0xB49 JUMP JUMPDEST PUSH1 0x0 PUSH1 0x40 MLOAD DUP1 DUP4 SUB DUP2 DUP7 DUP1 EXTCODESIZE ISZERO DUP1 ISZERO PUSH2 0x22B JUMPI PUSH1 0x0 DUP1 REVERT JUMPDEST POP GAS STATICCALL ISZERO DUP1 ISZERO PUSH2 0x23F JUMPI RETURNDATASIZE PUSH1 0x0 DUP1 RETURNDATACOPY RETURNDATASIZE PUSH1 0x0 REVERT JUMPDEST POP POP POP POP PUSH1 0x40 MLOAD RETURNDATASIZE PUSH1 0x0 DUP3 RETURNDATACOPY RETURNDATASIZE PUSH1 0x1F NOT PUSH1 0x1F DUP3 ADD AND DUP3 ADD DUP1 PUSH1 0x40 MSTORE POP DUP2 ADD SWAP1 PUSH2 0x268 SWAP2 SWAP1 PUSH2 0x798 JUMP JUMPDEST SWAP1 POP PUSH1 0x0 PUSH20 0xFFFFFFFFFFFFFFFFFFFFFFFFFFFFFFFFFFFFFFFF AND DUP2 PUSH1 0x20 ADD MLOAD PUSH20 0xFFFFFFFFFFFFFFFFFFFFFFFFFFFFFFFFFFFFFFFF AND EQ ISZERO PUSH2 0x2DE JUMPI PUSH1 0x40 MLOAD PUSH32 0x8C379A000000000000000000000000000000000000000000000000000000000 DUP2 MSTORE PUSH1 0x4 ADD PUSH2 0x2D5 SWAP1 PUSH2 0xABE JUMP JUMPDEST PUSH1 0x40 MLOAD DUP1 SWAP2 SUB SWAP1 REVERT JUMPDEST DUP1 PUSH1 0x20 ADD MLOAD PUSH20 0xFFFFFFFFFFFFFFFFFFFFFFFFFFFFFFFFFFFFFFFF AND CALLER PUSH20 0xFFFFFFFFFFFFFFFFFFFFFFFFFFFFFFFFFFFFFFFF AND EQ PUSH2 0x350 JUMPI PUSH1 0x40 MLOAD PUSH32 0x8C379A000000000000000000000000000000000000000000000000000000000 DUP2 MSTORE PUSH1 0x4 ADD PUSH2 0x347 SWAP1 PUSH2 0xADE JUMP JUMPDEST PUSH1 0x40 MLOAD DUP1 SWAP2 SUB SWAP1 REVERT JUMPDEST PUSH1 0x40 MLOAD DUP1 PUSH1 0x80 ADD PUSH1 0x40 MSTORE DUP1 DUP3 PUSH1 0x0 ADD MLOAD PUSH20 0xFFFFFFFFFFFFFFFFFFFFFFFFFFFFFFFFFFFFFFFF AND DUP2 MSTORE PUSH1 0x20 ADD CALLER PUSH20 0xFFFFFFFFFFFFFFFFFFFFFFFFFFFFFFFFFFFFFFFF AND DUP2 MSTORE PUSH1 0x20 ADD DUP5 DUP2 MSTORE PUSH1 0x20 ADD DUP4 ISZERO ISZERO DUP2 MSTORE POP PUSH1 0x3 PUSH1 0x0 DUP6 DUP2 MSTORE PUSH1 0x20 ADD SWAP1 DUP2 MSTORE PUSH1 0x20 ADD PUSH1 0x0 KECCAK256 PUSH1 0x0 DUP3 ADD MLOAD DUP2 PUSH1 0x0 ADD PUSH1 0x0 PUSH2 0x100 EXP DUP2 SLOAD DUP2 PUSH20 0xFFFFFFFFFFFFFFFFFFFFFFFFFFFFFFFFFFFFFFFF MUL NOT AND SWAP1 DUP4 PUSH20 0xFFFFFFFFFFFFFFFFFFFFFFFFFFFFFFFFFFFFFFFF AND MUL OR SWAP1 SSTORE POP PUSH1 0x20 DUP3 ADD MLOAD DUP2 PUSH1 0x1 ADD PUSH1 0x0 PUSH2 0x100 EXP DUP2 SLOAD DUP2 PUSH20 0xFFFFFFFFFFFFFFFFFFFFFFFFFFFFFFFFFFFFFFFF MUL NOT AND SWAP1 DUP4 PUSH20 0xFFFFFFFFFFFFFFFFFFFFFFFFFFFFFFFFFFFFFFFF AND MUL OR SWAP1 SSTORE POP PUSH1 0x40 DUP3 ADD MLOAD DUP2 PUSH1 0x2 ADD SSTORE PUSH1 0x60 DUP3 ADD MLOAD DUP2 PUSH1 0x3 ADD PUSH1 0x0 PUSH2 0x100 EXP DUP2 SLOAD DUP2 PUSH1 0xFF MUL NOT AND SWAP1 DUP4 ISZERO ISZERO MUL OR SWAP1 SSTORE POP SWAP1 POP POP DUP3 CALLER PUSH20 0xFFFFFFFFFFFFFFFFFFFFFFFFFFFFFFFFFFFFFFFF AND PUSH32 0x71559D481C3E666D4B3424C6727D9C78B6F406DEABC7733884489A3136D7D94A DUP4 DUP6 PUSH1 0x40 MLOAD PUSH2 0x4BA SWAP3 SWAP2 SWAP1 PUSH2 0xAFE JUMP JUMPDEST PUSH1 0x40 MLOAD DUP1 SWAP2 SUB SWAP1 LOG3 POP POP POP JUMP JUMPDEST PUSH1 0x40 MLOAD DUP1 PUSH1 0x80 ADD PUSH1 0x40 MSTORE DUP1 PUSH1 0x0 PUSH20 0xFFFFFFFFFFFFFFFFFFFFFFFFFFFFFFFFFFFFFFFF AND DUP2 MSTORE PUSH1 0x20 ADD PUSH1 0x0 PUSH20 0xFFFFFFFFFFFFFFFFFFFFFFFFFFFFFFFFFFFFFFFF AND DUP2 MSTORE PUSH1 0x20 ADD PUSH1 0x0 DUP2 MSTORE PUSH1 0x20 ADD PUSH1 0x0 ISZERO ISZERO DUP2 MSTORE POP SWAP1 JUMP JUMPDEST PUSH1 0x0 PUSH2 0x530 PUSH2 0x52B DUP5 PUSH2 0xB89 JUMP JUMPDEST PUSH2 0xB64 JUMP JUMPDEST SWAP1 POP DUP1 DUP4 DUP3 MSTORE PUSH1 0x20 DUP3 ADD SWAP1 POP DUP3 DUP6 PUSH1 0x20 DUP7 MUL DUP3 ADD GT ISZERO PUSH2 0x553 JUMPI PUSH2 0x552 PUSH2 0xD36 JUMP JUMPDEST JUMPDEST PUSH1 0x0 JUMPDEST DUP6 DUP2 LT ISZERO PUSH2 0x5A1 JUMPI DUP2 MLOAD PUSH8 0xFFFFFFFFFFFFFFFF DUP2 GT ISZERO PUSH2 0x579 JUMPI PUSH2 0x578 PUSH2 0xD27 JUMP JUMPDEST JUMPDEST DUP1 DUP7 ADD PUSH2 0x586 DUP10 DUP3 PUSH2 0x645 JUMP JUMPDEST DUP6 MSTORE PUSH1 0x20 DUP6 ADD SWAP5 POP PUSH1 0x20 DUP5 ADD SWAP4 POP POP POP PUSH1 0x1 DUP2 ADD SWAP1 POP PUSH2 0x556 JUMP JUMPDEST POP POP POP SWAP4 SWAP3 POP POP POP JUMP JUMPDEST PUSH1 0x0 PUSH2 0x5BE PUSH2 0x5B9 DUP5 PUSH2 0xBB5 JUMP JUMPDEST PUSH2 0xB64 JUMP JUMPDEST SWAP1 POP DUP3 DUP2 MSTORE PUSH1 0x20 DUP2 ADD DUP5 DUP5 DUP5 ADD GT ISZERO PUSH2 0x5DA JUMPI PUSH2 0x5D9 PUSH2 0xD3B JUMP JUMPDEST JUMPDEST PUSH2 0x5E5 DUP5 DUP3 DUP6 PUSH2 0xC94 JUMP JUMPDEST POP SWAP4 SWAP3 POP POP POP JUMP JUMPDEST PUSH1 0x0 DUP2 MLOAD SWAP1 POP PUSH2 0x5FC DUP2 PUSH2 0xDF9 JUMP JUMPDEST SWAP3 SWAP2 POP POP JUMP JUMPDEST PUSH1 0x0 DUP3 PUSH1 0x1F DUP4 ADD SLT PUSH2 0x617 JUMPI PUSH2 0x616 PUSH2 0xD27 JUMP JUMPDEST JUMPDEST DUP2 MLOAD PUSH2 0x627 DUP5 DUP3 PUSH1 0x20 DUP7 ADD PUSH2 0x51D JUMP JUMPDEST SWAP2 POP POP SWAP3 SWAP2 POP POP JUMP JUMPDEST PUSH1 0x0 DUP2 CALLDATALOAD SWAP1 POP PUSH2 0x63F DUP2 PUSH2 0xE10 JUMP JUMPDEST SWAP3 SWAP2 POP POP JUMP JUMPDEST PUSH1 0x0 DUP3 PUSH1 0x1F DUP4 ADD SLT PUSH2 0x65A JUMPI PUSH2 0x659 PUSH2 0xD27 JUMP JUMPDEST JUMPDEST DUP2 MLOAD PUSH2 0x66A DUP5 DUP3 PUSH1 0x20 DUP7 ADD PUSH2 0x5AB JUMP JUMPDEST SWAP2 POP POP SWAP3 SWAP2 POP POP JUMP JUMPDEST PUSH1 0x0 PUSH1 0xC0 DUP3 DUP5 SUB SLT ISZERO PUSH2 0x689 JUMPI PUSH2 0x688 PUSH2 0xD2C JUMP JUMPDEST JUMPDEST PUSH2 0x693 PUSH1 0xC0 PUSH2 0xB64 JUMP JUMPDEST SWAP1 POP PUSH1 0x0 PUSH2 0x6A3 DUP5 DUP3 DUP6 ADD PUSH2 0x5ED JUMP JUMPDEST PUSH1 0x0 DUP4 ADD MSTORE POP PUSH1 0x20 PUSH2 0x6B7 DUP5 DUP3 DUP6 ADD PUSH2 0x5ED JUMP JUMPDEST PUSH1 0x20 DUP4 ADD MSTORE POP PUSH1 0x40 DUP3 ADD MLOAD PUSH8 0xFFFFFFFFFFFFFFFF DUP2 GT ISZERO PUSH2 0x6DB JUMPI PUSH2 0x6DA PUSH2 0xD31 JUMP JUMPDEST JUMPDEST PUSH2 0x6E7 DUP5 DUP3 DUP6 ADD PUSH2 0x645 JUMP JUMPDEST PUSH1 0x40 DUP4 ADD MSTORE POP PUSH1 0x60 DUP3 ADD MLOAD PUSH8 0xFFFFFFFFFFFFFFFF DUP2 GT ISZERO PUSH2 0x70B JUMPI PUSH2 0x70A PUSH2 0xD31 JUMP JUMPDEST JUMPDEST PUSH2 0x717 DUP5 DUP3 DUP6 ADD PUSH2 0x645 JUMP JUMPDEST PUSH1 0x60 DUP4 ADD MSTORE POP PUSH1 0x80 DUP3 ADD MLOAD PUSH8 0xFFFFFFFFFFFFFFFF DUP2 GT ISZERO PUSH2 0x73B JUMPI PUSH2 0x73A PUSH2 0xD31 JUMP JUMPDEST JUMPDEST PUSH2 0x747 DUP5 DUP3 DUP6 ADD PUSH2 0x645 JUMP JUMPDEST PUSH1 0x80 DUP4 ADD MSTORE POP PUSH1 0xA0 DUP3 ADD MLOAD PUSH8 0xFFFFFFFFFFFFFFFF DUP2 GT ISZERO PUSH2 0x76B JUMPI PUSH2 0x76A PUSH2 0xD31 JUMP JUMPDEST JUMPDEST PUSH2 0x777 DUP5 DUP3 DUP6 ADD PUSH2 0x602 JUMP JUMPDEST PUSH1 0xA0 DUP4 ADD MSTORE POP SWAP3 SWAP2 POP POP JUMP JUMPDEST PUSH1 0x0 DUP2 CALLDATALOAD SWAP1 POP PUSH2 0x792 DUP2 PUSH2 0xE27 JUMP JUMPDEST SWAP3 SWAP2 POP POP JUMP JUMPDEST PUSH1 0x0 PUSH1 0x20 DUP3 DUP5 SUB SLT ISZERO PUSH2 0x7AE JUMPI PUSH2 0x7AD PUSH2 0xD45 JUMP JUMPDEST JUMPDEST PUSH1 0x0 DUP3 ADD MLOAD PUSH8 0xFFFFFFFFFFFFFFFF DUP2 GT ISZERO PUSH2 0x7CC JUMPI PUSH2 0x7CB PUSH2 0xD40 JUMP JUMPDEST JUMPDEST PUSH2 0x7D8 DUP5 DUP3 DUP6 ADD PUSH2 0x673 JUMP JUMPDEST SWAP2 POP POP SWAP3 SWAP2 POP POP JUMP JUMPDEST PUSH1 0x0 PUSH1 0x20 DUP3 DUP5 SUB SLT ISZERO PUSH2 0x7F7 JUMPI PUSH2 0x7F6 PUSH2 0xD45 JUMP JUMPDEST JUMPDEST PUSH1 0x0 PUSH2 0x805 DUP5 DUP3 DUP6 ADD PUSH2 0x783 JUMP JUMPDEST SWAP2 POP POP SWAP3 SWAP2 POP POP JUMP JUMPDEST PUSH1 0x0 DUP1 PUSH1 0x40 DUP4 DUP6 SUB SLT ISZERO PUSH2 0x825 JUMPI PUSH2 0x824 PUSH2 0xD45 JUMP JUMPDEST JUMPDEST PUSH1 0x0 PUSH2 0x833 DUP6 DUP3 DUP7 ADD PUSH2 0x783 JUMP JUMPDEST SWAP3 POP POP PUSH1 0x20 PUSH2 0x844 DUP6 DUP3 DUP7 ADD PUSH2 0x630 JUMP JUMPDEST SWAP2 POP POP SWAP3 POP SWAP3 SWAP1 POP JUMP JUMPDEST PUSH1 0x0 PUSH2 0x85A DUP4 DUP4 PUSH2 0x913 JUMP JUMPDEST SWAP1 POP SWAP3 SWAP2 POP POP JUMP JUMPDEST PUSH2 0x86B DUP2 PUSH2 0xC4C JUMP JUMPDEST DUP3 MSTORE POP POP JUMP JUMPDEST PUSH2 0x87A DUP2 PUSH2 0xC4C JUMP JUMPDEST DUP3 MSTORE POP POP JUMP JUMPDEST PUSH1 0x0 PUSH2 0x88B DUP3 PUSH2 0xBF6 JUMP JUMPDEST PUSH2 0x895 DUP2 DUP6 PUSH2 0xC19 JUMP JUMPDEST SWAP4 POP DUP4 PUSH1 0x20 DUP3 MUL DUP6 ADD PUSH2 0x8A7 DUP6 PUSH2 0xBE6 JUMP JUMPDEST DUP1 PUSH1 0x0 JUMPDEST DUP6 DUP2 LT ISZERO PUSH2 0x8E3 JUMPI DUP5 DUP5 SUB DUP10 MSTORE DUP2 MLOAD PUSH2 0x8C4 DUP6 DUP3 PUSH2 0x84E JUMP JUMPDEST SWAP5 POP PUSH2 0x8CF DUP4 PUSH2 0xC0C JUMP JUMPDEST SWAP3 POP PUSH1 0x20 DUP11 ADD SWAP10 POP POP PUSH1 0x1 DUP2 ADD SWAP1 POP PUSH2 0x8AB JUMP JUMPDEST POP DUP3 SWAP8 POP DUP8 SWAP6 POP POP POP POP POP POP SWAP3 SWAP2 POP POP JUMP JUMPDEST PUSH2 0x8FE DUP2 PUSH2 0xC5E JUMP JUMPDEST DUP3 MSTORE POP POP JUMP JUMPDEST PUSH2 0x90D DUP2 PUSH2 0xC5E JUMP JUMPDEST DUP3 MSTORE POP POP JUMP JUMPDEST PUSH1 0x0 PUSH2 0x91E DUP3 PUSH2 0xC01 JUMP JUMPDEST PUSH2 0x928 DUP2 DUP6 PUSH2 0xC2A JUMP JUMPDEST SWAP4 POP PUSH2 0x938 DUP2 DUP6 PUSH1 0x20 DUP7 ADD PUSH2 0xC94 JUMP JUMPDEST PUSH2 0x941 DUP2 PUSH2 0xD4A JUMP JUMPDEST DUP5 ADD SWAP2 POP POP SWAP3 SWAP2 POP POP JUMP JUMPDEST PUSH1 0x0 PUSH2 0x959 PUSH1 0x32 DUP4 PUSH2 0xC3B JUMP JUMPDEST SWAP2 POP PUSH2 0x964 DUP3 PUSH2 0xD5B JUMP JUMPDEST PUSH1 0x40 DUP3 ADD SWAP1 POP SWAP2 SWAP1 POP JUMP JUMPDEST PUSH1 0x0 PUSH2 0x97C PUSH1 0x31 DUP4 PUSH2 0xC3B JUMP JUMPDEST SWAP2 POP PUSH2 0x987 DUP3 PUSH2 0xDAA JUMP JUMPDEST PUSH1 0x40 DUP3 ADD SWAP1 POP SWAP2 SWAP1 POP JUMP JUMPDEST PUSH1 0x0 PUSH1 0xC0 DUP4 ADD PUSH1 0x0 DUP4 ADD MLOAD PUSH2 0x9AA PUSH1 0x0 DUP7 ADD DUP3 PUSH2 0x862 JUMP JUMPDEST POP PUSH1 0x20 DUP4 ADD MLOAD PUSH2 0x9BD PUSH1 0x20 DUP7 ADD DUP3 PUSH2 0x862 JUMP JUMPDEST POP PUSH1 0x40 DUP4 ADD MLOAD DUP5 DUP3 SUB PUSH1 0x40 DUP7 ADD MSTORE PUSH2 0x9D5 DUP3 DUP3 PUSH2 0x913 JUMP JUMPDEST SWAP2 POP POP PUSH1 0x60 DUP4 ADD MLOAD DUP5 DUP3 SUB PUSH1 0x60 DUP7 ADD MSTORE PUSH2 0x9EF DUP3 DUP3 PUSH2 0x913 JUMP JUMPDEST SWAP2 POP POP PUSH1 0x80 DUP4 ADD MLOAD DUP5 DUP3 SUB PUSH1 0x80 DUP7 ADD MSTORE PUSH2 0xA09 DUP3 DUP3 PUSH2 0x913 JUMP JUMPDEST SWAP2 POP POP PUSH1 0xA0 DUP4 ADD MLOAD DUP5 DUP3 SUB PUSH1 0xA0 DUP7 ADD MSTORE PUSH2 0xA23 DUP3 DUP3 PUSH2 0x880 JUMP JUMPDEST SWAP2 POP POP DUP1 SWAP2 POP POP SWAP3 SWAP2 POP POP JUMP JUMPDEST PUSH1 0x80 DUP3 ADD PUSH1 0x0 DUP3 ADD MLOAD PUSH2 0xA46 PUSH1 0x0 DUP6 ADD DUP3 PUSH2 0x862 JUMP JUMPDEST POP PUSH1 0x20 DUP3 ADD MLOAD PUSH2 0xA59 PUSH1 0x20 DUP6 ADD DUP3 PUSH2 0x862 JUMP JUMPDEST POP PUSH1 0x40 DUP3 ADD MLOAD PUSH2 0xA6C PUSH1 0x40 DUP6 ADD DUP3 PUSH2 0xA85 JUMP JUMPDEST POP PUSH1 0x60 DUP3 ADD MLOAD PUSH2 0xA7F PUSH1 0x60 DUP6 ADD DUP3 PUSH2 0x8F5 JUMP JUMPDEST POP POP POP POP JUMP JUMPDEST PUSH2 0xA8E DUP2 PUSH2 0xC8A JUMP JUMPDEST DUP3 MSTORE POP POP JUMP JUMPDEST PUSH2 0xA9D DUP2 PUSH2 0xC8A JUMP JUMPDEST DUP3 MSTORE POP POP JUMP JUMPDEST PUSH1 0x0 PUSH1 0x20 DUP3 ADD SWAP1 POP PUSH2 0xAB8 PUSH1 0x0 DUP4 ADD DUP5 PUSH2 0x871 JUMP JUMPDEST SWAP3 SWAP2 POP POP JUMP JUMPDEST PUSH1 0x0 PUSH1 0x20 DUP3 ADD SWAP1 POP DUP2 DUP2 SUB PUSH1 0x0 DUP4 ADD MSTORE PUSH2 0xAD7 DUP2 PUSH2 0x94C JUMP JUMPDEST SWAP1 POP SWAP2 SWAP1 POP JUMP JUMPDEST PUSH1 0x0 PUSH1 0x20 DUP3 ADD SWAP1 POP DUP2 DUP2 SUB PUSH1 0x0 DUP4 ADD MSTORE PUSH2 0xAF7 DUP2 PUSH2 0x96F JUMP JUMPDEST SWAP1 POP SWAP2 SWAP1 POP JUMP JUMPDEST PUSH1 0x0 PUSH1 0x40 DUP3 ADD SWAP1 POP DUP2 DUP2 SUB PUSH1 0x0 DUP4 ADD MSTORE PUSH2 0xB18 DUP2 DUP6 PUSH2 0x992 JUMP JUMPDEST SWAP1 POP PUSH2 0xB27 PUSH1 0x20 DUP4 ADD DUP5 PUSH2 0x904 JUMP JUMPDEST SWAP4 SWAP3 POP POP POP JUMP JUMPDEST PUSH1 0x0 PUSH1 0x80 DUP3 ADD SWAP1 POP PUSH2 0xB43 PUSH1 0x0 DUP4 ADD DUP5 PUSH2 0xA30 JUMP JUMPDEST SWAP3 SWAP2 POP POP JUMP JUMPDEST PUSH1 0x0 PUSH1 0x20 DUP3 ADD SWAP1 POP PUSH2 0xB5E PUSH1 0x0 DUP4 ADD DUP5 PUSH2 0xA94 JUMP JUMPDEST SWAP3 SWAP2 POP POP JUMP JUMPDEST PUSH1 0x0 PUSH2 0xB6E PUSH2 0xB7F JUMP JUMPDEST SWAP1 POP PUSH2 0xB7A DUP3 DUP3 PUSH2 0xCC7 JUMP JUMPDEST SWAP2 SWAP1 POP JUMP JUMPDEST PUSH1 0x0 PUSH1 0x40 MLOAD SWAP1 POP SWAP1 JUMP JUMPDEST PUSH1 0x0 PUSH8 0xFFFFFFFFFFFFFFFF DUP3 GT ISZERO PUSH2 0xBA4 JUMPI PUSH2 0xBA3 PUSH2 0xCF8 JUMP JUMPDEST JUMPDEST PUSH1 0x20 DUP3 MUL SWAP1 POP PUSH1 0x20 DUP2 ADD SWAP1 POP SWAP2 SWAP1 POP JUMP JUMPDEST PUSH1 0x0 PUSH8 0xFFFFFFFFFFFFFFFF DUP3 GT ISZERO PUSH2 0xBD0 JUMPI PUSH2 0xBCF PUSH2 0xCF8 JUMP JUMPDEST JUMPDEST PUSH2 0xBD9 DUP3 PUSH2 0xD4A JUMP JUMPDEST SWAP1 POP PUSH1 0x20 DUP2 ADD SWAP1 POP SWAP2 SWAP1 POP JUMP JUMPDEST PUSH1 0x0 DUP2 SWAP1 POP PUSH1 0x20 DUP3 ADD SWAP1 POP SWAP2 SWAP1 POP JUMP JUMPDEST PUSH1 0x0 DUP2 MLOAD SWAP1 POP SWAP2 SWAP1 POP JUMP JUMPDEST PUSH1 0x0 DUP2 MLOAD SWAP1 POP SWAP2 SWAP1 POP JUMP JUMPDEST PUSH1 0x0 PUSH1 0x20 DUP3 ADD SWAP1 POP SWAP2 SWAP1 POP JUMP JUMPDEST PUSH1 0x0 DUP3 DUP3 MSTORE PUSH1 0x20 DUP3 ADD SWAP1 POP SWAP3 SWAP2 POP POP JUMP JUMPDEST PUSH1 0x0 DUP3 DUP3 MSTORE PUSH1 0x20 DUP3 ADD SWAP1 POP SWAP3 SWAP2 POP POP JUMP JUMPDEST PUSH1 0x0 DUP3 DUP3 MSTORE PUSH1 0x20 DUP3 ADD SWAP1 POP SWAP3 SWAP2 POP POP JUMP JUMPDEST PUSH1 0x0 PUSH2 0xC57 DUP3 PUSH2 0xC6A JUMP JUMPDEST SWAP1 POP SWAP2 SWAP1 POP JUMP JUMPDEST PUSH1 0x0 DUP2 ISZERO ISZERO SWAP1 POP SWAP2 SWAP1 POP JUMP JUMPDEST PUSH1 0x0 PUSH20 0xFFFFFFFFFFFFFFFFFFFFFFFFFFFFFFFFFFFFFFFF DUP3 AND SWAP1 POP SWAP2 SWAP1 POP JUMP JUMPDEST PUSH1 0x0 DUP2 SWAP1 POP SWAP2 SWAP1 POP JUMP JUMPDEST PUSH1 0x0 JUMPDEST DUP4 DUP2 LT ISZERO PUSH2 0xCB2 JUMPI DUP1 DUP3 ADD MLOAD DUP2 DUP5 ADD MSTORE PUSH1 0x20 DUP2 ADD SWAP1 POP PUSH2 0xC97 JUMP JUMPDEST DUP4 DUP2 GT ISZERO PUSH2 0xCC1 JUMPI PUSH1 0x0 DUP5 DUP5 ADD MSTORE JUMPDEST POP POP POP POP JUMP JUMPDEST PUSH2 0xCD0 DUP3 PUSH2 0xD4A JUMP JUMPDEST DUP2 ADD DUP2 DUP2 LT PUSH8 0xFFFFFFFFFFFFFFFF DUP3 GT OR ISZERO PUSH2 0xCEF JUMPI PUSH2 0xCEE PUSH2 0xCF8 JUMP JUMPDEST JUMPDEST DUP1 PUSH1 0x40 MSTORE POP POP POP JUMP JUMPDEST PUSH32 0x4E487B7100000000000000000000000000000000000000000000000000000000 PUSH1 0x0 MSTORE PUSH1 0x41 PUSH1 0x4 MSTORE PUSH1 0x24 PUSH1 0x0 REVERT JUMPDEST PUSH1 0x0 DUP1 REVERT JUMPDEST PUSH1 0x0 DUP1 REVERT JUMPDEST PUSH1 0x0 DUP1 REVERT JUMPDEST PUSH1 0x0 DUP1 REVERT JUMPDEST PUSH1 0x0 DUP1 REVERT JUMPDEST PUSH1 0x0 DUP1 REVERT JUMPDEST PUSH1 0x0 DUP1 REVERT JUMPDEST PUSH1 0x0 PUSH1 0x1F NOT PUSH1 0x1F DUP4 ADD AND SWAP1 POP SWAP2 SWAP1 POP JUMP JUMPDEST PUSH32 0x43616E27742066696E6420746869732064617461207573616765207265636F72 PUSH1 0x0 DUP3 ADD MSTORE PUSH32 0x6420776974682074686520757361676549440000000000000000000000000000 PUSH1 0x20 DUP3 ADD MSTORE POP JUMP JUMPDEST PUSH32 0x546865207573657220646F65736E27742062656C6F6E6720746F207468697320 PUSH1 0x0 DUP3 ADD MSTORE PUSH32 0x64617461207573616765207265636F7264000000000000000000000000000000 PUSH1 0x20 DUP3 ADD MSTORE POP JUMP JUMPDEST PUSH2 0xE02 DUP2 PUSH2 0xC4C JUMP JUMPDEST DUP2 EQ PUSH2 0xE0D JUMPI PUSH1 0x0 DUP1 REVERT JUMPDEST POP JUMP JUMPDEST PUSH2 0xE19 DUP2 PUSH2 0xC5E JUMP JUMPDEST DUP2 EQ PUSH2 0xE24 JUMPI PUSH1 0x0 DUP1 REVERT JUMPDEST POP JUMP JUMPDEST PUSH2 0xE30 DUP2 PUSH2 0xC8A JUMP JUMPDEST DUP2 EQ PUSH2 0xE3B JUMPI PUSH1 0x0 DUP1 REVERT JUMPDEST POP JUMP INVALID LOG2 PUSH5 0x6970667358 0x22 SLT KECCAK256 LOG0 JUMPDEST 0x26 0xCE 0x22 ADDRESS 0xC4 PUSH6 0x1DD924BDEB61 CODECOPY DUP11 LOG3 PUSH2 0x6984 LOG0 LOG3 0x28 0xE7 DUP1 PUSH17 0xB8C705FCD16164736F6C63430008070033 "
				},
				"gasEstimates": {
					"creation": {
						"codeDepositCost": "740000",
						"executionCost": "infinite",
						"totalCost": "infinite"
					},
					"external": {
						"getContractAddress()": "385",
						"retrieveVote(uint256)": "infinite",
						"vote(uint256,bool)": "infinite"
					}
				},
				"methodIdentifiers": {
					"getContractAddress()": "32a2c5d0",
					"retrieveVote(uint256)": "2063455f",
					"vote(uint256,bool)": "c9d27afe"
				}
			},
			"userdoc": {
				"kind": "user",
				"methods": {},
				"notice": "Actor use some data of a User Subject, generate the smart contract",
				"version": 1
			}
		}
	}
}