{
	"data": {
		"bytecode": {
			"linkReferences": {},
			"object": "60806040523480156200001157600080fd5b50604051620011be380380620011be833981810160405281019062000037919062000139565b336000806101000a81548173ffffffffffffffffffffffffffffffffffffffff021916908373ffffffffffffffffffffffffffffffffffffffff16021790555080600160006101000a81548173ffffffffffffffffffffffffffffffffffffffff021916908373ffffffffffffffffffffffffffffffffffffffff160217905550600160009054906101000a900473ffffffffffffffffffffffffffffffffffffffff16600260006101000a81548173ffffffffffffffffffffffffffffffffffffffff021916908373ffffffffffffffffffffffffffffffffffffffff16021790555050620001be565b6000815190506200013381620001a4565b92915050565b6000602082840312156200015257620001516200019f565b5b6000620001628482850162000122565b91505092915050565b600062000178826200017f565b9050919050565b600073ffffffffffffffffffffffffffffffffffffffff82169050919050565b600080fd5b620001af816200016b565b8114620001bb57600080fd5b50565b610ff080620001ce6000396000f3fe608060405234801561001057600080fd5b50600436106100365760003560e01c806317fe61851461003b57806332a2c5d014610057575b600080fd5b610055600480360381019061005091906108df565b610075565b005b61005f6104b2565b60405161006c9190610b71565b60405180910390f35b6000600260009054906101000a900473ffffffffffffffffffffffffffffffffffffffff1673ffffffffffffffffffffffffffffffffffffffff1663a812ee29836040518263ffffffff1660e01b81526004016100d29190610c38565b60006040518083038186803b1580156100ea57600080fd5b505afa1580156100fe573d6000803e3d6000fd5b505050506040513d6000823e3d601f19601f820116820180604052508101906101279190610932565b9050600073ffffffffffffffffffffffffffffffffffffffff16816020015173ffffffffffffffffffffffffffffffffffffffff16141561019d576040517f08c379a000000000000000000000000000000000000000000000000000000000815260040161019490610bd8565b60405180910390fd5b806000015173ffffffffffffffffffffffffffffffffffffffff168473ffffffffffffffffffffffffffffffffffffffff161461020f576040517f08c379a000000000000000000000000000000000000000000000000000000000815260040161020690610c18565b60405180910390fd5b806020015173ffffffffffffffffffffffffffffffffffffffff168373ffffffffffffffffffffffffffffffffffffffff1614610281576040517f08c379a000000000000000000000000000000000000000000000000000000000815260040161027890610bf8565b60405180910390fd5b600360405180608001604052808673ffffffffffffffffffffffffffffffffffffffff1681526020018573ffffffffffffffffffffffffffffffffffffffff16815260200184815260200183815250908060018154018082558091505060019003906000526020600020906009020160009091909190915060008201518160000160006101000a81548173ffffffffffffffffffffffffffffffffffffffff021916908373ffffffffffffffffffffffffffffffffffffffff16021790555060208201518160010160006101000a81548173ffffffffffffffffffffffffffffffffffffffff021916908373ffffffffffffffffffffffffffffffffffffffff1602179055506040820151816002015560608201518160030160008201518160000160006101000a81548173ffffffffffffffffffffffffffffffffffffffff021916908373ffffffffffffffffffffffffffffffffffffffff16021790555060208201518160010160006101000a81548173ffffffffffffffffffffffffffffffffffffffff021916908373ffffffffffffffffffffffffffffffffffffffff16021790555060408201518160020190805190602001906104449291906104fd565b5060608201518160030190805190602001906104619291906104fd565b50608082015181600401908051906020019061047e9291906104fd565b5060a082015181600501908051906020019061049b929190610583565b50505050506104ac848484846104ba565b50505050565b600030905090565b7fe074030a31c4718cfc47f6567aabfffc7aaf509498065a02f0ae0a20be7aee6d848484846040516104ef9493929190610b8c565b60405180910390a150505050565b82805461050990610daa565b90600052602060002090601f01602090048101928261052b5760008555610572565b82601f1061054457805160ff1916838001178555610572565b82800160010185558215610572579182015b82811115610571578251825591602001919060010190610556565b5b50905061057f91906105e3565b5090565b8280548282559060005260206000209081019282156105d2579160200282015b828111156105d15782518290805190602001906105c19291906104fd565b50916020019190600101906105a3565b5b5090506105df9190610600565b5090565b5b808211156105fc5760008160009055506001016105e4565b5090565b5b8082111561062057600081816106179190610624565b50600101610601565b5090565b50805461063090610daa565b6000825580601f106106425750610661565b601f01602090049060005260206000209081019061066091906105e3565b5b50565b600061067761067284610c78565b610c53565b9050808382526020820190508285602086028201111561069a57610699610e7a565b5b60005b858110156106e857815167ffffffffffffffff8111156106c0576106bf610e6b565b5b8086016106cd898261078c565b8552602085019450602084019350505060018101905061069d565b5050509392505050565b600061070561070084610ca4565b610c53565b90508281526020810184848401111561072157610720610e7f565b5b61072c848285610d77565b509392505050565b60008135905061074381610f8c565b92915050565b60008151905061075881610f8c565b92915050565b600082601f83011261077357610772610e6b565b5b8151610783848260208601610664565b91505092915050565b600082601f8301126107a1576107a0610e6b565b5b81516107b18482602086016106f2565b91505092915050565b600060c082840312156107d0576107cf610e70565b5b6107da60c0610c53565b905060006107ea84828501610749565b60008301525060206107fe84828501610749565b602083015250604082015167ffffffffffffffff81111561082257610821610e75565b5b61082e8482850161078c565b604083015250606082015167ffffffffffffffff81111561085257610851610e75565b5b61085e8482850161078c565b606083015250608082015167ffffffffffffffff81111561088257610881610e75565b5b61088e8482850161078c565b60808301525060a082015167ffffffffffffffff8111156108b2576108b1610e75565b5b6108be8482850161075e565b60a08301525092915050565b6000813590506108d981610fa3565b92915050565b6000806000606084860312156108f8576108f7610e89565b5b600061090686828701610734565b935050602061091786828701610734565b9250506040610928868287016108ca565b9150509250925092565b60006020828403121561094857610947610e89565b5b600082015167ffffffffffffffff81111561096657610965610e84565b5b610972848285016107ba565b91505092915050565b60006109878383610a22565b905092915050565b61099881610d3b565b82525050565b6109a781610d3b565b82525050565b60006109b882610ce5565b6109c28185610d08565b9350836020820285016109d485610cd5565b8060005b85811015610a1057848403895281516109f1858261097b565b94506109fc83610cfb565b925060208a019950506001810190506109d8565b50829750879550505050505092915050565b6000610a2d82610cf0565b610a378185610d19565b9350610a47818560208601610d77565b610a5081610e8e565b840191505092915050565b6000610a68603283610d2a565b9150610a7382610e9f565b604082019050919050565b6000610a8b603183610d2a565b9150610a9682610eee565b604082019050919050565b6000610aae603283610d2a565b9150610ab982610f3d565b604082019050919050565b600060c083016000830151610adc600086018261098f565b506020830151610aef602086018261098f565b5060408301518482036040860152610b078282610a22565b91505060608301518482036060860152610b218282610a22565b91505060808301518482036080860152610b3b8282610a22565b91505060a083015184820360a0860152610b5582826109ad565b9150508091505092915050565b610b6b81610d6d565b82525050565b6000602082019050610b86600083018461099e565b92915050565b6000608082019050610ba1600083018761099e565b610bae602083018661099e565b610bbb6040830185610b62565b8181036060830152610bcd8184610ac4565b905095945050505050565b60006020820190508181036000830152610bf181610a5b565b9050919050565b60006020820190508181036000830152610c1181610a7e565b9050919050565b60006020820190508181036000830152610c3181610aa1565b9050919050565b6000602082019050610c4d6000830184610b62565b92915050565b6000610c5d610c6e565b9050610c698282610ddc565b919050565b6000604051905090565b600067ffffffffffffffff821115610c9357610c92610e3c565b5b602082029050602081019050919050565b600067ffffffffffffffff821115610cbf57610cbe610e3c565b5b610cc882610e8e565b9050602081019050919050565b6000819050602082019050919050565b600081519050919050565b600081519050919050565b6000602082019050919050565b600082825260208201905092915050565b600082825260208201905092915050565b600082825260208201905092915050565b6000610d4682610d4d565b9050919050565b600073ffffffffffffffffffffffffffffffffffffffff82169050919050565b6000819050919050565b60005b83811015610d95578082015181840152602081019050610d7a565b83811115610da4576000848401525b50505050565b60006002820490506001821680610dc257607f821691505b60208210811415610dd657610dd5610e0d565b5b50919050565b610de582610e8e565b810181811067ffffffffffffffff82111715610e0457610e03610e3c565b5b80604052505050565b7f4e487b7100000000000000000000000000000000000000000000000000000000600052602260045260246000fd5b7f4e487b7100000000000000000000000000000000000000000000000000000000600052604160045260246000fd5b600080fd5b600080fd5b600080fd5b600080fd5b600080fd5b600080fd5b600080fd5b6000601f19601f8301169050919050565b7f43616e27742066696e6420746869732064617461207573616765207265636f7260008201527f6420776974682074686520757361676549440000000000000000000000000000602082015250565b7f546865207573657220646f65736e27742062656c6f6e6720746f20746869732060008201527f64617461207573616765207265636f7264000000000000000000000000000000602082015250565b7f546865206163746f7220646f65736e27742062656c6f6e6720746f207468697360008201527f2064617461207573616765207265636f72640000000000000000000000000000602082015250565b610f9581610d3b565b8114610fa057600080fd5b50565b610fac81610d6d565b8114610fb757600080fd5b5056fea2646970667358221220c4ed648b2db0ee6cc3226073da55f0ee6e21c96294ce038650d0497066ba8a9064736f6c63430008070033",
			"opcodes": "PUSH1 0x80 PUSH1 0x40 MSTORE CALLVALUE DUP1 ISZERO PUSH3 0x11 JUMPI PUSH1 0x0 DUP1 REVERT JUMPDEST POP PUSH1 0x40 MLOAD PUSH3 0x11BE CODESIZE SUB DUP1 PUSH3 0x11BE DUP4 CODECOPY DUP2 DUP2 ADD PUSH1 0x40 MSTORE DUP2 ADD SWAP1 PUSH3 0x37 SWAP2 SWAP1 PUSH3 0x139 JUMP JUMPDEST CALLER PUSH1 0x0 DUP1 PUSH2 0x100 EXP DUP2 SLOAD DUP2 PUSH20 0xFFFFFFFFFFFFFFFFFFFFFFFFFFFFFFFFFFFFFFFF MUL NOT AND SWAP1 DUP4 PUSH20 0xFFFFFFFFFFFFFFFFFFFFFFFFFFFFFFFFFFFFFFFF AND MUL OR SWAP1 SSTORE POP DUP1 PUSH1 0x1 PUSH1 0x0 PUSH2 0x100 EXP DUP2 SLOAD DUP2 PUSH20 0xFFFFFFFFFFFFFFFFFFFFFFFFFFFFFFFFFFFFFFFF MUL NOT AND SWAP1 DUP4 PUSH20 0xFFFFFFFFFFFFFFFFFFFFFFFFFFFFFFFFFFFFFFFF AND MUL OR SWAP1 SSTORE POP PUSH1 0x1 PUSH1 0x0 SWAP1 SLOAD SWAP1 PUSH2 0x100 EXP SWAP1 DIV PUSH20 0xFFFFFFFFFFFFFFFFFFFFFFFFFFFFFFFFFFFFFFFF AND PUSH1 0x2 PUSH1 0x0 PUSH2 0x100 EXP DUP2 SLOAD DUP2 PUSH20 0xFFFFFFFFFFFFFFFFFFFFFFFFFFFFFFFFFFFFFFFF MUL NOT AND SWAP1 DUP4 PUSH20 0xFFFFFFFFFFFFFFFFFFFFFFFFFFFFFFFFFFFFFFFF AND MUL OR SWAP1 SSTORE POP POP PUSH3 0x1BE JUMP JUMPDEST PUSH1 0x0 DUP2 MLOAD SWAP1 POP PUSH3 0x133 DUP2 PUSH3 0x1A4 JUMP JUMPDEST SWAP3 SWAP2 POP POP JUMP JUMPDEST PUSH1 0x0 PUSH1 0x20 DUP3 DUP5 SUB SLT ISZERO PUSH3 0x152 JUMPI PUSH3 0x151 PUSH3 0x19F JUMP JUMPDEST JUMPDEST PUSH1 0x0 PUSH3 0x162 DUP5 DUP3 DUP6 ADD PUSH3 0x122 JUMP JUMPDEST SWAP2 POP POP SWAP3 SWAP2 POP POP JUMP JUMPDEST PUSH1 0x0 PUSH3 0x178 DUP3 PUSH3 0x17F JUMP JUMPDEST SWAP1 POP SWAP2 SWAP1 POP JUMP JUMPDEST PUSH1 0x0 PUSH20 0xFFFFFFFFFFFFFFFFFFFFFFFFFFFFFFFFFFFFFFFF DUP3 AND SWAP1 POP SWAP2 SWAP1 POP JUMP JUMPDEST PUSH1 0x0 DUP1 REVERT JUMPDEST PUSH3 0x1AF DUP2 PUSH3 0x16B JUMP JUMPDEST DUP2 EQ PUSH3 0x1BB JUMPI PUSH1 0x0 DUP1 REVERT JUMPDEST POP JUMP JUMPDEST PUSH2 0xFF0 DUP1 PUSH3 0x1CE PUSH1 0x0 CODECOPY PUSH1 0x0 RETURN INVALID PUSH1 0x80 PUSH1 0x40 MSTORE CALLVALUE DUP1 ISZERO PUSH2 0x10 JUMPI PUSH1 0x0 DUP1 REVERT JUMPDEST POP PUSH1 0x4 CALLDATASIZE LT PUSH2 0x36 JUMPI PUSH1 0x0 CALLDATALOAD PUSH1 0xE0 SHR DUP1 PUSH4 0x17FE6185 EQ PUSH2 0x3B JUMPI DUP1 PUSH4 0x32A2C5D0 EQ PUSH2 0x57 JUMPI JUMPDEST PUSH1 0x0 DUP1 REVERT JUMPDEST PUSH2 0x55 PUSH1 0x4 DUP1 CALLDATASIZE SUB DUP2 ADD SWAP1 PUSH2 0x50 SWAP2 SWAP1 PUSH2 0x8DF JUMP JUMPDEST PUSH2 0x75 JUMP JUMPDEST STOP JUMPDEST PUSH2 0x5F PUSH2 0x4B2 JUMP JUMPDEST PUSH1 0x40 MLOAD PUSH2 0x6C SWAP2 SWAP1 PUSH2 0xB71 JUMP JUMPDEST PUSH1 0x40 MLOAD DUP1 SWAP2 SUB SWAP1 RETURN JUMPDEST PUSH1 0x0 PUSH1 0x2 PUSH1 0x0 SWAP1 SLOAD SWAP1 PUSH2 0x100 EXP SWAP1 DIV PUSH20 0xFFFFFFFFFFFFFFFFFFFFFFFFFFFFFFFFFFFFFFFF AND PUSH20 0xFFFFFFFFFFFFFFFFFFFFFFFFFFFFFFFFFFFFFFFF AND PUSH4 0xA812EE29 DUP4 PUSH1 0x40 MLOAD DUP3 PUSH4 0xFFFFFFFF AND PUSH1 0xE0 SHL DUP2 MSTORE PUSH1 0x4 ADD PUSH2 0xD2 SWAP2 SWAP1 PUSH2 0xC38 JUMP JUMPDEST PUSH1 0x0 PUSH1 0x40 MLOAD DUP1 DUP4 SUB DUP2 DUP7 DUP1 EXTCODESIZE ISZERO DUP1 ISZERO PUSH2 0xEA JUMPI PUSH1 0x0 DUP1 REVERT JUMPDEST POP GAS STATICCALL ISZERO DUP1 ISZERO PUSH2 0xFE JUMPI RETURNDATASIZE PUSH1 0x0 DUP1 RETURNDATACOPY RETURNDATASIZE PUSH1 0x0 REVERT JUMPDEST POP POP POP POP PUSH1 0x40 MLOAD RETURNDATASIZE PUSH1 0x0 DUP3 RETURNDATACOPY RETURNDATASIZE PUSH1 0x1F NOT PUSH1 0x1F DUP3 ADD AND DUP3 ADD DUP1 PUSH1 0x40 MSTORE POP DUP2 ADD SWAP1 PUSH2 0x127 SWAP2 SWAP1 PUSH2 0x932 JUMP JUMPDEST SWAP1 POP PUSH1 0x0 PUSH20 0xFFFFFFFFFFFFFFFFFFFFFFFFFFFFFFFFFFFFFFFF AND DUP2 PUSH1 0x20 ADD MLOAD PUSH20 0xFFFFFFFFFFFFFFFFFFFFFFFFFFFFFFFFFFFFFFFF AND EQ ISZERO PUSH2 0x19D JUMPI PUSH1 0x40 MLOAD PUSH32 0x8C379A000000000000000000000000000000000000000000000000000000000 DUP2 MSTORE PUSH1 0x4 ADD PUSH2 0x194 SWAP1 PUSH2 0xBD8 JUMP JUMPDEST PUSH1 0x40 MLOAD DUP1 SWAP2 SUB SWAP1 REVERT JUMPDEST DUP1 PUSH1 0x0 ADD MLOAD PUSH20 0xFFFFFFFFFFFFFFFFFFFFFFFFFFFFFFFFFFFFFFFF AND DUP5 PUSH20 0xFFFFFFFFFFFFFFFFFFFFFFFFFFFFFFFFFFFFFFFF AND EQ PUSH2 0x20F JUMPI PUSH1 0x40 MLOAD PUSH32 0x8C379A000000000000000000000000000000000000000000000000000000000 DUP2 MSTORE PUSH1 0x4 ADD PUSH2 0x206 SWAP1 PUSH2 0xC18 JUMP JUMPDEST PUSH1 0x40 MLOAD DUP1 SWAP2 SUB SWAP1 REVERT JUMPDEST DUP1 PUSH1 0x20 ADD MLOAD PUSH20 0xFFFFFFFFFFFFFFFFFFFFFFFFFFFFFFFFFFFFFFFF AND DUP4 PUSH20 0xFFFFFFFFFFFFFFFFFFFFFFFFFFFFFFFFFFFFFFFF AND EQ PUSH2 0x281 JUMPI PUSH1 0x40 MLOAD PUSH32 0x8C379A000000000000000000000000000000000000000000000000000000000 DUP2 MSTORE PUSH1 0x4 ADD PUSH2 0x278 SWAP1 PUSH2 0xBF8 JUMP JUMPDEST PUSH1 0x40 MLOAD DUP1 SWAP2 SUB SWAP1 REVERT JUMPDEST PUSH1 0x3 PUSH1 0x40 MLOAD DUP1 PUSH1 0x80 ADD PUSH1 0x40 MSTORE DUP1 DUP7 PUSH20 0xFFFFFFFFFFFFFFFFFFFFFFFFFFFFFFFFFFFFFFFF AND DUP2 MSTORE PUSH1 0x20 ADD DUP6 PUSH20 0xFFFFFFFFFFFFFFFFFFFFFFFFFFFFFFFFFFFFFFFF AND DUP2 MSTORE PUSH1 0x20 ADD DUP5 DUP2 MSTORE PUSH1 0x20 ADD DUP4 DUP2 MSTORE POP SWAP1 DUP1 PUSH1 0x1 DUP2 SLOAD ADD DUP1 DUP3 SSTORE DUP1 SWAP2 POP POP PUSH1 0x1 SWAP1 SUB SWAP1 PUSH1 0x0 MSTORE PUSH1 0x20 PUSH1 0x0 KECCAK256 SWAP1 PUSH1 0x9 MUL ADD PUSH1 0x0 SWAP1 SWAP2 SWAP1 SWAP2 SWAP1 SWAP2 POP PUSH1 0x0 DUP3 ADD MLOAD DUP2 PUSH1 0x0 ADD PUSH1 0x0 PUSH2 0x100 EXP DUP2 SLOAD DUP2 PUSH20 0xFFFFFFFFFFFFFFFFFFFFFFFFFFFFFFFFFFFFFFFF MUL NOT AND SWAP1 DUP4 PUSH20 0xFFFFFFFFFFFFFFFFFFFFFFFFFFFFFFFFFFFFFFFF AND MUL OR SWAP1 SSTORE POP PUSH1 0x20 DUP3 ADD MLOAD DUP2 PUSH1 0x1 ADD PUSH1 0x0 PUSH2 0x100 EXP DUP2 SLOAD DUP2 PUSH20 0xFFFFFFFFFFFFFFFFFFFFFFFFFFFFFFFFFFFFFFFF MUL NOT AND SWAP1 DUP4 PUSH20 0xFFFFFFFFFFFFFFFFFFFFFFFFFFFFFFFFFFFFFFFF AND MUL OR SWAP1 SSTORE POP PUSH1 0x40 DUP3 ADD MLOAD DUP2 PUSH1 0x2 ADD SSTORE PUSH1 0x60 DUP3 ADD MLOAD DUP2 PUSH1 0x3 ADD PUSH1 0x0 DUP3 ADD MLOAD DUP2 PUSH1 0x0 ADD PUSH1 0x0 PUSH2 0x100 EXP DUP2 SLOAD DUP2 PUSH20 0xFFFFFFFFFFFFFFFFFFFFFFFFFFFFFFFFFFFFFFFF MUL NOT AND SWAP1 DUP4 PUSH20 0xFFFFFFFFFFFFFFFFFFFFFFFFFFFFFFFFFFFFFFFF AND MUL OR SWAP1 SSTORE POP PUSH1 0x20 DUP3 ADD MLOAD DUP2 PUSH1 0x1 ADD PUSH1 0x0 PUSH2 0x100 EXP DUP2 SLOAD DUP2 PUSH20 0xFFFFFFFFFFFFFFFFFFFFFFFFFFFFFFFFFFFFFFFF MUL NOT AND SWAP1 DUP4 PUSH20 0xFFFFFFFFFFFFFFFFFFFFFFFFFFFFFFFFFFFFFFFF AND MUL OR SWAP1 SSTORE POP PUSH1 0x40 DUP3 ADD MLOAD DUP2 PUSH1 0x2 ADD SWAP1 DUP1 MLOAD SWAP1 PUSH1 0x20 ADD SWAP1 PUSH2 0x444 SWAP3 SWAP2 SWAP1 PUSH2 0x4FD JUMP JUMPDEST POP PUSH1 0x60 DUP3 ADD MLOAD DUP2 PUSH1 0x3 ADD SWAP1 DUP1 MLOAD SWAP1 PUSH1 0x20 ADD SWAP1 PUSH2 0x461 SWAP3 SWAP2 SWAP1 PUSH2 0x4FD JUMP JUMPDEST POP PUSH1 0x80 DUP3 ADD MLOAD DUP2 PUSH1 0x4 ADD SWAP1 DUP1 MLOAD SWAP1 PUSH1 0x20 ADD SWAP1 PUSH2 0x47E SWAP3 SWAP2 SWAP1 PUSH2 0x4FD JUMP JUMPDEST POP PUSH1 0xA0 DUP3 ADD MLOAD DUP2 PUSH1 0x5 ADD SWAP1 DUP1 MLOAD SWAP1 PUSH1 0x20 ADD SWAP1 PUSH2 0x49B SWAP3 SWAP2 SWAP1 PUSH2 0x583 JUMP JUMPDEST POP POP POP POP POP PUSH2 0x4AC DUP5 DUP5 DUP5 DUP5 PUSH2 0x4BA JUMP JUMPDEST POP POP POP POP JUMP JUMPDEST PUSH1 0x0 ADDRESS SWAP1 POP SWAP1 JUMP JUMPDEST PUSH32 0xE074030A31C4718CFC47F6567AABFFFC7AAF509498065A02F0AE0A20BE7AEE6D DUP5 DUP5 DUP5 DUP5 PUSH1 0x40 MLOAD PUSH2 0x4EF SWAP5 SWAP4 SWAP3 SWAP2 SWAP1 PUSH2 0xB8C JUMP JUMPDEST PUSH1 0x40 MLOAD DUP1 SWAP2 SUB SWAP1 LOG1 POP POP POP POP JUMP JUMPDEST DUP3 DUP1 SLOAD PUSH2 0x509 SWAP1 PUSH2 0xDAA JUMP JUMPDEST SWAP1 PUSH1 0x0 MSTORE PUSH1 0x20 PUSH1 0x0 KECCAK256 SWAP1 PUSH1 0x1F ADD PUSH1 0x20 SWAP1 DIV DUP2 ADD SWAP3 DUP3 PUSH2 0x52B JUMPI PUSH1 0x0 DUP6 SSTORE PUSH2 0x572 JUMP JUMPDEST DUP3 PUSH1 0x1F LT PUSH2 0x544 JUMPI DUP1 MLOAD PUSH1 0xFF NOT AND DUP4 DUP1 ADD OR DUP6 SSTORE PUSH2 0x572 JUMP JUMPDEST DUP3 DUP1 ADD PUSH1 0x1 ADD DUP6 SSTORE DUP3 ISZERO PUSH2 0x572 JUMPI SWAP2 DUP3 ADD JUMPDEST DUP3 DUP2 GT ISZERO PUSH2 0x571 JUMPI DUP3 MLOAD DUP3 SSTORE SWAP2 PUSH1 0x20 ADD SWAP2 SWAP1 PUSH1 0x1 ADD SWAP1 PUSH2 0x556 JUMP JUMPDEST JUMPDEST POP SWAP1 POP PUSH2 0x57F SWAP2 SWAP1 PUSH2 0x5E3 JUMP JUMPDEST POP SWAP1 JUMP JUMPDEST DUP3 DUP1 SLOAD DUP3 DUP3 SSTORE SWAP1 PUSH1 0x0 MSTORE PUSH1 0x20 PUSH1 0x0 KECCAK256 SWAP1 DUP2 ADD SWAP3 DUP3 ISZERO PUSH2 0x5D2 JUMPI SWAP2 PUSH1 0x20 MUL DUP3 ADD JUMPDEST DUP3 DUP2 GT ISZERO PUSH2 0x5D1 JUMPI DUP3 MLOAD DUP3 SWAP1 DUP1 MLOAD SWAP1 PUSH1 0x20 ADD SWAP1 PUSH2 0x5C1 SWAP3 SWAP2 SWAP1 PUSH2 0x4FD JUMP JUMPDEST POP SWAP2 PUSH1 0x20 ADD SWAP2 SWAP1 PUSH1 0x1 ADD SWAP1 PUSH2 0x5A3 JUMP JUMPDEST JUMPDEST POP SWAP1 POP PUSH2 0x5DF SWAP2 SWAP1 PUSH2 0x600 JUMP JUMPDEST POP SWAP1 JUMP JUMPDEST JUMPDEST DUP1 DUP3 GT ISZERO PUSH2 0x5FC JUMPI PUSH1 0x0 DUP2 PUSH1 0x0 SWAP1 SSTORE POP PUSH1 0x1 ADD PUSH2 0x5E4 JUMP JUMPDEST POP SWAP1 JUMP JUMPDEST JUMPDEST DUP1 DUP3 GT ISZERO PUSH2 0x620 JUMPI PUSH1 0x0 DUP2 DUP2 PUSH2 0x617 SWAP2 SWAP1 PUSH2 0x624 JUMP JUMPDEST POP PUSH1 0x1 ADD PUSH2 0x601 JUMP JUMPDEST POP SWAP1 JUMP JUMPDEST POP DUP1 SLOAD PUSH2 0x630 SWAP1 PUSH2 0xDAA JUMP JUMPDEST PUSH1 0x0 DUP3 SSTORE DUP1 PUSH1 0x1F LT PUSH2 0x642 JUMPI POP PUSH2 0x661 JUMP JUMPDEST PUSH1 0x1F ADD PUSH1 0x20 SWAP1 DIV SWAP1 PUSH1 0x0 MSTORE PUSH1 0x20 PUSH1 0x0 KECCAK256 SWAP1 DUP2 ADD SWAP1 PUSH2 0x660 SWAP2 SWAP1 PUSH2 0x5E3 JUMP JUMPDEST JUMPDEST POP JUMP JUMPDEST PUSH1 0x0 PUSH2 0x677 PUSH2 0x672 DUP5 PUSH2 0xC78 JUMP JUMPDEST PUSH2 0xC53 JUMP JUMPDEST SWAP1 POP DUP1 DUP4 DUP3 MSTORE PUSH1 0x20 DUP3 ADD SWAP1 POP DUP3 DUP6 PUSH1 0x20 DUP7 MUL DUP3 ADD GT ISZERO PUSH2 0x69A JUMPI PUSH2 0x699 PUSH2 0xE7A JUMP JUMPDEST JUMPDEST PUSH1 0x0 JUMPDEST DUP6 DUP2 LT ISZERO PUSH2 0x6E8 JUMPI DUP2 MLOAD PUSH8 0xFFFFFFFFFFFFFFFF DUP2 GT ISZERO PUSH2 0x6C0 JUMPI PUSH2 0x6BF PUSH2 0xE6B JUMP JUMPDEST JUMPDEST DUP1 DUP7 ADD PUSH2 0x6CD DUP10 DUP3 PUSH2 0x78C JUMP JUMPDEST DUP6 MSTORE PUSH1 0x20 DUP6 ADD SWAP5 POP PUSH1 0x20 DUP5 ADD SWAP4 POP POP POP PUSH1 0x1 DUP2 ADD SWAP1 POP PUSH2 0x69D JUMP JUMPDEST POP POP POP SWAP4 SWAP3 POP POP POP JUMP JUMPDEST PUSH1 0x0 PUSH2 0x705 PUSH2 0x700 DUP5 PUSH2 0xCA4 JUMP JUMPDEST PUSH2 0xC53 JUMP JUMPDEST SWAP1 POP DUP3 DUP2 MSTORE PUSH1 0x20 DUP2 ADD DUP5 DUP5 DUP5 ADD GT ISZERO PUSH2 0x721 JUMPI PUSH2 0x720 PUSH2 0xE7F JUMP JUMPDEST JUMPDEST PUSH2 0x72C DUP5 DUP3 DUP6 PUSH2 0xD77 JUMP JUMPDEST POP SWAP4 SWAP3 POP POP POP JUMP JUMPDEST PUSH1 0x0 DUP2 CALLDATALOAD SWAP1 POP PUSH2 0x743 DUP2 PUSH2 0xF8C JUMP JUMPDEST SWAP3 SWAP2 POP POP JUMP JUMPDEST PUSH1 0x0 DUP2 MLOAD SWAP1 POP PUSH2 0x758 DUP2 PUSH2 0xF8C JUMP JUMPDEST SWAP3 SWAP2 POP POP JUMP JUMPDEST PUSH1 0x0 DUP3 PUSH1 0x1F DUP4 ADD SLT PUSH2 0x773 JUMPI PUSH2 0x772 PUSH2 0xE6B JUMP JUMPDEST JUMPDEST DUP2 MLOAD PUSH2 0x783 DUP5 DUP3 PUSH1 0x20 DUP7 ADD PUSH2 0x664 JUMP JUMPDEST SWAP2 POP POP SWAP3 SWAP2 POP POP JUMP JUMPDEST PUSH1 0x0 DUP3 PUSH1 0x1F DUP4 ADD SLT PUSH2 0x7A1 JUMPI PUSH2 0x7A0 PUSH2 0xE6B JUMP JUMPDEST JUMPDEST DUP2 MLOAD PUSH2 0x7B1 DUP5 DUP3 PUSH1 0x20 DUP7 ADD PUSH2 0x6F2 JUMP JUMPDEST SWAP2 POP POP SWAP3 SWAP2 POP POP JUMP JUMPDEST PUSH1 0x0 PUSH1 0xC0 DUP3 DUP5 SUB SLT ISZERO PUSH2 0x7D0 JUMPI PUSH2 0x7CF PUSH2 0xE70 JUMP JUMPDEST JUMPDEST PUSH2 0x7DA PUSH1 0xC0 PUSH2 0xC53 JUMP JUMPDEST SWAP1 POP PUSH1 0x0 PUSH2 0x7EA DUP5 DUP3 DUP6 ADD PUSH2 0x749 JUMP JUMPDEST PUSH1 0x0 DUP4 ADD MSTORE POP PUSH1 0x20 PUSH2 0x7FE DUP5 DUP3 DUP6 ADD PUSH2 0x749 JUMP JUMPDEST PUSH1 0x20 DUP4 ADD MSTORE POP PUSH1 0x40 DUP3 ADD MLOAD PUSH8 0xFFFFFFFFFFFFFFFF DUP2 GT ISZERO PUSH2 0x822 JUMPI PUSH2 0x821 PUSH2 0xE75 JUMP JUMPDEST JUMPDEST PUSH2 0x82E DUP5 DUP3 DUP6 ADD PUSH2 0x78C JUMP JUMPDEST PUSH1 0x40 DUP4 ADD MSTORE POP PUSH1 0x60 DUP3 ADD MLOAD PUSH8 0xFFFFFFFFFFFFFFFF DUP2 GT ISZERO PUSH2 0x852 JUMPI PUSH2 0x851 PUSH2 0xE75 JUMP JUMPDEST JUMPDEST PUSH2 0x85E DUP5 DUP3 DUP6 ADD PUSH2 0x78C JUMP JUMPDEST PUSH1 0x60 DUP4 ADD MSTORE POP PUSH1 0x80 DUP3 ADD MLOAD PUSH8 0xFFFFFFFFFFFFFFFF DUP2 GT ISZERO PUSH2 0x882 JUMPI PUSH2 0x881 PUSH2 0xE75 JUMP JUMPDEST JUMPDEST PUSH2 0x88E DUP5 DUP3 DUP6 ADD PUSH2 0x78C JUMP JUMPDEST PUSH1 0x80 DUP4 ADD MSTORE POP PUSH1 0xA0 DUP3 ADD MLOAD PUSH8 0xFFFFFFFFFFFFFFFF DUP2 GT ISZERO PUSH2 0x8B2 JUMPI PUSH2 0x8B1 PUSH2 0xE75 JUMP JUMPDEST JUMPDEST PUSH2 0x8BE DUP5 DUP3 DUP6 ADD PUSH2 0x75E JUMP JUMPDEST PUSH1 0xA0 DUP4 ADD MSTORE POP SWAP3 SWAP2 POP POP JUMP JUMPDEST PUSH1 0x0 DUP2 CALLDATALOAD SWAP1 POP PUSH2 0x8D9 DUP2 PUSH2 0xFA3 JUMP JUMPDEST SWAP3 SWAP2 POP POP JUMP JUMPDEST PUSH1 0x0 DUP1 PUSH1 0x0 PUSH1 0x60 DUP5 DUP7 SUB SLT ISZERO PUSH2 0x8F8 JUMPI PUSH2 0x8F7 PUSH2 0xE89 JUMP JUMPDEST JUMPDEST PUSH1 0x0 PUSH2 0x906 DUP7 DUP3 DUP8 ADD PUSH2 0x734 JUMP JUMPDEST SWAP4 POP POP PUSH1 0x20 PUSH2 0x917 DUP7 DUP3 DUP8 ADD PUSH2 0x734 JUMP JUMPDEST SWAP3 POP POP PUSH1 0x40 PUSH2 0x928 DUP7 DUP3 DUP8 ADD PUSH2 0x8CA JUMP JUMPDEST SWAP2 POP POP SWAP3 POP SWAP3 POP SWAP3 JUMP JUMPDEST PUSH1 0x0 PUSH1 0x20 DUP3 DUP5 SUB SLT ISZERO PUSH2 0x948 JUMPI PUSH2 0x947 PUSH2 0xE89 JUMP JUMPDEST JUMPDEST PUSH1 0x0 DUP3 ADD MLOAD PUSH8 0xFFFFFFFFFFFFFFFF DUP2 GT ISZERO PUSH2 0x966 JUMPI PUSH2 0x965 PUSH2 0xE84 JUMP JUMPDEST JUMPDEST PUSH2 0x972 DUP5 DUP3 DUP6 ADD PUSH2 0x7BA JUMP JUMPDEST SWAP2 POP POP SWAP3 SWAP2 POP POP JUMP JUMPDEST PUSH1 0x0 PUSH2 0x987 DUP4 DUP4 PUSH2 0xA22 JUMP JUMPDEST SWAP1 POP SWAP3 SWAP2 POP POP JUMP JUMPDEST PUSH2 0x998 DUP2 PUSH2 0xD3B JUMP JUMPDEST DUP3 MSTORE POP POP JUMP JUMPDEST PUSH2 0x9A7 DUP2 PUSH2 0xD3B JUMP JUMPDEST DUP3 MSTORE POP POP JUMP JUMPDEST PUSH1 0x0 PUSH2 0x9B8 DUP3 PUSH2 0xCE5 JUMP JUMPDEST PUSH2 0x9C2 DUP2 DUP6 PUSH2 0xD08 JUMP JUMPDEST SWAP4 POP DUP4 PUSH1 0x20 DUP3 MUL DUP6 ADD PUSH2 0x9D4 DUP6 PUSH2 0xCD5 JUMP JUMPDEST DUP1 PUSH1 0x0 JUMPDEST DUP6 DUP2 LT ISZERO PUSH2 0xA10 JUMPI DUP5 DUP5 SUB DUP10 MSTORE DUP2 MLOAD PUSH2 0x9F1 DUP6 DUP3 PUSH2 0x97B JUMP JUMPDEST SWAP5 POP PUSH2 0x9FC DUP4 PUSH2 0xCFB JUMP JUMPDEST SWAP3 POP PUSH1 0x20 DUP11 ADD SWAP10 POP POP PUSH1 0x1 DUP2 ADD SWAP1 POP PUSH2 0x9D8 JUMP JUMPDEST POP DUP3 SWAP8 POP DUP8 SWAP6 POP POP POP POP POP POP SWAP3 SWAP2 POP POP JUMP JUMPDEST PUSH1 0x0 PUSH2 0xA2D DUP3 PUSH2 0xCF0 JUMP JUMPDEST PUSH2 0xA37 DUP2 DUP6 PUSH2 0xD19 JUMP JUMPDEST SWAP4 POP PUSH2 0xA47 DUP2 DUP6 PUSH1 0x20 DUP7 ADD PUSH2 0xD77 JUMP JUMPDEST PUSH2 0xA50 DUP2 PUSH2 0xE8E JUMP JUMPDEST DUP5 ADD SWAP2 POP POP SWAP3 SWAP2 POP POP JUMP JUMPDEST PUSH1 0x0 PUSH2 0xA68 PUSH1 0x32 DUP4 PUSH2 0xD2A JUMP JUMPDEST SWAP2 POP PUSH2 0xA73 DUP3 PUSH2 0xE9F JUMP JUMPDEST PUSH1 0x40 DUP3 ADD SWAP1 POP SWAP2 SWAP1 POP JUMP JUMPDEST PUSH1 0x0 PUSH2 0xA8B PUSH1 0x31 DUP4 PUSH2 0xD2A JUMP JUMPDEST SWAP2 POP PUSH2 0xA96 DUP3 PUSH2 0xEEE JUMP JUMPDEST PUSH1 0x40 DUP3 ADD SWAP1 POP SWAP2 SWAP1 POP JUMP JUMPDEST PUSH1 0x0 PUSH2 0xAAE PUSH1 0x32 DUP4 PUSH2 0xD2A JUMP JUMPDEST SWAP2 POP PUSH2 0xAB9 DUP3 PUSH2 0xF3D JUMP JUMPDEST PUSH1 0x40 DUP3 ADD SWAP1 POP SWAP2 SWAP1 POP JUMP JUMPDEST PUSH1 0x0 PUSH1 0xC0 DUP4 ADD PUSH1 0x0 DUP4 ADD MLOAD PUSH2 0xADC PUSH1 0x0 DUP7 ADD DUP3 PUSH2 0x98F JUMP JUMPDEST POP PUSH1 0x20 DUP4 ADD MLOAD PUSH2 0xAEF PUSH1 0x20 DUP7 ADD DUP3 PUSH2 0x98F JUMP JUMPDEST POP PUSH1 0x40 DUP4 ADD MLOAD DUP5 DUP3 SUB PUSH1 0x40 DUP7 ADD MSTORE PUSH2 0xB07 DUP3 DUP3 PUSH2 0xA22 JUMP JUMPDEST SWAP2 POP POP PUSH1 0x60 DUP4 ADD MLOAD DUP5 DUP3 SUB PUSH1 0x60 DUP7 ADD MSTORE PUSH2 0xB21 DUP3 DUP3 PUSH2 0xA22 JUMP JUMPDEST SWAP2 POP POP PUSH1 0x80 DUP4 ADD MLOAD DUP5 DUP3 SUB PUSH1 0x80 DUP7 ADD MSTORE PUSH2 0xB3B DUP3 DUP3 PUSH2 0xA22 JUMP JUMPDEST SWAP2 POP POP PUSH1 0xA0 DUP4 ADD MLOAD DUP5 DUP3 SUB PUSH1 0xA0 DUP7 ADD MSTORE PUSH2 0xB55 DUP3 DUP3 PUSH2 0x9AD JUMP JUMPDEST SWAP2 POP POP DUP1 SWAP2 POP POP SWAP3 SWAP2 POP POP JUMP JUMPDEST PUSH2 0xB6B DUP2 PUSH2 0xD6D JUMP JUMPDEST DUP3 MSTORE POP POP JUMP JUMPDEST PUSH1 0x0 PUSH1 0x20 DUP3 ADD SWAP1 POP PUSH2 0xB86 PUSH1 0x0 DUP4 ADD DUP5 PUSH2 0x99E JUMP JUMPDEST SWAP3 SWAP2 POP POP JUMP JUMPDEST PUSH1 0x0 PUSH1 0x80 DUP3 ADD SWAP1 POP PUSH2 0xBA1 PUSH1 0x0 DUP4 ADD DUP8 PUSH2 0x99E JUMP JUMPDEST PUSH2 0xBAE PUSH1 0x20 DUP4 ADD DUP7 PUSH2 0x99E JUMP JUMPDEST PUSH2 0xBBB PUSH1 0x40 DUP4 ADD DUP6 PUSH2 0xB62 JUMP JUMPDEST DUP2 DUP2 SUB PUSH1 0x60 DUP4 ADD MSTORE PUSH2 0xBCD DUP2 DUP5 PUSH2 0xAC4 JUMP JUMPDEST SWAP1 POP SWAP6 SWAP5 POP POP POP POP POP JUMP JUMPDEST PUSH1 0x0 PUSH1 0x20 DUP3 ADD SWAP1 POP DUP2 DUP2 SUB PUSH1 0x0 DUP4 ADD MSTORE PUSH2 0xBF1 DUP2 PUSH2 0xA5B JUMP JUMPDEST SWAP1 POP SWAP2 SWAP1 POP JUMP JUMPDEST PUSH1 0x0 PUSH1 0x20 DUP3 ADD SWAP1 POP DUP2 DUP2 SUB PUSH1 0x0 DUP4 ADD MSTORE PUSH2 0xC11 DUP2 PUSH2 0xA7E JUMP JUMPDEST SWAP1 POP SWAP2 SWAP1 POP JUMP JUMPDEST PUSH1 0x0 PUSH1 0x20 DUP3 ADD SWAP1 POP DUP2 DUP2 SUB PUSH1 0x0 DUP4 ADD MSTORE PUSH2 0xC31 DUP2 PUSH2 0xAA1 JUMP JUMPDEST SWAP1 POP SWAP2 SWAP1 POP JUMP JUMPDEST PUSH1 0x0 PUSH1 0x20 DUP3 ADD SWAP1 POP PUSH2 0xC4D PUSH1 0x0 DUP4 ADD DUP5 PUSH2 0xB62 JUMP JUMPDEST SWAP3 SWAP2 POP POP JUMP JUMPDEST PUSH1 0x0 PUSH2 0xC5D PUSH2 0xC6E JUMP JUMPDEST SWAP1 POP PUSH2 0xC69 DUP3 DUP3 PUSH2 0xDDC JUMP JUMPDEST SWAP2 SWAP1 POP JUMP JUMPDEST PUSH1 0x0 PUSH1 0x40 MLOAD SWAP1 POP SWAP1 JUMP JUMPDEST PUSH1 0x0 PUSH8 0xFFFFFFFFFFFFFFFF DUP3 GT ISZERO PUSH2 0xC93 JUMPI PUSH2 0xC92 PUSH2 0xE3C JUMP JUMPDEST JUMPDEST PUSH1 0x20 DUP3 MUL SWAP1 POP PUSH1 0x20 DUP2 ADD SWAP1 POP SWAP2 SWAP1 POP JUMP JUMPDEST PUSH1 0x0 PUSH8 0xFFFFFFFFFFFFFFFF DUP3 GT ISZERO PUSH2 0xCBF JUMPI PUSH2 0xCBE PUSH2 0xE3C JUMP JUMPDEST JUMPDEST PUSH2 0xCC8 DUP3 PUSH2 0xE8E JUMP JUMPDEST SWAP1 POP PUSH1 0x20 DUP2 ADD SWAP1 POP SWAP2 SWAP1 POP JUMP JUMPDEST PUSH1 0x0 DUP2 SWAP1 POP PUSH1 0x20 DUP3 ADD SWAP1 POP SWAP2 SWAP1 POP JUMP JUMPDEST PUSH1 0x0 DUP2 MLOAD SWAP1 POP SWAP2 SWAP1 POP JUMP JUMPDEST PUSH1 0x0 DUP2 MLOAD SWAP1 POP SWAP2 SWAP1 POP JUMP JUMPDEST PUSH1 0x0 PUSH1 0x20 DUP3 ADD SWAP1 POP SWAP2 SWAP1 POP JUMP JUMPDEST PUSH1 0x0 DUP3 DUP3 MSTORE PUSH1 0x20 DUP3 ADD SWAP1 POP SWAP3 SWAP2 POP POP JUMP JUMPDEST PUSH1 0x0 DUP3 DUP3 MSTORE PUSH1 0x20 DUP3 ADD SWAP1 POP SWAP3 SWAP2 POP POP JUMP JUMPDEST PUSH1 0x0 DUP3 DUP3 MSTORE PUSH1 0x20 DUP3 ADD SWAP1 POP SWAP3 SWAP2 POP POP JUMP JUMPDEST PUSH1 0x0 PUSH2 0xD46 DUP3 PUSH2 0xD4D JUMP JUMPDEST SWAP1 POP SWAP2 SWAP1 POP JUMP JUMPDEST PUSH1 0x0 PUSH20 0xFFFFFFFFFFFFFFFFFFFFFFFFFFFFFFFFFFFFFFFF DUP3 AND SWAP1 POP SWAP2 SWAP1 POP JUMP JUMPDEST PUSH1 0x0 DUP2 SWAP1 POP SWAP2 SWAP1 POP JUMP JUMPDEST PUSH1 0x0 JUMPDEST DUP4 DUP2 LT ISZERO PUSH2 0xD95 JUMPI DUP1 DUP3 ADD MLOAD DUP2 DUP5 ADD MSTORE PUSH1 0x20 DUP2 ADD SWAP1 POP PUSH2 0xD7A JUMP JUMPDEST DUP4 DUP2 GT ISZERO PUSH2 0xDA4 JUMPI PUSH1 0x0 DUP5 DUP5 ADD MSTORE JUMPDEST POP POP POP POP JUMP JUMPDEST PUSH1 0x0 PUSH1 0x2 DUP3 DIV SWAP1 POP PUSH1 0x1 DUP3 AND DUP1 PUSH2 0xDC2 JUMPI PUSH1 0x7F DUP3 AND SWAP2 POP JUMPDEST PUSH1 0x20 DUP3 LT DUP2 EQ ISZERO PUSH2 0xDD6 JUMPI PUSH2 0xDD5 PUSH2 0xE0D JUMP JUMPDEST JUMPDEST POP SWAP2 SWAP1 POP JUMP JUMPDEST PUSH2 0xDE5 DUP3 PUSH2 0xE8E JUMP JUMPDEST DUP2 ADD DUP2 DUP2 LT PUSH8 0xFFFFFFFFFFFFFFFF DUP3 GT OR ISZERO PUSH2 0xE04 JUMPI PUSH2 0xE03 PUSH2 0xE3C JUMP JUMPDEST JUMPDEST DUP1 PUSH1 0x40 MSTORE POP POP POP JUMP JUMPDEST PUSH32 0x4E487B7100000000000000000000000000000000000000000000000000000000 PUSH1 0x0 MSTORE PUSH1 0x22 PUSH1 0x4 MSTORE PUSH1 0x24 PUSH1 0x0 REVERT JUMPDEST PUSH32 0x4E487B7100000000000000000000000000000000000000000000000000000000 PUSH1 0x0 MSTORE PUSH1 0x41 PUSH1 0x4 MSTORE PUSH1 0x24 PUSH1 0x0 REVERT JUMPDEST PUSH1 0x0 DUP1 REVERT JUMPDEST PUSH1 0x0 DUP1 REVERT JUMPDEST PUSH1 0x0 DUP1 REVERT JUMPDEST PUSH1 0x0 DUP1 REVERT JUMPDEST PUSH1 0x0 DUP1 REVERT JUMPDEST PUSH1 0x0 DUP1 REVERT JUMPDEST PUSH1 0x0 DUP1 REVERT JUMPDEST PUSH1 0x0 PUSH1 0x1F NOT PUSH1 0x1F DUP4 ADD AND SWAP1 POP SWAP2 SWAP1 POP JUMP JUMPDEST PUSH32 0x43616E27742066696E6420746869732064617461207573616765207265636F72 PUSH1 0x0 DUP3 ADD MSTORE PUSH32 0x6420776974682074686520757361676549440000000000000000000000000000 PUSH1 0x20 DUP3 ADD MSTORE POP JUMP JUMPDEST PUSH32 0x546865207573657220646F65736E27742062656C6F6E6720746F207468697320 PUSH1 0x0 DUP3 ADD MSTORE PUSH32 0x64617461207573616765207265636F7264000000000000000000000000000000 PUSH1 0x20 DUP3 ADD MSTORE POP JUMP JUMPDEST PUSH32 0x546865206163746F7220646F65736E27742062656C6F6E6720746F2074686973 PUSH1 0x0 DUP3 ADD MSTORE PUSH32 0x2064617461207573616765207265636F72640000000000000000000000000000 PUSH1 0x20 DUP3 ADD MSTORE POP JUMP JUMPDEST PUSH2 0xF95 DUP2 PUSH2 0xD3B JUMP JUMPDEST DUP2 EQ PUSH2 0xFA0 JUMPI PUSH1 0x0 DUP1 REVERT JUMPDEST POP JUMP JUMPDEST PUSH2 0xFAC DUP2 PUSH2 0xD6D JUMP JUMPDEST DUP2 EQ PUSH2 0xFB7 JUMPI PUSH1 0x0 DUP1 REVERT JUMPDEST POP JUMP INVALID LOG2 PUSH5 0x6970667358 0x22 SLT KECCAK256 0xC4 0xED PUSH5 0x8B2DB0EE6C 0xC3 0x22 PUSH1 0x73 0xDA SSTORE CREATE 0xEE PUSH15 0x21C96294CE038650D0497066BA8A90 PUSH5 0x736F6C6343 STOP ADDMOD SMOD STOP CALLER "
		},
		"gasEstimates": {
			"creation": {
				"codeDepositCost": "816000",
				"executionCost": "infinite",
				"totalCost": "infinite"
			},
			"external": {
				"getContractAddress()": "385",
				"log(address,address,uint256)": "infinite"
			},
			"internal": {
				"attestation(address,address,uint256,struct DataUsage memory)": "infinite"
			}
		},
		"methodIdentifiers": {
			"getContractAddress()": "32a2c5d0",
			"log(address,address,uint256)": "17fe6185"
		}
	},
	"abi": [
		{
			"inputs": [
				{
					"internalType": "address",
					"name": "_dataUsageContractAddress",
					"type": "address"
				}
			],
			"stateMutability": "nonpayable",
			"type": "constructor"
		},
		{
			"anonymous": false,
			"inputs": [
				{
					"indexed": false,
					"internalType": "address",
					"name": "actorAddress",
					"type": "address"
				},
				{
					"indexed": false,
					"internalType": "address",
					"name": "userAddress",
					"type": "address"
				},
				{
					"indexed": false,
					"internalType": "uint256",
					"name": "usageID",
					"type": "uint256"
				},
				{
					"components": [
						{
							"internalType": "address",
							"name": "actorAddress",
							"type": "address"
						},
						{
							"internalType": "address",
							"name": "userAddress",
							"type": "address"
						},
						{
							"internalType": "string",
							"name": "serviceName",
							"type": "string"
						},
						{
							"internalType": "string",
							"name": "servicePurpose",
							"type": "string"
						},
						{
							"internalType": "string",
							"name": "operation",
							"type": "string"
						},
						{
							"internalType": "string[]",
							"name": "personalData",
							"type": "string[]"
						}
					],
					"indexed": false,
					"internalType": "struct DataUsage",
					"name": "dataUsage",
					"type": "tuple"
				}
			],
			"name": "LogDataProcess",
			"type": "event"
		},
		{
			"inputs": [],
			"name": "getContractAddress",
			"outputs": [
				{
					"internalType": "address",
					"name": "",
					"type": "address"
				}
			],
			"stateMutability": "view",
			"type": "function"
		},
		{
			"inputs": [
				{
					"internalType": "address",
					"name": "actorAddress",
					"type": "address"
				},
				{
					"internalType": "address",
					"name": "userAddress",
					"type": "address"
				},
				{
					"internalType": "uint256",
					"name": "usageID",
					"type": "uint256"
				}
			],
			"name": "log",
			"outputs": [],
			"stateMutability": "nonpayable",
			"type": "function"
		}
	]
}