{
	"data": {
		"bytecode": {
			"linkReferences": {},
			"object": "60806040523480156200001157600080fd5b506040516200202838038062002028833981810160405281019062000037919062000119565b826000806101000a81548173ffffffffffffffffffffffffffffffffffffffff021916908373ffffffffffffffffffffffffffffffffffffffff16021790555081600160006101000a81548173ffffffffffffffffffffffffffffffffffffffff021916908373ffffffffffffffffffffffffffffffffffffffff16021790555080600260006101000a81548173ffffffffffffffffffffffffffffffffffffffff021916908373ffffffffffffffffffffffffffffffffffffffff160217905550505050620001c8565b6000815190506200011381620001ae565b92915050565b600080600060608486031215620001355762000134620001a9565b5b6000620001458682870162000102565b9350506020620001588682870162000102565b92505060406200016b8682870162000102565b9150509250925092565b6000620001828262000189565b9050919050565b600073ffffffffffffffffffffffffffffffffffffffff82169050919050565b600080fd5b620001b98162000175565b8114620001c557600080fd5b50565b611e5080620001d86000396000f3fe608060405234801561001057600080fd5b506004361061004c5760003560e01c806337e0b66d1461005157806370512841146100815780638753367f1461009f578063d4cbd9d4146100bb575b600080fd5b61006b60048036038101906100669190610fe8565b6100eb565b604051610078919061187e565b60405180910390f35b6100896102bd565b604051610096919061185c565b60405180910390f35b6100b960048036038101906100b49190611197565b61037c565b005b6100d560048036038101906100d09190611060565b6109cf565b6040516100e2919061187e565b60405180910390f35b6000815183511161027a57600080600090505b845181101561026f57600085828151811061011c5761011b611b86565b5b602002602001015190506000925060005b85518110156101f05761015a8287838151811061014d5761014c611b86565b5b60200260200101516109cf565b156101dd57600193507f40d9d3d67fa256bdddac6033fe1ba1a7a71e5317da279a180e33d4822fdaef1860008388848151811061019a57610199611b86565b5b60200260200101516040516020016101b39291906116e9565b6040516020818303038152906040526040516101d0929190611718565b60405180910390a16101f0565b80806101e890611b0e565b91505061012d565b508261025b577f40d9d3d67fa256bdddac6033fe1ba1a7a71e5317da279a180e33d4822fdaef1860008260405160200161022a91906116c7565b604051602081830303815290604052604051610247929190611718565b60405180910390a1600093505050506102b7565b50808061026790611b0e565b9150506100fe565b5060019150506102b7565b7f40d9d3d67fa256bdddac6033fe1ba1a7a71e5317da279a180e33d4822fdaef1860006040516102aa91906117a4565b60405180910390a1600090505b92915050565b60606003805480602002602001604051908101604052809291908181526020016000905b828210156103735783829060005260206000209060020201604051806040016040529081600082015481526020016001820160009054906101000a900473ffffffffffffffffffffffffffffffffffffffff1673ffffffffffffffffffffffffffffffffffffffff1673ffffffffffffffffffffffffffffffffffffffff1681525050815260200190600101906102e1565b50505050905090565b600080600260009054906101000a900473ffffffffffffffffffffffffffffffffffffffff1673ffffffffffffffffffffffffffffffffffffffff1663bd8cfa80846040518263ffffffff1660e01b81526004016103da919061190c565b60006040518083038186803b1580156103f257600080fd5b505afa158015610406573d6000803e3d6000fd5b505050506040513d6000823e3d601f19601f8201168201806040525081019061042f9190611121565b9050600081600001511415610479576040517f08c379a000000000000000000000000000000000000000000000000000000000815260040161047090611899565b60405180910390fd5b60008160600151905060008060009054906101000a900473ffffffffffffffffffffffffffffffffffffffff1673ffffffffffffffffffffffffffffffffffffffff1663a812ee29836040518263ffffffff1660e01b81526004016104de919061190c565b60006040518083038186803b1580156104f657600080fd5b505afa15801561050a573d6000803e3d6000fd5b505050506040513d6000823e3d601f19601f8201168201806040525081019061053391906110d8565b90506000600160009054906101000a900473ffffffffffffffffffffffffffffffffffffffff1673ffffffffffffffffffffffffffffffffffffffff16632063455f846040518263ffffffff1660e01b8152600401610592919061190c565b60806040518083038186803b1580156105aa57600080fd5b505afa1580156105be573d6000803e3d6000fd5b505050506040513d601f19601f820116820180604052508101906105e2919061116a565b9050600073ffffffffffffffffffffffffffffffffffffffff16846040015173ffffffffffffffffffffffffffffffffffffffff1614806106575750816020015173ffffffffffffffffffffffffffffffffffffffff16846040015173ffffffffffffffffffffffffffffffffffffffff1614155b1561069f57836020015194507f40d9d3d67fa256bdddac6033fe1ba1a7a71e5317da279a180e33d4822fdaef18856040516106929190611800565b60405180910390a16108e1565b600073ffffffffffffffffffffffffffffffffffffffff16846020015173ffffffffffffffffffffffffffffffffffffffff1614806107125750816000015173ffffffffffffffffffffffffffffffffffffffff16846020015173ffffffffffffffffffffffffffffffffffffffff1614155b806107515750806000015173ffffffffffffffffffffffffffffffffffffffff16846020015173ffffffffffffffffffffffffffffffffffffffff1614155b1561079957836020015194507f40d9d3d67fa256bdddac6033fe1ba1a7a71e5317da279a180e33d4822fdaef188560405161078c919061182e565b60405180910390a16108e0565b6107ab82608001518560a001516109cf565b6107f257836020015194507f40d9d3d67fa256bdddac6033fe1ba1a7a71e5317da279a180e33d4822fdaef18856040516107e59190611748565b60405180910390a16108df565b6108048460c001518360a001516100eb565b61084b57836020015194507f40d9d3d67fa256bdddac6033fe1ba1a7a71e5317da279a180e33d4822fdaef188560405161083e9190611776565b60405180910390a16108de565b806060015115806108905750806020015173ffffffffffffffffffffffffffffffffffffffff16846040015173ffffffffffffffffffffffffffffffffffffffff1614155b156108d857836020015194507f40d9d3d67fa256bdddac6033fe1ba1a7a71e5317da279a180e33d4822fdaef18856040516108cb91906117d2565b60405180910390a16108dd565b600094505b5b5b5b5b7f85be5714e88b33fa357a71704742683d5265129cc9fefba78c6e2ab8913e47358483838860405161091694939291906118b9565b60405180910390a1600360405180604001604052808881526020018773ffffffffffffffffffffffffffffffffffffffff1681525090806001815401808255809150506001900390600052602060002090600202016000909190919091506000820151816000015560208201518160010160006101000a81548173ffffffffffffffffffffffffffffffffffffffff021916908373ffffffffffffffffffffffffffffffffffffffff1602179055505050505050505050565b600080839050600083905080518251146109ee57600092505050610aa6565b60005b8251811015610a9e57818181518110610a0d57610a0c611b86565b5b602001015160f81c60f81b7effffffffffffffffffffffffffffffffffffffffffffffffffffffffffffff1916838281518110610a4d57610a4c611b86565b5b602001015160f81c60f81b7effffffffffffffffffffffffffffffffffffffffffffffffffffffffffffff191614610a8b5760009350505050610aa6565b8080610a9690611b0e565b9150506109f1565b506001925050505b92915050565b6000610abf610aba8461194c565b611927565b90508083825260208201905082856020860282011115610ae257610ae1611bf3565b5b60005b85811015610b3057813567ffffffffffffffff811115610b0857610b07611be4565b5b808601610b158982610cd2565b85526020850194506020840193505050600181019050610ae5565b5050509392505050565b6000610b4d610b488461194c565b611927565b90508083825260208201905082856020860282011115610b7057610b6f611bf3565b5b60005b85811015610bbe57815167ffffffffffffffff811115610b9657610b95611be4565b5b808601610ba38982610d00565b85526020850194506020840193505050600181019050610b73565b5050509392505050565b6000610bdb610bd684611978565b611927565b905082815260208101848484011115610bf757610bf6611bf8565b5b610c02848285611a9b565b509392505050565b6000610c1d610c1884611978565b611927565b905082815260208101848484011115610c3957610c38611bf8565b5b610c44848285611aaa565b509392505050565b600081519050610c5b81611dd5565b92915050565b600082601f830112610c7657610c75611be4565b5b8135610c86848260208601610aac565b91505092915050565b600082601f830112610ca457610ca3611be4565b5b8151610cb4848260208601610b3a565b91505092915050565b600081519050610ccc81611dec565b92915050565b600082601f830112610ce757610ce6611be4565b5b8135610cf7848260208601610bc8565b91505092915050565b600082601f830112610d1557610d14611be4565b5b8151610d25848260208601610c0a565b91505092915050565b600060c08284031215610d4457610d43611be9565b5b610d4e60c0611927565b90506000610d5e84828501610c4c565b6000830152506020610d7284828501610c4c565b602083015250604082015167ffffffffffffffff811115610d9657610d95611bee565b5b610da284828501610d00565b604083015250606082015167ffffffffffffffff811115610dc657610dc5611bee565b5b610dd284828501610d00565b606083015250608082015167ffffffffffffffff811115610df657610df5611bee565b5b610e0284828501610d00565b60808301525060a082015167ffffffffffffffff811115610e2657610e25611bee565b5b610e3284828501610c8f565b60a08301525092915050565b600060e08284031215610e5457610e53611be9565b5b610e5e60e0611927565b90506000610e6e84828501610fd3565b6000830152506020610e8284828501610c4c565b6020830152506040610e9684828501610c4c565b6040830152506060610eaa84828501610fd3565b606083015250608082015167ffffffffffffffff811115610ece57610ecd611bee565b5b610eda84828501610d00565b60808301525060a082015167ffffffffffffffff811115610efe57610efd611bee565b5b610f0a84828501610d00565b60a08301525060c082015167ffffffffffffffff811115610f2e57610f2d611bee565b5b610f3a84828501610c8f565b60c08301525092915050565b600060808284031215610f5c57610f5b611be9565b5b610f666080611927565b90506000610f7684828501610c4c565b6000830152506020610f8a84828501610c4c565b6020830152506040610f9e84828501610fd3565b6040830152506060610fb284828501610cbd565b60608301525092915050565b600081359050610fcd81611e03565b92915050565b600081519050610fe281611e03565b92915050565b60008060408385031215610fff57610ffe611c02565b5b600083013567ffffffffffffffff81111561101d5761101c611bfd565b5b61102985828601610c61565b925050602083013567ffffffffffffffff81111561104a57611049611bfd565b5b61105685828601610c61565b9150509250929050565b6000806040838503121561107757611076611c02565b5b600083013567ffffffffffffffff81111561109557611094611bfd565b5b6110a185828601610cd2565b925050602083013567ffffffffffffffff8111156110c2576110c1611bfd565b5b6110ce85828601610cd2565b9150509250929050565b6000602082840312156110ee576110ed611c02565b5b600082015167ffffffffffffffff81111561110c5761110b611bfd565b5b61111884828501610d2e565b91505092915050565b60006020828403121561113757611136611c02565b5b600082015167ffffffffffffffff81111561115557611154611bfd565b5b61116184828501610e3e565b91505092915050565b6000608082840312156111805761117f611c02565b5b600061118e84828501610f46565b91505092915050565b6000602082840312156111ad576111ac611c02565b5b60006111bb84828501610fbe565b91505092915050565b60006111d083836112ff565b905092915050565b60006111e48383611625565b60408301905092915050565b6111f981611a53565b82525050565b61120881611a53565b82525050565b6000611219826119c9565b6112238185611a04565b935083602082028501611235856119a9565b8060005b85811015611271578484038952815161125285826111c4565b945061125d836119ea565b925060208a01995050600181019050611239565b50829750879550505050505092915050565b600061128e826119d4565b6112988185611a15565b93506112a3836119b9565b8060005b838110156112d45781516112bb88826111d8565b97506112c6836119f7565b9250506001810190506112a7565b5085935050505092915050565b6112ea81611a65565b82525050565b6112f981611a65565b82525050565b600061130a826119df565b6113148185611a26565b9350611324818560208601611aaa565b61132d81611c07565b840191505092915050565b6000611343826119df565b61134d8185611a37565b935061135d818560208601611aaa565b61136681611c07565b840191505092915050565b600061137c826119df565b6113868185611a48565b9350611396818560208601611aaa565b80840191505092915050565b60006113af601d83611a37565b91506113ba82611c18565b602082019050919050565b60006113d2602383611a37565b91506113dd82611c41565b604082019050919050565b60006113f5601383611a37565b915061140082611c90565b602082019050919050565b6000611418601083611a48565b915061142382611cb9565b601082019050919050565b600061143b601783611a37565b915061144682611ce2565b602082019050919050565b600061145e602383611a37565b915061146982611d0b565b604082019050919050565b6000611481600483611a48565b915061148c82611d5a565b600482019050919050565b60006114a4601983611a37565b91506114af82611d83565b602082019050919050565b60006114c7601a83611a37565b91506114d282611dac565b602082019050919050565b600060c0830160008301516114f560008601826111f0565b50602083015161150860208601826111f0565b506040830151848203604086015261152082826112ff565b9150506060830151848203606086015261153a82826112ff565b9150506080830151848203608086015261155482826112ff565b91505060a083015184820360a086015261156e828261120e565b9150508091505092915050565b600060e08301600083015161159360008601826116a9565b5060208301516115a660208601826111f0565b5060408301516115b960408601826111f0565b5060608301516115cc60608601826116a9565b50608083015184820360808601526115e482826112ff565b91505060a083015184820360a08601526115fe82826112ff565b91505060c083015184820360c0860152611618828261120e565b9150508091505092915050565b60408201600082015161163b60008501826116a9565b50602082015161164e60208501826111f0565b50505050565b60808201600082015161166a60008501826111f0565b50602082015161167d60208501826111f0565b50604082015161169060408501826116a9565b5060608201516116a360608501826112e1565b50505050565b6116b281611a91565b82525050565b6116c181611a91565b82525050565b60006116d38284611371565b91506116de8261140b565b915081905092915050565b60006116f58285611371565b915061170082611474565b915061170c8284611371565b91508190509392505050565b600060408201905061172d60008301856111ff565b818103602083015261173f8184611338565b90509392505050565b600060408201905061175d60008301846111ff565b818103602083015261176e816113a2565b905092915050565b600060408201905061178b60008301846111ff565b818103602083015261179c816113c5565b905092915050565b60006040820190506117b960008301846111ff565b81810360208301526117ca816113e8565b905092915050565b60006040820190506117e760008301846111ff565b81810360208301526117f881611451565b905092915050565b600060408201905061181560008301846111ff565b818103602083015261182681611497565b905092915050565b600060408201905061184360008301846111ff565b8181036020830152611854816114ba565b905092915050565b600060208201905081810360008301526118768184611283565b905092915050565b600060208201905061189360008301846112f0565b92915050565b600060208201905081810360008301526118b28161142e565b9050919050565b600060e08201905081810360008301526118d3818761157b565b905081810360208301526118e781866114dd565b90506118f66040830185611654565b61190360c08301846111ff565b95945050505050565b600060208201905061192160008301846116b8565b92915050565b6000611931611942565b905061193d8282611add565b919050565b6000604051905090565b600067ffffffffffffffff82111561196757611966611bb5565b5b602082029050602081019050919050565b600067ffffffffffffffff82111561199357611992611bb5565b5b61199c82611c07565b9050602081019050919050565b6000819050602082019050919050565b6000819050602082019050919050565b600081519050919050565b600081519050919050565b600081519050919050565b6000602082019050919050565b6000602082019050919050565b600082825260208201905092915050565b600082825260208201905092915050565b600082825260208201905092915050565b600082825260208201905092915050565b600081905092915050565b6000611a5e82611a71565b9050919050565b60008115159050919050565b600073ffffffffffffffffffffffffffffffffffffffff82169050919050565b6000819050919050565b82818337600083830152505050565b60005b83811015611ac8578082015181840152602081019050611aad565b83811115611ad7576000848401525b50505050565b611ae682611c07565b810181811067ffffffffffffffff82111715611b0557611b04611bb5565b5b80604052505050565b6000611b1982611a91565b91507fffffffffffffffffffffffffffffffffffffffffffffffffffffffffffffffff821415611b4c57611b4b611b57565b5b600182019050919050565b7f4e487b7100000000000000000000000000000000000000000000000000000000600052601160045260246000fd5b7f4e487b7100000000000000000000000000000000000000000000000000000000600052603260045260246000fd5b7f4e487b7100000000000000000000000000000000000000000000000000000000600052604160045260246000fd5b600080fd5b600080fd5b600080fd5b600080fd5b600080fd5b600080fd5b600080fd5b6000601f19601f8301169050919050565b7f6f7065726174696f6e207265636f726420696e636f6e666f726d697479000000600082015250565b7f726571756573742070726f636573736564206461746120696e636f6e666f726d60008201527f6974790000000000000000000000000000000000000000000000000000000000602082015250565b7f612e6c656e677468203e20622e6c656e67746800000000000000000000000000600082015250565b7f203a2063616e27742066696e6421212100000000000000000000000000000000600082015250565b7f546865206c6f6720646f6573206e6f7420657869737421000000000000000000600082015250565b7f64617461207573616765206973206e6f7420636f6e6669726d6564206279207560008201527f7365720000000000000000000000000000000000000000000000000000000000602082015250565b7f202d2d2000000000000000000000000000000000000000000000000000000000600082015250565b7f75736572206164647265737320696e636f6e666f726d69747900000000000000600082015250565b7f6163746f72206164647265737320696e636f6e666f726d697479000000000000600082015250565b611dde81611a53565b8114611de957600080fd5b50565b611df581611a65565b8114611e0057600080fd5b50565b611e0c81611a91565b8114611e1757600080fd5b5056fea264697066735822122067f37607ab9a07c341d7ddbebb1545c48a4dfc594b5aac58110e4768765ef31064736f6c63430008070033",
			"opcodes": "PUSH1 0x80 PUSH1 0x40 MSTORE CALLVALUE DUP1 ISZERO PUSH3 0x11 JUMPI PUSH1 0x0 DUP1 REVERT JUMPDEST POP PUSH1 0x40 MLOAD PUSH3 0x2028 CODESIZE SUB DUP1 PUSH3 0x2028 DUP4 CODECOPY DUP2 DUP2 ADD PUSH1 0x40 MSTORE DUP2 ADD SWAP1 PUSH3 0x37 SWAP2 SWAP1 PUSH3 0x119 JUMP JUMPDEST DUP3 PUSH1 0x0 DUP1 PUSH2 0x100 EXP DUP2 SLOAD DUP2 PUSH20 0xFFFFFFFFFFFFFFFFFFFFFFFFFFFFFFFFFFFFFFFF MUL NOT AND SWAP1 DUP4 PUSH20 0xFFFFFFFFFFFFFFFFFFFFFFFFFFFFFFFFFFFFFFFF AND MUL OR SWAP1 SSTORE POP DUP2 PUSH1 0x1 PUSH1 0x0 PUSH2 0x100 EXP DUP2 SLOAD DUP2 PUSH20 0xFFFFFFFFFFFFFFFFFFFFFFFFFFFFFFFFFFFFFFFF MUL NOT AND SWAP1 DUP4 PUSH20 0xFFFFFFFFFFFFFFFFFFFFFFFFFFFFFFFFFFFFFFFF AND MUL OR SWAP1 SSTORE POP DUP1 PUSH1 0x2 PUSH1 0x0 PUSH2 0x100 EXP DUP2 SLOAD DUP2 PUSH20 0xFFFFFFFFFFFFFFFFFFFFFFFFFFFFFFFFFFFFFFFF MUL NOT AND SWAP1 DUP4 PUSH20 0xFFFFFFFFFFFFFFFFFFFFFFFFFFFFFFFFFFFFFFFF AND MUL OR SWAP1 SSTORE POP POP POP POP PUSH3 0x1C8 JUMP JUMPDEST PUSH1 0x0 DUP2 MLOAD SWAP1 POP PUSH3 0x113 DUP2 PUSH3 0x1AE JUMP JUMPDEST SWAP3 SWAP2 POP POP JUMP JUMPDEST PUSH1 0x0 DUP1 PUSH1 0x0 PUSH1 0x60 DUP5 DUP7 SUB SLT ISZERO PUSH3 0x135 JUMPI PUSH3 0x134 PUSH3 0x1A9 JUMP JUMPDEST JUMPDEST PUSH1 0x0 PUSH3 0x145 DUP7 DUP3 DUP8 ADD PUSH3 0x102 JUMP JUMPDEST SWAP4 POP POP PUSH1 0x20 PUSH3 0x158 DUP7 DUP3 DUP8 ADD PUSH3 0x102 JUMP JUMPDEST SWAP3 POP POP PUSH1 0x40 PUSH3 0x16B DUP7 DUP3 DUP8 ADD PUSH3 0x102 JUMP JUMPDEST SWAP2 POP POP SWAP3 POP SWAP3 POP SWAP3 JUMP JUMPDEST PUSH1 0x0 PUSH3 0x182 DUP3 PUSH3 0x189 JUMP JUMPDEST SWAP1 POP SWAP2 SWAP1 POP JUMP JUMPDEST PUSH1 0x0 PUSH20 0xFFFFFFFFFFFFFFFFFFFFFFFFFFFFFFFFFFFFFFFF DUP3 AND SWAP1 POP SWAP2 SWAP1 POP JUMP JUMPDEST PUSH1 0x0 DUP1 REVERT JUMPDEST PUSH3 0x1B9 DUP2 PUSH3 0x175 JUMP JUMPDEST DUP2 EQ PUSH3 0x1C5 JUMPI PUSH1 0x0 DUP1 REVERT JUMPDEST POP JUMP JUMPDEST PUSH2 0x1E50 DUP1 PUSH3 0x1D8 PUSH1 0x0 CODECOPY PUSH1 0x0 RETURN INVALID PUSH1 0x80 PUSH1 0x40 MSTORE CALLVALUE DUP1 ISZERO PUSH2 0x10 JUMPI PUSH1 0x0 DUP1 REVERT JUMPDEST POP PUSH1 0x4 CALLDATASIZE LT PUSH2 0x4C JUMPI PUSH1 0x0 CALLDATALOAD PUSH1 0xE0 SHR DUP1 PUSH4 0x37E0B66D EQ PUSH2 0x51 JUMPI DUP1 PUSH4 0x70512841 EQ PUSH2 0x81 JUMPI DUP1 PUSH4 0x8753367F EQ PUSH2 0x9F JUMPI DUP1 PUSH4 0xD4CBD9D4 EQ PUSH2 0xBB JUMPI JUMPDEST PUSH1 0x0 DUP1 REVERT JUMPDEST PUSH2 0x6B PUSH1 0x4 DUP1 CALLDATASIZE SUB DUP2 ADD SWAP1 PUSH2 0x66 SWAP2 SWAP1 PUSH2 0xFE8 JUMP JUMPDEST PUSH2 0xEB JUMP JUMPDEST PUSH1 0x40 MLOAD PUSH2 0x78 SWAP2 SWAP1 PUSH2 0x187E JUMP JUMPDEST PUSH1 0x40 MLOAD DUP1 SWAP2 SUB SWAP1 RETURN JUMPDEST PUSH2 0x89 PUSH2 0x2BD JUMP JUMPDEST PUSH1 0x40 MLOAD PUSH2 0x96 SWAP2 SWAP1 PUSH2 0x185C JUMP JUMPDEST PUSH1 0x40 MLOAD DUP1 SWAP2 SUB SWAP1 RETURN JUMPDEST PUSH2 0xB9 PUSH1 0x4 DUP1 CALLDATASIZE SUB DUP2 ADD SWAP1 PUSH2 0xB4 SWAP2 SWAP1 PUSH2 0x1197 JUMP JUMPDEST PUSH2 0x37C JUMP JUMPDEST STOP JUMPDEST PUSH2 0xD5 PUSH1 0x4 DUP1 CALLDATASIZE SUB DUP2 ADD SWAP1 PUSH2 0xD0 SWAP2 SWAP1 PUSH2 0x1060 JUMP JUMPDEST PUSH2 0x9CF JUMP JUMPDEST PUSH1 0x40 MLOAD PUSH2 0xE2 SWAP2 SWAP1 PUSH2 0x187E JUMP JUMPDEST PUSH1 0x40 MLOAD DUP1 SWAP2 SUB SWAP1 RETURN JUMPDEST PUSH1 0x0 DUP2 MLOAD DUP4 MLOAD GT PUSH2 0x27A JUMPI PUSH1 0x0 DUP1 PUSH1 0x0 SWAP1 POP JUMPDEST DUP5 MLOAD DUP2 LT ISZERO PUSH2 0x26F JUMPI PUSH1 0x0 DUP6 DUP3 DUP2 MLOAD DUP2 LT PUSH2 0x11C JUMPI PUSH2 0x11B PUSH2 0x1B86 JUMP JUMPDEST JUMPDEST PUSH1 0x20 MUL PUSH1 0x20 ADD ADD MLOAD SWAP1 POP PUSH1 0x0 SWAP3 POP PUSH1 0x0 JUMPDEST DUP6 MLOAD DUP2 LT ISZERO PUSH2 0x1F0 JUMPI PUSH2 0x15A DUP3 DUP8 DUP4 DUP2 MLOAD DUP2 LT PUSH2 0x14D JUMPI PUSH2 0x14C PUSH2 0x1B86 JUMP JUMPDEST JUMPDEST PUSH1 0x20 MUL PUSH1 0x20 ADD ADD MLOAD PUSH2 0x9CF JUMP JUMPDEST ISZERO PUSH2 0x1DD JUMPI PUSH1 0x1 SWAP4 POP PUSH32 0x40D9D3D67FA256BDDDAC6033FE1BA1A7A71E5317DA279A180E33D4822FDAEF18 PUSH1 0x0 DUP4 DUP9 DUP5 DUP2 MLOAD DUP2 LT PUSH2 0x19A JUMPI PUSH2 0x199 PUSH2 0x1B86 JUMP JUMPDEST JUMPDEST PUSH1 0x20 MUL PUSH1 0x20 ADD ADD MLOAD PUSH1 0x40 MLOAD PUSH1 0x20 ADD PUSH2 0x1B3 SWAP3 SWAP2 SWAP1 PUSH2 0x16E9 JUMP JUMPDEST PUSH1 0x40 MLOAD PUSH1 0x20 DUP2 DUP4 SUB SUB DUP2 MSTORE SWAP1 PUSH1 0x40 MSTORE PUSH1 0x40 MLOAD PUSH2 0x1D0 SWAP3 SWAP2 SWAP1 PUSH2 0x1718 JUMP JUMPDEST PUSH1 0x40 MLOAD DUP1 SWAP2 SUB SWAP1 LOG1 PUSH2 0x1F0 JUMP JUMPDEST DUP1 DUP1 PUSH2 0x1E8 SWAP1 PUSH2 0x1B0E JUMP JUMPDEST SWAP2 POP POP PUSH2 0x12D JUMP JUMPDEST POP DUP3 PUSH2 0x25B JUMPI PUSH32 0x40D9D3D67FA256BDDDAC6033FE1BA1A7A71E5317DA279A180E33D4822FDAEF18 PUSH1 0x0 DUP3 PUSH1 0x40 MLOAD PUSH1 0x20 ADD PUSH2 0x22A SWAP2 SWAP1 PUSH2 0x16C7 JUMP JUMPDEST PUSH1 0x40 MLOAD PUSH1 0x20 DUP2 DUP4 SUB SUB DUP2 MSTORE SWAP1 PUSH1 0x40 MSTORE PUSH1 0x40 MLOAD PUSH2 0x247 SWAP3 SWAP2 SWAP1 PUSH2 0x1718 JUMP JUMPDEST PUSH1 0x40 MLOAD DUP1 SWAP2 SUB SWAP1 LOG1 PUSH1 0x0 SWAP4 POP POP POP POP PUSH2 0x2B7 JUMP JUMPDEST POP DUP1 DUP1 PUSH2 0x267 SWAP1 PUSH2 0x1B0E JUMP JUMPDEST SWAP2 POP POP PUSH2 0xFE JUMP JUMPDEST POP PUSH1 0x1 SWAP2 POP POP PUSH2 0x2B7 JUMP JUMPDEST PUSH32 0x40D9D3D67FA256BDDDAC6033FE1BA1A7A71E5317DA279A180E33D4822FDAEF18 PUSH1 0x0 PUSH1 0x40 MLOAD PUSH2 0x2AA SWAP2 SWAP1 PUSH2 0x17A4 JUMP JUMPDEST PUSH1 0x40 MLOAD DUP1 SWAP2 SUB SWAP1 LOG1 PUSH1 0x0 SWAP1 POP JUMPDEST SWAP3 SWAP2 POP POP JUMP JUMPDEST PUSH1 0x60 PUSH1 0x3 DUP1 SLOAD DUP1 PUSH1 0x20 MUL PUSH1 0x20 ADD PUSH1 0x40 MLOAD SWAP1 DUP2 ADD PUSH1 0x40 MSTORE DUP1 SWAP3 SWAP2 SWAP1 DUP2 DUP2 MSTORE PUSH1 0x20 ADD PUSH1 0x0 SWAP1 JUMPDEST DUP3 DUP3 LT ISZERO PUSH2 0x373 JUMPI DUP4 DUP3 SWAP1 PUSH1 0x0 MSTORE PUSH1 0x20 PUSH1 0x0 KECCAK256 SWAP1 PUSH1 0x2 MUL ADD PUSH1 0x40 MLOAD DUP1 PUSH1 0x40 ADD PUSH1 0x40 MSTORE SWAP1 DUP2 PUSH1 0x0 DUP3 ADD SLOAD DUP2 MSTORE PUSH1 0x20 ADD PUSH1 0x1 DUP3 ADD PUSH1 0x0 SWAP1 SLOAD SWAP1 PUSH2 0x100 EXP SWAP1 DIV PUSH20 0xFFFFFFFFFFFFFFFFFFFFFFFFFFFFFFFFFFFFFFFF AND PUSH20 0xFFFFFFFFFFFFFFFFFFFFFFFFFFFFFFFFFFFFFFFF AND PUSH20 0xFFFFFFFFFFFFFFFFFFFFFFFFFFFFFFFFFFFFFFFF AND DUP2 MSTORE POP POP DUP2 MSTORE PUSH1 0x20 ADD SWAP1 PUSH1 0x1 ADD SWAP1 PUSH2 0x2E1 JUMP JUMPDEST POP POP POP POP SWAP1 POP SWAP1 JUMP JUMPDEST PUSH1 0x0 DUP1 PUSH1 0x2 PUSH1 0x0 SWAP1 SLOAD SWAP1 PUSH2 0x100 EXP SWAP1 DIV PUSH20 0xFFFFFFFFFFFFFFFFFFFFFFFFFFFFFFFFFFFFFFFF AND PUSH20 0xFFFFFFFFFFFFFFFFFFFFFFFFFFFFFFFFFFFFFFFF AND PUSH4 0xBD8CFA80 DUP5 PUSH1 0x40 MLOAD DUP3 PUSH4 0xFFFFFFFF AND PUSH1 0xE0 SHL DUP2 MSTORE PUSH1 0x4 ADD PUSH2 0x3DA SWAP2 SWAP1 PUSH2 0x190C JUMP JUMPDEST PUSH1 0x0 PUSH1 0x40 MLOAD DUP1 DUP4 SUB DUP2 DUP7 DUP1 EXTCODESIZE ISZERO DUP1 ISZERO PUSH2 0x3F2 JUMPI PUSH1 0x0 DUP1 REVERT JUMPDEST POP GAS STATICCALL ISZERO DUP1 ISZERO PUSH2 0x406 JUMPI RETURNDATASIZE PUSH1 0x0 DUP1 RETURNDATACOPY RETURNDATASIZE PUSH1 0x0 REVERT JUMPDEST POP POP POP POP PUSH1 0x40 MLOAD RETURNDATASIZE PUSH1 0x0 DUP3 RETURNDATACOPY RETURNDATASIZE PUSH1 0x1F NOT PUSH1 0x1F DUP3 ADD AND DUP3 ADD DUP1 PUSH1 0x40 MSTORE POP DUP2 ADD SWAP1 PUSH2 0x42F SWAP2 SWAP1 PUSH2 0x1121 JUMP JUMPDEST SWAP1 POP PUSH1 0x0 DUP2 PUSH1 0x0 ADD MLOAD EQ ISZERO PUSH2 0x479 JUMPI PUSH1 0x40 MLOAD PUSH32 0x8C379A000000000000000000000000000000000000000000000000000000000 DUP2 MSTORE PUSH1 0x4 ADD PUSH2 0x470 SWAP1 PUSH2 0x1899 JUMP JUMPDEST PUSH1 0x40 MLOAD DUP1 SWAP2 SUB SWAP1 REVERT JUMPDEST PUSH1 0x0 DUP2 PUSH1 0x60 ADD MLOAD SWAP1 POP PUSH1 0x0 DUP1 PUSH1 0x0 SWAP1 SLOAD SWAP1 PUSH2 0x100 EXP SWAP1 DIV PUSH20 0xFFFFFFFFFFFFFFFFFFFFFFFFFFFFFFFFFFFFFFFF AND PUSH20 0xFFFFFFFFFFFFFFFFFFFFFFFFFFFFFFFFFFFFFFFF AND PUSH4 0xA812EE29 DUP4 PUSH1 0x40 MLOAD DUP3 PUSH4 0xFFFFFFFF AND PUSH1 0xE0 SHL DUP2 MSTORE PUSH1 0x4 ADD PUSH2 0x4DE SWAP2 SWAP1 PUSH2 0x190C JUMP JUMPDEST PUSH1 0x0 PUSH1 0x40 MLOAD DUP1 DUP4 SUB DUP2 DUP7 DUP1 EXTCODESIZE ISZERO DUP1 ISZERO PUSH2 0x4F6 JUMPI PUSH1 0x0 DUP1 REVERT JUMPDEST POP GAS STATICCALL ISZERO DUP1 ISZERO PUSH2 0x50A JUMPI RETURNDATASIZE PUSH1 0x0 DUP1 RETURNDATACOPY RETURNDATASIZE PUSH1 0x0 REVERT JUMPDEST POP POP POP POP PUSH1 0x40 MLOAD RETURNDATASIZE PUSH1 0x0 DUP3 RETURNDATACOPY RETURNDATASIZE PUSH1 0x1F NOT PUSH1 0x1F DUP3 ADD AND DUP3 ADD DUP1 PUSH1 0x40 MSTORE POP DUP2 ADD SWAP1 PUSH2 0x533 SWAP2 SWAP1 PUSH2 0x10D8 JUMP JUMPDEST SWAP1 POP PUSH1 0x0 PUSH1 0x1 PUSH1 0x0 SWAP1 SLOAD SWAP1 PUSH2 0x100 EXP SWAP1 DIV PUSH20 0xFFFFFFFFFFFFFFFFFFFFFFFFFFFFFFFFFFFFFFFF AND PUSH20 0xFFFFFFFFFFFFFFFFFFFFFFFFFFFFFFFFFFFFFFFF AND PUSH4 0x2063455F DUP5 PUSH1 0x40 MLOAD DUP3 PUSH4 0xFFFFFFFF AND PUSH1 0xE0 SHL DUP2 MSTORE PUSH1 0x4 ADD PUSH2 0x592 SWAP2 SWAP1 PUSH2 0x190C JUMP JUMPDEST PUSH1 0x80 PUSH1 0x40 MLOAD DUP1 DUP4 SUB DUP2 DUP7 DUP1 EXTCODESIZE ISZERO DUP1 ISZERO PUSH2 0x5AA JUMPI PUSH1 0x0 DUP1 REVERT JUMPDEST POP GAS STATICCALL ISZERO DUP1 ISZERO PUSH2 0x5BE JUMPI RETURNDATASIZE PUSH1 0x0 DUP1 RETURNDATACOPY RETURNDATASIZE PUSH1 0x0 REVERT JUMPDEST POP POP POP POP PUSH1 0x40 MLOAD RETURNDATASIZE PUSH1 0x1F NOT PUSH1 0x1F DUP3 ADD AND DUP3 ADD DUP1 PUSH1 0x40 MSTORE POP DUP2 ADD SWAP1 PUSH2 0x5E2 SWAP2 SWAP1 PUSH2 0x116A JUMP JUMPDEST SWAP1 POP PUSH1 0x0 PUSH20 0xFFFFFFFFFFFFFFFFFFFFFFFFFFFFFFFFFFFFFFFF AND DUP5 PUSH1 0x40 ADD MLOAD PUSH20 0xFFFFFFFFFFFFFFFFFFFFFFFFFFFFFFFFFFFFFFFF AND EQ DUP1 PUSH2 0x657 JUMPI POP DUP2 PUSH1 0x20 ADD MLOAD PUSH20 0xFFFFFFFFFFFFFFFFFFFFFFFFFFFFFFFFFFFFFFFF AND DUP5 PUSH1 0x40 ADD MLOAD PUSH20 0xFFFFFFFFFFFFFFFFFFFFFFFFFFFFFFFFFFFFFFFF AND EQ ISZERO JUMPDEST ISZERO PUSH2 0x69F JUMPI DUP4 PUSH1 0x20 ADD MLOAD SWAP5 POP PUSH32 0x40D9D3D67FA256BDDDAC6033FE1BA1A7A71E5317DA279A180E33D4822FDAEF18 DUP6 PUSH1 0x40 MLOAD PUSH2 0x692 SWAP2 SWAP1 PUSH2 0x1800 JUMP JUMPDEST PUSH1 0x40 MLOAD DUP1 SWAP2 SUB SWAP1 LOG1 PUSH2 0x8E1 JUMP JUMPDEST PUSH1 0x0 PUSH20 0xFFFFFFFFFFFFFFFFFFFFFFFFFFFFFFFFFFFFFFFF AND DUP5 PUSH1 0x20 ADD MLOAD PUSH20 0xFFFFFFFFFFFFFFFFFFFFFFFFFFFFFFFFFFFFFFFF AND EQ DUP1 PUSH2 0x712 JUMPI POP DUP2 PUSH1 0x0 ADD MLOAD PUSH20 0xFFFFFFFFFFFFFFFFFFFFFFFFFFFFFFFFFFFFFFFF AND DUP5 PUSH1 0x20 ADD MLOAD PUSH20 0xFFFFFFFFFFFFFFFFFFFFFFFFFFFFFFFFFFFFFFFF AND EQ ISZERO JUMPDEST DUP1 PUSH2 0x751 JUMPI POP DUP1 PUSH1 0x0 ADD MLOAD PUSH20 0xFFFFFFFFFFFFFFFFFFFFFFFFFFFFFFFFFFFFFFFF AND DUP5 PUSH1 0x20 ADD MLOAD PUSH20 0xFFFFFFFFFFFFFFFFFFFFFFFFFFFFFFFFFFFFFFFF AND EQ ISZERO JUMPDEST ISZERO PUSH2 0x799 JUMPI DUP4 PUSH1 0x20 ADD MLOAD SWAP5 POP PUSH32 0x40D9D3D67FA256BDDDAC6033FE1BA1A7A71E5317DA279A180E33D4822FDAEF18 DUP6 PUSH1 0x40 MLOAD PUSH2 0x78C SWAP2 SWAP1 PUSH2 0x182E JUMP JUMPDEST PUSH1 0x40 MLOAD DUP1 SWAP2 SUB SWAP1 LOG1 PUSH2 0x8E0 JUMP JUMPDEST PUSH2 0x7AB DUP3 PUSH1 0x80 ADD MLOAD DUP6 PUSH1 0xA0 ADD MLOAD PUSH2 0x9CF JUMP JUMPDEST PUSH2 0x7F2 JUMPI DUP4 PUSH1 0x20 ADD MLOAD SWAP5 POP PUSH32 0x40D9D3D67FA256BDDDAC6033FE1BA1A7A71E5317DA279A180E33D4822FDAEF18 DUP6 PUSH1 0x40 MLOAD PUSH2 0x7E5 SWAP2 SWAP1 PUSH2 0x1748 JUMP JUMPDEST PUSH1 0x40 MLOAD DUP1 SWAP2 SUB SWAP1 LOG1 PUSH2 0x8DF JUMP JUMPDEST PUSH2 0x804 DUP5 PUSH1 0xC0 ADD MLOAD DUP4 PUSH1 0xA0 ADD MLOAD PUSH2 0xEB JUMP JUMPDEST PUSH2 0x84B JUMPI DUP4 PUSH1 0x20 ADD MLOAD SWAP5 POP PUSH32 0x40D9D3D67FA256BDDDAC6033FE1BA1A7A71E5317DA279A180E33D4822FDAEF18 DUP6 PUSH1 0x40 MLOAD PUSH2 0x83E SWAP2 SWAP1 PUSH2 0x1776 JUMP JUMPDEST PUSH1 0x40 MLOAD DUP1 SWAP2 SUB SWAP1 LOG1 PUSH2 0x8DE JUMP JUMPDEST DUP1 PUSH1 0x60 ADD MLOAD ISZERO DUP1 PUSH2 0x890 JUMPI POP DUP1 PUSH1 0x20 ADD MLOAD PUSH20 0xFFFFFFFFFFFFFFFFFFFFFFFFFFFFFFFFFFFFFFFF AND DUP5 PUSH1 0x40 ADD MLOAD PUSH20 0xFFFFFFFFFFFFFFFFFFFFFFFFFFFFFFFFFFFFFFFF AND EQ ISZERO JUMPDEST ISZERO PUSH2 0x8D8 JUMPI DUP4 PUSH1 0x20 ADD MLOAD SWAP5 POP PUSH32 0x40D9D3D67FA256BDDDAC6033FE1BA1A7A71E5317DA279A180E33D4822FDAEF18 DUP6 PUSH1 0x40 MLOAD PUSH2 0x8CB SWAP2 SWAP1 PUSH2 0x17D2 JUMP JUMPDEST PUSH1 0x40 MLOAD DUP1 SWAP2 SUB SWAP1 LOG1 PUSH2 0x8DD JUMP JUMPDEST PUSH1 0x0 SWAP5 POP JUMPDEST JUMPDEST JUMPDEST JUMPDEST JUMPDEST PUSH32 0x85BE5714E88B33FA357A71704742683D5265129CC9FEFBA78C6E2AB8913E4735 DUP5 DUP4 DUP4 DUP9 PUSH1 0x40 MLOAD PUSH2 0x916 SWAP5 SWAP4 SWAP3 SWAP2 SWAP1 PUSH2 0x18B9 JUMP JUMPDEST PUSH1 0x40 MLOAD DUP1 SWAP2 SUB SWAP1 LOG1 PUSH1 0x3 PUSH1 0x40 MLOAD DUP1 PUSH1 0x40 ADD PUSH1 0x40 MSTORE DUP1 DUP9 DUP2 MSTORE PUSH1 0x20 ADD DUP8 PUSH20 0xFFFFFFFFFFFFFFFFFFFFFFFFFFFFFFFFFFFFFFFF AND DUP2 MSTORE POP SWAP1 DUP1 PUSH1 0x1 DUP2 SLOAD ADD DUP1 DUP3 SSTORE DUP1 SWAP2 POP POP PUSH1 0x1 SWAP1 SUB SWAP1 PUSH1 0x0 MSTORE PUSH1 0x20 PUSH1 0x0 KECCAK256 SWAP1 PUSH1 0x2 MUL ADD PUSH1 0x0 SWAP1 SWAP2 SWAP1 SWAP2 SWAP1 SWAP2 POP PUSH1 0x0 DUP3 ADD MLOAD DUP2 PUSH1 0x0 ADD SSTORE PUSH1 0x20 DUP3 ADD MLOAD DUP2 PUSH1 0x1 ADD PUSH1 0x0 PUSH2 0x100 EXP DUP2 SLOAD DUP2 PUSH20 0xFFFFFFFFFFFFFFFFFFFFFFFFFFFFFFFFFFFFFFFF MUL NOT AND SWAP1 DUP4 PUSH20 0xFFFFFFFFFFFFFFFFFFFFFFFFFFFFFFFFFFFFFFFF AND MUL OR SWAP1 SSTORE POP POP POP POP POP POP POP POP POP JUMP JUMPDEST PUSH1 0x0 DUP1 DUP4 SWAP1 POP PUSH1 0x0 DUP4 SWAP1 POP DUP1 MLOAD DUP3 MLOAD EQ PUSH2 0x9EE JUMPI PUSH1 0x0 SWAP3 POP POP POP PUSH2 0xAA6 JUMP JUMPDEST PUSH1 0x0 JUMPDEST DUP3 MLOAD DUP2 LT ISZERO PUSH2 0xA9E JUMPI DUP2 DUP2 DUP2 MLOAD DUP2 LT PUSH2 0xA0D JUMPI PUSH2 0xA0C PUSH2 0x1B86 JUMP JUMPDEST JUMPDEST PUSH1 0x20 ADD ADD MLOAD PUSH1 0xF8 SHR PUSH1 0xF8 SHL PUSH31 0xFFFFFFFFFFFFFFFFFFFFFFFFFFFFFFFFFFFFFFFFFFFFFFFFFFFFFFFFFFFFFF NOT AND DUP4 DUP3 DUP2 MLOAD DUP2 LT PUSH2 0xA4D JUMPI PUSH2 0xA4C PUSH2 0x1B86 JUMP JUMPDEST JUMPDEST PUSH1 0x20 ADD ADD MLOAD PUSH1 0xF8 SHR PUSH1 0xF8 SHL PUSH31 0xFFFFFFFFFFFFFFFFFFFFFFFFFFFFFFFFFFFFFFFFFFFFFFFFFFFFFFFFFFFFFF NOT AND EQ PUSH2 0xA8B JUMPI PUSH1 0x0 SWAP4 POP POP POP POP PUSH2 0xAA6 JUMP JUMPDEST DUP1 DUP1 PUSH2 0xA96 SWAP1 PUSH2 0x1B0E JUMP JUMPDEST SWAP2 POP POP PUSH2 0x9F1 JUMP JUMPDEST POP PUSH1 0x1 SWAP3 POP POP POP JUMPDEST SWAP3 SWAP2 POP POP JUMP JUMPDEST PUSH1 0x0 PUSH2 0xABF PUSH2 0xABA DUP5 PUSH2 0x194C JUMP JUMPDEST PUSH2 0x1927 JUMP JUMPDEST SWAP1 POP DUP1 DUP4 DUP3 MSTORE PUSH1 0x20 DUP3 ADD SWAP1 POP DUP3 DUP6 PUSH1 0x20 DUP7 MUL DUP3 ADD GT ISZERO PUSH2 0xAE2 JUMPI PUSH2 0xAE1 PUSH2 0x1BF3 JUMP JUMPDEST JUMPDEST PUSH1 0x0 JUMPDEST DUP6 DUP2 LT ISZERO PUSH2 0xB30 JUMPI DUP2 CALLDATALOAD PUSH8 0xFFFFFFFFFFFFFFFF DUP2 GT ISZERO PUSH2 0xB08 JUMPI PUSH2 0xB07 PUSH2 0x1BE4 JUMP JUMPDEST JUMPDEST DUP1 DUP7 ADD PUSH2 0xB15 DUP10 DUP3 PUSH2 0xCD2 JUMP JUMPDEST DUP6 MSTORE PUSH1 0x20 DUP6 ADD SWAP5 POP PUSH1 0x20 DUP5 ADD SWAP4 POP POP POP PUSH1 0x1 DUP2 ADD SWAP1 POP PUSH2 0xAE5 JUMP JUMPDEST POP POP POP SWAP4 SWAP3 POP POP POP JUMP JUMPDEST PUSH1 0x0 PUSH2 0xB4D PUSH2 0xB48 DUP5 PUSH2 0x194C JUMP JUMPDEST PUSH2 0x1927 JUMP JUMPDEST SWAP1 POP DUP1 DUP4 DUP3 MSTORE PUSH1 0x20 DUP3 ADD SWAP1 POP DUP3 DUP6 PUSH1 0x20 DUP7 MUL DUP3 ADD GT ISZERO PUSH2 0xB70 JUMPI PUSH2 0xB6F PUSH2 0x1BF3 JUMP JUMPDEST JUMPDEST PUSH1 0x0 JUMPDEST DUP6 DUP2 LT ISZERO PUSH2 0xBBE JUMPI DUP2 MLOAD PUSH8 0xFFFFFFFFFFFFFFFF DUP2 GT ISZERO PUSH2 0xB96 JUMPI PUSH2 0xB95 PUSH2 0x1BE4 JUMP JUMPDEST JUMPDEST DUP1 DUP7 ADD PUSH2 0xBA3 DUP10 DUP3 PUSH2 0xD00 JUMP JUMPDEST DUP6 MSTORE PUSH1 0x20 DUP6 ADD SWAP5 POP PUSH1 0x20 DUP5 ADD SWAP4 POP POP POP PUSH1 0x1 DUP2 ADD SWAP1 POP PUSH2 0xB73 JUMP JUMPDEST POP POP POP SWAP4 SWAP3 POP POP POP JUMP JUMPDEST PUSH1 0x0 PUSH2 0xBDB PUSH2 0xBD6 DUP5 PUSH2 0x1978 JUMP JUMPDEST PUSH2 0x1927 JUMP JUMPDEST SWAP1 POP DUP3 DUP2 MSTORE PUSH1 0x20 DUP2 ADD DUP5 DUP5 DUP5 ADD GT ISZERO PUSH2 0xBF7 JUMPI PUSH2 0xBF6 PUSH2 0x1BF8 JUMP JUMPDEST JUMPDEST PUSH2 0xC02 DUP5 DUP3 DUP6 PUSH2 0x1A9B JUMP JUMPDEST POP SWAP4 SWAP3 POP POP POP JUMP JUMPDEST PUSH1 0x0 PUSH2 0xC1D PUSH2 0xC18 DUP5 PUSH2 0x1978 JUMP JUMPDEST PUSH2 0x1927 JUMP JUMPDEST SWAP1 POP DUP3 DUP2 MSTORE PUSH1 0x20 DUP2 ADD DUP5 DUP5 DUP5 ADD GT ISZERO PUSH2 0xC39 JUMPI PUSH2 0xC38 PUSH2 0x1BF8 JUMP JUMPDEST JUMPDEST PUSH2 0xC44 DUP5 DUP3 DUP6 PUSH2 0x1AAA JUMP JUMPDEST POP SWAP4 SWAP3 POP POP POP JUMP JUMPDEST PUSH1 0x0 DUP2 MLOAD SWAP1 POP PUSH2 0xC5B DUP2 PUSH2 0x1DD5 JUMP JUMPDEST SWAP3 SWAP2 POP POP JUMP JUMPDEST PUSH1 0x0 DUP3 PUSH1 0x1F DUP4 ADD SLT PUSH2 0xC76 JUMPI PUSH2 0xC75 PUSH2 0x1BE4 JUMP JUMPDEST JUMPDEST DUP2 CALLDATALOAD PUSH2 0xC86 DUP5 DUP3 PUSH1 0x20 DUP7 ADD PUSH2 0xAAC JUMP JUMPDEST SWAP2 POP POP SWAP3 SWAP2 POP POP JUMP JUMPDEST PUSH1 0x0 DUP3 PUSH1 0x1F DUP4 ADD SLT PUSH2 0xCA4 JUMPI PUSH2 0xCA3 PUSH2 0x1BE4 JUMP JUMPDEST JUMPDEST DUP2 MLOAD PUSH2 0xCB4 DUP5 DUP3 PUSH1 0x20 DUP7 ADD PUSH2 0xB3A JUMP JUMPDEST SWAP2 POP POP SWAP3 SWAP2 POP POP JUMP JUMPDEST PUSH1 0x0 DUP2 MLOAD SWAP1 POP PUSH2 0xCCC DUP2 PUSH2 0x1DEC JUMP JUMPDEST SWAP3 SWAP2 POP POP JUMP JUMPDEST PUSH1 0x0 DUP3 PUSH1 0x1F DUP4 ADD SLT PUSH2 0xCE7 JUMPI PUSH2 0xCE6 PUSH2 0x1BE4 JUMP JUMPDEST JUMPDEST DUP2 CALLDATALOAD PUSH2 0xCF7 DUP5 DUP3 PUSH1 0x20 DUP7 ADD PUSH2 0xBC8 JUMP JUMPDEST SWAP2 POP POP SWAP3 SWAP2 POP POP JUMP JUMPDEST PUSH1 0x0 DUP3 PUSH1 0x1F DUP4 ADD SLT PUSH2 0xD15 JUMPI PUSH2 0xD14 PUSH2 0x1BE4 JUMP JUMPDEST JUMPDEST DUP2 MLOAD PUSH2 0xD25 DUP5 DUP3 PUSH1 0x20 DUP7 ADD PUSH2 0xC0A JUMP JUMPDEST SWAP2 POP POP SWAP3 SWAP2 POP POP JUMP JUMPDEST PUSH1 0x0 PUSH1 0xC0 DUP3 DUP5 SUB SLT ISZERO PUSH2 0xD44 JUMPI PUSH2 0xD43 PUSH2 0x1BE9 JUMP JUMPDEST JUMPDEST PUSH2 0xD4E PUSH1 0xC0 PUSH2 0x1927 JUMP JUMPDEST SWAP1 POP PUSH1 0x0 PUSH2 0xD5E DUP5 DUP3 DUP6 ADD PUSH2 0xC4C JUMP JUMPDEST PUSH1 0x0 DUP4 ADD MSTORE POP PUSH1 0x20 PUSH2 0xD72 DUP5 DUP3 DUP6 ADD PUSH2 0xC4C JUMP JUMPDEST PUSH1 0x20 DUP4 ADD MSTORE POP PUSH1 0x40 DUP3 ADD MLOAD PUSH8 0xFFFFFFFFFFFFFFFF DUP2 GT ISZERO PUSH2 0xD96 JUMPI PUSH2 0xD95 PUSH2 0x1BEE JUMP JUMPDEST JUMPDEST PUSH2 0xDA2 DUP5 DUP3 DUP6 ADD PUSH2 0xD00 JUMP JUMPDEST PUSH1 0x40 DUP4 ADD MSTORE POP PUSH1 0x60 DUP3 ADD MLOAD PUSH8 0xFFFFFFFFFFFFFFFF DUP2 GT ISZERO PUSH2 0xDC6 JUMPI PUSH2 0xDC5 PUSH2 0x1BEE JUMP JUMPDEST JUMPDEST PUSH2 0xDD2 DUP5 DUP3 DUP6 ADD PUSH2 0xD00 JUMP JUMPDEST PUSH1 0x60 DUP4 ADD MSTORE POP PUSH1 0x80 DUP3 ADD MLOAD PUSH8 0xFFFFFFFFFFFFFFFF DUP2 GT ISZERO PUSH2 0xDF6 JUMPI PUSH2 0xDF5 PUSH2 0x1BEE JUMP JUMPDEST JUMPDEST PUSH2 0xE02 DUP5 DUP3 DUP6 ADD PUSH2 0xD00 JUMP JUMPDEST PUSH1 0x80 DUP4 ADD MSTORE POP PUSH1 0xA0 DUP3 ADD MLOAD PUSH8 0xFFFFFFFFFFFFFFFF DUP2 GT ISZERO PUSH2 0xE26 JUMPI PUSH2 0xE25 PUSH2 0x1BEE JUMP JUMPDEST JUMPDEST PUSH2 0xE32 DUP5 DUP3 DUP6 ADD PUSH2 0xC8F JUMP JUMPDEST PUSH1 0xA0 DUP4 ADD MSTORE POP SWAP3 SWAP2 POP POP JUMP JUMPDEST PUSH1 0x0 PUSH1 0xE0 DUP3 DUP5 SUB SLT ISZERO PUSH2 0xE54 JUMPI PUSH2 0xE53 PUSH2 0x1BE9 JUMP JUMPDEST JUMPDEST PUSH2 0xE5E PUSH1 0xE0 PUSH2 0x1927 JUMP JUMPDEST SWAP1 POP PUSH1 0x0 PUSH2 0xE6E DUP5 DUP3 DUP6 ADD PUSH2 0xFD3 JUMP JUMPDEST PUSH1 0x0 DUP4 ADD MSTORE POP PUSH1 0x20 PUSH2 0xE82 DUP5 DUP3 DUP6 ADD PUSH2 0xC4C JUMP JUMPDEST PUSH1 0x20 DUP4 ADD MSTORE POP PUSH1 0x40 PUSH2 0xE96 DUP5 DUP3 DUP6 ADD PUSH2 0xC4C JUMP JUMPDEST PUSH1 0x40 DUP4 ADD MSTORE POP PUSH1 0x60 PUSH2 0xEAA DUP5 DUP3 DUP6 ADD PUSH2 0xFD3 JUMP JUMPDEST PUSH1 0x60 DUP4 ADD MSTORE POP PUSH1 0x80 DUP3 ADD MLOAD PUSH8 0xFFFFFFFFFFFFFFFF DUP2 GT ISZERO PUSH2 0xECE JUMPI PUSH2 0xECD PUSH2 0x1BEE JUMP JUMPDEST JUMPDEST PUSH2 0xEDA DUP5 DUP3 DUP6 ADD PUSH2 0xD00 JUMP JUMPDEST PUSH1 0x80 DUP4 ADD MSTORE POP PUSH1 0xA0 DUP3 ADD MLOAD PUSH8 0xFFFFFFFFFFFFFFFF DUP2 GT ISZERO PUSH2 0xEFE JUMPI PUSH2 0xEFD PUSH2 0x1BEE JUMP JUMPDEST JUMPDEST PUSH2 0xF0A DUP5 DUP3 DUP6 ADD PUSH2 0xD00 JUMP JUMPDEST PUSH1 0xA0 DUP4 ADD MSTORE POP PUSH1 0xC0 DUP3 ADD MLOAD PUSH8 0xFFFFFFFFFFFFFFFF DUP2 GT ISZERO PUSH2 0xF2E JUMPI PUSH2 0xF2D PUSH2 0x1BEE JUMP JUMPDEST JUMPDEST PUSH2 0xF3A DUP5 DUP3 DUP6 ADD PUSH2 0xC8F JUMP JUMPDEST PUSH1 0xC0 DUP4 ADD MSTORE POP SWAP3 SWAP2 POP POP JUMP JUMPDEST PUSH1 0x0 PUSH1 0x80 DUP3 DUP5 SUB SLT ISZERO PUSH2 0xF5C JUMPI PUSH2 0xF5B PUSH2 0x1BE9 JUMP JUMPDEST JUMPDEST PUSH2 0xF66 PUSH1 0x80 PUSH2 0x1927 JUMP JUMPDEST SWAP1 POP PUSH1 0x0 PUSH2 0xF76 DUP5 DUP3 DUP6 ADD PUSH2 0xC4C JUMP JUMPDEST PUSH1 0x0 DUP4 ADD MSTORE POP PUSH1 0x20 PUSH2 0xF8A DUP5 DUP3 DUP6 ADD PUSH2 0xC4C JUMP JUMPDEST PUSH1 0x20 DUP4 ADD MSTORE POP PUSH1 0x40 PUSH2 0xF9E DUP5 DUP3 DUP6 ADD PUSH2 0xFD3 JUMP JUMPDEST PUSH1 0x40 DUP4 ADD MSTORE POP PUSH1 0x60 PUSH2 0xFB2 DUP5 DUP3 DUP6 ADD PUSH2 0xCBD JUMP JUMPDEST PUSH1 0x60 DUP4 ADD MSTORE POP SWAP3 SWAP2 POP POP JUMP JUMPDEST PUSH1 0x0 DUP2 CALLDATALOAD SWAP1 POP PUSH2 0xFCD DUP2 PUSH2 0x1E03 JUMP JUMPDEST SWAP3 SWAP2 POP POP JUMP JUMPDEST PUSH1 0x0 DUP2 MLOAD SWAP1 POP PUSH2 0xFE2 DUP2 PUSH2 0x1E03 JUMP JUMPDEST SWAP3 SWAP2 POP POP JUMP JUMPDEST PUSH1 0x0 DUP1 PUSH1 0x40 DUP4 DUP6 SUB SLT ISZERO PUSH2 0xFFF JUMPI PUSH2 0xFFE PUSH2 0x1C02 JUMP JUMPDEST JUMPDEST PUSH1 0x0 DUP4 ADD CALLDATALOAD PUSH8 0xFFFFFFFFFFFFFFFF DUP2 GT ISZERO PUSH2 0x101D JUMPI PUSH2 0x101C PUSH2 0x1BFD JUMP JUMPDEST JUMPDEST PUSH2 0x1029 DUP6 DUP3 DUP7 ADD PUSH2 0xC61 JUMP JUMPDEST SWAP3 POP POP PUSH1 0x20 DUP4 ADD CALLDATALOAD PUSH8 0xFFFFFFFFFFFFFFFF DUP2 GT ISZERO PUSH2 0x104A JUMPI PUSH2 0x1049 PUSH2 0x1BFD JUMP JUMPDEST JUMPDEST PUSH2 0x1056 DUP6 DUP3 DUP7 ADD PUSH2 0xC61 JUMP JUMPDEST SWAP2 POP POP SWAP3 POP SWAP3 SWAP1 POP JUMP JUMPDEST PUSH1 0x0 DUP1 PUSH1 0x40 DUP4 DUP6 SUB SLT ISZERO PUSH2 0x1077 JUMPI PUSH2 0x1076 PUSH2 0x1C02 JUMP JUMPDEST JUMPDEST PUSH1 0x0 DUP4 ADD CALLDATALOAD PUSH8 0xFFFFFFFFFFFFFFFF DUP2 GT ISZERO PUSH2 0x1095 JUMPI PUSH2 0x1094 PUSH2 0x1BFD JUMP JUMPDEST JUMPDEST PUSH2 0x10A1 DUP6 DUP3 DUP7 ADD PUSH2 0xCD2 JUMP JUMPDEST SWAP3 POP POP PUSH1 0x20 DUP4 ADD CALLDATALOAD PUSH8 0xFFFFFFFFFFFFFFFF DUP2 GT ISZERO PUSH2 0x10C2 JUMPI PUSH2 0x10C1 PUSH2 0x1BFD JUMP JUMPDEST JUMPDEST PUSH2 0x10CE DUP6 DUP3 DUP7 ADD PUSH2 0xCD2 JUMP JUMPDEST SWAP2 POP POP SWAP3 POP SWAP3 SWAP1 POP JUMP JUMPDEST PUSH1 0x0 PUSH1 0x20 DUP3 DUP5 SUB SLT ISZERO PUSH2 0x10EE JUMPI PUSH2 0x10ED PUSH2 0x1C02 JUMP JUMPDEST JUMPDEST PUSH1 0x0 DUP3 ADD MLOAD PUSH8 0xFFFFFFFFFFFFFFFF DUP2 GT ISZERO PUSH2 0x110C JUMPI PUSH2 0x110B PUSH2 0x1BFD JUMP JUMPDEST JUMPDEST PUSH2 0x1118 DUP5 DUP3 DUP6 ADD PUSH2 0xD2E JUMP JUMPDEST SWAP2 POP POP SWAP3 SWAP2 POP POP JUMP JUMPDEST PUSH1 0x0 PUSH1 0x20 DUP3 DUP5 SUB SLT ISZERO PUSH2 0x1137 JUMPI PUSH2 0x1136 PUSH2 0x1C02 JUMP JUMPDEST JUMPDEST PUSH1 0x0 DUP3 ADD MLOAD PUSH8 0xFFFFFFFFFFFFFFFF DUP2 GT ISZERO PUSH2 0x1155 JUMPI PUSH2 0x1154 PUSH2 0x1BFD JUMP JUMPDEST JUMPDEST PUSH2 0x1161 DUP5 DUP3 DUP6 ADD PUSH2 0xE3E JUMP JUMPDEST SWAP2 POP POP SWAP3 SWAP2 POP POP JUMP JUMPDEST PUSH1 0x0 PUSH1 0x80 DUP3 DUP5 SUB SLT ISZERO PUSH2 0x1180 JUMPI PUSH2 0x117F PUSH2 0x1C02 JUMP JUMPDEST JUMPDEST PUSH1 0x0 PUSH2 0x118E DUP5 DUP3 DUP6 ADD PUSH2 0xF46 JUMP JUMPDEST SWAP2 POP POP SWAP3 SWAP2 POP POP JUMP JUMPDEST PUSH1 0x0 PUSH1 0x20 DUP3 DUP5 SUB SLT ISZERO PUSH2 0x11AD JUMPI PUSH2 0x11AC PUSH2 0x1C02 JUMP JUMPDEST JUMPDEST PUSH1 0x0 PUSH2 0x11BB DUP5 DUP3 DUP6 ADD PUSH2 0xFBE JUMP JUMPDEST SWAP2 POP POP SWAP3 SWAP2 POP POP JUMP JUMPDEST PUSH1 0x0 PUSH2 0x11D0 DUP4 DUP4 PUSH2 0x12FF JUMP JUMPDEST SWAP1 POP SWAP3 SWAP2 POP POP JUMP JUMPDEST PUSH1 0x0 PUSH2 0x11E4 DUP4 DUP4 PUSH2 0x1625 JUMP JUMPDEST PUSH1 0x40 DUP4 ADD SWAP1 POP SWAP3 SWAP2 POP POP JUMP JUMPDEST PUSH2 0x11F9 DUP2 PUSH2 0x1A53 JUMP JUMPDEST DUP3 MSTORE POP POP JUMP JUMPDEST PUSH2 0x1208 DUP2 PUSH2 0x1A53 JUMP JUMPDEST DUP3 MSTORE POP POP JUMP JUMPDEST PUSH1 0x0 PUSH2 0x1219 DUP3 PUSH2 0x19C9 JUMP JUMPDEST PUSH2 0x1223 DUP2 DUP6 PUSH2 0x1A04 JUMP JUMPDEST SWAP4 POP DUP4 PUSH1 0x20 DUP3 MUL DUP6 ADD PUSH2 0x1235 DUP6 PUSH2 0x19A9 JUMP JUMPDEST DUP1 PUSH1 0x0 JUMPDEST DUP6 DUP2 LT ISZERO PUSH2 0x1271 JUMPI DUP5 DUP5 SUB DUP10 MSTORE DUP2 MLOAD PUSH2 0x1252 DUP6 DUP3 PUSH2 0x11C4 JUMP JUMPDEST SWAP5 POP PUSH2 0x125D DUP4 PUSH2 0x19EA JUMP JUMPDEST SWAP3 POP PUSH1 0x20 DUP11 ADD SWAP10 POP POP PUSH1 0x1 DUP2 ADD SWAP1 POP PUSH2 0x1239 JUMP JUMPDEST POP DUP3 SWAP8 POP DUP8 SWAP6 POP POP POP POP POP POP SWAP3 SWAP2 POP POP JUMP JUMPDEST PUSH1 0x0 PUSH2 0x128E DUP3 PUSH2 0x19D4 JUMP JUMPDEST PUSH2 0x1298 DUP2 DUP6 PUSH2 0x1A15 JUMP JUMPDEST SWAP4 POP PUSH2 0x12A3 DUP4 PUSH2 0x19B9 JUMP JUMPDEST DUP1 PUSH1 0x0 JUMPDEST DUP4 DUP2 LT ISZERO PUSH2 0x12D4 JUMPI DUP2 MLOAD PUSH2 0x12BB DUP9 DUP3 PUSH2 0x11D8 JUMP JUMPDEST SWAP8 POP PUSH2 0x12C6 DUP4 PUSH2 0x19F7 JUMP JUMPDEST SWAP3 POP POP PUSH1 0x1 DUP2 ADD SWAP1 POP PUSH2 0x12A7 JUMP JUMPDEST POP DUP6 SWAP4 POP POP POP POP SWAP3 SWAP2 POP POP JUMP JUMPDEST PUSH2 0x12EA DUP2 PUSH2 0x1A65 JUMP JUMPDEST DUP3 MSTORE POP POP JUMP JUMPDEST PUSH2 0x12F9 DUP2 PUSH2 0x1A65 JUMP JUMPDEST DUP3 MSTORE POP POP JUMP JUMPDEST PUSH1 0x0 PUSH2 0x130A DUP3 PUSH2 0x19DF JUMP JUMPDEST PUSH2 0x1314 DUP2 DUP6 PUSH2 0x1A26 JUMP JUMPDEST SWAP4 POP PUSH2 0x1324 DUP2 DUP6 PUSH1 0x20 DUP7 ADD PUSH2 0x1AAA JUMP JUMPDEST PUSH2 0x132D DUP2 PUSH2 0x1C07 JUMP JUMPDEST DUP5 ADD SWAP2 POP POP SWAP3 SWAP2 POP POP JUMP JUMPDEST PUSH1 0x0 PUSH2 0x1343 DUP3 PUSH2 0x19DF JUMP JUMPDEST PUSH2 0x134D DUP2 DUP6 PUSH2 0x1A37 JUMP JUMPDEST SWAP4 POP PUSH2 0x135D DUP2 DUP6 PUSH1 0x20 DUP7 ADD PUSH2 0x1AAA JUMP JUMPDEST PUSH2 0x1366 DUP2 PUSH2 0x1C07 JUMP JUMPDEST DUP5 ADD SWAP2 POP POP SWAP3 SWAP2 POP POP JUMP JUMPDEST PUSH1 0x0 PUSH2 0x137C DUP3 PUSH2 0x19DF JUMP JUMPDEST PUSH2 0x1386 DUP2 DUP6 PUSH2 0x1A48 JUMP JUMPDEST SWAP4 POP PUSH2 0x1396 DUP2 DUP6 PUSH1 0x20 DUP7 ADD PUSH2 0x1AAA JUMP JUMPDEST DUP1 DUP5 ADD SWAP2 POP POP SWAP3 SWAP2 POP POP JUMP JUMPDEST PUSH1 0x0 PUSH2 0x13AF PUSH1 0x1D DUP4 PUSH2 0x1A37 JUMP JUMPDEST SWAP2 POP PUSH2 0x13BA DUP3 PUSH2 0x1C18 JUMP JUMPDEST PUSH1 0x20 DUP3 ADD SWAP1 POP SWAP2 SWAP1 POP JUMP JUMPDEST PUSH1 0x0 PUSH2 0x13D2 PUSH1 0x23 DUP4 PUSH2 0x1A37 JUMP JUMPDEST SWAP2 POP PUSH2 0x13DD DUP3 PUSH2 0x1C41 JUMP JUMPDEST PUSH1 0x40 DUP3 ADD SWAP1 POP SWAP2 SWAP1 POP JUMP JUMPDEST PUSH1 0x0 PUSH2 0x13F5 PUSH1 0x13 DUP4 PUSH2 0x1A37 JUMP JUMPDEST SWAP2 POP PUSH2 0x1400 DUP3 PUSH2 0x1C90 JUMP JUMPDEST PUSH1 0x20 DUP3 ADD SWAP1 POP SWAP2 SWAP1 POP JUMP JUMPDEST PUSH1 0x0 PUSH2 0x1418 PUSH1 0x10 DUP4 PUSH2 0x1A48 JUMP JUMPDEST SWAP2 POP PUSH2 0x1423 DUP3 PUSH2 0x1CB9 JUMP JUMPDEST PUSH1 0x10 DUP3 ADD SWAP1 POP SWAP2 SWAP1 POP JUMP JUMPDEST PUSH1 0x0 PUSH2 0x143B PUSH1 0x17 DUP4 PUSH2 0x1A37 JUMP JUMPDEST SWAP2 POP PUSH2 0x1446 DUP3 PUSH2 0x1CE2 JUMP JUMPDEST PUSH1 0x20 DUP3 ADD SWAP1 POP SWAP2 SWAP1 POP JUMP JUMPDEST PUSH1 0x0 PUSH2 0x145E PUSH1 0x23 DUP4 PUSH2 0x1A37 JUMP JUMPDEST SWAP2 POP PUSH2 0x1469 DUP3 PUSH2 0x1D0B JUMP JUMPDEST PUSH1 0x40 DUP3 ADD SWAP1 POP SWAP2 SWAP1 POP JUMP JUMPDEST PUSH1 0x0 PUSH2 0x1481 PUSH1 0x4 DUP4 PUSH2 0x1A48 JUMP JUMPDEST SWAP2 POP PUSH2 0x148C DUP3 PUSH2 0x1D5A JUMP JUMPDEST PUSH1 0x4 DUP3 ADD SWAP1 POP SWAP2 SWAP1 POP JUMP JUMPDEST PUSH1 0x0 PUSH2 0x14A4 PUSH1 0x19 DUP4 PUSH2 0x1A37 JUMP JUMPDEST SWAP2 POP PUSH2 0x14AF DUP3 PUSH2 0x1D83 JUMP JUMPDEST PUSH1 0x20 DUP3 ADD SWAP1 POP SWAP2 SWAP1 POP JUMP JUMPDEST PUSH1 0x0 PUSH2 0x14C7 PUSH1 0x1A DUP4 PUSH2 0x1A37 JUMP JUMPDEST SWAP2 POP PUSH2 0x14D2 DUP3 PUSH2 0x1DAC JUMP JUMPDEST PUSH1 0x20 DUP3 ADD SWAP1 POP SWAP2 SWAP1 POP JUMP JUMPDEST PUSH1 0x0 PUSH1 0xC0 DUP4 ADD PUSH1 0x0 DUP4 ADD MLOAD PUSH2 0x14F5 PUSH1 0x0 DUP7 ADD DUP3 PUSH2 0x11F0 JUMP JUMPDEST POP PUSH1 0x20 DUP4 ADD MLOAD PUSH2 0x1508 PUSH1 0x20 DUP7 ADD DUP3 PUSH2 0x11F0 JUMP JUMPDEST POP PUSH1 0x40 DUP4 ADD MLOAD DUP5 DUP3 SUB PUSH1 0x40 DUP7 ADD MSTORE PUSH2 0x1520 DUP3 DUP3 PUSH2 0x12FF JUMP JUMPDEST SWAP2 POP POP PUSH1 0x60 DUP4 ADD MLOAD DUP5 DUP3 SUB PUSH1 0x60 DUP7 ADD MSTORE PUSH2 0x153A DUP3 DUP3 PUSH2 0x12FF JUMP JUMPDEST SWAP2 POP POP PUSH1 0x80 DUP4 ADD MLOAD DUP5 DUP3 SUB PUSH1 0x80 DUP7 ADD MSTORE PUSH2 0x1554 DUP3 DUP3 PUSH2 0x12FF JUMP JUMPDEST SWAP2 POP POP PUSH1 0xA0 DUP4 ADD MLOAD DUP5 DUP3 SUB PUSH1 0xA0 DUP7 ADD MSTORE PUSH2 0x156E DUP3 DUP3 PUSH2 0x120E JUMP JUMPDEST SWAP2 POP POP DUP1 SWAP2 POP POP SWAP3 SWAP2 POP POP JUMP JUMPDEST PUSH1 0x0 PUSH1 0xE0 DUP4 ADD PUSH1 0x0 DUP4 ADD MLOAD PUSH2 0x1593 PUSH1 0x0 DUP7 ADD DUP3 PUSH2 0x16A9 JUMP JUMPDEST POP PUSH1 0x20 DUP4 ADD MLOAD PUSH2 0x15A6 PUSH1 0x20 DUP7 ADD DUP3 PUSH2 0x11F0 JUMP JUMPDEST POP PUSH1 0x40 DUP4 ADD MLOAD PUSH2 0x15B9 PUSH1 0x40 DUP7 ADD DUP3 PUSH2 0x11F0 JUMP JUMPDEST POP PUSH1 0x60 DUP4 ADD MLOAD PUSH2 0x15CC PUSH1 0x60 DUP7 ADD DUP3 PUSH2 0x16A9 JUMP JUMPDEST POP PUSH1 0x80 DUP4 ADD MLOAD DUP5 DUP3 SUB PUSH1 0x80 DUP7 ADD MSTORE PUSH2 0x15E4 DUP3 DUP3 PUSH2 0x12FF JUMP JUMPDEST SWAP2 POP POP PUSH1 0xA0 DUP4 ADD MLOAD DUP5 DUP3 SUB PUSH1 0xA0 DUP7 ADD MSTORE PUSH2 0x15FE DUP3 DUP3 PUSH2 0x12FF JUMP JUMPDEST SWAP2 POP POP PUSH1 0xC0 DUP4 ADD MLOAD DUP5 DUP3 SUB PUSH1 0xC0 DUP7 ADD MSTORE PUSH2 0x1618 DUP3 DUP3 PUSH2 0x120E JUMP JUMPDEST SWAP2 POP POP DUP1 SWAP2 POP POP SWAP3 SWAP2 POP POP JUMP JUMPDEST PUSH1 0x40 DUP3 ADD PUSH1 0x0 DUP3 ADD MLOAD PUSH2 0x163B PUSH1 0x0 DUP6 ADD DUP3 PUSH2 0x16A9 JUMP JUMPDEST POP PUSH1 0x20 DUP3 ADD MLOAD PUSH2 0x164E PUSH1 0x20 DUP6 ADD DUP3 PUSH2 0x11F0 JUMP JUMPDEST POP POP POP POP JUMP JUMPDEST PUSH1 0x80 DUP3 ADD PUSH1 0x0 DUP3 ADD MLOAD PUSH2 0x166A PUSH1 0x0 DUP6 ADD DUP3 PUSH2 0x11F0 JUMP JUMPDEST POP PUSH1 0x20 DUP3 ADD MLOAD PUSH2 0x167D PUSH1 0x20 DUP6 ADD DUP3 PUSH2 0x11F0 JUMP JUMPDEST POP PUSH1 0x40 DUP3 ADD MLOAD PUSH2 0x1690 PUSH1 0x40 DUP6 ADD DUP3 PUSH2 0x16A9 JUMP JUMPDEST POP PUSH1 0x60 DUP3 ADD MLOAD PUSH2 0x16A3 PUSH1 0x60 DUP6 ADD DUP3 PUSH2 0x12E1 JUMP JUMPDEST POP POP POP POP JUMP JUMPDEST PUSH2 0x16B2 DUP2 PUSH2 0x1A91 JUMP JUMPDEST DUP3 MSTORE POP POP JUMP JUMPDEST PUSH2 0x16C1 DUP2 PUSH2 0x1A91 JUMP JUMPDEST DUP3 MSTORE POP POP JUMP JUMPDEST PUSH1 0x0 PUSH2 0x16D3 DUP3 DUP5 PUSH2 0x1371 JUMP JUMPDEST SWAP2 POP PUSH2 0x16DE DUP3 PUSH2 0x140B JUMP JUMPDEST SWAP2 POP DUP2 SWAP1 POP SWAP3 SWAP2 POP POP JUMP JUMPDEST PUSH1 0x0 PUSH2 0x16F5 DUP3 DUP6 PUSH2 0x1371 JUMP JUMPDEST SWAP2 POP PUSH2 0x1700 DUP3 PUSH2 0x1474 JUMP JUMPDEST SWAP2 POP PUSH2 0x170C DUP3 DUP5 PUSH2 0x1371 JUMP JUMPDEST SWAP2 POP DUP2 SWAP1 POP SWAP4 SWAP3 POP POP POP JUMP JUMPDEST PUSH1 0x0 PUSH1 0x40 DUP3 ADD SWAP1 POP PUSH2 0x172D PUSH1 0x0 DUP4 ADD DUP6 PUSH2 0x11FF JUMP JUMPDEST DUP2 DUP2 SUB PUSH1 0x20 DUP4 ADD MSTORE PUSH2 0x173F DUP2 DUP5 PUSH2 0x1338 JUMP JUMPDEST SWAP1 POP SWAP4 SWAP3 POP POP POP JUMP JUMPDEST PUSH1 0x0 PUSH1 0x40 DUP3 ADD SWAP1 POP PUSH2 0x175D PUSH1 0x0 DUP4 ADD DUP5 PUSH2 0x11FF JUMP JUMPDEST DUP2 DUP2 SUB PUSH1 0x20 DUP4 ADD MSTORE PUSH2 0x176E DUP2 PUSH2 0x13A2 JUMP JUMPDEST SWAP1 POP SWAP3 SWAP2 POP POP JUMP JUMPDEST PUSH1 0x0 PUSH1 0x40 DUP3 ADD SWAP1 POP PUSH2 0x178B PUSH1 0x0 DUP4 ADD DUP5 PUSH2 0x11FF JUMP JUMPDEST DUP2 DUP2 SUB PUSH1 0x20 DUP4 ADD MSTORE PUSH2 0x179C DUP2 PUSH2 0x13C5 JUMP JUMPDEST SWAP1 POP SWAP3 SWAP2 POP POP JUMP JUMPDEST PUSH1 0x0 PUSH1 0x40 DUP3 ADD SWAP1 POP PUSH2 0x17B9 PUSH1 0x0 DUP4 ADD DUP5 PUSH2 0x11FF JUMP JUMPDEST DUP2 DUP2 SUB PUSH1 0x20 DUP4 ADD MSTORE PUSH2 0x17CA DUP2 PUSH2 0x13E8 JUMP JUMPDEST SWAP1 POP SWAP3 SWAP2 POP POP JUMP JUMPDEST PUSH1 0x0 PUSH1 0x40 DUP3 ADD SWAP1 POP PUSH2 0x17E7 PUSH1 0x0 DUP4 ADD DUP5 PUSH2 0x11FF JUMP JUMPDEST DUP2 DUP2 SUB PUSH1 0x20 DUP4 ADD MSTORE PUSH2 0x17F8 DUP2 PUSH2 0x1451 JUMP JUMPDEST SWAP1 POP SWAP3 SWAP2 POP POP JUMP JUMPDEST PUSH1 0x0 PUSH1 0x40 DUP3 ADD SWAP1 POP PUSH2 0x1815 PUSH1 0x0 DUP4 ADD DUP5 PUSH2 0x11FF JUMP JUMPDEST DUP2 DUP2 SUB PUSH1 0x20 DUP4 ADD MSTORE PUSH2 0x1826 DUP2 PUSH2 0x1497 JUMP JUMPDEST SWAP1 POP SWAP3 SWAP2 POP POP JUMP JUMPDEST PUSH1 0x0 PUSH1 0x40 DUP3 ADD SWAP1 POP PUSH2 0x1843 PUSH1 0x0 DUP4 ADD DUP5 PUSH2 0x11FF JUMP JUMPDEST DUP2 DUP2 SUB PUSH1 0x20 DUP4 ADD MSTORE PUSH2 0x1854 DUP2 PUSH2 0x14BA JUMP JUMPDEST SWAP1 POP SWAP3 SWAP2 POP POP JUMP JUMPDEST PUSH1 0x0 PUSH1 0x20 DUP3 ADD SWAP1 POP DUP2 DUP2 SUB PUSH1 0x0 DUP4 ADD MSTORE PUSH2 0x1876 DUP2 DUP5 PUSH2 0x1283 JUMP JUMPDEST SWAP1 POP SWAP3 SWAP2 POP POP JUMP JUMPDEST PUSH1 0x0 PUSH1 0x20 DUP3 ADD SWAP1 POP PUSH2 0x1893 PUSH1 0x0 DUP4 ADD DUP5 PUSH2 0x12F0 JUMP JUMPDEST SWAP3 SWAP2 POP POP JUMP JUMPDEST PUSH1 0x0 PUSH1 0x20 DUP3 ADD SWAP1 POP DUP2 DUP2 SUB PUSH1 0x0 DUP4 ADD MSTORE PUSH2 0x18B2 DUP2 PUSH2 0x142E JUMP JUMPDEST SWAP1 POP SWAP2 SWAP1 POP JUMP JUMPDEST PUSH1 0x0 PUSH1 0xE0 DUP3 ADD SWAP1 POP DUP2 DUP2 SUB PUSH1 0x0 DUP4 ADD MSTORE PUSH2 0x18D3 DUP2 DUP8 PUSH2 0x157B JUMP JUMPDEST SWAP1 POP DUP2 DUP2 SUB PUSH1 0x20 DUP4 ADD MSTORE PUSH2 0x18E7 DUP2 DUP7 PUSH2 0x14DD JUMP JUMPDEST SWAP1 POP PUSH2 0x18F6 PUSH1 0x40 DUP4 ADD DUP6 PUSH2 0x1654 JUMP JUMPDEST PUSH2 0x1903 PUSH1 0xC0 DUP4 ADD DUP5 PUSH2 0x11FF JUMP JUMPDEST SWAP6 SWAP5 POP POP POP POP POP JUMP JUMPDEST PUSH1 0x0 PUSH1 0x20 DUP3 ADD SWAP1 POP PUSH2 0x1921 PUSH1 0x0 DUP4 ADD DUP5 PUSH2 0x16B8 JUMP JUMPDEST SWAP3 SWAP2 POP POP JUMP JUMPDEST PUSH1 0x0 PUSH2 0x1931 PUSH2 0x1942 JUMP JUMPDEST SWAP1 POP PUSH2 0x193D DUP3 DUP3 PUSH2 0x1ADD JUMP JUMPDEST SWAP2 SWAP1 POP JUMP JUMPDEST PUSH1 0x0 PUSH1 0x40 MLOAD SWAP1 POP SWAP1 JUMP JUMPDEST PUSH1 0x0 PUSH8 0xFFFFFFFFFFFFFFFF DUP3 GT ISZERO PUSH2 0x1967 JUMPI PUSH2 0x1966 PUSH2 0x1BB5 JUMP JUMPDEST JUMPDEST PUSH1 0x20 DUP3 MUL SWAP1 POP PUSH1 0x20 DUP2 ADD SWAP1 POP SWAP2 SWAP1 POP JUMP JUMPDEST PUSH1 0x0 PUSH8 0xFFFFFFFFFFFFFFFF DUP3 GT ISZERO PUSH2 0x1993 JUMPI PUSH2 0x1992 PUSH2 0x1BB5 JUMP JUMPDEST JUMPDEST PUSH2 0x199C DUP3 PUSH2 0x1C07 JUMP JUMPDEST SWAP1 POP PUSH1 0x20 DUP2 ADD SWAP1 POP SWAP2 SWAP1 POP JUMP JUMPDEST PUSH1 0x0 DUP2 SWAP1 POP PUSH1 0x20 DUP3 ADD SWAP1 POP SWAP2 SWAP1 POP JUMP JUMPDEST PUSH1 0x0 DUP2 SWAP1 POP PUSH1 0x20 DUP3 ADD SWAP1 POP SWAP2 SWAP1 POP JUMP JUMPDEST PUSH1 0x0 DUP2 MLOAD SWAP1 POP SWAP2 SWAP1 POP JUMP JUMPDEST PUSH1 0x0 DUP2 MLOAD SWAP1 POP SWAP2 SWAP1 POP JUMP JUMPDEST PUSH1 0x0 DUP2 MLOAD SWAP1 POP SWAP2 SWAP1 POP JUMP JUMPDEST PUSH1 0x0 PUSH1 0x20 DUP3 ADD SWAP1 POP SWAP2 SWAP1 POP JUMP JUMPDEST PUSH1 0x0 PUSH1 0x20 DUP3 ADD SWAP1 POP SWAP2 SWAP1 POP JUMP JUMPDEST PUSH1 0x0 DUP3 DUP3 MSTORE PUSH1 0x20 DUP3 ADD SWAP1 POP SWAP3 SWAP2 POP POP JUMP JUMPDEST PUSH1 0x0 DUP3 DUP3 MSTORE PUSH1 0x20 DUP3 ADD SWAP1 POP SWAP3 SWAP2 POP POP JUMP JUMPDEST PUSH1 0x0 DUP3 DUP3 MSTORE PUSH1 0x20 DUP3 ADD SWAP1 POP SWAP3 SWAP2 POP POP JUMP JUMPDEST PUSH1 0x0 DUP3 DUP3 MSTORE PUSH1 0x20 DUP3 ADD SWAP1 POP SWAP3 SWAP2 POP POP JUMP JUMPDEST PUSH1 0x0 DUP2 SWAP1 POP SWAP3 SWAP2 POP POP JUMP JUMPDEST PUSH1 0x0 PUSH2 0x1A5E DUP3 PUSH2 0x1A71 JUMP JUMPDEST SWAP1 POP SWAP2 SWAP1 POP JUMP JUMPDEST PUSH1 0x0 DUP2 ISZERO ISZERO SWAP1 POP SWAP2 SWAP1 POP JUMP JUMPDEST PUSH1 0x0 PUSH20 0xFFFFFFFFFFFFFFFFFFFFFFFFFFFFFFFFFFFFFFFF DUP3 AND SWAP1 POP SWAP2 SWAP1 POP JUMP JUMPDEST PUSH1 0x0 DUP2 SWAP1 POP SWAP2 SWAP1 POP JUMP JUMPDEST DUP3 DUP2 DUP4 CALLDATACOPY PUSH1 0x0 DUP4 DUP4 ADD MSTORE POP POP POP JUMP JUMPDEST PUSH1 0x0 JUMPDEST DUP4 DUP2 LT ISZERO PUSH2 0x1AC8 JUMPI DUP1 DUP3 ADD MLOAD DUP2 DUP5 ADD MSTORE PUSH1 0x20 DUP2 ADD SWAP1 POP PUSH2 0x1AAD JUMP JUMPDEST DUP4 DUP2 GT ISZERO PUSH2 0x1AD7 JUMPI PUSH1 0x0 DUP5 DUP5 ADD MSTORE JUMPDEST POP POP POP POP JUMP JUMPDEST PUSH2 0x1AE6 DUP3 PUSH2 0x1C07 JUMP JUMPDEST DUP2 ADD DUP2 DUP2 LT PUSH8 0xFFFFFFFFFFFFFFFF DUP3 GT OR ISZERO PUSH2 0x1B05 JUMPI PUSH2 0x1B04 PUSH2 0x1BB5 JUMP JUMPDEST JUMPDEST DUP1 PUSH1 0x40 MSTORE POP POP POP JUMP JUMPDEST PUSH1 0x0 PUSH2 0x1B19 DUP3 PUSH2 0x1A91 JUMP JUMPDEST SWAP2 POP PUSH32 0xFFFFFFFFFFFFFFFFFFFFFFFFFFFFFFFFFFFFFFFFFFFFFFFFFFFFFFFFFFFFFFFF DUP3 EQ ISZERO PUSH2 0x1B4C JUMPI PUSH2 0x1B4B PUSH2 0x1B57 JUMP JUMPDEST JUMPDEST PUSH1 0x1 DUP3 ADD SWAP1 POP SWAP2 SWAP1 POP JUMP JUMPDEST PUSH32 0x4E487B7100000000000000000000000000000000000000000000000000000000 PUSH1 0x0 MSTORE PUSH1 0x11 PUSH1 0x4 MSTORE PUSH1 0x24 PUSH1 0x0 REVERT JUMPDEST PUSH32 0x4E487B7100000000000000000000000000000000000000000000000000000000 PUSH1 0x0 MSTORE PUSH1 0x32 PUSH1 0x4 MSTORE PUSH1 0x24 PUSH1 0x0 REVERT JUMPDEST PUSH32 0x4E487B7100000000000000000000000000000000000000000000000000000000 PUSH1 0x0 MSTORE PUSH1 0x41 PUSH1 0x4 MSTORE PUSH1 0x24 PUSH1 0x0 REVERT JUMPDEST PUSH1 0x0 DUP1 REVERT JUMPDEST PUSH1 0x0 DUP1 REVERT JUMPDEST PUSH1 0x0 DUP1 REVERT JUMPDEST PUSH1 0x0 DUP1 REVERT JUMPDEST PUSH1 0x0 DUP1 REVERT JUMPDEST PUSH1 0x0 DUP1 REVERT JUMPDEST PUSH1 0x0 DUP1 REVERT JUMPDEST PUSH1 0x0 PUSH1 0x1F NOT PUSH1 0x1F DUP4 ADD AND SWAP1 POP SWAP2 SWAP1 POP JUMP JUMPDEST PUSH32 0x6F7065726174696F6E207265636F726420696E636F6E666F726D697479000000 PUSH1 0x0 DUP3 ADD MSTORE POP JUMP JUMPDEST PUSH32 0x726571756573742070726F636573736564206461746120696E636F6E666F726D PUSH1 0x0 DUP3 ADD MSTORE PUSH32 0x6974790000000000000000000000000000000000000000000000000000000000 PUSH1 0x20 DUP3 ADD MSTORE POP JUMP JUMPDEST PUSH32 0x612E6C656E677468203E20622E6C656E67746800000000000000000000000000 PUSH1 0x0 DUP3 ADD MSTORE POP JUMP JUMPDEST PUSH32 0x203A2063616E27742066696E6421212100000000000000000000000000000000 PUSH1 0x0 DUP3 ADD MSTORE POP JUMP JUMPDEST PUSH32 0x546865206C6F6720646F6573206E6F7420657869737421000000000000000000 PUSH1 0x0 DUP3 ADD MSTORE POP JUMP JUMPDEST PUSH32 0x64617461207573616765206973206E6F7420636F6E6669726D65642062792075 PUSH1 0x0 DUP3 ADD MSTORE PUSH32 0x7365720000000000000000000000000000000000000000000000000000000000 PUSH1 0x20 DUP3 ADD MSTORE POP JUMP JUMPDEST PUSH32 0x202D2D2000000000000000000000000000000000000000000000000000000000 PUSH1 0x0 DUP3 ADD MSTORE POP JUMP JUMPDEST PUSH32 0x75736572206164647265737320696E636F6E666F726D69747900000000000000 PUSH1 0x0 DUP3 ADD MSTORE POP JUMP JUMPDEST PUSH32 0x6163746F72206164647265737320696E636F6E666F726D697479000000000000 PUSH1 0x0 DUP3 ADD MSTORE POP JUMP JUMPDEST PUSH2 0x1DDE DUP2 PUSH2 0x1A53 JUMP JUMPDEST DUP2 EQ PUSH2 0x1DE9 JUMPI PUSH1 0x0 DUP1 REVERT JUMPDEST POP JUMP JUMPDEST PUSH2 0x1DF5 DUP2 PUSH2 0x1A65 JUMP JUMPDEST DUP2 EQ PUSH2 0x1E00 JUMPI PUSH1 0x0 DUP1 REVERT JUMPDEST POP JUMP JUMPDEST PUSH2 0x1E0C DUP2 PUSH2 0x1A91 JUMP JUMPDEST DUP2 EQ PUSH2 0x1E17 JUMPI PUSH1 0x0 DUP1 REVERT JUMPDEST POP JUMP INVALID LOG2 PUSH5 0x6970667358 0x22 SLT KECCAK256 PUSH8 0xF37607AB9A07C341 0xD7 0xDD 0xBE 0xBB ISZERO GASLIMIT 0xC4 DUP11 0x4D 0xFC MSIZE 0x4B GAS 0xAC PC GT 0xE SELFBALANCE PUSH9 0x765EF31064736F6C63 NUMBER STOP ADDMOD SMOD STOP CALLER "
		},
		"gasEstimates": {
			"creation": {
				"codeDepositCost": "1552000",
				"executionCost": "infinite",
				"totalCost": "infinite"
			},
			"external": {
				"isStrArrayEqual(string[],string[])": "infinite",
				"isStrEqual(string,string)": "infinite",
				"retrieveResults()": "infinite",
				"verify(uint256)": "infinite"
			}
		},
		"methodIdentifiers": {
			"isStrArrayEqual(string[],string[])": "37e0b66d",
			"isStrEqual(string,string)": "d4cbd9d4",
			"retrieveResults()": "70512841",
			"verify(uint256)": "8753367f"
		}
	},
	"abi": [
		{
			"inputs": [
				{
					"internalType": "address",
					"name": "dcAdd",
					"type": "address"
				},
				{
					"internalType": "address",
					"name": "acAdd",
					"type": "address"
				},
				{
					"internalType": "address",
					"name": "lcAdd",
					"type": "address"
				}
			],
			"stateMutability": "nonpayable",
			"type": "constructor"
		},
		{
			"anonymous": false,
			"inputs": [
				{
					"components": [
						{
							"internalType": "uint256",
							"name": "logID",
							"type": "uint256"
						},
						{
							"internalType": "address",
							"name": "actorAddress",
							"type": "address"
						},
						{
							"internalType": "address",
							"name": "userAddress",
							"type": "address"
						},
						{
							"internalType": "uint256",
							"name": "usageID",
							"type": "uint256"
						},
						{
							"internalType": "string",
							"name": "serviceName",
							"type": "string"
						},
						{
							"internalType": "string",
							"name": "operation",
							"type": "string"
						},
						{
							"internalType": "string[]",
							"name": "processedData",
							"type": "string[]"
						}
					],
					"indexed": false,
					"internalType": "struct LogContent",
					"name": "log",
					"type": "tuple"
				},
				{
					"components": [
						{
							"internalType": "address",
							"name": "actorAddress",
							"type": "address"
						},
						{
							"internalType": "address",
							"name": "userAddress",
							"type": "address"
						},
						{
							"internalType": "string",
							"name": "serviceName",
							"type": "string"
						},
						{
							"internalType": "string",
							"name": "servicePurpose",
							"type": "string"
						},
						{
							"internalType": "string",
							"name": "operation",
							"type": "string"
						},
						{
							"internalType": "string[]",
							"name": "personalData",
							"type": "string[]"
						}
					],
					"indexed": false,
					"internalType": "struct DataUsage",
					"name": "dataUsage",
					"type": "tuple"
				},
				{
					"components": [
						{
							"internalType": "address",
							"name": "actorAddress",
							"type": "address"
						},
						{
							"internalType": "address",
							"name": "userAddress",
							"type": "address"
						},
						{
							"internalType": "uint256",
							"name": "usageID",
							"type": "uint256"
						},
						{
							"internalType": "bool",
							"name": "consent",
							"type": "bool"
						}
					],
					"indexed": false,
					"internalType": "struct Vote",
					"name": "vote",
					"type": "tuple"
				},
				{
					"indexed": false,
					"internalType": "address",
					"name": "violatorAddress",
					"type": "address"
				}
			],
			"name": "Verification",
			"type": "event"
		},
		{
			"anonymous": false,
			"inputs": [
				{
					"indexed": false,
					"internalType": "address",
					"name": "violator",
					"type": "address"
				},
				{
					"indexed": false,
					"internalType": "string",
					"name": "message",
					"type": "string"
				}
			],
			"name": "ViolationDectected",
			"type": "event"
		},
		{
			"inputs": [
				{
					"internalType": "string[]",
					"name": "a",
					"type": "string[]"
				},
				{
					"internalType": "string[]",
					"name": "b",
					"type": "string[]"
				}
			],
			"name": "isStrArrayEqual",
			"outputs": [
				{
					"internalType": "bool",
					"name": "",
					"type": "bool"
				}
			],
			"stateMutability": "nonpayable",
			"type": "function"
		},
		{
			"inputs": [
				{
					"internalType": "string",
					"name": "a",
					"type": "string"
				},
				{
					"internalType": "string",
					"name": "b",
					"type": "string"
				}
			],
			"name": "isStrEqual",
			"outputs": [
				{
					"internalType": "bool",
					"name": "",
					"type": "bool"
				}
			],
			"stateMutability": "pure",
			"type": "function"
		},
		{
			"inputs": [],
			"name": "retrieveResults",
			"outputs": [
				{
					"components": [
						{
							"internalType": "uint256",
							"name": "logID",
							"type": "uint256"
						},
						{
							"internalType": "address",
							"name": "violator",
							"type": "address"
						}
					],
					"internalType": "struct VerifiedResult[]",
					"name": "",
					"type": "tuple[]"
				}
			],
			"stateMutability": "view",
			"type": "function"
		},
		{
			"inputs": [
				{
					"internalType": "uint256",
					"name": "logID",
					"type": "uint256"
				}
			],
			"name": "verify",
			"outputs": [],
			"stateMutability": "nonpayable",
			"type": "function"
		}
	]
}