{
	"data": {
		"bytecode": {
			"linkReferences": {},
			"object": "60806040523480156200001157600080fd5b5060405162001d1a38038062001d1a833981810160405281019062000037919062000119565b826000806101000a81548173ffffffffffffffffffffffffffffffffffffffff021916908373ffffffffffffffffffffffffffffffffffffffff16021790555081600160006101000a81548173ffffffffffffffffffffffffffffffffffffffff021916908373ffffffffffffffffffffffffffffffffffffffff16021790555080600260006101000a81548173ffffffffffffffffffffffffffffffffffffffff021916908373ffffffffffffffffffffffffffffffffffffffff160217905550505050620001c8565b6000815190506200011381620001ae565b92915050565b600080600060608486031215620001355762000134620001a9565b5b6000620001458682870162000102565b9350506020620001588682870162000102565b92505060406200016b8682870162000102565b9150509250925092565b6000620001828262000189565b9050919050565b600073ffffffffffffffffffffffffffffffffffffffff82169050919050565b600080fd5b620001b98162000175565b8114620001c557600080fd5b50565b611b4280620001d86000396000f3fe608060405234801561001057600080fd5b506004361061004c5760003560e01c806337e0b66d1461005157806370512841146100815780638753367f1461009f578063d4cbd9d4146100bb575b600080fd5b61006b60048036038101906100669190610ee2565b6100eb565b60405161007891906115f6565b60405180910390f35b6100896101b7565b60405161009691906115d4565b60405180910390f35b6100b960048036038101906100b49190611091565b610276565b005b6100d560048036038101906100d09190610f5a565b6108c9565b6040516100e291906115f6565b60405180910390f35b600081518351116101ac57600080600090505b84518110156101a157600085828151811061011c5761011b6118f3565b5b602002602001015190506000925060005b855181101561017b5761015a8287838151811061014d5761014c6118f3565b5b60200260200101516108c9565b15610168576001935061017b565b80806101739061187b565b91505061012d565b508261018d57600093505050506101b1565b5080806101999061187b565b9150506100fe565b5060019150506101b1565b600090505b92915050565b60606003805480602002602001604051908101604052809291908181526020016000905b8282101561026d5783829060005260206000209060020201604051806040016040529081600082015481526020016001820160009054906101000a900473ffffffffffffffffffffffffffffffffffffffff1673ffffffffffffffffffffffffffffffffffffffff1673ffffffffffffffffffffffffffffffffffffffff1681525050815260200190600101906101db565b50505050905090565b600080600260009054906101000a900473ffffffffffffffffffffffffffffffffffffffff1673ffffffffffffffffffffffffffffffffffffffff1663bd8cfa80846040518263ffffffff1660e01b81526004016102d49190611684565b60006040518083038186803b1580156102ec57600080fd5b505afa158015610300573d6000803e3d6000fd5b505050506040513d6000823e3d601f19601f82011682018060405250810190610329919061101b565b9050600081600001511415610373576040517f08c379a000000000000000000000000000000000000000000000000000000000815260040161036a90611611565b60405180910390fd5b60008160600151905060008060009054906101000a900473ffffffffffffffffffffffffffffffffffffffff1673ffffffffffffffffffffffffffffffffffffffff1663a812ee29836040518263ffffffff1660e01b81526004016103d89190611684565b60006040518083038186803b1580156103f057600080fd5b505afa158015610404573d6000803e3d6000fd5b505050506040513d6000823e3d601f19601f8201168201806040525081019061042d9190610fd2565b90506000600160009054906101000a900473ffffffffffffffffffffffffffffffffffffffff1673ffffffffffffffffffffffffffffffffffffffff16632063455f846040518263ffffffff1660e01b815260040161048c9190611684565b60806040518083038186803b1580156104a457600080fd5b505afa1580156104b8573d6000803e3d6000fd5b505050506040513d601f19601f820116820180604052508101906104dc9190611064565b9050600073ffffffffffffffffffffffffffffffffffffffff16846040015173ffffffffffffffffffffffffffffffffffffffff1614806105515750816020015173ffffffffffffffffffffffffffffffffffffffff16846040015173ffffffffffffffffffffffffffffffffffffffff1614155b1561059957836020015194507f40d9d3d67fa256bdddac6033fe1ba1a7a71e5317da279a180e33d4822fdaef188560405161058c9190611578565b60405180910390a16107db565b600073ffffffffffffffffffffffffffffffffffffffff16846020015173ffffffffffffffffffffffffffffffffffffffff16148061060c5750816000015173ffffffffffffffffffffffffffffffffffffffff16846020015173ffffffffffffffffffffffffffffffffffffffff1614155b8061064b5750806000015173ffffffffffffffffffffffffffffffffffffffff16846020015173ffffffffffffffffffffffffffffffffffffffff1614155b1561069357836020015194507f40d9d3d67fa256bdddac6033fe1ba1a7a71e5317da279a180e33d4822fdaef188560405161068691906115a6565b60405180910390a16107da565b6106a582608001518560a001516108c9565b6106ec57836020015194507f40d9d3d67fa256bdddac6033fe1ba1a7a71e5317da279a180e33d4822fdaef18856040516106df91906114ee565b60405180910390a16107d9565b6106fe8460c001518360a001516100eb565b61074557836020015194507f40d9d3d67fa256bdddac6033fe1ba1a7a71e5317da279a180e33d4822fdaef1885604051610738919061151c565b60405180910390a16107d8565b8060600151158061078a5750806020015173ffffffffffffffffffffffffffffffffffffffff16846040015173ffffffffffffffffffffffffffffffffffffffff1614155b156107d257836020015194507f40d9d3d67fa256bdddac6033fe1ba1a7a71e5317da279a180e33d4822fdaef18856040516107c5919061154a565b60405180910390a16107d7565b600094505b5b5b5b5b7f85be5714e88b33fa357a71704742683d5265129cc9fefba78c6e2ab8913e4735848383886040516108109493929190611631565b60405180910390a1600360405180604001604052808881526020018773ffffffffffffffffffffffffffffffffffffffff1681525090806001815401808255809150506001900390600052602060002090600202016000909190919091506000820151816000015560208201518160010160006101000a81548173ffffffffffffffffffffffffffffffffffffffff021916908373ffffffffffffffffffffffffffffffffffffffff1602179055505050505050505050565b600080839050600083905080518251146108e8576000925050506109a0565b60005b825181101561099857818181518110610907576109066118f3565b5b602001015160f81c60f81b7effffffffffffffffffffffffffffffffffffffffffffffffffffffffffffff1916838281518110610947576109466118f3565b5b602001015160f81c60f81b7effffffffffffffffffffffffffffffffffffffffffffffffffffffffffffff19161461098557600093505050506109a0565b80806109909061187b565b9150506108eb565b506001925050505b92915050565b60006109b96109b4846116c4565b61169f565b905080838252602082019050828560208602820111156109dc576109db611960565b5b60005b85811015610a2a57813567ffffffffffffffff811115610a0257610a01611951565b5b808601610a0f8982610bcc565b855260208501945060208401935050506001810190506109df565b5050509392505050565b6000610a47610a42846116c4565b61169f565b90508083825260208201905082856020860282011115610a6a57610a69611960565b5b60005b85811015610ab857815167ffffffffffffffff811115610a9057610a8f611951565b5b808601610a9d8982610bfa565b85526020850194506020840193505050600181019050610a6d565b5050509392505050565b6000610ad5610ad0846116f0565b61169f565b905082815260208101848484011115610af157610af0611965565b5b610afc848285611808565b509392505050565b6000610b17610b12846116f0565b61169f565b905082815260208101848484011115610b3357610b32611965565b5b610b3e848285611817565b509392505050565b600081519050610b5581611ac7565b92915050565b600082601f830112610b7057610b6f611951565b5b8135610b808482602086016109a6565b91505092915050565b600082601f830112610b9e57610b9d611951565b5b8151610bae848260208601610a34565b91505092915050565b600081519050610bc681611ade565b92915050565b600082601f830112610be157610be0611951565b5b8135610bf1848260208601610ac2565b91505092915050565b600082601f830112610c0f57610c0e611951565b5b8151610c1f848260208601610b04565b91505092915050565b600060c08284031215610c3e57610c3d611956565b5b610c4860c061169f565b90506000610c5884828501610b46565b6000830152506020610c6c84828501610b46565b602083015250604082015167ffffffffffffffff811115610c9057610c8f61195b565b5b610c9c84828501610bfa565b604083015250606082015167ffffffffffffffff811115610cc057610cbf61195b565b5b610ccc84828501610bfa565b606083015250608082015167ffffffffffffffff811115610cf057610cef61195b565b5b610cfc84828501610bfa565b60808301525060a082015167ffffffffffffffff811115610d2057610d1f61195b565b5b610d2c84828501610b89565b60a08301525092915050565b600060e08284031215610d4e57610d4d611956565b5b610d5860e061169f565b90506000610d6884828501610ecd565b6000830152506020610d7c84828501610b46565b6020830152506040610d9084828501610b46565b6040830152506060610da484828501610ecd565b606083015250608082015167ffffffffffffffff811115610dc857610dc761195b565b5b610dd484828501610bfa565b60808301525060a082015167ffffffffffffffff811115610df857610df761195b565b5b610e0484828501610bfa565b60a08301525060c082015167ffffffffffffffff811115610e2857610e2761195b565b5b610e3484828501610b89565b60c08301525092915050565b600060808284031215610e5657610e55611956565b5b610e60608061169f565b90506000610e7084828501610b46565b6000830152506020610e8484828501610b46565b6020830152506040610e9884828501610ecd565b6040830152506060610eac84828501610bb7565b60608301525092915050565b600081359050610ec781611af5565b92915050565b600081519050610edc81611af5565b92915050565b60008060408385031215610ef957610ef861196f565b5b600083013567ffffffffffffffff811115610f1757610f1661196a565b5b610f2385828601610b5b565b925050602083013567ffffffffffffffff811115610f4457610f4361196a565b5b610f5085828601610b5b565b9150509250929050565b60008060408385031215610f7157610f7061196f565b5b600083013567ffffffffffffffff811115610f8f57610f8e61196a565b5b610f9b85828601610bcc565b925050602083013567ffffffffffffffff811115610fbc57610fbb61196a565b5b610fc885828601610bcc565b9150509250929050565b600060208284031215610fe857610fe761196f565b5b600082015167ffffffffffffffff8111156110065761100561196a565b5b61101284828501610c28565b91505092915050565b6000602082840312156110315761103061196f565b5b600082015167ffffffffffffffff81111561104f5761104e61196a565b5b61105b84828501610d38565b91505092915050565b60006080828403121561107a5761107961196f565b5b600061108884828501610e40565b91505092915050565b6000602082840312156110a7576110a661196f565b5b60006110b584828501610eb8565b91505092915050565b60006110ca83836111f9565b905092915050565b60006110de838361144c565b60408301905092915050565b6110f3816117c0565b82525050565b611102816117c0565b82525050565b600061111382611741565b61111d818561177c565b93508360208202850161112f85611721565b8060005b8581101561116b578484038952815161114c85826110be565b945061115783611762565b925060208a01995050600181019050611133565b50829750879550505050505092915050565b60006111888261174c565b611192818561178d565b935061119d83611731565b8060005b838110156111ce5781516111b588826110d2565b97506111c08361176f565b9250506001810190506111a1565b5085935050505092915050565b6111e4816117d2565b82525050565b6111f3816117d2565b82525050565b600061120482611757565b61120e818561179e565b935061121e818560208601611817565b61122781611974565b840191505092915050565b600061123f601d836117af565b915061124a82611985565b602082019050919050565b60006112626023836117af565b915061126d826119ae565b604082019050919050565b60006112856017836117af565b9150611290826119fd565b602082019050919050565b60006112a86023836117af565b91506112b382611a26565b604082019050919050565b60006112cb6019836117af565b91506112d682611a75565b602082019050919050565b60006112ee601a836117af565b91506112f982611a9e565b602082019050919050565b600060c08301600083015161131c60008601826110ea565b50602083015161132f60208601826110ea565b506040830151848203604086015261134782826111f9565b9150506060830151848203606086015261136182826111f9565b9150506080830151848203608086015261137b82826111f9565b91505060a083015184820360a08601526113958282611108565b9150508091505092915050565b600060e0830160008301516113ba60008601826114d0565b5060208301516113cd60208601826110ea565b5060408301516113e060408601826110ea565b5060608301516113f360608601826114d0565b506080830151848203608086015261140b82826111f9565b91505060a083015184820360a086015261142582826111f9565b91505060c083015184820360c086015261143f8282611108565b9150508091505092915050565b60408201600082015161146260008501826114d0565b50602082015161147560208501826110ea565b50505050565b60808201600082015161149160008501826110ea565b5060208201516114a460208501826110ea565b5060408201516114b760408501826114d0565b5060608201516114ca60608501826111db565b50505050565b6114d9816117fe565b82525050565b6114e8816117fe565b82525050565b600060408201905061150360008301846110f9565b818103602083015261151481611232565b905092915050565b600060408201905061153160008301846110f9565b818103602083015261154281611255565b905092915050565b600060408201905061155f60008301846110f9565b81810360208301526115708161129b565b905092915050565b600060408201905061158d60008301846110f9565b818103602083015261159e816112be565b905092915050565b60006040820190506115bb60008301846110f9565b81810360208301526115cc816112e1565b905092915050565b600060208201905081810360008301526115ee818461117d565b905092915050565b600060208201905061160b60008301846111ea565b92915050565b6000602082019050818103600083015261162a81611278565b9050919050565b600060e082019050818103600083015261164b81876113a2565b9050818103602083015261165f8186611304565b905061166e604083018561147b565b61167b60c08301846110f9565b95945050505050565b600060208201905061169960008301846114df565b92915050565b60006116a96116ba565b90506116b5828261184a565b919050565b6000604051905090565b600067ffffffffffffffff8211156116df576116de611922565b5b602082029050602081019050919050565b600067ffffffffffffffff82111561170b5761170a611922565b5b61171482611974565b9050602081019050919050565b6000819050602082019050919050565b6000819050602082019050919050565b600081519050919050565b600081519050919050565b600081519050919050565b6000602082019050919050565b6000602082019050919050565b600082825260208201905092915050565b600082825260208201905092915050565b600082825260208201905092915050565b600082825260208201905092915050565b60006117cb826117de565b9050919050565b60008115159050919050565b600073ffffffffffffffffffffffffffffffffffffffff82169050919050565b6000819050919050565b82818337600083830152505050565b60005b8381101561183557808201518184015260208101905061181a565b83811115611844576000848401525b50505050565b61185382611974565b810181811067ffffffffffffffff8211171561187257611871611922565b5b80604052505050565b6000611886826117fe565b91507fffffffffffffffffffffffffffffffffffffffffffffffffffffffffffffffff8214156118b9576118b86118c4565b5b600182019050919050565b7f4e487b7100000000000000000000000000000000000000000000000000000000600052601160045260246000fd5b7f4e487b7100000000000000000000000000000000000000000000000000000000600052603260045260246000fd5b7f4e487b7100000000000000000000000000000000000000000000000000000000600052604160045260246000fd5b600080fd5b600080fd5b600080fd5b600080fd5b600080fd5b600080fd5b600080fd5b6000601f19601f8301169050919050565b7f6f7065726174696f6e207265636f726420696e636f6e666f726d697479000000600082015250565b7f726571756573742070726f636573736564206461746120696e636f6e666f726d60008201527f6974790000000000000000000000000000000000000000000000000000000000602082015250565b7f546865206c6f6720646f6573206e6f7420657869737421000000000000000000600082015250565b7f64617461207573616765206973206e6f7420636f6e6669726d6564206279207560008201527f7365720000000000000000000000000000000000000000000000000000000000602082015250565b7f75736572206164647265737320696e636f6e666f726d69747900000000000000600082015250565b7f6163746f72206164647265737320696e636f6e666f726d697479000000000000600082015250565b611ad0816117c0565b8114611adb57600080fd5b50565b611ae7816117d2565b8114611af257600080fd5b50565b611afe816117fe565b8114611b0957600080fd5b5056fea264697066735822122085098045dc4f5e316f2a975e39a8484f8a63c5265ab94c3be1fa2c2bfb41e46664736f6c63430008070033",
			"opcodes": "PUSH1 0x80 PUSH1 0x40 MSTORE CALLVALUE DUP1 ISZERO PUSH3 0x11 JUMPI PUSH1 0x0 DUP1 REVERT JUMPDEST POP PUSH1 0x40 MLOAD PUSH3 0x1D1A CODESIZE SUB DUP1 PUSH3 0x1D1A DUP4 CODECOPY DUP2 DUP2 ADD PUSH1 0x40 MSTORE DUP2 ADD SWAP1 PUSH3 0x37 SWAP2 SWAP1 PUSH3 0x119 JUMP JUMPDEST DUP3 PUSH1 0x0 DUP1 PUSH2 0x100 EXP DUP2 SLOAD DUP2 PUSH20 0xFFFFFFFFFFFFFFFFFFFFFFFFFFFFFFFFFFFFFFFF MUL NOT AND SWAP1 DUP4 PUSH20 0xFFFFFFFFFFFFFFFFFFFFFFFFFFFFFFFFFFFFFFFF AND MUL OR SWAP1 SSTORE POP DUP2 PUSH1 0x1 PUSH1 0x0 PUSH2 0x100 EXP DUP2 SLOAD DUP2 PUSH20 0xFFFFFFFFFFFFFFFFFFFFFFFFFFFFFFFFFFFFFFFF MUL NOT AND SWAP1 DUP4 PUSH20 0xFFFFFFFFFFFFFFFFFFFFFFFFFFFFFFFFFFFFFFFF AND MUL OR SWAP1 SSTORE POP DUP1 PUSH1 0x2 PUSH1 0x0 PUSH2 0x100 EXP DUP2 SLOAD DUP2 PUSH20 0xFFFFFFFFFFFFFFFFFFFFFFFFFFFFFFFFFFFFFFFF MUL NOT AND SWAP1 DUP4 PUSH20 0xFFFFFFFFFFFFFFFFFFFFFFFFFFFFFFFFFFFFFFFF AND MUL OR SWAP1 SSTORE POP POP POP POP PUSH3 0x1C8 JUMP JUMPDEST PUSH1 0x0 DUP2 MLOAD SWAP1 POP PUSH3 0x113 DUP2 PUSH3 0x1AE JUMP JUMPDEST SWAP3 SWAP2 POP POP JUMP JUMPDEST PUSH1 0x0 DUP1 PUSH1 0x0 PUSH1 0x60 DUP5 DUP7 SUB SLT ISZERO PUSH3 0x135 JUMPI PUSH3 0x134 PUSH3 0x1A9 JUMP JUMPDEST JUMPDEST PUSH1 0x0 PUSH3 0x145 DUP7 DUP3 DUP8 ADD PUSH3 0x102 JUMP JUMPDEST SWAP4 POP POP PUSH1 0x20 PUSH3 0x158 DUP7 DUP3 DUP8 ADD PUSH3 0x102 JUMP JUMPDEST SWAP3 POP POP PUSH1 0x40 PUSH3 0x16B DUP7 DUP3 DUP8 ADD PUSH3 0x102 JUMP JUMPDEST SWAP2 POP POP SWAP3 POP SWAP3 POP SWAP3 JUMP JUMPDEST PUSH1 0x0 PUSH3 0x182 DUP3 PUSH3 0x189 JUMP JUMPDEST SWAP1 POP SWAP2 SWAP1 POP JUMP JUMPDEST PUSH1 0x0 PUSH20 0xFFFFFFFFFFFFFFFFFFFFFFFFFFFFFFFFFFFFFFFF DUP3 AND SWAP1 POP SWAP2 SWAP1 POP JUMP JUMPDEST PUSH1 0x0 DUP1 REVERT JUMPDEST PUSH3 0x1B9 DUP2 PUSH3 0x175 JUMP JUMPDEST DUP2 EQ PUSH3 0x1C5 JUMPI PUSH1 0x0 DUP1 REVERT JUMPDEST POP JUMP JUMPDEST PUSH2 0x1B42 DUP1 PUSH3 0x1D8 PUSH1 0x0 CODECOPY PUSH1 0x0 RETURN INVALID PUSH1 0x80 PUSH1 0x40 MSTORE CALLVALUE DUP1 ISZERO PUSH2 0x10 JUMPI PUSH1 0x0 DUP1 REVERT JUMPDEST POP PUSH1 0x4 CALLDATASIZE LT PUSH2 0x4C JUMPI PUSH1 0x0 CALLDATALOAD PUSH1 0xE0 SHR DUP1 PUSH4 0x37E0B66D EQ PUSH2 0x51 JUMPI DUP1 PUSH4 0x70512841 EQ PUSH2 0x81 JUMPI DUP1 PUSH4 0x8753367F EQ PUSH2 0x9F JUMPI DUP1 PUSH4 0xD4CBD9D4 EQ PUSH2 0xBB JUMPI JUMPDEST PUSH1 0x0 DUP1 REVERT JUMPDEST PUSH2 0x6B PUSH1 0x4 DUP1 CALLDATASIZE SUB DUP2 ADD SWAP1 PUSH2 0x66 SWAP2 SWAP1 PUSH2 0xEE2 JUMP JUMPDEST PUSH2 0xEB JUMP JUMPDEST PUSH1 0x40 MLOAD PUSH2 0x78 SWAP2 SWAP1 PUSH2 0x15F6 JUMP JUMPDEST PUSH1 0x40 MLOAD DUP1 SWAP2 SUB SWAP1 RETURN JUMPDEST PUSH2 0x89 PUSH2 0x1B7 JUMP JUMPDEST PUSH1 0x40 MLOAD PUSH2 0x96 SWAP2 SWAP1 PUSH2 0x15D4 JUMP JUMPDEST PUSH1 0x40 MLOAD DUP1 SWAP2 SUB SWAP1 RETURN JUMPDEST PUSH2 0xB9 PUSH1 0x4 DUP1 CALLDATASIZE SUB DUP2 ADD SWAP1 PUSH2 0xB4 SWAP2 SWAP1 PUSH2 0x1091 JUMP JUMPDEST PUSH2 0x276 JUMP JUMPDEST STOP JUMPDEST PUSH2 0xD5 PUSH1 0x4 DUP1 CALLDATASIZE SUB DUP2 ADD SWAP1 PUSH2 0xD0 SWAP2 SWAP1 PUSH2 0xF5A JUMP JUMPDEST PUSH2 0x8C9 JUMP JUMPDEST PUSH1 0x40 MLOAD PUSH2 0xE2 SWAP2 SWAP1 PUSH2 0x15F6 JUMP JUMPDEST PUSH1 0x40 MLOAD DUP1 SWAP2 SUB SWAP1 RETURN JUMPDEST PUSH1 0x0 DUP2 MLOAD DUP4 MLOAD GT PUSH2 0x1AC JUMPI PUSH1 0x0 DUP1 PUSH1 0x0 SWAP1 POP JUMPDEST DUP5 MLOAD DUP2 LT ISZERO PUSH2 0x1A1 JUMPI PUSH1 0x0 DUP6 DUP3 DUP2 MLOAD DUP2 LT PUSH2 0x11C JUMPI PUSH2 0x11B PUSH2 0x18F3 JUMP JUMPDEST JUMPDEST PUSH1 0x20 MUL PUSH1 0x20 ADD ADD MLOAD SWAP1 POP PUSH1 0x0 SWAP3 POP PUSH1 0x0 JUMPDEST DUP6 MLOAD DUP2 LT ISZERO PUSH2 0x17B JUMPI PUSH2 0x15A DUP3 DUP8 DUP4 DUP2 MLOAD DUP2 LT PUSH2 0x14D JUMPI PUSH2 0x14C PUSH2 0x18F3 JUMP JUMPDEST JUMPDEST PUSH1 0x20 MUL PUSH1 0x20 ADD ADD MLOAD PUSH2 0x8C9 JUMP JUMPDEST ISZERO PUSH2 0x168 JUMPI PUSH1 0x1 SWAP4 POP PUSH2 0x17B JUMP JUMPDEST DUP1 DUP1 PUSH2 0x173 SWAP1 PUSH2 0x187B JUMP JUMPDEST SWAP2 POP POP PUSH2 0x12D JUMP JUMPDEST POP DUP3 PUSH2 0x18D JUMPI PUSH1 0x0 SWAP4 POP POP POP POP PUSH2 0x1B1 JUMP JUMPDEST POP DUP1 DUP1 PUSH2 0x199 SWAP1 PUSH2 0x187B JUMP JUMPDEST SWAP2 POP POP PUSH2 0xFE JUMP JUMPDEST POP PUSH1 0x1 SWAP2 POP POP PUSH2 0x1B1 JUMP JUMPDEST PUSH1 0x0 SWAP1 POP JUMPDEST SWAP3 SWAP2 POP POP JUMP JUMPDEST PUSH1 0x60 PUSH1 0x3 DUP1 SLOAD DUP1 PUSH1 0x20 MUL PUSH1 0x20 ADD PUSH1 0x40 MLOAD SWAP1 DUP2 ADD PUSH1 0x40 MSTORE DUP1 SWAP3 SWAP2 SWAP1 DUP2 DUP2 MSTORE PUSH1 0x20 ADD PUSH1 0x0 SWAP1 JUMPDEST DUP3 DUP3 LT ISZERO PUSH2 0x26D JUMPI DUP4 DUP3 SWAP1 PUSH1 0x0 MSTORE PUSH1 0x20 PUSH1 0x0 KECCAK256 SWAP1 PUSH1 0x2 MUL ADD PUSH1 0x40 MLOAD DUP1 PUSH1 0x40 ADD PUSH1 0x40 MSTORE SWAP1 DUP2 PUSH1 0x0 DUP3 ADD SLOAD DUP2 MSTORE PUSH1 0x20 ADD PUSH1 0x1 DUP3 ADD PUSH1 0x0 SWAP1 SLOAD SWAP1 PUSH2 0x100 EXP SWAP1 DIV PUSH20 0xFFFFFFFFFFFFFFFFFFFFFFFFFFFFFFFFFFFFFFFF AND PUSH20 0xFFFFFFFFFFFFFFFFFFFFFFFFFFFFFFFFFFFFFFFF AND PUSH20 0xFFFFFFFFFFFFFFFFFFFFFFFFFFFFFFFFFFFFFFFF AND DUP2 MSTORE POP POP DUP2 MSTORE PUSH1 0x20 ADD SWAP1 PUSH1 0x1 ADD SWAP1 PUSH2 0x1DB JUMP JUMPDEST POP POP POP POP SWAP1 POP SWAP1 JUMP JUMPDEST PUSH1 0x0 DUP1 PUSH1 0x2 PUSH1 0x0 SWAP1 SLOAD SWAP1 PUSH2 0x100 EXP SWAP1 DIV PUSH20 0xFFFFFFFFFFFFFFFFFFFFFFFFFFFFFFFFFFFFFFFF AND PUSH20 0xFFFFFFFFFFFFFFFFFFFFFFFFFFFFFFFFFFFFFFFF AND PUSH4 0xBD8CFA80 DUP5 PUSH1 0x40 MLOAD DUP3 PUSH4 0xFFFFFFFF AND PUSH1 0xE0 SHL DUP2 MSTORE PUSH1 0x4 ADD PUSH2 0x2D4 SWAP2 SWAP1 PUSH2 0x1684 JUMP JUMPDEST PUSH1 0x0 PUSH1 0x40 MLOAD DUP1 DUP4 SUB DUP2 DUP7 DUP1 EXTCODESIZE ISZERO DUP1 ISZERO PUSH2 0x2EC JUMPI PUSH1 0x0 DUP1 REVERT JUMPDEST POP GAS STATICCALL ISZERO DUP1 ISZERO PUSH2 0x300 JUMPI RETURNDATASIZE PUSH1 0x0 DUP1 RETURNDATACOPY RETURNDATASIZE PUSH1 0x0 REVERT JUMPDEST POP POP POP POP PUSH1 0x40 MLOAD RETURNDATASIZE PUSH1 0x0 DUP3 RETURNDATACOPY RETURNDATASIZE PUSH1 0x1F NOT PUSH1 0x1F DUP3 ADD AND DUP3 ADD DUP1 PUSH1 0x40 MSTORE POP DUP2 ADD SWAP1 PUSH2 0x329 SWAP2 SWAP1 PUSH2 0x101B JUMP JUMPDEST SWAP1 POP PUSH1 0x0 DUP2 PUSH1 0x0 ADD MLOAD EQ ISZERO PUSH2 0x373 JUMPI PUSH1 0x40 MLOAD PUSH32 0x8C379A000000000000000000000000000000000000000000000000000000000 DUP2 MSTORE PUSH1 0x4 ADD PUSH2 0x36A SWAP1 PUSH2 0x1611 JUMP JUMPDEST PUSH1 0x40 MLOAD DUP1 SWAP2 SUB SWAP1 REVERT JUMPDEST PUSH1 0x0 DUP2 PUSH1 0x60 ADD MLOAD SWAP1 POP PUSH1 0x0 DUP1 PUSH1 0x0 SWAP1 SLOAD SWAP1 PUSH2 0x100 EXP SWAP1 DIV PUSH20 0xFFFFFFFFFFFFFFFFFFFFFFFFFFFFFFFFFFFFFFFF AND PUSH20 0xFFFFFFFFFFFFFFFFFFFFFFFFFFFFFFFFFFFFFFFF AND PUSH4 0xA812EE29 DUP4 PUSH1 0x40 MLOAD DUP3 PUSH4 0xFFFFFFFF AND PUSH1 0xE0 SHL DUP2 MSTORE PUSH1 0x4 ADD PUSH2 0x3D8 SWAP2 SWAP1 PUSH2 0x1684 JUMP JUMPDEST PUSH1 0x0 PUSH1 0x40 MLOAD DUP1 DUP4 SUB DUP2 DUP7 DUP1 EXTCODESIZE ISZERO DUP1 ISZERO PUSH2 0x3F0 JUMPI PUSH1 0x0 DUP1 REVERT JUMPDEST POP GAS STATICCALL ISZERO DUP1 ISZERO PUSH2 0x404 JUMPI RETURNDATASIZE PUSH1 0x0 DUP1 RETURNDATACOPY RETURNDATASIZE PUSH1 0x0 REVERT JUMPDEST POP POP POP POP PUSH1 0x40 MLOAD RETURNDATASIZE PUSH1 0x0 DUP3 RETURNDATACOPY RETURNDATASIZE PUSH1 0x1F NOT PUSH1 0x1F DUP3 ADD AND DUP3 ADD DUP1 PUSH1 0x40 MSTORE POP DUP2 ADD SWAP1 PUSH2 0x42D SWAP2 SWAP1 PUSH2 0xFD2 JUMP JUMPDEST SWAP1 POP PUSH1 0x0 PUSH1 0x1 PUSH1 0x0 SWAP1 SLOAD SWAP1 PUSH2 0x100 EXP SWAP1 DIV PUSH20 0xFFFFFFFFFFFFFFFFFFFFFFFFFFFFFFFFFFFFFFFF AND PUSH20 0xFFFFFFFFFFFFFFFFFFFFFFFFFFFFFFFFFFFFFFFF AND PUSH4 0x2063455F DUP5 PUSH1 0x40 MLOAD DUP3 PUSH4 0xFFFFFFFF AND PUSH1 0xE0 SHL DUP2 MSTORE PUSH1 0x4 ADD PUSH2 0x48C SWAP2 SWAP1 PUSH2 0x1684 JUMP JUMPDEST PUSH1 0x80 PUSH1 0x40 MLOAD DUP1 DUP4 SUB DUP2 DUP7 DUP1 EXTCODESIZE ISZERO DUP1 ISZERO PUSH2 0x4A4 JUMPI PUSH1 0x0 DUP1 REVERT JUMPDEST POP GAS STATICCALL ISZERO DUP1 ISZERO PUSH2 0x4B8 JUMPI RETURNDATASIZE PUSH1 0x0 DUP1 RETURNDATACOPY RETURNDATASIZE PUSH1 0x0 REVERT JUMPDEST POP POP POP POP PUSH1 0x40 MLOAD RETURNDATASIZE PUSH1 0x1F NOT PUSH1 0x1F DUP3 ADD AND DUP3 ADD DUP1 PUSH1 0x40 MSTORE POP DUP2 ADD SWAP1 PUSH2 0x4DC SWAP2 SWAP1 PUSH2 0x1064 JUMP JUMPDEST SWAP1 POP PUSH1 0x0 PUSH20 0xFFFFFFFFFFFFFFFFFFFFFFFFFFFFFFFFFFFFFFFF AND DUP5 PUSH1 0x40 ADD MLOAD PUSH20 0xFFFFFFFFFFFFFFFFFFFFFFFFFFFFFFFFFFFFFFFF AND EQ DUP1 PUSH2 0x551 JUMPI POP DUP2 PUSH1 0x20 ADD MLOAD PUSH20 0xFFFFFFFFFFFFFFFFFFFFFFFFFFFFFFFFFFFFFFFF AND DUP5 PUSH1 0x40 ADD MLOAD PUSH20 0xFFFFFFFFFFFFFFFFFFFFFFFFFFFFFFFFFFFFFFFF AND EQ ISZERO JUMPDEST ISZERO PUSH2 0x599 JUMPI DUP4 PUSH1 0x20 ADD MLOAD SWAP5 POP PUSH32 0x40D9D3D67FA256BDDDAC6033FE1BA1A7A71E5317DA279A180E33D4822FDAEF18 DUP6 PUSH1 0x40 MLOAD PUSH2 0x58C SWAP2 SWAP1 PUSH2 0x1578 JUMP JUMPDEST PUSH1 0x40 MLOAD DUP1 SWAP2 SUB SWAP1 LOG1 PUSH2 0x7DB JUMP JUMPDEST PUSH1 0x0 PUSH20 0xFFFFFFFFFFFFFFFFFFFFFFFFFFFFFFFFFFFFFFFF AND DUP5 PUSH1 0x20 ADD MLOAD PUSH20 0xFFFFFFFFFFFFFFFFFFFFFFFFFFFFFFFFFFFFFFFF AND EQ DUP1 PUSH2 0x60C JUMPI POP DUP2 PUSH1 0x0 ADD MLOAD PUSH20 0xFFFFFFFFFFFFFFFFFFFFFFFFFFFFFFFFFFFFFFFF AND DUP5 PUSH1 0x20 ADD MLOAD PUSH20 0xFFFFFFFFFFFFFFFFFFFFFFFFFFFFFFFFFFFFFFFF AND EQ ISZERO JUMPDEST DUP1 PUSH2 0x64B JUMPI POP DUP1 PUSH1 0x0 ADD MLOAD PUSH20 0xFFFFFFFFFFFFFFFFFFFFFFFFFFFFFFFFFFFFFFFF AND DUP5 PUSH1 0x20 ADD MLOAD PUSH20 0xFFFFFFFFFFFFFFFFFFFFFFFFFFFFFFFFFFFFFFFF AND EQ ISZERO JUMPDEST ISZERO PUSH2 0x693 JUMPI DUP4 PUSH1 0x20 ADD MLOAD SWAP5 POP PUSH32 0x40D9D3D67FA256BDDDAC6033FE1BA1A7A71E5317DA279A180E33D4822FDAEF18 DUP6 PUSH1 0x40 MLOAD PUSH2 0x686 SWAP2 SWAP1 PUSH2 0x15A6 JUMP JUMPDEST PUSH1 0x40 MLOAD DUP1 SWAP2 SUB SWAP1 LOG1 PUSH2 0x7DA JUMP JUMPDEST PUSH2 0x6A5 DUP3 PUSH1 0x80 ADD MLOAD DUP6 PUSH1 0xA0 ADD MLOAD PUSH2 0x8C9 JUMP JUMPDEST PUSH2 0x6EC JUMPI DUP4 PUSH1 0x20 ADD MLOAD SWAP5 POP PUSH32 0x40D9D3D67FA256BDDDAC6033FE1BA1A7A71E5317DA279A180E33D4822FDAEF18 DUP6 PUSH1 0x40 MLOAD PUSH2 0x6DF SWAP2 SWAP1 PUSH2 0x14EE JUMP JUMPDEST PUSH1 0x40 MLOAD DUP1 SWAP2 SUB SWAP1 LOG1 PUSH2 0x7D9 JUMP JUMPDEST PUSH2 0x6FE DUP5 PUSH1 0xC0 ADD MLOAD DUP4 PUSH1 0xA0 ADD MLOAD PUSH2 0xEB JUMP JUMPDEST PUSH2 0x745 JUMPI DUP4 PUSH1 0x20 ADD MLOAD SWAP5 POP PUSH32 0x40D9D3D67FA256BDDDAC6033FE1BA1A7A71E5317DA279A180E33D4822FDAEF18 DUP6 PUSH1 0x40 MLOAD PUSH2 0x738 SWAP2 SWAP1 PUSH2 0x151C JUMP JUMPDEST PUSH1 0x40 MLOAD DUP1 SWAP2 SUB SWAP1 LOG1 PUSH2 0x7D8 JUMP JUMPDEST DUP1 PUSH1 0x60 ADD MLOAD ISZERO DUP1 PUSH2 0x78A JUMPI POP DUP1 PUSH1 0x20 ADD MLOAD PUSH20 0xFFFFFFFFFFFFFFFFFFFFFFFFFFFFFFFFFFFFFFFF AND DUP5 PUSH1 0x40 ADD MLOAD PUSH20 0xFFFFFFFFFFFFFFFFFFFFFFFFFFFFFFFFFFFFFFFF AND EQ ISZERO JUMPDEST ISZERO PUSH2 0x7D2 JUMPI DUP4 PUSH1 0x20 ADD MLOAD SWAP5 POP PUSH32 0x40D9D3D67FA256BDDDAC6033FE1BA1A7A71E5317DA279A180E33D4822FDAEF18 DUP6 PUSH1 0x40 MLOAD PUSH2 0x7C5 SWAP2 SWAP1 PUSH2 0x154A JUMP JUMPDEST PUSH1 0x40 MLOAD DUP1 SWAP2 SUB SWAP1 LOG1 PUSH2 0x7D7 JUMP JUMPDEST PUSH1 0x0 SWAP5 POP JUMPDEST JUMPDEST JUMPDEST JUMPDEST JUMPDEST PUSH32 0x85BE5714E88B33FA357A71704742683D5265129CC9FEFBA78C6E2AB8913E4735 DUP5 DUP4 DUP4 DUP9 PUSH1 0x40 MLOAD PUSH2 0x810 SWAP5 SWAP4 SWAP3 SWAP2 SWAP1 PUSH2 0x1631 JUMP JUMPDEST PUSH1 0x40 MLOAD DUP1 SWAP2 SUB SWAP1 LOG1 PUSH1 0x3 PUSH1 0x40 MLOAD DUP1 PUSH1 0x40 ADD PUSH1 0x40 MSTORE DUP1 DUP9 DUP2 MSTORE PUSH1 0x20 ADD DUP8 PUSH20 0xFFFFFFFFFFFFFFFFFFFFFFFFFFFFFFFFFFFFFFFF AND DUP2 MSTORE POP SWAP1 DUP1 PUSH1 0x1 DUP2 SLOAD ADD DUP1 DUP3 SSTORE DUP1 SWAP2 POP POP PUSH1 0x1 SWAP1 SUB SWAP1 PUSH1 0x0 MSTORE PUSH1 0x20 PUSH1 0x0 KECCAK256 SWAP1 PUSH1 0x2 MUL ADD PUSH1 0x0 SWAP1 SWAP2 SWAP1 SWAP2 SWAP1 SWAP2 POP PUSH1 0x0 DUP3 ADD MLOAD DUP2 PUSH1 0x0 ADD SSTORE PUSH1 0x20 DUP3 ADD MLOAD DUP2 PUSH1 0x1 ADD PUSH1 0x0 PUSH2 0x100 EXP DUP2 SLOAD DUP2 PUSH20 0xFFFFFFFFFFFFFFFFFFFFFFFFFFFFFFFFFFFFFFFF MUL NOT AND SWAP1 DUP4 PUSH20 0xFFFFFFFFFFFFFFFFFFFFFFFFFFFFFFFFFFFFFFFF AND MUL OR SWAP1 SSTORE POP POP POP POP POP POP POP POP POP JUMP JUMPDEST PUSH1 0x0 DUP1 DUP4 SWAP1 POP PUSH1 0x0 DUP4 SWAP1 POP DUP1 MLOAD DUP3 MLOAD EQ PUSH2 0x8E8 JUMPI PUSH1 0x0 SWAP3 POP POP POP PUSH2 0x9A0 JUMP JUMPDEST PUSH1 0x0 JUMPDEST DUP3 MLOAD DUP2 LT ISZERO PUSH2 0x998 JUMPI DUP2 DUP2 DUP2 MLOAD DUP2 LT PUSH2 0x907 JUMPI PUSH2 0x906 PUSH2 0x18F3 JUMP JUMPDEST JUMPDEST PUSH1 0x20 ADD ADD MLOAD PUSH1 0xF8 SHR PUSH1 0xF8 SHL PUSH31 0xFFFFFFFFFFFFFFFFFFFFFFFFFFFFFFFFFFFFFFFFFFFFFFFFFFFFFFFFFFFFFF NOT AND DUP4 DUP3 DUP2 MLOAD DUP2 LT PUSH2 0x947 JUMPI PUSH2 0x946 PUSH2 0x18F3 JUMP JUMPDEST JUMPDEST PUSH1 0x20 ADD ADD MLOAD PUSH1 0xF8 SHR PUSH1 0xF8 SHL PUSH31 0xFFFFFFFFFFFFFFFFFFFFFFFFFFFFFFFFFFFFFFFFFFFFFFFFFFFFFFFFFFFFFF NOT AND EQ PUSH2 0x985 JUMPI PUSH1 0x0 SWAP4 POP POP POP POP PUSH2 0x9A0 JUMP JUMPDEST DUP1 DUP1 PUSH2 0x990 SWAP1 PUSH2 0x187B JUMP JUMPDEST SWAP2 POP POP PUSH2 0x8EB JUMP JUMPDEST POP PUSH1 0x1 SWAP3 POP POP POP JUMPDEST SWAP3 SWAP2 POP POP JUMP JUMPDEST PUSH1 0x0 PUSH2 0x9B9 PUSH2 0x9B4 DUP5 PUSH2 0x16C4 JUMP JUMPDEST PUSH2 0x169F JUMP JUMPDEST SWAP1 POP DUP1 DUP4 DUP3 MSTORE PUSH1 0x20 DUP3 ADD SWAP1 POP DUP3 DUP6 PUSH1 0x20 DUP7 MUL DUP3 ADD GT ISZERO PUSH2 0x9DC JUMPI PUSH2 0x9DB PUSH2 0x1960 JUMP JUMPDEST JUMPDEST PUSH1 0x0 JUMPDEST DUP6 DUP2 LT ISZERO PUSH2 0xA2A JUMPI DUP2 CALLDATALOAD PUSH8 0xFFFFFFFFFFFFFFFF DUP2 GT ISZERO PUSH2 0xA02 JUMPI PUSH2 0xA01 PUSH2 0x1951 JUMP JUMPDEST JUMPDEST DUP1 DUP7 ADD PUSH2 0xA0F DUP10 DUP3 PUSH2 0xBCC JUMP JUMPDEST DUP6 MSTORE PUSH1 0x20 DUP6 ADD SWAP5 POP PUSH1 0x20 DUP5 ADD SWAP4 POP POP POP PUSH1 0x1 DUP2 ADD SWAP1 POP PUSH2 0x9DF JUMP JUMPDEST POP POP POP SWAP4 SWAP3 POP POP POP JUMP JUMPDEST PUSH1 0x0 PUSH2 0xA47 PUSH2 0xA42 DUP5 PUSH2 0x16C4 JUMP JUMPDEST PUSH2 0x169F JUMP JUMPDEST SWAP1 POP DUP1 DUP4 DUP3 MSTORE PUSH1 0x20 DUP3 ADD SWAP1 POP DUP3 DUP6 PUSH1 0x20 DUP7 MUL DUP3 ADD GT ISZERO PUSH2 0xA6A JUMPI PUSH2 0xA69 PUSH2 0x1960 JUMP JUMPDEST JUMPDEST PUSH1 0x0 JUMPDEST DUP6 DUP2 LT ISZERO PUSH2 0xAB8 JUMPI DUP2 MLOAD PUSH8 0xFFFFFFFFFFFFFFFF DUP2 GT ISZERO PUSH2 0xA90 JUMPI PUSH2 0xA8F PUSH2 0x1951 JUMP JUMPDEST JUMPDEST DUP1 DUP7 ADD PUSH2 0xA9D DUP10 DUP3 PUSH2 0xBFA JUMP JUMPDEST DUP6 MSTORE PUSH1 0x20 DUP6 ADD SWAP5 POP PUSH1 0x20 DUP5 ADD SWAP4 POP POP POP PUSH1 0x1 DUP2 ADD SWAP1 POP PUSH2 0xA6D JUMP JUMPDEST POP POP POP SWAP4 SWAP3 POP POP POP JUMP JUMPDEST PUSH1 0x0 PUSH2 0xAD5 PUSH2 0xAD0 DUP5 PUSH2 0x16F0 JUMP JUMPDEST PUSH2 0x169F JUMP JUMPDEST SWAP1 POP DUP3 DUP2 MSTORE PUSH1 0x20 DUP2 ADD DUP5 DUP5 DUP5 ADD GT ISZERO PUSH2 0xAF1 JUMPI PUSH2 0xAF0 PUSH2 0x1965 JUMP JUMPDEST JUMPDEST PUSH2 0xAFC DUP5 DUP3 DUP6 PUSH2 0x1808 JUMP JUMPDEST POP SWAP4 SWAP3 POP POP POP JUMP JUMPDEST PUSH1 0x0 PUSH2 0xB17 PUSH2 0xB12 DUP5 PUSH2 0x16F0 JUMP JUMPDEST PUSH2 0x169F JUMP JUMPDEST SWAP1 POP DUP3 DUP2 MSTORE PUSH1 0x20 DUP2 ADD DUP5 DUP5 DUP5 ADD GT ISZERO PUSH2 0xB33 JUMPI PUSH2 0xB32 PUSH2 0x1965 JUMP JUMPDEST JUMPDEST PUSH2 0xB3E DUP5 DUP3 DUP6 PUSH2 0x1817 JUMP JUMPDEST POP SWAP4 SWAP3 POP POP POP JUMP JUMPDEST PUSH1 0x0 DUP2 MLOAD SWAP1 POP PUSH2 0xB55 DUP2 PUSH2 0x1AC7 JUMP JUMPDEST SWAP3 SWAP2 POP POP JUMP JUMPDEST PUSH1 0x0 DUP3 PUSH1 0x1F DUP4 ADD SLT PUSH2 0xB70 JUMPI PUSH2 0xB6F PUSH2 0x1951 JUMP JUMPDEST JUMPDEST DUP2 CALLDATALOAD PUSH2 0xB80 DUP5 DUP3 PUSH1 0x20 DUP7 ADD PUSH2 0x9A6 JUMP JUMPDEST SWAP2 POP POP SWAP3 SWAP2 POP POP JUMP JUMPDEST PUSH1 0x0 DUP3 PUSH1 0x1F DUP4 ADD SLT PUSH2 0xB9E JUMPI PUSH2 0xB9D PUSH2 0x1951 JUMP JUMPDEST JUMPDEST DUP2 MLOAD PUSH2 0xBAE DUP5 DUP3 PUSH1 0x20 DUP7 ADD PUSH2 0xA34 JUMP JUMPDEST SWAP2 POP POP SWAP3 SWAP2 POP POP JUMP JUMPDEST PUSH1 0x0 DUP2 MLOAD SWAP1 POP PUSH2 0xBC6 DUP2 PUSH2 0x1ADE JUMP JUMPDEST SWAP3 SWAP2 POP POP JUMP JUMPDEST PUSH1 0x0 DUP3 PUSH1 0x1F DUP4 ADD SLT PUSH2 0xBE1 JUMPI PUSH2 0xBE0 PUSH2 0x1951 JUMP JUMPDEST JUMPDEST DUP2 CALLDATALOAD PUSH2 0xBF1 DUP5 DUP3 PUSH1 0x20 DUP7 ADD PUSH2 0xAC2 JUMP JUMPDEST SWAP2 POP POP SWAP3 SWAP2 POP POP JUMP JUMPDEST PUSH1 0x0 DUP3 PUSH1 0x1F DUP4 ADD SLT PUSH2 0xC0F JUMPI PUSH2 0xC0E PUSH2 0x1951 JUMP JUMPDEST JUMPDEST DUP2 MLOAD PUSH2 0xC1F DUP5 DUP3 PUSH1 0x20 DUP7 ADD PUSH2 0xB04 JUMP JUMPDEST SWAP2 POP POP SWAP3 SWAP2 POP POP JUMP JUMPDEST PUSH1 0x0 PUSH1 0xC0 DUP3 DUP5 SUB SLT ISZERO PUSH2 0xC3E JUMPI PUSH2 0xC3D PUSH2 0x1956 JUMP JUMPDEST JUMPDEST PUSH2 0xC48 PUSH1 0xC0 PUSH2 0x169F JUMP JUMPDEST SWAP1 POP PUSH1 0x0 PUSH2 0xC58 DUP5 DUP3 DUP6 ADD PUSH2 0xB46 JUMP JUMPDEST PUSH1 0x0 DUP4 ADD MSTORE POP PUSH1 0x20 PUSH2 0xC6C DUP5 DUP3 DUP6 ADD PUSH2 0xB46 JUMP JUMPDEST PUSH1 0x20 DUP4 ADD MSTORE POP PUSH1 0x40 DUP3 ADD MLOAD PUSH8 0xFFFFFFFFFFFFFFFF DUP2 GT ISZERO PUSH2 0xC90 JUMPI PUSH2 0xC8F PUSH2 0x195B JUMP JUMPDEST JUMPDEST PUSH2 0xC9C DUP5 DUP3 DUP6 ADD PUSH2 0xBFA JUMP JUMPDEST PUSH1 0x40 DUP4 ADD MSTORE POP PUSH1 0x60 DUP3 ADD MLOAD PUSH8 0xFFFFFFFFFFFFFFFF DUP2 GT ISZERO PUSH2 0xCC0 JUMPI PUSH2 0xCBF PUSH2 0x195B JUMP JUMPDEST JUMPDEST PUSH2 0xCCC DUP5 DUP3 DUP6 ADD PUSH2 0xBFA JUMP JUMPDEST PUSH1 0x60 DUP4 ADD MSTORE POP PUSH1 0x80 DUP3 ADD MLOAD PUSH8 0xFFFFFFFFFFFFFFFF DUP2 GT ISZERO PUSH2 0xCF0 JUMPI PUSH2 0xCEF PUSH2 0x195B JUMP JUMPDEST JUMPDEST PUSH2 0xCFC DUP5 DUP3 DUP6 ADD PUSH2 0xBFA JUMP JUMPDEST PUSH1 0x80 DUP4 ADD MSTORE POP PUSH1 0xA0 DUP3 ADD MLOAD PUSH8 0xFFFFFFFFFFFFFFFF DUP2 GT ISZERO PUSH2 0xD20 JUMPI PUSH2 0xD1F PUSH2 0x195B JUMP JUMPDEST JUMPDEST PUSH2 0xD2C DUP5 DUP3 DUP6 ADD PUSH2 0xB89 JUMP JUMPDEST PUSH1 0xA0 DUP4 ADD MSTORE POP SWAP3 SWAP2 POP POP JUMP JUMPDEST PUSH1 0x0 PUSH1 0xE0 DUP3 DUP5 SUB SLT ISZERO PUSH2 0xD4E JUMPI PUSH2 0xD4D PUSH2 0x1956 JUMP JUMPDEST JUMPDEST PUSH2 0xD58 PUSH1 0xE0 PUSH2 0x169F JUMP JUMPDEST SWAP1 POP PUSH1 0x0 PUSH2 0xD68 DUP5 DUP3 DUP6 ADD PUSH2 0xECD JUMP JUMPDEST PUSH1 0x0 DUP4 ADD MSTORE POP PUSH1 0x20 PUSH2 0xD7C DUP5 DUP3 DUP6 ADD PUSH2 0xB46 JUMP JUMPDEST PUSH1 0x20 DUP4 ADD MSTORE POP PUSH1 0x40 PUSH2 0xD90 DUP5 DUP3 DUP6 ADD PUSH2 0xB46 JUMP JUMPDEST PUSH1 0x40 DUP4 ADD MSTORE POP PUSH1 0x60 PUSH2 0xDA4 DUP5 DUP3 DUP6 ADD PUSH2 0xECD JUMP JUMPDEST PUSH1 0x60 DUP4 ADD MSTORE POP PUSH1 0x80 DUP3 ADD MLOAD PUSH8 0xFFFFFFFFFFFFFFFF DUP2 GT ISZERO PUSH2 0xDC8 JUMPI PUSH2 0xDC7 PUSH2 0x195B JUMP JUMPDEST JUMPDEST PUSH2 0xDD4 DUP5 DUP3 DUP6 ADD PUSH2 0xBFA JUMP JUMPDEST PUSH1 0x80 DUP4 ADD MSTORE POP PUSH1 0xA0 DUP3 ADD MLOAD PUSH8 0xFFFFFFFFFFFFFFFF DUP2 GT ISZERO PUSH2 0xDF8 JUMPI PUSH2 0xDF7 PUSH2 0x195B JUMP JUMPDEST JUMPDEST PUSH2 0xE04 DUP5 DUP3 DUP6 ADD PUSH2 0xBFA JUMP JUMPDEST PUSH1 0xA0 DUP4 ADD MSTORE POP PUSH1 0xC0 DUP3 ADD MLOAD PUSH8 0xFFFFFFFFFFFFFFFF DUP2 GT ISZERO PUSH2 0xE28 JUMPI PUSH2 0xE27 PUSH2 0x195B JUMP JUMPDEST JUMPDEST PUSH2 0xE34 DUP5 DUP3 DUP6 ADD PUSH2 0xB89 JUMP JUMPDEST PUSH1 0xC0 DUP4 ADD MSTORE POP SWAP3 SWAP2 POP POP JUMP JUMPDEST PUSH1 0x0 PUSH1 0x80 DUP3 DUP5 SUB SLT ISZERO PUSH2 0xE56 JUMPI PUSH2 0xE55 PUSH2 0x1956 JUMP JUMPDEST JUMPDEST PUSH2 0xE60 PUSH1 0x80 PUSH2 0x169F JUMP JUMPDEST SWAP1 POP PUSH1 0x0 PUSH2 0xE70 DUP5 DUP3 DUP6 ADD PUSH2 0xB46 JUMP JUMPDEST PUSH1 0x0 DUP4 ADD MSTORE POP PUSH1 0x20 PUSH2 0xE84 DUP5 DUP3 DUP6 ADD PUSH2 0xB46 JUMP JUMPDEST PUSH1 0x20 DUP4 ADD MSTORE POP PUSH1 0x40 PUSH2 0xE98 DUP5 DUP3 DUP6 ADD PUSH2 0xECD JUMP JUMPDEST PUSH1 0x40 DUP4 ADD MSTORE POP PUSH1 0x60 PUSH2 0xEAC DUP5 DUP3 DUP6 ADD PUSH2 0xBB7 JUMP JUMPDEST PUSH1 0x60 DUP4 ADD MSTORE POP SWAP3 SWAP2 POP POP JUMP JUMPDEST PUSH1 0x0 DUP2 CALLDATALOAD SWAP1 POP PUSH2 0xEC7 DUP2 PUSH2 0x1AF5 JUMP JUMPDEST SWAP3 SWAP2 POP POP JUMP JUMPDEST PUSH1 0x0 DUP2 MLOAD SWAP1 POP PUSH2 0xEDC DUP2 PUSH2 0x1AF5 JUMP JUMPDEST SWAP3 SWAP2 POP POP JUMP JUMPDEST PUSH1 0x0 DUP1 PUSH1 0x40 DUP4 DUP6 SUB SLT ISZERO PUSH2 0xEF9 JUMPI PUSH2 0xEF8 PUSH2 0x196F JUMP JUMPDEST JUMPDEST PUSH1 0x0 DUP4 ADD CALLDATALOAD PUSH8 0xFFFFFFFFFFFFFFFF DUP2 GT ISZERO PUSH2 0xF17 JUMPI PUSH2 0xF16 PUSH2 0x196A JUMP JUMPDEST JUMPDEST PUSH2 0xF23 DUP6 DUP3 DUP7 ADD PUSH2 0xB5B JUMP JUMPDEST SWAP3 POP POP PUSH1 0x20 DUP4 ADD CALLDATALOAD PUSH8 0xFFFFFFFFFFFFFFFF DUP2 GT ISZERO PUSH2 0xF44 JUMPI PUSH2 0xF43 PUSH2 0x196A JUMP JUMPDEST JUMPDEST PUSH2 0xF50 DUP6 DUP3 DUP7 ADD PUSH2 0xB5B JUMP JUMPDEST SWAP2 POP POP SWAP3 POP SWAP3 SWAP1 POP JUMP JUMPDEST PUSH1 0x0 DUP1 PUSH1 0x40 DUP4 DUP6 SUB SLT ISZERO PUSH2 0xF71 JUMPI PUSH2 0xF70 PUSH2 0x196F JUMP JUMPDEST JUMPDEST PUSH1 0x0 DUP4 ADD CALLDATALOAD PUSH8 0xFFFFFFFFFFFFFFFF DUP2 GT ISZERO PUSH2 0xF8F JUMPI PUSH2 0xF8E PUSH2 0x196A JUMP JUMPDEST JUMPDEST PUSH2 0xF9B DUP6 DUP3 DUP7 ADD PUSH2 0xBCC JUMP JUMPDEST SWAP3 POP POP PUSH1 0x20 DUP4 ADD CALLDATALOAD PUSH8 0xFFFFFFFFFFFFFFFF DUP2 GT ISZERO PUSH2 0xFBC JUMPI PUSH2 0xFBB PUSH2 0x196A JUMP JUMPDEST JUMPDEST PUSH2 0xFC8 DUP6 DUP3 DUP7 ADD PUSH2 0xBCC JUMP JUMPDEST SWAP2 POP POP SWAP3 POP SWAP3 SWAP1 POP JUMP JUMPDEST PUSH1 0x0 PUSH1 0x20 DUP3 DUP5 SUB SLT ISZERO PUSH2 0xFE8 JUMPI PUSH2 0xFE7 PUSH2 0x196F JUMP JUMPDEST JUMPDEST PUSH1 0x0 DUP3 ADD MLOAD PUSH8 0xFFFFFFFFFFFFFFFF DUP2 GT ISZERO PUSH2 0x1006 JUMPI PUSH2 0x1005 PUSH2 0x196A JUMP JUMPDEST JUMPDEST PUSH2 0x1012 DUP5 DUP3 DUP6 ADD PUSH2 0xC28 JUMP JUMPDEST SWAP2 POP POP SWAP3 SWAP2 POP POP JUMP JUMPDEST PUSH1 0x0 PUSH1 0x20 DUP3 DUP5 SUB SLT ISZERO PUSH2 0x1031 JUMPI PUSH2 0x1030 PUSH2 0x196F JUMP JUMPDEST JUMPDEST PUSH1 0x0 DUP3 ADD MLOAD PUSH8 0xFFFFFFFFFFFFFFFF DUP2 GT ISZERO PUSH2 0x104F JUMPI PUSH2 0x104E PUSH2 0x196A JUMP JUMPDEST JUMPDEST PUSH2 0x105B DUP5 DUP3 DUP6 ADD PUSH2 0xD38 JUMP JUMPDEST SWAP2 POP POP SWAP3 SWAP2 POP POP JUMP JUMPDEST PUSH1 0x0 PUSH1 0x80 DUP3 DUP5 SUB SLT ISZERO PUSH2 0x107A JUMPI PUSH2 0x1079 PUSH2 0x196F JUMP JUMPDEST JUMPDEST PUSH1 0x0 PUSH2 0x1088 DUP5 DUP3 DUP6 ADD PUSH2 0xE40 JUMP JUMPDEST SWAP2 POP POP SWAP3 SWAP2 POP POP JUMP JUMPDEST PUSH1 0x0 PUSH1 0x20 DUP3 DUP5 SUB SLT ISZERO PUSH2 0x10A7 JUMPI PUSH2 0x10A6 PUSH2 0x196F JUMP JUMPDEST JUMPDEST PUSH1 0x0 PUSH2 0x10B5 DUP5 DUP3 DUP6 ADD PUSH2 0xEB8 JUMP JUMPDEST SWAP2 POP POP SWAP3 SWAP2 POP POP JUMP JUMPDEST PUSH1 0x0 PUSH2 0x10CA DUP4 DUP4 PUSH2 0x11F9 JUMP JUMPDEST SWAP1 POP SWAP3 SWAP2 POP POP JUMP JUMPDEST PUSH1 0x0 PUSH2 0x10DE DUP4 DUP4 PUSH2 0x144C JUMP JUMPDEST PUSH1 0x40 DUP4 ADD SWAP1 POP SWAP3 SWAP2 POP POP JUMP JUMPDEST PUSH2 0x10F3 DUP2 PUSH2 0x17C0 JUMP JUMPDEST DUP3 MSTORE POP POP JUMP JUMPDEST PUSH2 0x1102 DUP2 PUSH2 0x17C0 JUMP JUMPDEST DUP3 MSTORE POP POP JUMP JUMPDEST PUSH1 0x0 PUSH2 0x1113 DUP3 PUSH2 0x1741 JUMP JUMPDEST PUSH2 0x111D DUP2 DUP6 PUSH2 0x177C JUMP JUMPDEST SWAP4 POP DUP4 PUSH1 0x20 DUP3 MUL DUP6 ADD PUSH2 0x112F DUP6 PUSH2 0x1721 JUMP JUMPDEST DUP1 PUSH1 0x0 JUMPDEST DUP6 DUP2 LT ISZERO PUSH2 0x116B JUMPI DUP5 DUP5 SUB DUP10 MSTORE DUP2 MLOAD PUSH2 0x114C DUP6 DUP3 PUSH2 0x10BE JUMP JUMPDEST SWAP5 POP PUSH2 0x1157 DUP4 PUSH2 0x1762 JUMP JUMPDEST SWAP3 POP PUSH1 0x20 DUP11 ADD SWAP10 POP POP PUSH1 0x1 DUP2 ADD SWAP1 POP PUSH2 0x1133 JUMP JUMPDEST POP DUP3 SWAP8 POP DUP8 SWAP6 POP POP POP POP POP POP SWAP3 SWAP2 POP POP JUMP JUMPDEST PUSH1 0x0 PUSH2 0x1188 DUP3 PUSH2 0x174C JUMP JUMPDEST PUSH2 0x1192 DUP2 DUP6 PUSH2 0x178D JUMP JUMPDEST SWAP4 POP PUSH2 0x119D DUP4 PUSH2 0x1731 JUMP JUMPDEST DUP1 PUSH1 0x0 JUMPDEST DUP4 DUP2 LT ISZERO PUSH2 0x11CE JUMPI DUP2 MLOAD PUSH2 0x11B5 DUP9 DUP3 PUSH2 0x10D2 JUMP JUMPDEST SWAP8 POP PUSH2 0x11C0 DUP4 PUSH2 0x176F JUMP JUMPDEST SWAP3 POP POP PUSH1 0x1 DUP2 ADD SWAP1 POP PUSH2 0x11A1 JUMP JUMPDEST POP DUP6 SWAP4 POP POP POP POP SWAP3 SWAP2 POP POP JUMP JUMPDEST PUSH2 0x11E4 DUP2 PUSH2 0x17D2 JUMP JUMPDEST DUP3 MSTORE POP POP JUMP JUMPDEST PUSH2 0x11F3 DUP2 PUSH2 0x17D2 JUMP JUMPDEST DUP3 MSTORE POP POP JUMP JUMPDEST PUSH1 0x0 PUSH2 0x1204 DUP3 PUSH2 0x1757 JUMP JUMPDEST PUSH2 0x120E DUP2 DUP6 PUSH2 0x179E JUMP JUMPDEST SWAP4 POP PUSH2 0x121E DUP2 DUP6 PUSH1 0x20 DUP7 ADD PUSH2 0x1817 JUMP JUMPDEST PUSH2 0x1227 DUP2 PUSH2 0x1974 JUMP JUMPDEST DUP5 ADD SWAP2 POP POP SWAP3 SWAP2 POP POP JUMP JUMPDEST PUSH1 0x0 PUSH2 0x123F PUSH1 0x1D DUP4 PUSH2 0x17AF JUMP JUMPDEST SWAP2 POP PUSH2 0x124A DUP3 PUSH2 0x1985 JUMP JUMPDEST PUSH1 0x20 DUP3 ADD SWAP1 POP SWAP2 SWAP1 POP JUMP JUMPDEST PUSH1 0x0 PUSH2 0x1262 PUSH1 0x23 DUP4 PUSH2 0x17AF JUMP JUMPDEST SWAP2 POP PUSH2 0x126D DUP3 PUSH2 0x19AE JUMP JUMPDEST PUSH1 0x40 DUP3 ADD SWAP1 POP SWAP2 SWAP1 POP JUMP JUMPDEST PUSH1 0x0 PUSH2 0x1285 PUSH1 0x17 DUP4 PUSH2 0x17AF JUMP JUMPDEST SWAP2 POP PUSH2 0x1290 DUP3 PUSH2 0x19FD JUMP JUMPDEST PUSH1 0x20 DUP3 ADD SWAP1 POP SWAP2 SWAP1 POP JUMP JUMPDEST PUSH1 0x0 PUSH2 0x12A8 PUSH1 0x23 DUP4 PUSH2 0x17AF JUMP JUMPDEST SWAP2 POP PUSH2 0x12B3 DUP3 PUSH2 0x1A26 JUMP JUMPDEST PUSH1 0x40 DUP3 ADD SWAP1 POP SWAP2 SWAP1 POP JUMP JUMPDEST PUSH1 0x0 PUSH2 0x12CB PUSH1 0x19 DUP4 PUSH2 0x17AF JUMP JUMPDEST SWAP2 POP PUSH2 0x12D6 DUP3 PUSH2 0x1A75 JUMP JUMPDEST PUSH1 0x20 DUP3 ADD SWAP1 POP SWAP2 SWAP1 POP JUMP JUMPDEST PUSH1 0x0 PUSH2 0x12EE PUSH1 0x1A DUP4 PUSH2 0x17AF JUMP JUMPDEST SWAP2 POP PUSH2 0x12F9 DUP3 PUSH2 0x1A9E JUMP JUMPDEST PUSH1 0x20 DUP3 ADD SWAP1 POP SWAP2 SWAP1 POP JUMP JUMPDEST PUSH1 0x0 PUSH1 0xC0 DUP4 ADD PUSH1 0x0 DUP4 ADD MLOAD PUSH2 0x131C PUSH1 0x0 DUP7 ADD DUP3 PUSH2 0x10EA JUMP JUMPDEST POP PUSH1 0x20 DUP4 ADD MLOAD PUSH2 0x132F PUSH1 0x20 DUP7 ADD DUP3 PUSH2 0x10EA JUMP JUMPDEST POP PUSH1 0x40 DUP4 ADD MLOAD DUP5 DUP3 SUB PUSH1 0x40 DUP7 ADD MSTORE PUSH2 0x1347 DUP3 DUP3 PUSH2 0x11F9 JUMP JUMPDEST SWAP2 POP POP PUSH1 0x60 DUP4 ADD MLOAD DUP5 DUP3 SUB PUSH1 0x60 DUP7 ADD MSTORE PUSH2 0x1361 DUP3 DUP3 PUSH2 0x11F9 JUMP JUMPDEST SWAP2 POP POP PUSH1 0x80 DUP4 ADD MLOAD DUP5 DUP3 SUB PUSH1 0x80 DUP7 ADD MSTORE PUSH2 0x137B DUP3 DUP3 PUSH2 0x11F9 JUMP JUMPDEST SWAP2 POP POP PUSH1 0xA0 DUP4 ADD MLOAD DUP5 DUP3 SUB PUSH1 0xA0 DUP7 ADD MSTORE PUSH2 0x1395 DUP3 DUP3 PUSH2 0x1108 JUMP JUMPDEST SWAP2 POP POP DUP1 SWAP2 POP POP SWAP3 SWAP2 POP POP JUMP JUMPDEST PUSH1 0x0 PUSH1 0xE0 DUP4 ADD PUSH1 0x0 DUP4 ADD MLOAD PUSH2 0x13BA PUSH1 0x0 DUP7 ADD DUP3 PUSH2 0x14D0 JUMP JUMPDEST POP PUSH1 0x20 DUP4 ADD MLOAD PUSH2 0x13CD PUSH1 0x20 DUP7 ADD DUP3 PUSH2 0x10EA JUMP JUMPDEST POP PUSH1 0x40 DUP4 ADD MLOAD PUSH2 0x13E0 PUSH1 0x40 DUP7 ADD DUP3 PUSH2 0x10EA JUMP JUMPDEST POP PUSH1 0x60 DUP4 ADD MLOAD PUSH2 0x13F3 PUSH1 0x60 DUP7 ADD DUP3 PUSH2 0x14D0 JUMP JUMPDEST POP PUSH1 0x80 DUP4 ADD MLOAD DUP5 DUP3 SUB PUSH1 0x80 DUP7 ADD MSTORE PUSH2 0x140B DUP3 DUP3 PUSH2 0x11F9 JUMP JUMPDEST SWAP2 POP POP PUSH1 0xA0 DUP4 ADD MLOAD DUP5 DUP3 SUB PUSH1 0xA0 DUP7 ADD MSTORE PUSH2 0x1425 DUP3 DUP3 PUSH2 0x11F9 JUMP JUMPDEST SWAP2 POP POP PUSH1 0xC0 DUP4 ADD MLOAD DUP5 DUP3 SUB PUSH1 0xC0 DUP7 ADD MSTORE PUSH2 0x143F DUP3 DUP3 PUSH2 0x1108 JUMP JUMPDEST SWAP2 POP POP DUP1 SWAP2 POP POP SWAP3 SWAP2 POP POP JUMP JUMPDEST PUSH1 0x40 DUP3 ADD PUSH1 0x0 DUP3 ADD MLOAD PUSH2 0x1462 PUSH1 0x0 DUP6 ADD DUP3 PUSH2 0x14D0 JUMP JUMPDEST POP PUSH1 0x20 DUP3 ADD MLOAD PUSH2 0x1475 PUSH1 0x20 DUP6 ADD DUP3 PUSH2 0x10EA JUMP JUMPDEST POP POP POP POP JUMP JUMPDEST PUSH1 0x80 DUP3 ADD PUSH1 0x0 DUP3 ADD MLOAD PUSH2 0x1491 PUSH1 0x0 DUP6 ADD DUP3 PUSH2 0x10EA JUMP JUMPDEST POP PUSH1 0x20 DUP3 ADD MLOAD PUSH2 0x14A4 PUSH1 0x20 DUP6 ADD DUP3 PUSH2 0x10EA JUMP JUMPDEST POP PUSH1 0x40 DUP3 ADD MLOAD PUSH2 0x14B7 PUSH1 0x40 DUP6 ADD DUP3 PUSH2 0x14D0 JUMP JUMPDEST POP PUSH1 0x60 DUP3 ADD MLOAD PUSH2 0x14CA PUSH1 0x60 DUP6 ADD DUP3 PUSH2 0x11DB JUMP JUMPDEST POP POP POP POP JUMP JUMPDEST PUSH2 0x14D9 DUP2 PUSH2 0x17FE JUMP JUMPDEST DUP3 MSTORE POP POP JUMP JUMPDEST PUSH2 0x14E8 DUP2 PUSH2 0x17FE JUMP JUMPDEST DUP3 MSTORE POP POP JUMP JUMPDEST PUSH1 0x0 PUSH1 0x40 DUP3 ADD SWAP1 POP PUSH2 0x1503 PUSH1 0x0 DUP4 ADD DUP5 PUSH2 0x10F9 JUMP JUMPDEST DUP2 DUP2 SUB PUSH1 0x20 DUP4 ADD MSTORE PUSH2 0x1514 DUP2 PUSH2 0x1232 JUMP JUMPDEST SWAP1 POP SWAP3 SWAP2 POP POP JUMP JUMPDEST PUSH1 0x0 PUSH1 0x40 DUP3 ADD SWAP1 POP PUSH2 0x1531 PUSH1 0x0 DUP4 ADD DUP5 PUSH2 0x10F9 JUMP JUMPDEST DUP2 DUP2 SUB PUSH1 0x20 DUP4 ADD MSTORE PUSH2 0x1542 DUP2 PUSH2 0x1255 JUMP JUMPDEST SWAP1 POP SWAP3 SWAP2 POP POP JUMP JUMPDEST PUSH1 0x0 PUSH1 0x40 DUP3 ADD SWAP1 POP PUSH2 0x155F PUSH1 0x0 DUP4 ADD DUP5 PUSH2 0x10F9 JUMP JUMPDEST DUP2 DUP2 SUB PUSH1 0x20 DUP4 ADD MSTORE PUSH2 0x1570 DUP2 PUSH2 0x129B JUMP JUMPDEST SWAP1 POP SWAP3 SWAP2 POP POP JUMP JUMPDEST PUSH1 0x0 PUSH1 0x40 DUP3 ADD SWAP1 POP PUSH2 0x158D PUSH1 0x0 DUP4 ADD DUP5 PUSH2 0x10F9 JUMP JUMPDEST DUP2 DUP2 SUB PUSH1 0x20 DUP4 ADD MSTORE PUSH2 0x159E DUP2 PUSH2 0x12BE JUMP JUMPDEST SWAP1 POP SWAP3 SWAP2 POP POP JUMP JUMPDEST PUSH1 0x0 PUSH1 0x40 DUP3 ADD SWAP1 POP PUSH2 0x15BB PUSH1 0x0 DUP4 ADD DUP5 PUSH2 0x10F9 JUMP JUMPDEST DUP2 DUP2 SUB PUSH1 0x20 DUP4 ADD MSTORE PUSH2 0x15CC DUP2 PUSH2 0x12E1 JUMP JUMPDEST SWAP1 POP SWAP3 SWAP2 POP POP JUMP JUMPDEST PUSH1 0x0 PUSH1 0x20 DUP3 ADD SWAP1 POP DUP2 DUP2 SUB PUSH1 0x0 DUP4 ADD MSTORE PUSH2 0x15EE DUP2 DUP5 PUSH2 0x117D JUMP JUMPDEST SWAP1 POP SWAP3 SWAP2 POP POP JUMP JUMPDEST PUSH1 0x0 PUSH1 0x20 DUP3 ADD SWAP1 POP PUSH2 0x160B PUSH1 0x0 DUP4 ADD DUP5 PUSH2 0x11EA JUMP JUMPDEST SWAP3 SWAP2 POP POP JUMP JUMPDEST PUSH1 0x0 PUSH1 0x20 DUP3 ADD SWAP1 POP DUP2 DUP2 SUB PUSH1 0x0 DUP4 ADD MSTORE PUSH2 0x162A DUP2 PUSH2 0x1278 JUMP JUMPDEST SWAP1 POP SWAP2 SWAP1 POP JUMP JUMPDEST PUSH1 0x0 PUSH1 0xE0 DUP3 ADD SWAP1 POP DUP2 DUP2 SUB PUSH1 0x0 DUP4 ADD MSTORE PUSH2 0x164B DUP2 DUP8 PUSH2 0x13A2 JUMP JUMPDEST SWAP1 POP DUP2 DUP2 SUB PUSH1 0x20 DUP4 ADD MSTORE PUSH2 0x165F DUP2 DUP7 PUSH2 0x1304 JUMP JUMPDEST SWAP1 POP PUSH2 0x166E PUSH1 0x40 DUP4 ADD DUP6 PUSH2 0x147B JUMP JUMPDEST PUSH2 0x167B PUSH1 0xC0 DUP4 ADD DUP5 PUSH2 0x10F9 JUMP JUMPDEST SWAP6 SWAP5 POP POP POP POP POP JUMP JUMPDEST PUSH1 0x0 PUSH1 0x20 DUP3 ADD SWAP1 POP PUSH2 0x1699 PUSH1 0x0 DUP4 ADD DUP5 PUSH2 0x14DF JUMP JUMPDEST SWAP3 SWAP2 POP POP JUMP JUMPDEST PUSH1 0x0 PUSH2 0x16A9 PUSH2 0x16BA JUMP JUMPDEST SWAP1 POP PUSH2 0x16B5 DUP3 DUP3 PUSH2 0x184A JUMP JUMPDEST SWAP2 SWAP1 POP JUMP JUMPDEST PUSH1 0x0 PUSH1 0x40 MLOAD SWAP1 POP SWAP1 JUMP JUMPDEST PUSH1 0x0 PUSH8 0xFFFFFFFFFFFFFFFF DUP3 GT ISZERO PUSH2 0x16DF JUMPI PUSH2 0x16DE PUSH2 0x1922 JUMP JUMPDEST JUMPDEST PUSH1 0x20 DUP3 MUL SWAP1 POP PUSH1 0x20 DUP2 ADD SWAP1 POP SWAP2 SWAP1 POP JUMP JUMPDEST PUSH1 0x0 PUSH8 0xFFFFFFFFFFFFFFFF DUP3 GT ISZERO PUSH2 0x170B JUMPI PUSH2 0x170A PUSH2 0x1922 JUMP JUMPDEST JUMPDEST PUSH2 0x1714 DUP3 PUSH2 0x1974 JUMP JUMPDEST SWAP1 POP PUSH1 0x20 DUP2 ADD SWAP1 POP SWAP2 SWAP1 POP JUMP JUMPDEST PUSH1 0x0 DUP2 SWAP1 POP PUSH1 0x20 DUP3 ADD SWAP1 POP SWAP2 SWAP1 POP JUMP JUMPDEST PUSH1 0x0 DUP2 SWAP1 POP PUSH1 0x20 DUP3 ADD SWAP1 POP SWAP2 SWAP1 POP JUMP JUMPDEST PUSH1 0x0 DUP2 MLOAD SWAP1 POP SWAP2 SWAP1 POP JUMP JUMPDEST PUSH1 0x0 DUP2 MLOAD SWAP1 POP SWAP2 SWAP1 POP JUMP JUMPDEST PUSH1 0x0 DUP2 MLOAD SWAP1 POP SWAP2 SWAP1 POP JUMP JUMPDEST PUSH1 0x0 PUSH1 0x20 DUP3 ADD SWAP1 POP SWAP2 SWAP1 POP JUMP JUMPDEST PUSH1 0x0 PUSH1 0x20 DUP3 ADD SWAP1 POP SWAP2 SWAP1 POP JUMP JUMPDEST PUSH1 0x0 DUP3 DUP3 MSTORE PUSH1 0x20 DUP3 ADD SWAP1 POP SWAP3 SWAP2 POP POP JUMP JUMPDEST PUSH1 0x0 DUP3 DUP3 MSTORE PUSH1 0x20 DUP3 ADD SWAP1 POP SWAP3 SWAP2 POP POP JUMP JUMPDEST PUSH1 0x0 DUP3 DUP3 MSTORE PUSH1 0x20 DUP3 ADD SWAP1 POP SWAP3 SWAP2 POP POP JUMP JUMPDEST PUSH1 0x0 DUP3 DUP3 MSTORE PUSH1 0x20 DUP3 ADD SWAP1 POP SWAP3 SWAP2 POP POP JUMP JUMPDEST PUSH1 0x0 PUSH2 0x17CB DUP3 PUSH2 0x17DE JUMP JUMPDEST SWAP1 POP SWAP2 SWAP1 POP JUMP JUMPDEST PUSH1 0x0 DUP2 ISZERO ISZERO SWAP1 POP SWAP2 SWAP1 POP JUMP JUMPDEST PUSH1 0x0 PUSH20 0xFFFFFFFFFFFFFFFFFFFFFFFFFFFFFFFFFFFFFFFF DUP3 AND SWAP1 POP SWAP2 SWAP1 POP JUMP JUMPDEST PUSH1 0x0 DUP2 SWAP1 POP SWAP2 SWAP1 POP JUMP JUMPDEST DUP3 DUP2 DUP4 CALLDATACOPY PUSH1 0x0 DUP4 DUP4 ADD MSTORE POP POP POP JUMP JUMPDEST PUSH1 0x0 JUMPDEST DUP4 DUP2 LT ISZERO PUSH2 0x1835 JUMPI DUP1 DUP3 ADD MLOAD DUP2 DUP5 ADD MSTORE PUSH1 0x20 DUP2 ADD SWAP1 POP PUSH2 0x181A JUMP JUMPDEST DUP4 DUP2 GT ISZERO PUSH2 0x1844 JUMPI PUSH1 0x0 DUP5 DUP5 ADD MSTORE JUMPDEST POP POP POP POP JUMP JUMPDEST PUSH2 0x1853 DUP3 PUSH2 0x1974 JUMP JUMPDEST DUP2 ADD DUP2 DUP2 LT PUSH8 0xFFFFFFFFFFFFFFFF DUP3 GT OR ISZERO PUSH2 0x1872 JUMPI PUSH2 0x1871 PUSH2 0x1922 JUMP JUMPDEST JUMPDEST DUP1 PUSH1 0x40 MSTORE POP POP POP JUMP JUMPDEST PUSH1 0x0 PUSH2 0x1886 DUP3 PUSH2 0x17FE JUMP JUMPDEST SWAP2 POP PUSH32 0xFFFFFFFFFFFFFFFFFFFFFFFFFFFFFFFFFFFFFFFFFFFFFFFFFFFFFFFFFFFFFFFF DUP3 EQ ISZERO PUSH2 0x18B9 JUMPI PUSH2 0x18B8 PUSH2 0x18C4 JUMP JUMPDEST JUMPDEST PUSH1 0x1 DUP3 ADD SWAP1 POP SWAP2 SWAP1 POP JUMP JUMPDEST PUSH32 0x4E487B7100000000000000000000000000000000000000000000000000000000 PUSH1 0x0 MSTORE PUSH1 0x11 PUSH1 0x4 MSTORE PUSH1 0x24 PUSH1 0x0 REVERT JUMPDEST PUSH32 0x4E487B7100000000000000000000000000000000000000000000000000000000 PUSH1 0x0 MSTORE PUSH1 0x32 PUSH1 0x4 MSTORE PUSH1 0x24 PUSH1 0x0 REVERT JUMPDEST PUSH32 0x4E487B7100000000000000000000000000000000000000000000000000000000 PUSH1 0x0 MSTORE PUSH1 0x41 PUSH1 0x4 MSTORE PUSH1 0x24 PUSH1 0x0 REVERT JUMPDEST PUSH1 0x0 DUP1 REVERT JUMPDEST PUSH1 0x0 DUP1 REVERT JUMPDEST PUSH1 0x0 DUP1 REVERT JUMPDEST PUSH1 0x0 DUP1 REVERT JUMPDEST PUSH1 0x0 DUP1 REVERT JUMPDEST PUSH1 0x0 DUP1 REVERT JUMPDEST PUSH1 0x0 DUP1 REVERT JUMPDEST PUSH1 0x0 PUSH1 0x1F NOT PUSH1 0x1F DUP4 ADD AND SWAP1 POP SWAP2 SWAP1 POP JUMP JUMPDEST PUSH32 0x6F7065726174696F6E207265636F726420696E636F6E666F726D697479000000 PUSH1 0x0 DUP3 ADD MSTORE POP JUMP JUMPDEST PUSH32 0x726571756573742070726F636573736564206461746120696E636F6E666F726D PUSH1 0x0 DUP3 ADD MSTORE PUSH32 0x6974790000000000000000000000000000000000000000000000000000000000 PUSH1 0x20 DUP3 ADD MSTORE POP JUMP JUMPDEST PUSH32 0x546865206C6F6720646F6573206E6F7420657869737421000000000000000000 PUSH1 0x0 DUP3 ADD MSTORE POP JUMP JUMPDEST PUSH32 0x64617461207573616765206973206E6F7420636F6E6669726D65642062792075 PUSH1 0x0 DUP3 ADD MSTORE PUSH32 0x7365720000000000000000000000000000000000000000000000000000000000 PUSH1 0x20 DUP3 ADD MSTORE POP JUMP JUMPDEST PUSH32 0x75736572206164647265737320696E636F6E666F726D69747900000000000000 PUSH1 0x0 DUP3 ADD MSTORE POP JUMP JUMPDEST PUSH32 0x6163746F72206164647265737320696E636F6E666F726D697479000000000000 PUSH1 0x0 DUP3 ADD MSTORE POP JUMP JUMPDEST PUSH2 0x1AD0 DUP2 PUSH2 0x17C0 JUMP JUMPDEST DUP2 EQ PUSH2 0x1ADB JUMPI PUSH1 0x0 DUP1 REVERT JUMPDEST POP JUMP JUMPDEST PUSH2 0x1AE7 DUP2 PUSH2 0x17D2 JUMP JUMPDEST DUP2 EQ PUSH2 0x1AF2 JUMPI PUSH1 0x0 DUP1 REVERT JUMPDEST POP JUMP JUMPDEST PUSH2 0x1AFE DUP2 PUSH2 0x17FE JUMP JUMPDEST DUP2 EQ PUSH2 0x1B09 JUMPI PUSH1 0x0 DUP1 REVERT JUMPDEST POP JUMP INVALID LOG2 PUSH5 0x6970667358 0x22 SLT KECCAK256 DUP6 MULMOD DUP1 GASLIMIT 0xDC 0x4F 0x5E BALANCE PUSH16 0x2A975E39A8484F8A63C5265AB94C3BE1 STATICCALL 0x2C 0x2B 0xFB COINBASE 0xE4 PUSH7 0x64736F6C634300 ADDMOD SMOD STOP CALLER "
		},
		"gasEstimates": {
			"creation": {
				"codeDepositCost": "1395600",
				"executionCost": "infinite",
				"totalCost": "infinite"
			},
			"external": {
				"isStrArrayEqual(string[],string[])": "infinite",
				"isStrEqual(string,string)": "infinite",
				"retrieveResults()": "infinite",
				"verify(uint256)": "infinite"
			}
		},
		"methodIdentifiers": {
			"isStrArrayEqual(string[],string[])": "37e0b66d",
			"isStrEqual(string,string)": "d4cbd9d4",
			"retrieveResults()": "70512841",
			"verify(uint256)": "8753367f"
		}
	},
	"abi": [
		{
			"inputs": [
				{
					"internalType": "address",
					"name": "dcAdd",
					"type": "address"
				},
				{
					"internalType": "address",
					"name": "acAdd",
					"type": "address"
				},
				{
					"internalType": "address",
					"name": "lcAdd",
					"type": "address"
				}
			],
			"stateMutability": "nonpayable",
			"type": "constructor"
		},
		{
			"anonymous": false,
			"inputs": [
				{
					"components": [
						{
							"internalType": "uint256",
							"name": "logID",
							"type": "uint256"
						},
						{
							"internalType": "address",
							"name": "actorAddress",
							"type": "address"
						},
						{
							"internalType": "address",
							"name": "userAddress",
							"type": "address"
						},
						{
							"internalType": "uint256",
							"name": "usageID",
							"type": "uint256"
						},
						{
							"internalType": "string",
							"name": "serviceName",
							"type": "string"
						},
						{
							"internalType": "string",
							"name": "operation",
							"type": "string"
						},
						{
							"internalType": "string[]",
							"name": "processedData",
							"type": "string[]"
						}
					],
					"indexed": false,
					"internalType": "struct LogContent",
					"name": "log",
					"type": "tuple"
				},
				{
					"components": [
						{
							"internalType": "address",
							"name": "actorAddress",
							"type": "address"
						},
						{
							"internalType": "address",
							"name": "userAddress",
							"type": "address"
						},
						{
							"internalType": "string",
							"name": "serviceName",
							"type": "string"
						},
						{
							"internalType": "string",
							"name": "servicePurpose",
							"type": "string"
						},
						{
							"internalType": "string",
							"name": "operation",
							"type": "string"
						},
						{
							"internalType": "string[]",
							"name": "personalData",
							"type": "string[]"
						}
					],
					"indexed": false,
					"internalType": "struct DataUsage",
					"name": "dataUsage",
					"type": "tuple"
				},
				{
					"components": [
						{
							"internalType": "address",
							"name": "actorAddress",
							"type": "address"
						},
						{
							"internalType": "address",
							"name": "userAddress",
							"type": "address"
						},
						{
							"internalType": "uint256",
							"name": "usageID",
							"type": "uint256"
						},
						{
							"internalType": "bool",
							"name": "consent",
							"type": "bool"
						}
					],
					"indexed": false,
					"internalType": "struct Vote",
					"name": "vote",
					"type": "tuple"
				},
				{
					"indexed": false,
					"internalType": "address",
					"name": "violatorAddress",
					"type": "address"
				}
			],
			"name": "Verification",
			"type": "event"
		},
		{
			"anonymous": false,
			"inputs": [
				{
					"indexed": false,
					"internalType": "address",
					"name": "violator",
					"type": "address"
				},
				{
					"indexed": false,
					"internalType": "string",
					"name": "message",
					"type": "string"
				}
			],
			"name": "ViolationDectected",
			"type": "event"
		},
		{
			"inputs": [
				{
					"internalType": "string[]",
					"name": "a",
					"type": "string[]"
				},
				{
					"internalType": "string[]",
					"name": "b",
					"type": "string[]"
				}
			],
			"name": "isStrArrayEqual",
			"outputs": [
				{
					"internalType": "bool",
					"name": "",
					"type": "bool"
				}
			],
			"stateMutability": "pure",
			"type": "function"
		},
		{
			"inputs": [
				{
					"internalType": "string",
					"name": "a",
					"type": "string"
				},
				{
					"internalType": "string",
					"name": "b",
					"type": "string"
				}
			],
			"name": "isStrEqual",
			"outputs": [
				{
					"internalType": "bool",
					"name": "",
					"type": "bool"
				}
			],
			"stateMutability": "pure",
			"type": "function"
		},
		{
			"inputs": [],
			"name": "retrieveResults",
			"outputs": [
				{
					"components": [
						{
							"internalType": "uint256",
							"name": "logID",
							"type": "uint256"
						},
						{
							"internalType": "address",
							"name": "violator",
							"type": "address"
						}
					],
					"internalType": "struct VerifiedResult[]",
					"name": "",
					"type": "tuple[]"
				}
			],
			"stateMutability": "view",
			"type": "function"
		},
		{
			"inputs": [
				{
					"internalType": "uint256",
					"name": "logID",
					"type": "uint256"
				}
			],
			"name": "verify",
			"outputs": [],
			"stateMutability": "nonpayable",
			"type": "function"
		}
	]
}